:020000040800F2
:100000000000022081630008715D0008735D000834
:10001000755D0008775D0008795D0008000000004C
:100020000000000000000000000000007B5D0008F0
:100030007D5D0008000000007F5D0008815D000814
:10004000D1630008D1630008D1630008D1630008C0
:10005000D1630008D1630008D1630008D1630008B0
:10006000D1630008D1630008D1630008D1630008A0
:10007000D1630008D1630008D1630008D163000890
:10008000D1630008D1630008D1630008D163000880
:10009000D1630008D1630008D1630008D163000870
:1000A000D1630008D1630008D1630008D163000860
:1000B000D1630008D1630008D1630008D163000850
:1000C000D1630008D1630008D1630008D163000840
:1000D000D1630008D1630008D1630008D163000830
:1000E000D1630008D1630008D1630008D163000820
:1000F000D1630008D1630008D1630008D163000810
:10010000D1630008D1630008D1630008D1630008FF
:10011000D1630008D1630008D1630008D1630008EF
:10012000D1630008D1630008855D0008915D000877
:10013000D16300080000000000000000D163000847
:10014000D1630008D1630008D16300089D5D0008F9
:10015000D1630008D1630008D1630008D1630008AF
:10016000D1630008D1630008D1630008D16300089F
:10017000D1630008D1630008D163000800000000CB
:1001800000000000D1630008000000000000000033
:10019000D16300080000000000000000D1630008E7
:1001A000000000000000000000000000D163000813
:1001B000D1630008D1630008D1630008D16300084F
:0401C000D1630008FF
:1001D00010B5054C237833B9044B13B10448AFF381
:1001E00000800123237010BDA0010020000000004A
:1001F0006072000808B5034B1BB103490348AFF315
:10020000008008BD00000000A4010020607200080A
:1002100001F0FF01102A2BDB10F0070F08D010F8B7
:10022000013B013A8B422DD010F0070F42B3F6D1BB
:10023000F0B441EA012141EA014122F007047FF0D4
:1002400000070023F0E80256083C85EA010586EA2B
:10025000010685FA47F5A3FA87F586FA47F6A5FA67
:1002600087F68EB9EED1F0BC01F0FF0102F0070273
:1002700032B110F8013B013A83EA010313B1F8D11E
:100280000020704701387047002D06BF35460338FF
:10029000073815F0010F07D1013015F4807F02BF38
:1002A000013015F4C03F0130F0BC0138704700BF89
:1002B00053B94AB9002908BF00281CBF4FF0FF31CD
:1002C0004FF0FF3000F07AB9ADF1080C6DE904CEC3
:1002D00000F006F8DDF804E0DDE9022304B0704721
:1002E0002DE9F0478C460D460446089E002B51D15F
:1002F0008A4217466DD9B2FA82FEBEF1000F0BD0CA
:10030000CEF1200C01FA0EF520FA0CFC02FA0EF7E1
:100310004CEA050C00FA0EF44FEA174A250CBCFB18
:10032000FAF81FFA87F90AFB18CC45EA0C4508FBD6
:1003300009F3AB420AD9ED1908F1FF3280F02381AD
:10034000AB4240F22081A8F102083D44ED1AA4B26C
:10035000B5FBFAF00AFB105544EA054400FB09F925
:10036000A14509D9E41900F1FF3380F00A81A145C4
:1003700040F2078102383C44A4EB090440EA0840FB
:100380000021002E61D024FA0EF400233460736043
:10039000BDE8F0878B4207D9002E54D0002186E8B3
:1003A00021000846BDE8F087B3FA83F1002940F048
:1003B0008E80AB4202D3824200F2FA80841A65EB4F
:1003C00003050120AC46002E3FD086E81010BDE8A2
:1003D000F08712B90127B7FBF2F7B7FA87FEBEF133
:1003E000000F34D1EB1B3A0C1FFA87FC0121B3FB41
:1003F000F2F8250C02FB183345EA03450CFB08F321
:10040000AB4207D9ED1908F1FF3002D2AB4200F23E
:10041000D1808046ED1AA3B2B5FBF2F002FB105575
:1004200043EA05440CFB00FCA44507D9E41900F19C
:10043000FF3302D2A44500F2B8801846A4EB0C04A6
:1004400040EA08409DE731463046BDE8F087CEF1EE
:10045000200405FA0EF307FA0EF720FA04F83A0C16
:1004600025FA04F448EA0308B4FBF2F14FEA184510
:1004700002FB11441FFA87FC45EA044501FB0CF31B
:10048000AB4200FA0EF409D9ED1901F1FF3080F00A
:100490008A80AB4240F2878002393D44EB1A1FFA52
:1004A00088F5B3FBF2F002FB103345EA034500FB8D
:1004B0000CF3AB4207D9ED1900F1FF386FD2AB4214
:1004C0006DD902383D44EB1A40EA01418FE7C1F192
:1004D000200722FA07F88B4005FA01F448EA0303E3
:1004E00020FA07FE4FEA134CFD404EEA040EB5FB1E
:1004F000FCF94FEA1E440CFB19551FFA83F844EA35
:10050000054509FB08F4AC4202FA01F200FA01FACF
:1005100008D9ED1809F1FF3043D2AC4241D9A9F115
:1005200002091D442D1B1FFA8EFEB5FBFCF00CFBCF
:1005300010554EEA054400FB08F8A04507D9E41819
:1005400000F1FF3529D2A04527D902381C4440EAE2
:100550000940A4EB0804A0FB02894C45C6464D4661
:1005600015D312D056B1BAEB0E0364EB050404FAAE
:1005700007F7CB401F43CC40376074600021BDE8D3
:10058000F0871846F8E69046E0E6C245EAD2B8EBB6
:10059000020E69EB03050138E4E72846D7E7404639
:1005A00091E78146BEE7014678E702383C4445E7DB
:1005B000084608E7A8F102083D442BE7704700BF52
:1005C00038B50E4A0E4B054618784FF47A73B3FBD4
:1005D000F0F31068B0FBF3F000F0AAF8044658B945
:1005E0000F2D09D8024629464FF0FF3000F05EF883
:1005F000044B20461D6038BD012038BDB8000020E6
:10060000000000200400002008B50B4B1A6842F4DB
:1006100000721A601A6842F480621A601A6842F422
:1006200080721A60032000F02FF80020FFF7C8FF47
:1006300005F0A0FA002008BD003C0240034A044B2C
:1006400011681B780B441360704700BFD80100206D
:1006500000000020014B1868704700BFD80100203F
:1006600038B50446FFF7F6FF631C1CBF054B1B782B
:10067000054618BFE418FFF7EDFF401B8442FAD887
:1006800038BD00BF00000020074AD36823F4E063B0
:100690001B041B0C43F0BF63000243F4003300F45F
:1006A000E0600343D360704700ED00E0174B30B5C6
:1006B000DC68C4F30224C4F10703251D042B28BF02
:1006C0000423062D4FF0010505FA03F303F1FF3370
:1006D0008CBF033C00241940A14005FA04F4013CFE
:1006E0002240002842EA01024FEA0212ADBF00F1A7
:1006F000604000F00F00064B00F56140B5BFD2B27C
:10070000D2B21A5480F8002330BD00BF00ED00E0E3
:1007100014ED00E0002808DB4209012300F01F006F
:1007200003FA00F0014B43F82200704700E100E0BB
:100730000138B0F1807F0AD2064B074A5860F02199
:1007400082F823100020072298601A607047012069
:10075000704700BF10E000E000ED00E00368DAB28F
:1007600023F47F7323F003031821103AB2FBF1F254
:100770000449032A88BF0433895C8365C165806DA1
:10078000704700BF7872000870B50446FFF762FF3B
:100790000546002C71D0002384F8343022680223EF
:1007A00084F83530136823F00103136021680B6867
:1007B000D8073CD40B68324D6268A0691D40A3681D
:1007C0001343E26813432269134362691343E269E6
:1007D00003431343226A1343626A042A43EA05036C
:1007E00001BF266BE56A35432B430B604B69042A36
:1007F00023F0070343EA02030BD1A26AE56A13431D
:100800003DB1F8B9012A2DD001D3022A01D1EA0164
:100810002BD44B612046FFF7A1FFE26D3F239340AD
:10082000836000200123606584F8353070BDFFF7D8
:1008300011FF401B0528B9D920236365032084F8E4
:10084000350070BDB0F5005F13D1032AE1D801A0D7
:1008500050F822F06B0800080F0800086B08000829
:1008600065080008B5F1C07FD3D14023636501203E
:10087000E5E7022AF9D9032AC8E7012070BD00BFC5
:100880003F8010F038B5054620B390F83540E4B20B
:10089000022C1DD003681A6822F0010200241A609D
:1008A00021221C605C609C60DC601C615A61FFF767
:1008B00055FFEA6DEC633F2393402C646C64AC6499
:1008C000EC642C6583606C6585F8344085F83540B0
:1008D000204638BD012038BD70B590F83440012C59
:1008E00032D0012480F8344090F83540866D012CD8
:1008F0004FF000054FF0020424D180F83540046821
:100900004565256825F48025256063608368402B54
:100910000EBFA260A160E260C26D08BFE1603F232C
:100920009340B360236843F016032360036C1BB14C
:10093000236843F008032360236843F00103236026
:10094000002070BD80F83450022070BDF7B5002340
:1009500001935A4B856D1F68C36D2E6808229A401B
:10096000164204460CD001680868400708D508689C
:1009700020F004000860AA60626D42F00102626526
:1009800001229A40164208D021684969090641BFF0
:10099000AA60626D42F00202626504229A40164229
:1009A00008D021680968880741BFAA60626D42F0DB
:1009B0000402626510229A40164210D0236819681A
:1009C00009070CD5AA601A68500335D51B681903AE
:1009D00001D4236C00E0A36C0BB120469847E16D75
:1009E00020228A40164238D023681868C60634D5BB
:1009F000AA6094F83520052A1A6825D122F016023B
:100A00001A605A6922F080025A61226C0AB9A26CFB
:100A10001AB11A6822F008021A603F238B40AB60BB
:100A2000002384F83430012384F83530236D0BB172
:100A30002046984703B0F0BD1A68D2055EBF1A6819
:100A400022F008021A60C4E7500328D51B68190376
:100A500032D4636C0BB120469847636D002BE9D00C
:100A6000636DDA0719D50523226884F835301368D9
:100A700023F0010313604FF41653B7FBF3F7019B08
:100A800001339F42019302D31368DB07F7D400239D
:100A900084F83430012384F83530E36CC7E71A68F2
:100AA00012F4807208D1196821F010011960012335
:100AB00084F8342084F83530E36BCBE7B8000020AD
:100AC0002DE9F04F85B00B68DFF8A081654ADFF8AB
:100AD000A091019300230124019D9C402540AC423C
:100AE00040F0AC804C6824F0100C0CF1FF36012E65
:100AF0004FEA430E12D88768032606FA0EF627EA55
:100B00000607CE6806FA0EF63E4386604768C4F3D1
:100B1000001627EA05079E403E4346600326C76845
:100B200006FA0EF6F64307EA060A8F6807FA0EF78A
:100B300047EA0A07BCF1020FC76016D14FEAD30A91
:100B400000EB8A0A03F0070BDAF820704FEA8B0BF0
:100B50004FF00F0C0CFA0BFC27EA0C0C0F6907FA8C
:100B60000BF747EA0C07CAF8207007683E4004F00C
:100B7000030707FA0EFE4EEA06060660E6005DD59C
:100B80004FF0000BCDF80CB0D8F84470364E47F457
:100B90008047C8F84470D8F8447007F4804703973A
:100BA000039F23F0030707F1804707F59C3703F005
:100BB000030CD7F808A04FEA8C0C4FF00F0E0EFA7A
:100BC0000CFEB0422AEA0E0E3FD006F58066B04217
:100BD0003DD006F58066B0423BD006F58066B04257
:100BE00039D006F58066B04237D0484537D006F593
:100BF0000066B04214BF0726062606FA0CF646EA3F
:100C00000E06BE601668EF4314F4803F0CBF3E40F2
:100C10002E431660566814F4003F0CBF3E402E432E
:100C20005660966814F4801F0CBF3E402E439660B9
:100C3000D668A40254BF3E402E43D6600133102B29
:100C40007FF449AF05B0BDE8F08F5E46D5E70126D9
:100C5000D3E70226D1E70326CFE70426CDE7052612
:100C6000CBE700BF003C01400000024000380240DA
:100C7000001402402DE9F04F3D4DDFF8FCA0DFF8F5
:100C8000FCB000234FF0010909FA03FC0CEA010251
:100C900094455CD123F0030606F1804606F59C36A8
:100CA00003F0030EB4684FEA8E0E0F2707FA0EF713
:100CB00004EA07082F4CA0424ED004F58064A042FD
:100CC0004CD004F58064A0424AD004F58064A04270
:100CD00048D004F58064A04246D0504546D05845DF
:100CE0000CBF0624072404FA0EF4A04510D12C688A
:100CF000D24314402C606C6814406C60AC681440A3
:100D0000AC60EC682240EA60B26822EA0707B7608C
:100D10005E0003220468B240D24314400460DC0841
:100D200000EB840403F0070E266A4FEA8E0E0F27AD
:100D300007FA0EF726EA07072762C4681440C46062
:100D4000446824EA0C0444608468224082600133D1
:100D5000102B99D1BDE8F08F0024C4E70124C2E72D
:100D60000224C0E70324BEE70424BCE70524BAE755
:100D7000003C014000000240001402400018024004
:100D80000AB1816170470904FBE7F0B504468BB0F6
:100D900060B390F8BD33056803F0FF021BB980F81B
:100DA000BC2305F0C7F8032384F8BD33EB6B25465D
:100DB00013F4807355F8100B08BF236102F054FA46
:100DC0000FCD6E460FC60FCD0FC695E8030086E81F
:100DD00003002546271D97E80E0055F8100B02F07A
:100DE00089F9064620B1022384F8BD33012556E077
:100DF0000146206802F03EFA3046D4F804E01C2692
:100E00004FF0010C0146C2B2964500F101001CD81A
:100E100000231C261946D8B2864503F1010322D8C7
:100E20000FCD6E460FC60FCD0FC695E8030086E8BE
:100E3000030097E80E00206802F05EFA01230546E1
:100E400000B3022284F8BD23D0E706FB024383F8F7
:100E50003DC083F83C20A3F8422083F83F1059643A
:100E600099641965CFE706FB004282F8FD1182F80C
:100E7000FC0182F8FF11C2F80412C2F80812C2F88D
:100E80001012C8E784F8380084F8BD33636A012B78
:100E900002D1204600F068FC206802F07BFD284665
:100EA0000BB0F0BD90F8BC33012B10B5044616D042
:100EB0000123006884F8BC33A36A012B06D1A3691F
:100EC000012B1EBF836B43F48033836302F056FD16
:100ED000206802F0C3F9002084F8BC0310BD022092
:100EE00010BD00002DE9F04F066887B0044630467B
:100EF00002F08BFD0290002840F03C81206802F057
:100F000055FD002800F03681206802F04FFD830770
:100F100048BF2268206842BF536903F0020353614F
:100F200002F044FD070300F12881206802F03EFD35
:100F300045030CD5206802F045FD2546834606F59D
:100F4000106A4FF00009BBF1000F40F0D681206815
:100F500002F02CFD002815DAD6F8043823F001033E
:100F6000C6F8043894F8F433012B40F05B8200217A
:100F700084F8F413204605F03FF92268536903F022
:100F800000435361206802F011FD05050BD5D6F82A
:100F90000838D80702D5204605F03CF82268536986
:100FA00003F400635361206802F000FD010114D5D1
:100FB00023685A6902F000625A6194F8F423002A07
:100FC00040F034825B6D0121C3F3830384F8F41392
:100FD000C4F8F833204605F00FF9206802F0E6FC6B
:100FE000C20435D506F500656B68206823F001035F
:100FF0006B60102102F056F9606806F510634FF639
:101000007F31029A824240F01582EB6943F001136E
:10101000EB61236B002B00F01F82D5F8843043F086
:101020000B03C5F884306B6C43F00B036B64D6F88C
:101030000038217C206823F4FE63C6F8003804F5EC
:10104000717202F001FD2268536903F48053536109
:10105000206802F0ABFC830416D5206802F0D9FCAE
:10106000206802F009FAE060256800F079FC227B34
:101070000146284602F07EF8204604F0B8FF2268B8
:10108000536903F400535361206802F08FFCC706D4
:101090002AD52268936923F010039361356AC5F35A
:1010A0004343022B05F00F0740F0E18147F6F07350
:1010B0001D4214D01C2303FB0747C5F30A152A461B
:1010C000D7F80812304602F0E3FBD7F808322B4479
:1010D000C7F80832D7F814321D44C7F814522268F2
:1010E000936943F010039361206802F05FFC0607E8
:1010F00007D5204604F077FF2268536903F0080300
:101100005361206802F052FCC50208D50021204638
:1011100004F0A0FF2268536903F480135361206830
:1011200002F044FC800208D50021204604F08EFF26
:101130002268536903F400135361206802F036FCFF
:10114000410007D5204604F089FF2268536903F067
:1011500080435361206802F029FC42070AD52368C6
:101160005D686B0702D5204604F07CFF23685A684F
:1011700015435D6007B0BDE8F08F2068DFF810B35D
:1011800002F018FC06F530658246A0460027BAF149
:10119000000F3FF4CAAE1AF0010F00F0A780FAB2B8
:1011A00011462068039202F015FC10F0010F8146F1
:1011B000039A4CD00123AB6023682069D3F840E048
:1011C00003F5306303EB47130128996854D10807EE
:1011D00014D5DE4504D90A0444BF4FF400429A6096
:1011E0002046039304F0E8FE04F5717201212068A3
:1011F00002F02AFC039B08229A6028E0880601D5A9
:101200002022F9E711F0280F21D1DE4504D9090485
:1012100002D54FF40042EFE71B69D8F80412C3F37C
:101220001203CB1AC8F81432D8F808321944C8F897
:1012300008122046114604F0C5FE47B9D4F8103212
:101240002BB904F571720121206802F0FDFB19F041
:10125000080F33D0236820691A6C03F5306303EB61
:1012600047130128996815D15A4516D9090444BF76
:101270004FF40041996010E08448864505D1080488
:10128000C7D4880644BF202199601146204604F047
:1012900099FEDCE77D488242E8D02046039204F0C4
:1012A0008BFE039A5A4507D92169012904D104F517
:1012B0007172206802F0C8FB0823AB6019F0100FB0
:1012C0001CBF1023AB6019F0200F09D02169012940
:1012D00004D104F57172206802F0B6FB2023AB60E4
:1012E00019F4005F1CBF4FF40053AB6001374FEAA5
:1012F0005A0A203508F11C0849E71BF0010F00F0DD
:1013000089805FFA89F319462068039302F06BFB2A
:10131000C307074624D5D6F834380399012009F0CD
:101320000F0200FA02F223EA0203C6F834382369F6
:10133000CAF80800834201BFAB6C6A6C9B18AB64AF
:10134000204604F048FE2169012909D1B9F1000FB6
:1013500006D1236D23B904F57172206802F074FB85
:10136000380744BF0823CAF80830F90644BF1023E1
:10137000CAF808307A0644BF4023CAF80830BB07D1
:1013800044BF0223CAF808303F0643D56B6D2F6D6A
:10139000BB423FD8FF1A6B6C226804929F4228BF61
:1013A0001F4602F51063033703EB4913BF0805938B
:1013B000059B6A6D9B699BB2BB422B6D28D3934200
:1013C00026D963B9049B09F00F01D3F83428012012
:1013D00000FA01F122EA0102C3F834281AE0A3EB73
:1013E00002086B6C039A0498984528BF9846237CA2
:1013F0000093A96C1FFA88F302F048F9AB6C4344E0
:10140000AB646B6D08F103074344BF086B65CFE71E
:101410009342D7D909F101094FEA5B0B1C350AF158
:10142000200A90E5204604F00DFEA6E5204604F0D3
:10143000F1FDD2E599601A6822F400121A60C3F82F
:101440000812D3F8002222F40012C3F80022029AF4
:10145000013202922033D4E56B6943F4005343F028
:101460002B036B612B6943F00B032B61DFE5062B2C
:101470007FF435AE082204F57171304602F008FAA7
:101480001C2303FB0747C5F30A1523E60A31544F13
:101490000A30544F90F8BC23012A10B504460BD0F3
:1014A000012280F8BC2384F83810006802F056FA54
:1014B000002084F8BC0310BD022010BD70B50446A6
:1014C00001F00F0011F0800F4FF01C06C5B206FBB3
:1014D000054115BF06FB054506FB05453C3101F5F9
:1014E000FE7115BF0126002685F83D6085F8FD6177
:1014F0008A604A78CB70C0B2087002B1C880022BF3
:1015000004BF00230B7194F8BC33012B09D00123D5
:1015100084F8BC33206801F0BAFF002084F8BC03D3
:1015200070BD022070BD01F00F03DAB210B50446A1
:101530001C2011F0800F00FB024119BF3C3100FB61
:10154000024200FB024201F5FE7115BF012000209E
:1015500082F83D0082F8FD010B7094F8BC33012B3A
:1015600009D0012384F8BC33206801F0D3FF0020A8
:1015700084F8BC0310BD022010BD38B501F00F0582
:101580001C2404FB050104FB050401F5FE71C4F8ED
:1015900010320023C4F80822C4F8143284F8FD3154
:1015A00084F8FC5103690068012B08BFC4F80C22C1
:1015B000DAB21DB901F0E0FF002038BD02F07AF880
:1015C000FAE71C2301F00F0103FB0101D1F814021B
:1015D000704738B501F00F051C2404FB050104FB1E
:1015E00005043C312365002363650123A26484F86C
:1015F0003D3084F83C5003690068012B08BFE26469
:10160000DAB21DB901F0B8FF002038BD02F052F87F
:10161000FAE738B5436801F00F059D4204462ED81D
:1016200011F0800F4FF01C021FD002FB050102FBDE
:10163000050301223C3381F83D2001229A701D7080
:1016400094F8BC1391421CD084F8BC23194620683E
:1016500002F02CF92DB904F57172217C206802F09A
:10166000F3F9002084F8BC0338BD02FB010302FB40
:101670000101002203F5FE7381F8FD21DDE7012061
:1016800038BD022038BD38B5436801F00F029A42D8
:10169000044626D81C2311F0800F03FB020119BF5A
:1016A0003C3103FB020301F5FE7103FB024314BF4F
:1016B000012000204FF0000514BF83F83D0083F89F
:1016C000FD018D700A7094F8BC33012B0BD00123FF
:1016D00084F8BC33206802F016F984F8BC5328461D
:1016E00038BD012038BD022038BD90F8BC33012B35
:1016F00010B5044611D0012380F8BC330B0608D581
:1017000001F00F01006801F0CDFD002084F8BC035A
:1017100010BD006801F0D8FDF7E7022010BD70B5DC
:101720000468636A21B943EA0243A362002070BDE2
:10173000A06A4D1E03EB10430020461CC0B2854238
:1017400006D83F3104EB810443EA02436360EDE7CE
:10175000403004EB8000406803EB10433046ECE778
:101760000368002059627047026803460121C0F8EF
:10177000FC13002083F8F403936943F00063936142
:10178000536D43F0805343F00303536570470000EB
:1017900070B50D4688B01646204CF0B90190236B09
:1017A00043F001032363236B059003F001030193CE
:1017B000019B07904FF4807303930223049303A9C2
:1017C000032317480693FFF77BF9A16821F0EC612A
:1017D00031432943A16008B070BD00230293226BFE
:1017E000104842F004022263226B059302F00402C7
:1017F0000292029A07934FF400720392022204921B
:1018000003A903220692FFF75BF9A36845EAC60124
:1018100023F078450D43A560DDE700BF00380240A6
:1018200000000240000802402DE9F0410D46044648
:1018300010B90120BDE8F081444B1A6802F00F0294
:101840008A4229D321688F072ED4C80741D43F4B41
:101850001A6802F00F02954267D3226851076DD4CF
:10186000130707D53A4A2169936823F4604343EA92
:10187000C103936000F0A2FA354B364A9B68C3F36C
:101880000313D35CD840344B1860344B1868FEF710
:1018900097FE0020BDE8F081CAB21A701B6803F001
:1018A0000F039942C5D1CDE7294B11F0040F1EBF9C
:1018B0009A6842F4E0529A600E0742BF9A6842F476
:1018C00060429A609A68A06822F0F00202439A602F
:1018D000BBE762681E4B012A1DD11B6813F4003F51
:1018E000A7D01B4EB36823F003031343B360FEF786
:1018F000B1FE41F288380746B368626803F00C0312
:10190000B3EB820FA3D0FEF7A5FEC01B4045F3D971
:101910000320BDE8F081911E01291B6802D813F055
:10192000007FDDE713F0020FDAE7EAB21A701B68F6
:1019300003F00F039D427FF47CAF8EE70449E0681B
:101940008B6823F4E05303438B6089E7003C02403B
:1019500000380240AC720008B800002004000020EB
:10196000014B1868704700BFB8000020044B054ABF
:101970009B68C3F38223D35C034A1068D840704746
:1019800000380240BC720008B8000020044B054A31
:101990009B68C3F34233D35C034A1068D840704756
:1019A00000380240BC720008B800002003682DE92E
:1019B000F74313F0010604460BD0AA49866BD1F811
:1019C0008C2022F0C0623243B6FA86F6C1F88C2031
:1019D00076099D070BD5A348E16BD0F88C2022F047
:1019E000C0520A430029C0F88C2008BF012613F01A
:1019F000040512D09B49256BD1F88C20B5F5801FCA
:101A000022F4401242EA050218BFB5FA85F5C1F882
:101A10008C2012BF6D090025012618070FD59148AB
:101A2000616BD0F88C2022F440020A43B1F5800F9C
:101A3000C0F88C2000F00981002908BF0125990613
:101A400033D500230193874B874F1A6C42F08052A5
:101A50001A641B6C03F080530193019B3B6843F4B1
:101A600080733B60FEF7F6FD80463B68DA0540F187
:101A7000EE807C4F3B6F13F4407340F0FB80236C8F
:101A800003F44072B2F5407F764A40F016819168C7
:101A900023F0704021F4F81120F44070014391606C
:101AA000116FC3F30B030B4313672368D90642BFBF
:101AB0006E4B94F858201A6023681A0608D56949B5
:101AC000E06CD1F8942022F440020243C1F8942043
:101AD0005F0608D56349A06CD1F8942022F080629B
:101AE0000243C1F89420D8050CD55E48616DD0F84A
:101AF000942022F000620A43B1F1006FC0F89420F4
:101B000008BF0125990508D55649606CD1F8942085
:101B100022F080520243C1F894205A0500F1D1808E
:101B2000012E40F0DC80524E4E4F00233360FEF712
:101B300091FD80463B681B0100F125812268D0079A
:101B400001D5A36B1BB1910715D5E36B9BB9454933
:101B5000D1F88430D1F8840003F4403300F0706091
:101B6000034360680343A06843EA8013606943EA63
:101B70000073C1F88430530703D5236BB3F5801F7E
:101B800005D0170720D5636BB3F5800F1CD13549FD
:101B9000D1F88430D1F8840003F4403300F0E04001
:101BA000034360680343A06843EA8013206943EA63
:101BB0000063C1F88430D1F88C00A36A20F01F00C4
:101BC000013B0343C1F88C3050051BD5236DB3F1A5
:101BD000005F17D123486768D0F88410D0F88430AC
:101BE00003F0E0433B43A768C1F30141013143EAFD
:101BF000871343EA4163E1684908013943EA014335
:101C0000C0F88430110511D52369A2681B0643EA88
:101C1000821362681343626943EA0273E2685208FE
:101C2000013A43EA02430F4AC2F884300123336089
:101C3000FEF710FD0B4E074633681A0153D4FEF72A
:101C400009FDC01B0228F7D908E00126F7E6FEF7D8
:101C500001FDA0EB080002287FF607AF032003B0C8
:101C6000BDE8F0830038024000700040E0114742B8
:101C700068004742226C02F4407293423FF4FFAE88
:101C80003B6F4B4A0121116023F440730021116026
:101C90003B673B6FDB077FF5F2AEFEF7DBFC41F203
:101CA000883980463B6F98073FF5E9AEFEF7D2FCD6
:101CB000A0EB08004845F5D9D0E7916821F4F81168
:101CC000EDE63C48216DD0F8942022F000520A4302
:101CD000B1F1005FC0F894207FF422AF23E7B3F5A1
:101CE000006F3FF420AF012D4BD1334D314E002317
:101CF0002B60FEF7AFFC074633689B004BD421688E
:101D00004E0701D5236B1BB108071AD5636BC3B906
:101D1000284AA069D2F8883003F440330343E069CD
:101D200043EA8013606A43EA0063C2F88830D2F85D
:101D30008C30E06A23F4F853013843EA0023C2F8F8
:101D40008C30CA0514D5636DB3F1006F10D11949F9
:101D5000A269D1F8883003F070631343E26943EA63
:101D60008213226A5208013A43EA0243C1F88830DA
:101D700001232B60FEF76EFC0E4C054623689B008A
:101D80000FD500206BE7FEF765FCA0EB08000228EA
:101D90007FF6D0AE62E7FEF75DFCC01B0228ABD930
:101DA0005CE7FEF757FC401B0228E7D956E700BF67
:101DB000400E47420038024070004742204908B5B3
:101DC0008B6803F00C03082B07D00C2B20D01D4A86
:101DD0001D48042B18BF104608BD4A684B68496867
:101DE00013F4800314BF18481648C1F3881118BFB4
:101DF000002302F03F02A1FB0001FEF759FA104B4D
:101E00005B68C3F3014301335B00B0FBF3F008BD33
:101E10004A684B68496813F4800314BF0A480948AC
:101E2000C1F3881118BF002302F03F02A1FB00019B
:101E3000FEF73EFA024B5B68C3F30273E5E700BFAF
:101E4000003802400024F40040787D0103682DE949
:101E5000F341DF07044610D423689E0767D4236844
:101E60001A0700F1B28023685B0700F1D080A269F5
:101E7000002A40F0398100201EE0974B9A6802F05A
:101E80000C02042A10D09A6802F00C02082A02D12F
:101E90005B685D0208D4904B9A6802F00C020C2A31
:101EA0000DD15A6850020AD58B4B1B689903D3D5C4
:101EB0006368002BD0D1012002B0BDE8F0816268D8
:101EC000B2F5803F11D11A6842F480321A60FEF7F1
:101ED000C1FB814D06462B689A03BDD4FEF7BAFBC1
:101EE000801B6428F7D90320E6E77B4DB2F5A02FCD
:101EF0002B6807D143F480232B602B6843F4803395
:101F00002B60E4E723F480332B602B6823F48023D9
:101F10002B60002ADBD1FEF79DFB06462B689B0356
:101F20009AD5FEF797FB801B6428F7D9DBE76A4B4D
:101F30009A6812F00C0F10D09A6802F00C02082A6E
:101F400002D15B685F0208D5634A936803F00C0313
:101F50000C2B11D153685E020ED45F4B1A689507A3
:101F600002D5E268012AA6D11A68216922F0F80296
:101F700042EAC1021A6072E7E268584BB2B101222C
:101F80001A60FEF767FB544D06462B68980707D585
:101F90002B68226923F0F80343EAC2032B605EE753
:101FA000FEF758FB801B0228EFD99CE71A60FEF76A
:101FB00051FB494D06462B6899077FF550AFFEF758
:101FC00049FB801B0228F6D98DE76269444B7AB140
:101FD00001221A60FEF73EFB3F4D06466B6F9F07DE
:101FE0003FF541AFFEF736FB801B0228F6D97AE7B2
:101FF0001A60FEF72FFB384D06466B6F98077FF58A
:1020000032AFFEF727FB801B0228F6D96BE7324B75
:102010001A6C12F0805228D101921A6C42F0805250
:102020001A641B6C03F080530193019B01262D4D14
:102030002B68D9051BD5A368274D012B27D12B6F02
:1020400043F001032B67FEF705FB234D074641F2E2
:1020500088382B6F9B0739D5002E3FF408AF1E4AF6
:10206000136C23F08053136401E70026DFE72B682D
:1020700043F480732B60FEF7EDFA07462B68DA0510
:10208000D9D4FEF7E7FAC01B0228F7D92BE7052BB6
:1020900004D12B6F43F004032B67D0E72A6F22F0A3
:1020A00001022A672A6F22F004022A67002BCAD194
:1020B000FEF7D0FA41F2883807462B6F9807CBD548
:1020C000FEF7C8FAC01B4045F7D90CE7FEF7C2FA85
:1020D000C01B4045BDD906E700380240000047421A
:1020E000800E474200700040234DAB6803F00C03A4
:1020F000082B3FF4E0AE214E0023022A33602DD19D
:10210000FEF7A8FA07462B68990121D4226AE369F1
:102110001343626A43EA8213E26A43EA0263226B70
:1021200043EA0273A26A144C5208013A43EA02439A
:102130006B6001233360FEF78DFA054623689A0130
:102140003FF599AEFEF786FA401B0228F6D9CAE69B
:10215000FEF780FAC01B0228D5D9C4E6FEF77AFA4A
:1021600004462B689B017FF586AEFEF773FA001BD1
:102170000228F6D9B7E600BF0038024060004742A7
:10218000F8B504460E4615461F4621688A6836EAA9
:10219000020301D00020F8BD6B1CF7D0FEF75AFAFD
:1021A000C01B8542F1D823685A6822F0E0025A60C9
:1021B0006268B2F5827F0AD1A268B2F5004F02D000
:1021C000B2F5806F03D11A6822F040021A60A26A49
:1021D000B2F5005F07D11A6822F400521A601A683B
:1021E00042F400521A60012384F85130002384F82D
:1021F00050300320F8BD38B513464268B2F5827FEF
:1022000004461FD18268B2F5004F02D0B2F5806F4C
:1022100007D125682868B2F5806F20F0400028605B
:1022200007D00A4680212046FFF7AAFF20B90020E8
:1022300038BD0A460121F6E7636D43F0200363656C
:10224000032038BD0A460121EEE7000073B51346AE
:10225000134A144E15684268B5FBF6F64FF47A75CA
:102260007543B2F5827F044601950DD10A4680215F
:10227000FFF786FF10B9002002B070BD636D43F018
:10228000200363650320F7E7019B002BF3D0019B3C
:10229000013B019323689B681B06F5D4EBE700BF65
:1022A000B800002000366E0110B50446002836D074
:1022B0000023836290F8513003F0FF021BB980F8CD
:1022C000502003F073FC2168A068A269022384F8FF
:1022D00051300B6823F040030B6063680343E068F0
:1022E00003432069034360690343E0690343206AB1
:1022F0000343A06A034302F4007003430B60120C13
:10230000636A02F004021A434A60CB6923F4006353
:10231000CB6100200123606584F8513010BD01209D
:1023200010BD10B5044680B10268022380F8513018
:10233000136823F04003136003F0ACFC00206065D9
:1023400084F8500084F8510010BD012010BD2DE923
:10235000F3411E4690F85030012B04460D4690463E
:1023600000F09B80012380F85030FEF773F9074698
:1023700094F85100C0B2012840F08D80002D5DD04E
:10238000B8F1000F5AD0032384F851300020A3681D
:102390006065A063A4F83680A087E087606420644D
:1023A00020682563B3F5004F08BF0368A4F83480A4
:1023B00004BF43F48043036003685B065EBF0368A9
:1023C00043F040030360E368B3F5006F63683ED1F8
:1023D00013B1B8F1010F07D135F8023BC360256393
:1023E000E38E013B9BB2E386E38E9BB2A3B93A46F0
:1023F00031462046FFF72AFF002849D1A36833B9A8
:1024000001932368DA6801929B680193019B606DD8
:10241000003018BF012011E022689368980705D5A5
:10242000236B33F8021BD1602363D9E7FEF712F95F
:10243000C01BB042D8D3711CD6D00320012384F82E
:102440005130002384F8503002B0BDE8F08113B160
:10245000B8F1010F08D12B780373236B0133236389
:10246000E38E013B9BB2E386E38E9BB2002BBED092
:1024700023689A68920703D5226B12781A73ECE7E7
:10248000FEF7E8F8C01B8642EED8731CECD0D4E708
:1024900020236365B2E70220D0E70220D4E72DE9CC
:1024A000F7431E4690F850300A9F012B04460D4614
:1024B000914600F0E280012380F85030FEF7CAF820
:1024C00094F851306168DBB2012B80460AD0B1F537
:1024D000827F40F0D080A068002840F0CC80042BA0
:1024E00040F0C980002D00F0C480B9F1000F00F069
:1024F000C080002E00F0BD8094F85130C4F83890B0
:10250000042B1CBF052384F851300023636523642A
:1025100063642368E687E6861A68A687500658BF74
:102520001A68256358BF42F04002A68658BF1A6059
:10253000E268B2F5006F58D109B1012E07D135F824
:10254000022BDA60E38E2563013B9BB2E386012513
:10255000E38E9BB2ABB9E38F9BB293B94246394647
:102560002046FFF773FE002840F08180A368002B0F
:1025700032D123680190DA6801929B680193019B34
:102580002AE02268936899070DD5E38E9BB253B178
:102590004DB1236B33F8021BD1602363E38E013B03
:1025A0009BB2E38600259368DB070CD5E38F9BB2D3
:1025B0004BB1A36BD26823F8022BA363E38F013BDB
:1025C0009BB2E3870125FEF745F8A0EB08008742A0
:1025D000BED87E1CBCD00320012384F851300023D8
:1025E00084F8503003B0BDE8F08309B1012E08D162
:1025F0002A781A73236B01332363E38E013B9BB26A
:10260000E3860125E38E9BB21BB9E38F9BB2002BBF
:10261000A4D02268936898070ED5E38E9BB25BB175
:1026200055B1236B1B781373236B01332363E38E44
:10263000013B9BB2E386002522689368D9070DD53C
:10264000E38F9BB253B1A36BD2681A70A36B0133B3
:10265000A363E38F013B9BB2E3870125FDF7FAFFFC
:10266000A0EB08008742CDD87B1CCBD0B3E720235A
:1026700063650120B0E70220AEE70220B2E72DE952
:10268000F3411D464368B3F5827F044688461746EA
:102690000CD1836853B9042380F851301346009558
:1026A0000A46FFF7FCFE02B0BDE8F08194F8503016
:1026B000012B79D0012384F85030FDF7CBFF06467B
:1026C00094F85100C0B201286CD1B8F1000F57D076
:1026D000002F55D0042384F8513000236365236311
:1026E000E787A386E38623646364A368A787B3F5BB
:1026F000004F2368C4F8388002BF1A6822F4804271
:102700001A601A6857065EBF1A6842F040021A60E3
:10271000E368F3B1E38F9BB2FBB123689A68D207F9
:1027200035D5DA68A36B23F8022BA363E38F013B53
:102730009BB2E387EEE723689A68D00718D5A26BAF
:102740001B7B1370A36B0133A363E38F013B9BB22D
:10275000E387E38F9BB2002BEDD13246294620461A
:10276000FFF749FDD8B9606D003018BF012007E0C0
:10277000FDF770FF801B8542EBD8691CE9D0032070
:10278000012384F85130002384F850308BE7FDF7A3
:1027900061FF801B8542BDD86B1CBBD0EFE72023B7
:1027A0006365E0E70220EBE702207CE790F8503019
:1027B000012B10B504464ED0012380F8503090F81C
:1027C0005100C0B2984244D100292DD0002A2BD00C
:1027D000032384F8513000236365A363E2866364B6
:1027E000E3872364A387A368A2862268A06C216381
:1027F000B3F5004F02BF136843F480431360174BD7
:102800000364174BC363174BC36400230365E38E54
:102810000C329BB2FEF760F850B1636D012043F0BB
:102820001003636584F85100002384F8503010BD14
:1028300023681A6852065EBF1A6842F040021A60A6
:102840005A6842F020025A605A6842F002025A6006
:10285000EAE70220E8E7022010BD00BF572A00087F
:102860009D2A00087B2A000838B5044690F85000DD
:10287000012872D0012084F8500094F85100C0B2B1
:10288000012808D06568B5F5827F62D1A568002D62
:102890005FD104285DD100295DD0002A5BD0002BD8
:1028A00059D094F85100A38604281CBF052084F851
:1028B000510000206065E386E387A38794F85130D8
:1028C0002064042B6064E06C0CBF254B254B216316
:1028D000A2630BBF03640364234B244BC363244BE9
:1028E000C364002303652168E38F0C319BB2FDF7BD
:1028F000F3FF034650B1636D012043F0100363659D
:1029000084F85100002384F8503038BD2268A06C50
:10291000516841F0010151600364C363C3640365FE
:10292000E38E216B9BB20C32FDF7D6FF0028E2D17B
:1029300023681A6852065EBF1A6842F040021A60A5
:102940005A6842F020025A605A6842F002025A6005
:10295000D8E70220D6E70120D4E7022038BD00BF27
:10296000632A00086F2A0008072B0008592B00086B
:102970007B2A00081346826870B504460D465AB992
:102980004668B6F5827F07D1042280F85120BDE861
:1029900070400A46FFF768BF94F8501001294ED0E6
:1029A00094F851000121C0B2884284F8501044D1FB
:1029B000002D2DD0002B2BD0042184F851100021A4
:1029C00061652164E3876164E186A1862168A3874C
:1029D000B2F5004F08BF0B68E06CA56304BF23F499
:1029E00080430B60174B0364174BC363174BC364DF
:1029F00000230365E38F2A469BB20C31FDF76CFF81
:102A000050B1636D012043F01003636584F85100F9
:102A1000002384F8503070BD23681A6852065EBFE8
:102A20001A6842F040021A605A6842F020025A6066
:102A30005A6842F001025A60EAE70220E8E7022001
:102A400070BD00BF632A0008072B00087B2A00081E
:102A500070477047704708B5806BFFF7FBFF08BDF4
:102A6000704708B5806BFFF7FBFF08BD704708B5DE
:102A7000806BFFF7FBFF08BD7047806B026808B5ED
:102A8000536823F003035360436D43F01003436521
:102A9000012380F85130FFF7EFFF08BD37B5054639
:102AA000846BFDF7D7FD2B681B68DB05024626D437
:102AB0002368596821F020015960596821F002010A
:102AC000596020466421FFF7C1FB18B1636D43F0E4
:102AD00020036365A36833B901932368DA68019220
:102AE0009B680193019B0023E386012384F8513006
:102AF000636D23B12046FFF7BFFF03B030BD204612
:102B0000FFF7A6FFF9E738B50546846BFDF7A2FD90
:102B10002B681B68DB0502461AD42368596821F02C
:102B200020015960596821F0030159602046642151
:102B3000FFF761FB08B1202363650023E3870123CE
:102B400084F85130636D1BB12046FFF795FF38BD07
:102B5000204603F029F938BD38B50546846BFDF7EA
:102B600079FD2B681B68DB0502461ED421684B6883
:102B700023F020034B6020466421FFF767FB18B168
:102B8000636D43F0200363652268536823F00303F9
:102B900053600023E386E387012384F85130636D9B
:102BA0001BB12046FFF768FF38BD2046FFF751FFF5
:102BB00038BD0000304A0368904212D0B0F1804F17
:102BC0000FD0A2F57C4290420BD002F58062904279
:102BD00007D002F58062904203D002F5784290421D
:102BE00019D14A6823F070031343234A904229D035
:102BF000B0F1804F26D0A2F57C42904222D002F55F
:102C0000806290421ED002F5806290421AD002F596
:102C10007842904216D0194A904213D002F5806251
:102C200090420FD002F5806290420BD0A2F598320C
:102C3000904207D002F58062904203D002F5806294
:102C4000904203D1CA6823F4407313434A6923F0C6
:102C50008003134303608B68C3620B688362064B77
:102C6000984203D003F58063984201D10B69036356
:102C700001234361704700BF000001400040014054
:102C800010B50446A0B190F83D3003F0FF021BB927
:102C900080F83C2003F01CF8022384F83D302068C3
:102CA000211DFFF787FF012384F83D30002010BD70
:102CB000012010BD10B584680A4324F47F4442EA21
:102CC00003232343836010BD90F83C30012B70B583
:102CD00004464FF0020019D084F83D00206801231B
:102CE00084F83C30836823F47F4323F077038360C8
:102CF0000B68402B65D015D8102B0CD007D853B1DA
:102D00000123002084F83D3084F83C0070BD202B66
:102D100001D0302BF4D1826843F0070322F0700217
:102D200013431AE0602B34D019D8502BE8D14A68ED
:102D3000CE68016A056A25F001050562836921F004
:102D40000A0123F0F00343EA06130A438361026297
:102D5000836823F0700343F057038360D0E7702B40
:102D60000CD0B3F5005FCBD1CB684A688968FFF718
:102D7000A1FF2268936843F4804308E0CB684A6867
:102D80008968FFF797FF2268936843F077039360A1
:102D9000B6E74D68CE68016A21F0100101628269D0
:102DA000036A22F4704223F0A00343EA051342EAC7
:102DB000063282610362836823F0700343F0670385
:102DC000CBE74A68CE68016A056A25F0010505620D
:102DD000836921F00A0123F0F00343EA06130A4352
:102DE00083610262836823F0700343F04703B4E712
:102DF00090F83C30012B30B54FF0020335D080F80D
:102E00003D3003680D685C6824F0700401222C4397
:102E100080F83C209A685C60154CA3421AD0B3F14C
:102E2000804F17D0A4F57C44A34213D004F58064EE
:102E3000A3420FD004F58064A3420BD004F578447C
:102E4000A34207D004F57054A34203D0A4F59434F0
:102E5000A34204D1496822F080020A439A60012308
:102E600080F83D30002380F83C30184630BD00BF6C
:102E70000000014038B50368C1681A69044622F4AD
:102E800040520A431A612569A268D968C0692A4379
:102E9000656921F416412A4321F00C0102430A43DB
:102EA000DA605A69A16922F440720A43B0F5004F12
:102EB0005A61254A29D1934203D002F58062934298
:102EC00020D1FEF763FD6268256892184FF0000379
:102ED0004FF019015B41A0FB0101FDF7E9F9642105
:102EE000B0FBF1F401FB1403DB003233B3FBF1F36D
:102EF00003F007025B0002EB041203F4F8731344BF
:102F0000AB6038BDFEF732FDDDE7934202D00F4AD9
:102F1000934216D1FEF73AFD6368256819219A009D
:102F2000A0FB01019B0FFDF7C3F96422B0FBF2F196
:102F300002FB11031B013233B3FBF2F303EB01136A
:102F4000DEE7FEF713FDE7E7001001400014014043
:102F5000F8B504460E4617461D4621680B6836EA4A
:102F6000030301D10020F8BD6B1CF7D095B923688D
:102F7000DA6822F4D072DA605A6922F001025A61EA
:102F8000202384F8393084F83A30002384F838302C
:102F90000320F8BDFDF75EFBC01B8542DDD2E6E7EE
:102FA00010B5044660B390F8393003F0FF021BB946
:102FB00080F8382002F0A4FE2268242384F83930F7
:102FC000D36823F40053D3602046FFF753FF2368F0
:102FD0001A6922F490421A615A6922F022025A6157
:102FE0005A6942F008025A61DA6842F40052DA6023
:102FF00000202023E06384F8393084F83A3010BD93
:10300000012010BD2DE9F8431F4690F83930202BE0
:1030100004460D46904651D100294CD0002A4AD092
:1030200090F83830012B49D0012380F838304FF028
:1030300000092123C0F83C9080F83930FDF70AFBE5
:10304000A4F824800646A4F8268084F83890E38CFF
:103050009BB25BB93B46324640212046FFF778FFE2
:10306000A0B9202384F83930BDE8F883E38C013B14
:103070009BB2E384A368B3F5805F32463B464FF0D2
:10308000800120460ED1FFF763FF10B10320BDE899
:10309000F8832B882268C3F308035360236943B97C
:1030A0000235D4E7FFF754FF0028EFD123682A78D0
:1030B0005A600135CBE70120BDE8F8830220BDE866
:1030C000F88300000A4B013B01D1032070470269DD
:1030D000002AF8DA0369064A43F001030361013A62
:1030E000F3D0036913F00103F9D11846704700BF0C
:1030F000410D030084B038B505AD85E80E000A9B8C
:10310000012B044625D1836B23F480338363C3688A
:1031100023F4840323F04003C360C36823F4401303
:10312000C360119B012B02BFC36843F48013C360CB
:10313000FFF7C8FF089B012B07D1A36843F00603E4
:10314000A360A36843F02003A360BDE8384004B047
:103150007047C36843F04003C360FFF7B3FF0E9BA3
:1031600023B9A36B43F48033A363E3E7A36B23F496
:103170008033F9E7022A58D12E4B2F4A0B44934251
:1031800047D92E4B2E4A0B44934244D9A1F57403E0
:103190002C4AA3F5105393423FD9A1F1837302F552
:1031A000C332A3F5E743A032934238D9264B274ACE
:1031B0000B44934235D9264B02F592220B4402F57B
:1031C000787293422FD9234B02F5C3220B4402F5A8
:1031D0002072934229D9A1F1B77302F5B712A3F572
:1031E000585302F55872934221D91B4B02F5122213
:1031F0000B4402F5F862934294BF07230623C2688A
:1032000022F47052C260C26842EA8323C360002085
:1032100070470F23F3E70E23F1E70D23EFE70C23AD
:10322000EDE70B23EBE70A23E9E70923E7E70823A8
:10323000E5E700BF405327FFFF340C00401E1BFF93
:103240003F420F007F4F120060B6E5FE5FE31600BD
:1032500000D3CEFEC05BB3FEE05459FE836843F05A
:103260000103836000207047836823F001038360BB
:103270000020704708B5C368012923F0C043C3602C
:1032800008D1C36843F00053C3603220FDF7E8F96A
:10329000002008BD19B9C36843F08043F4E701205A
:1032A00008BD0000890141F02001064A0161013A90
:1032B00005D0036913F02003F9D1184670470320A5
:1032C000704700BF410D03001023064A0361013A15
:1032D00005D0036913F01003F9D118467047032095
:1032E000704700BF410D0300D0F800381943C0F803
:1032F000001800207047000084B02DE9F047044614
:1033000009A880E80E0000230C9F139E88461946EA
:1033100003F1400204EB820201330F2B5160F7D11D
:10332000A36B002E72D123F40013A363236843F030
:1033300040032360236843F0800323600023C4F824
:10334000003ED4F80038C4F800380E9B012B04F579
:10335000006561D10B9900295CD12046FFF7C4FFBD
:1033600010212046FFF79EFF01462046FFF7ACFFE5
:10337000002853D1081C18BF012000232B6104F53D
:1033800010626B611946EB614FF0904E4FF0006C8C
:103390004FF67F39434543D1002104F530628E4614
:1033A0004FF0904C4FF000684FF67F398B424AD176
:1033B0002B69012F23F480732B6107D12C4B2B63D6
:1033C0002B6B43F4803343F003032B630023A3618F
:1033D0006FF0804363611FB9A36943F01003A361D9
:1033E000A269244B1343A3610F9B1BB1A36943F054
:1033F0000803A361012E01BFA36943F0804343F09A
:103400000403A361BDE8F04704B0704743F4001320
:10341000A36393E71946A0E703219EE70120ACE7E9
:10342000D2F800A0BAF1000F0BDA3BB9C2F800C025
:1034300011610133C2F808902032ABE7C2F800E016
:10344000F6E71160F4E7D2F800A0BAF1000F0CDA49
:1034500041B9C2F80080C2F810E00131C2F808900A
:103460002032A3E7C2F800C0F5E7C2F800E0F2E7B7
:103470000001800000383C80D0F8083813F00600C6
:1034800004D013F0020F14BF02200F20704770B554
:103490004A780C78D0F81C6800F50063012A04F023
:1034A0000F051BD1AA40324300EB4410DA61D0F87B
:1034B00000391A0410D48B68C978D0F80029C3F3F6
:1034C0000A0343F0805343F4004343EA814343EA51
:1034D00084531343C0F80039002070BD4FF480328C
:1034E000AA40324300EB4410DA61D0F8003B1B04E1
:1034F000F2D48B68C978D0F8002BC3F30A0343F0E9
:10350000805343F4004343EA81431343C0F8003B34
:10351000E2E7000030B54B780C78D0F83C1800F5A5
:103520000062012B04F00F0510D1AB40DB431940C2
:10353000D163D16900EB44100B40D361D0F800296E
:103540000B4B1340C0F80039002030BD4FF48033DE
:10355000AB40DB431940D163D16900EB44100B4011
:10356000D361D0F8002B034B1340C0F8003BEBE7CE
:10357000007833EC0078F3EFF0B54B780C784E69B7
:10358000414F012B4FF0200359D113FB040336BBED
:10359000D3F8105925F0FF5525F4C015C3F810597C
:1035A000D3F8105945F40025C3F81059D3F8105931
:1035B0002F40C3F81079012A4FF0200329D10A695E
:1035C0001AB113FB0403C3F8142900EB4410D0F81C
:1035D000002942F00442C0F800290020F0BD03F5A4
:1035E00010631D692F401F611D6925F0FF5525F4EB
:1035F000C0151D618D68AE4288BF4D611D6945F4DF
:1036000000251D614D691E69C5F3120535431D6115
:10361000D1E713FB0404D4F8003943F00443C4F8A1
:1036200000394B69002BD8D00A78D0F8343802F032
:103630000F0101228A401A43C0F83428CDE713FB5A
:10364000040000F530631C6927401F611C6924F0E9
:10365000FF5424F4C0141C618C6806B14C611D69D0
:1036600045F400251D611D69C4F312042C43012A91
:103670001C6102D1CA6802B15A61D0F8003B43F024
:103680000443C0F8003BA8E70000F8FF10B59DF820
:1036900008404CB9033300EB023023F0030300F57C
:1036A00080500B44994201D1002010BD51F8042BE9
:1036B0000260F7E7F7B54B780E78734F012B4FF0A8
:1036C00020044B6914FB060440F09880002B38D18D
:1036D00004F51065D4F8104924F0FF5424F4C01404
:1036E0002C612C6944F400242C612C6927402F6143
:1036F000012A4FF0200454D10B691BB114FB0604BE
:10370000C4F81439CB78012B10D1D0F8083813F451
:10371000807F4FF0200313FB0603D3F800290CBF72
:1037200042F0005242F08052C3F8002900EB4610EC
:10373000D0F8003943F00443C0F80039002003B04A
:10374000F0BDD4F810592F40C4F81079D4F81059AE
:103750008F6825F0FF5525F4C015C4F81059DD1900
:10376000013DB5FBF7F7494DD4F810E905EAC74527
:1037700045EA0E05C4F81059D4F81079C3F31205C0
:103780003D43C4F81059CD78012D04F51064AFD134
:10379000256925F0C0452561256945F0005525615D
:1037A000A6E714FB0604D4F8005945F00445C4F814
:1037B0000059CD78012D0CD0002BBFD00B78D0F85C
:1037C000344803F00F02012393402343C0F83438F8
:1037D000B4E7D0F8085815F4807FD4F800590CBF2E
:1037E00045F0005545F08055C4F800590C7800921A
:1037F0009BB22246C968FFF749FF9FE704F5306690
:1038000035692F403761356925F0FF5525F4C0151E
:1038100035618D6823BB3369C5F312051D433561DE
:10382000336943F40023012A336102D1CB6803B129
:103830007361CB78012B0CD1D0F8083813F4807F5A
:10384000D4F8003B0CBF43F0005343F08053C4F85E
:10385000003BD4F8003B43F00443C4F8003B6DE761
:103860000A4FD6F810E02B44013BB3FBF5F307EA0F
:10387000C34747EA0E0737619BB237696B43C3F30F
:1038800012033B43CFE700BF0000F8FF0000F81F22
:10389000033222F003020A4400F58050914201D124
:1038A00008467047036841F8043BF7E74B780A780D
:1038B000012B4FF0200313FB020012D1D0F8003986
:1038C000002B06DB2AB1D0F8003923F08043C0F882
:1038D0000039D0F8003943F40013C0F80039002053
:1038E0007047D0F8003B002B06DB2AB1D0F8003B34
:1038F00023F08043C0F8003BD0F8003B43F40013B2
:10390000C0F8003BEBE74B780A78012B4FF020031F
:1039100013FB020011D1D0F8003923F40013C0F8D2
:103920000039CB78023B012B05D8D0F8003943F0A1
:103930008053C0F8003900207047D0F8003B23F4D2
:103940000013C0F8003BCB78023B012B9EBFD0F8A0
:10395000003B43F08053C0F8003BECE7D0F8003860
:1039600023F4FE63C0F80038D0F80038090101F4F0
:10397000FE611943C0F800180020704708B5D0F860
:10398000043823F00203C0F804380320FCF768FE73
:10399000002008BD08B5D0F8043843F00203C0F891
:1039A00004380320FCF75CFE002008BD42698069F2
:1039B00010407047D0F8183800F50060C069184012
:1039C000000C7047D0F8183800F50060C069184046
:1039D00080B2704700EB411100F50060D1F8082B70
:1039E00040691040704710B5D0F81048D0F834380E
:1039F00000EB411001F00F01CB4000F51060DB013E
:103A00008068DBB22343184010BD406900F001001C
:103A10007047D0F8003923F4FF6323F00703C0F8A0
:103A2000003900F500639A6802F00602042A02BF1A
:103A3000D0F8002942F00302C0F800295A6842F485
:103A400080725A600020704710B5164B046C9C427F
:103A500003D9D0F8003B002B21DB0024C0F8104B29
:103A6000D0F8104B44F40024C0F8104BD0F8104BA1
:103A700044F01804C0F8104BD0F8104B012944F062
:103A8000C044C0F8104B08BFC0F8142B00F53063D9
:103A900002BFD0F8003B43F08023C0F8003B002079
:103AA00010BD00BF0A30544F2023038000487047E8
:103AB0006000002020230380004870474000002061
:103AC00020230380004870478C0000200A230380D5
:103AD000004870478000002038B5037C0446E3B9F5
:103AE0004FF4007302220121012502F0FBFAC4F811
:103AF00058514FF4007302228121204602F0F2FA5D
:103B0000E5624FF41B7002F08FFCC4F8900270B1B4
:103B1000204600F0EAF8002038BD402302220121AF
:103B2000012502F0DFFAC4F858514023E3E70220F0
:103B300038BD38B504460121002502F0E3FA8121A1
:103B4000C4F85851204602F0DDFA2046E56200F044
:103B5000F7F8D4F8900218B102F06EFCC4F8905255
:103B6000002038BD2DE9F3410023ADF806300B7875
:103B7000D0F8907213F0600204460E462DD0202A31
:103B800004D14A78FE2A05D0FF2A18D001F0BBFAEA
:103B900002201FE04D88002D75D1B1F80680B8F1E4
:103BA000010F70D11A066ED5D0F894329B699847F0
:103BB000424638603946204601F0CCFA09E04A888E
:103BC000002A60D1CD88002D5DD11B065BD400F0AA
:103BD000ACF8002002B0BDE8F0814B780B2B52D836
:103BE000DFE803F0061C51515151515151510E154E
:103BF00090F87432032B46D102220DF10601DAE768
:103C000090F87432032B3ED10122391DD3E790F88E
:103C10007432032B37D18B787B60DAE7097902F0B5
:103C20007FFA3179204602F06DFAB388227C1421A4
:103C300013F0800F03F00F0301FB03434FF000016B
:103C400011D099616AB94FF4007302228121204694
:103C500002F048FA0123E3623179204600F01AF9B4
:103C6000B7E74023F1E7C3F8441152B94FF40073AA
:103C700002220121204602F035FA0123C4F858310E
:103C8000EAE74023F4E7314620467FE708B500F035
:103C900079F8002008BD08B500F090F8002008BDB4
:103CA00009B1C0F894120020704770B5D0F8904266
:103CB00094F8183205463BB9D4F8143223B1637A2C
:103CC00013B9012102F03AFA8121284602F036FAAE
:103CD000637A022B08D104F5037228461F230121C1
:103CE000BDE8704002F076BA70BD70B5D0F8905261
:103CF000044600202872687285F85D0285F85C022F
:103D0000D4F894321B6898470121204602F008FA43
:103D10008121204602F004FA05F5037220461F2394
:103D20000121BDE8704002F055BAD0F8902200237E
:103D30000121137251721F2302F5037202F04ABA75
:103D4000D0F8903200221A727047000070B5D0F897
:103D500090420B4BC4F82C320023054684F83812ED
:103D6000237204F50B720D23812102F025FA04F56C
:103D7000037228461F230121BDE8704002F02ABAD1
:103D80005553425310B5D0F890321A7A022A04469D
:103D900003D012D3042A0ED910BD03F21B2293F8CC
:103DA000191200F0CDF9002807DA01212046BDE8FC
:103DB0001040FFF7CBBF0021F9E710BD70B5D0F878
:103DC0009042237A054613B1012B58D070BDD4F828
:103DD0001032C4F83032D4F81432C4F8343201212D
:103DE00002F006FA1F2894F819120BD1D4F80C220D
:103DF000274B9A4206D1012904D894F81A32013B84
:103E00000F2B0BD920230522284600F02DFE02237C
:103E100063722846BDE87040FFF747BF04F21B22DB
:103E2000284600F08DF90028237A07DA052BF0D117
:103E300001212846BDE87040FFF788BF013B022BF7
:103E400025D96389CBB1D5F89012D1F83402D1F8D5
:103E5000146204F10C021C46001BC1F8340200205D
:103E600081F83802042008729E4238BFB3B2284657
:103E70008121BDE8704002F09FB91946D9E704F2EC
:103E80001B2294F8191200F05BF90028D0DB70BDFA
:103E90005553424310B5D0F89042637A022B05D1B6
:103EA000812102F04BF90023637210BD0A0606D58A
:103EB000012B04D00121BDE81040FFF747BF10BD22
:103EC000D0F8902292F85D3202EBC3000133DBB2EE
:103ED00080F83C12042B4FF0000180F8401214BF10
:103EE00082F85D3282F85D1270472DE9F041074695
:103EF0000846D7F89052D7F89442D5F86862B5F8DA
:103F00005E22D5F864126469B6F5007F05F10C08ED
:103F100028BF4FF40076B6FBF2F3B1FBF2F29BB28E
:103F20004146A047002807DA38460421FFF7C8FFBA
:103F30004FF0FF30BDE8F081D5F86432D5F8684223
:103F40003344C5F86432D5F83432A41B9E1BC5F83F
:103F50006842C5F8346234B921463846FFF7F6FEA8
:103F60000020BDE8F081B4F5007F28BF4FF4007455
:103F7000A3B242460121384602F02CF9F0E72DE9C0
:103F8000F04106460846D6F89042D6F89422B4F896
:103F90005E32D4F86852D2F81080D4F864225D43BF
:103FA000B5F5007F04F10C0728BF4FF400753946C2
:103FB000B5FBF3F39BB2C047002807DA3046042173
:103FC000FFF77EFF4FF0FF30BDE8F081ABB23A461D
:103FD0008121304602F0F0F8B4F85E02D4F8642291
:103FE000B5FBF0F3D4F868021A44C01AD4F834329E
:103FF000C4F864225D1BC4F86802C4F8345218B9CE
:1040000003232372BDE8F0810020BDE8F08108B5EC
:104010001344D0F89022D2F860128B4205D90521C2
:10402000FFF74EFF4FF0FF3008BD002008BD70B510
:10403000D0F89042237A05460E464BBB94F91832CD
:10404000002B06DB05212846FFF73AFF4FF0FF3033
:1040500070BDD0F8943208469B689847024608B174
:104060000221F0E70123C4F86402C4F86832314643
:104070002846FFF7CCFF0028E8DB0223B4F85E22D5
:104080002372D4F868325343D4F814229A42D9D117
:104090004FF400736381002070BD2DE9F041D0F82A
:1040A0009042237A06468846002B47D194F918326D
:1040B000002B06DA05213046FFF702FF4FF0FF35EF
:1040C00039E0D0F8943208469B68984708B102213D
:1040D000F1E7D6F894324046DB6898470546002859
:1040E000F5D10127C4F864020246C4F868723B4661
:1040F00041463046FFF78BFF0028DFDBB4F85E1245
:10410000D4F86422D4F868324A43C4F86422D4F85C
:1041100014224B439342C4F86832CBD1B3F5007FED
:1041200028BF4FF4007327729BB204F10C0239468A
:10413000304602F04FF82846BDE8F0810125FAE745
:104140002DE9F04784B013782F2B00AF0646884640
:10415000154600F0DB8200F29B801B2B00F00982E9
:1041600021D8032B00F0AC8109D8002B00F07F810F
:1041700005213046FFF7A4FE4FF0FF3493E1122BE8
:1041800000F0CD811A2BF3D1D0F89032C849082223
:104190005A8103F113020B3311F8010D02F80109E2
:1041A0009A42F9D17CE1252B00F00C821DD81E2B00
:1041B00000F0DF81232BDBD1D0F89042002104F105
:1041C0000C0304F1180203F8011B9342FBD1D6F84B
:1041D000943207F108025B6807F10C0140469847EA
:1041E000002800F0DA81022149E1282B00F00D823D
:1041F0002A2BBDD1D0F8909299F80830002B40F0CE
:10420000428299F91832002BC0F23881D0F89432EA
:1042100008469B6898470028E5D1D6F89432404676
:10422000DB68984704460028DDD1EA78AB781204B1
:1042300042EA03626B791A432B7942EA0322C9F8F6
:104240006422E9792B7A43EA0123C9F868324146AE
:104250003046FFF7DCFE0028C0F22281B9F85E226A
:10426000D9F868325343D9F81422934240F00681BA
:10427000B3F5007F4FF0010128BF4FF4007389F8B8
:1042800008109BB209F10C02304601F0A3FF0AE1CD
:10429000E02B00F04E8241D8C12B00F05D8314D892
:1042A0005A2B00F06B81C02B7FF462AFD0F89042A4
:1042B000FFF7BDFE4FF40072002104F10C0002F084
:1042C000CEF87C4B1B782373D8E1C22B00F0908290
:1042D000C32B7FF44DAFFFF7E0FE012840F0E080F4
:1042E000D6F8909241463046FFF7FFFD99F80C2032
:1042F000D01D20F007006D4691B2ADEB000D0D32E0
:10430000684609F10D040DF1FF3609EB0203A342E3
:1043100040F0768200F0EAFFAD46C1E0E32B00F00A
:10432000878200F29580E12B00F02482E22B7FF45B
:104330001FAFD0F8904292F801A0237A2BBB94F9DA
:104340001832002B80F29A80D0F8943208469B688D
:104350009847024600287FF446AF574BC4F86402E2
:104360001B78C4F8683241463046FFF750FE0028FB
:10437000C0F296800223B4F85E222372D4F8683229
:104380005343D4F814229A4278D14B4B1A784FEA0F
:104390004229A4F80A904FF40072002104F10C00A5
:1043A00002F05DF8D6F89052B5F85E32D5F8684262
:1043B0004AF250525C430AFB099A92FBF9F309FB5B
:1043C0001321AAEB040A09B103FB09923B4BA2EBB0
:1043D0000A021968B2F5007F05F10C09A8BF4FF475
:1043E00000725144484602F02FF8D6F89422B5F8EE
:1043F0005E32D2F810A0D5F86422B4F5007F28BF51
:104400004FF400744946B4FBF3F340469BB2D047E7
:104410000028C0F25281A3B24A468121304601F001
:10442000CBFEB5F85E32B4FBF3F2D5F86432134438
:10443000C5F86432D5F868329B1AD5F83422C5F82D
:104440006832141BC5F8344253BB03222A7227E09A
:10445000E62B00F04C82E72B7FF48AAEFFF71DFEBF
:1044600001281DD141463046FFF73FFD18E0D0F846
:104470009052D5F81492B9F1000F04D005213046BE
:10448000FFF71EFD0CE0D0F8943208469B68984771
:10449000044638B102213046FFF712FD05232B7286
:1044A000002400E0688120461037BD46BDE8F08753
:1044B00090720008B4000020AC000020E801002049
:1044C000D0F89032002003F10C0203F11E0102F833
:1044D000010B9142FBD170221A730C22DA7493F80B
:1044E0005D1293F85C22914212D003EBC2010132BB
:1044F00091F83C429C7391F841421C76D2B291F8FB
:1045000040125976042A14BF83F85C2283F85C02B7
:1045100012225A812A79122A98BF5A81C0E76B78F1
:10452000D0F89022DB070CD50723B849538102F15C
:1045300012030B3211F8010D03F801099A42F9D167
:10454000AEE7D0F89432DB6901EBC10803EB8808D1
:10455000297998F8043005338B4228BF0B465381E4
:10456000002B9DD0013B9BB2D11818F803000873B3
:10457000F6E7D6F8903200245C8194E7D0F89032C8
:10458000A34908225A8103F113020B3311F8010DDC
:1045900002F801099A42F9D182E70823E373FB6824
:1045A000013B1A0E22741A0C6274E3741A0A022375
:1045B000A27423753B89E3751A0A0C236075A275F2
:1045C00063816DE7D0F89052D0F8943205F25E2204
:1045D0005B6805F5187140469847044600287FF44B
:1045E00002AED5F860322874013B1A0E2A731A0CF9
:1045F0006A73EB731A0AB5F85E32AA73EB741A0A7F
:1046000008236874AA746B814DE7D0F89042237A2E
:104610008BBB94F91832002BBFF630AFD0F8943230
:1046200008469B68984700287FF4DDADEA78AB78B0
:10463000120442EA03626B791A432B7942EA03229D
:10464000C4F86422E9792B7A43EA0123C4F868327A
:1046500041463046FFF7DBFC0028FFF621AF02237E
:10466000B4F85E222372D4F868325343D4F814228B
:104670009A427FF403AF4FF40073638141463046A2
:10468000FFF77DFC0CE7B9F85E32D9F8682202FB2F
:1046900003FAD0F89422BAF5007F09F10C0528BF7F
:1046A0004FF4007A5469BAFBF3F3D9F864229BB251
:1046B00029464046A047002801DA0421DFE6D9F860
:1046C0006422B9F85E32BAFBF3F10A44D9F86842C1
:1046D000C9F86422D9F83422641AA2EB0A02C9F894
:1046E0006842C9F8342224B921463046FFF72EFB30
:1046F000D9E66343B3F5007F28BF4FF400739BB244
:104700002A460121304601F065FDC9E65478D0F80B
:10471000908214F002047FF4B1AED8F86832D8F871
:104720006422FFF774FC0028FFF6BAAEA8F80A402E
:10473000B9E65178D478FF2913D1FF2C14D1354B29
:104740001B683B73D6F8904241463046FFF76FFC3A
:104750004FF40072002104F10C0001F080FE3B7B5D
:10476000B1E5002000F062FD07F10C01204600F0E9
:1047700087FDE7E7FFF791FC01287FF491AED6F8BB
:10478000904241463046FFF7B0FB617BE57B247CDD
:10479000FF2925D1FF2D26D114F001021E491F4B00
:1047A00018BF01221A700A701D4B1E4914F0020234
:1047B00018BF01221A7014F004021B4B18BF01220B
:1047C0001A7014F00804194A124B0DBF0C70002423
:1047D000012002211ABF0870146011601C6062E69B
:1047E000002000F023FD2146284600F01FFD57E67B
:1047F000D0F89012E87808220C3100F0A1FD4FE6C5
:1048000014F8012B06F8012F81E500BF977200080C
:1048100088720008C0010020C9010020C8010020E2
:10482000E40100202C020020DC010020B000002068
:10483000FFF733FC012881467FF432AE4146304613
:10484000D6F89052784CDFF81482FFF74EFB00F058
:104850008DFE207000F0EAFD744B187000F036FEFB
:10486000734B1870FF233B726A7BAB7B43EA0223D6
:104870002278A8F800306F4B82B3002421462046EE
:1048800007F110051C7000F0D1FCF3236A4E05F807
:104890000C3D224610216948FCF772FA4A46294627
:1048A0000A233046FDF753FD4A4607F108010A2363
:1048B0003046FDF74CFD6248FBF7E4FF6048FBF72C
:1048C00063FF3368FC609B68FB60FB685D4BB8F876
:1048D000002019683046FEF74DF8E1E583F80090B6
:1048E000594B83F80090594B02221A60D8E553784F
:1048F0009478022B16D0032B22D0012B7FF4D0AD5D
:1049000034B9534822464FF48071FCF739FACAE5AE
:10491000012C7FF4C5AD4E4822464FF48071FCF760
:104920002FFABDE524B922464FF400714348ECE765
:10493000012C7FF4B5AD01224FF400713F48EEE742
:104940001CB9002204214348DFE7012C7FF4A8AD05
:10495000224604213F48E2E73748DFF80491FDF79B
:10496000E0FC6A780023032A13D8DFE802F002088B
:104970000C1D314A1361536189F8003009E02E4A59
:1049800013610123F7E72C4902220A614B6189F880
:104990000020AB78DFF8CCA00C2B23D0182B0AD04A
:1049A000062B0DD1102107E0234B02221A610122B0
:1049B0005A610323E0E700211F4A8AF80030D161E1
:1049C0001D48FDF771FC0021084600F02FFCEC7833
:1049D000214D182C25D0302C06D00C2C0BD14FF0AB
:1049E000C06202E00821E7E700224FF4C001002086
:1049F000FCF7CEFE2C70D6F8904241463046FFF7C9
:104A000016FB4FF40072002104F10C0001F027FDA9
:104A100099F8003023739AF8003063732B78A373EE
:104A20002CE64FF08062E0E72C020020E401002039
:104A3000DC010020C90100203002002000000240FB
:104A4000C8020020E8010020C8010020B0000020BA
:104A500000080240000C0240DD010020B6000020EA
:104A6000E501002028030020D0F8901291F85D3273
:104A700001EBC3000133DBB280F83C22042B4FF082
:104A8000000280F8402214BF81F85D3281F85D2277
:104A9000704708B580B1D0F88C3213B10023C0F84C
:104AA0008C3209B1C0F88812012380F87432027088
:104AB00001F0DCFA002008BD022008BD19B1C0F8E1
:104AC0008C12002070470220704708B501F0FCFAF4
:104AD000002008BD08B5D0F88C320BB9022008BD03
:104AE0001B6898470028F9D108BD08B5D0F88C326A
:104AF0005B689847002008BD38B5044600F520756E
:104B0000284600F0ECFA012394F88012C4F86C32C5
:104B1000B4F88632C4F8703201F01F03012B0ED0B6
:104B200007D3022B10D001F08001204601F006FBD4
:104B300003E02946204600F003F9002038BD29464D
:104B4000204600F01FFAF8E72946204600F03FFA19
:104B5000F3E770B50546164649BBD0F86C32032B17
:104B60001ED1D0F84C31D0F8502193420BD99B1A6A
:104B70009A42C0F84C318CBF9AB292B2314600F0E2
:104B8000FEFA002070BDD0F88C321B6923B190F87A
:104B90007422032A00D19847284600F0F8FAF0E77B
:104BA000052BEED1C5F86C1201F0C8FAE9E7D0F890
:104BB0008C329B692BB190F87422032A01D198475B
:104BC000DFE7022070BD70B5134604460E4600298B
:104BD00048D1D0F86C22022A3DD1056A426A95423A
:104BE00014D9AA1A0262194692B200F0C0FA3346EA
:104BF0001A461946204601F0EDFA94F87832012B56
:104C00004FF000003AD184F8780270BDC369B3FB5D
:104C1000F2F502FB153565B99A420AD8D0F8702230
:104C2000934206D22A4600F0A2FAC4F870522B46EC
:104C3000DEE7D4F88C32DB682BB194F87422032AB7
:104C400001D1204698478021204601F077FA20467E
:104C500000F0A8FAD1E732F00403CED1802101F0B0
:104C60006DFACAE7D0F88C325B6933B190F87422E0
:104C7000032A02D19847002070BD022070BD70B594
:104C800000220446114601254026402301F02AFA5D
:104C900033468021C4F84451C4F8506100222046B4
:104CA00001F020FAD4F89032A5610021666284F800
:104CB0007452C4F86C126160C4F87C1223B1D4F849
:104CC0008C3220465B689847002070BD017400203C
:104CD000704790F8743280F87532042380F874328B
:104CE0000020704790F8753280F8743200207047C9
:104CF00008B590F87422032A04D1D0F88C32DB690D
:104D000003B19847002008BD00207047002070477D
:104D10000020704708B5012280F87422D0F88C2258
:104D2000017952689047002008BD10B580210446E3
:104D300001F004FA20460021BDE8104001F0FEB960
:104D400037B50B7803F06003202B04460D4614D0D2
:104D5000402B12D0002B40F095804B78092B00F2AD
:104D60009080DFE813F0E70001018E00FA008E006A
:104D7000820013008E00D200A000D4F88C322946A5
:104D80009B6820469847002003B030BD4B881A0A24
:104D9000013A0E2A75D8DFE802F0242835747455DC
:104DA0005E747474747474740800D0F88832DB69AB
:104DB000207C0DF106019847BDF8062052B1EB8822
:104DC00043B19A4228BF1A4601462046ADF8062054
:104DD00000F0C0F9EB88002BD5D1204600F0D7F9C0
:104DE000D1E7D0F888321B68E2E7027CD0F88C3239
:104DF00032B99B6A0DF10600984702234370DBE746
:104E0000DB6AF7E7DBB2052B3BD8DFE803F00307EB
:104E10000B0F1317D0F888325B68C9E7D0F88832D7
:104E20009B68C5E7D0F88832DB68C1E7D0F88832E4
:104E30001B69BDE7D0F888325B69B9E7D0F88832E2
:104E40009B69B5E7037CE3B9D0F88C320DF106001D
:104E50005B6B9847B0E7037C9BB9D0F88C320DF1BF
:104E600006001B6B98470723C8E78B884BB9CB8894
:104E70003BB94D887F2D04D890F87432032BE9B2EA
:104E800003D12046FFF751FF7DE780F8761201F04D
:104E900085F9204600F07BF91DB1022384F87432B5
:104EA00071E70123FAE78978354D01292970E8D89F
:104EB00090F87432022B08D0032B14D0FFF735FF83
:104EC00029782046FFF711FE5DE7002985D00121F2
:104ED0000323416080F874322046FFF7FBFD02286F
:104EE0007FF47BAFCDE731B9022380F874324160A3
:104EF000FFF7FBFD71E7416801293FF46EAFC9B2CE
:104F0000FFF7F3FD29786160E6E7CA88012AB8D186
:104F100090F87432002BB4D0022B03D9032BB0D1FC
:104F2000011D03E00146002341F8083F204600F040
:104F300011F928E790F87432013B022BA1D8CB88F5
:104F4000022B9ED10123C360D0F87C320BB1032326
:104F5000C360022204F10C01E8E74B88012B7FF4C7
:104F600012AFC4F87C3238E790F87432013B022B60
:104F700087D84B88012B7FF406AF0023F1E700BFF1
:104F8000BC01002038B50B7803F06003202B0446E9
:104F90000D4602D0402B00D0B3B994F87432013BD7
:104FA000022B10D82B79012B0DD8D4F88C3229463E
:104FB0009B6820469847EB881BB910B9204600F043
:104FC000E6F8002038BD2046FFF7AFFEF9E738B518
:104FD0000A7802F06002202A04460B4613D0402AC9
:104FE00011D06AB95D788A88012DD1B21FD035D32E
:104FF000032D05D190F87422022A26D0032A0AD064
:10500000FFF793FE05E0D4F88C22194692682046FB
:105010009047002038BD5A882AB94A0603D0DB8859
:105020000BB901F08BF8204600F0B1F8F1E790F8E9
:105030007422022A09D0032AE2D15B88002BE8D12E
:105040004D06F0D001F088F8EDE74B0617D001F0DF
:1050500075F88021204601F071F8DAE790F8743293
:10506000022B0ED0032BCBD112F0800F4FF0140384
:1050700001F00F0203FB020212D09269DAB9204656
:10508000BEE74906FBD113064CBF00F1140100F541
:10509000A07100230B600222204600F05BF8B8E705
:1050A000D2F84421002AEAD001F07F0503FB050570
:1050B00005F5A07504E001F07F0505FB0335054407
:1050C00011F07F0303D12B6002222946E4E720463A
:1050D00001F050F808B10123F5E72860F4E70B78F8
:1050E00003704B784370CA788B7803EB02234380BC
:1050F0004A790B7903EB02238380CA798B7903EB1E
:105100000223C380704710B58021044601F016F8D1
:1051100020460021BDE8104001F010B830B588B13C
:1051200005462B1A15F8014BDBB2002CF9D10133DF
:105130005B0013800B7003234B700138022310F8BF
:10514000015F05B930BD5A1CD2B2CD540233DBB277
:105150008C54F4E710B513460222C0F86C22C361E8
:105160000A460362002101F027F8002010BD08B5AF
:1051700013460A46002101F01FF8002008BD08B5BB
:1051800013460A46002101F025F8002008BD08B5A5
:105190000423C0F86C3200231A46194601F00CF8BB
:1051A000002008BD08B50523C0F86C3200231A465C
:1051B000194601F00FF8002008BD000008B50F489F
:1051C0000F4B4FF4827E022280E8084002610023E8
:1051D00001228360C3604261C3614FF400720362C5
:1051E000436283620A238261C362FDF75DF8054B67
:1051F00003221A70044B18221A7008BD30020020D6
:1052000000300140E50100202803002007B502A975
:105210004FF6FF7341F8040D01220348FDF7F2FE3B
:10522000019803B05DF804FB8802002037B5114BEC
:10523000114C124D8DF80410802200F07F001A608E
:105240008DF80000002220461021FBF799FD6946E9
:105250000A2301222846FDF77AF80A2301A9012230
:105260002846FDF774F8012210212046FBF788FD3F
:1052700003B030BDB000002000000240300200202A
:105280007FB5174D174B184C802260F07F000E46FB
:105290001A608DF80400FF232846002210218DF8A3
:1052A0000C30FBF76DFD01A90A2301222046FDF712
:1052B0004EF803A90A2301222046FDF748F80A23E5
:1052C00002A901222046FDF7DAF901221021284621
:1052D000FBF756FD9DF80830337004B070BD00BF79
:1052E00000000240B000002030020020F8B508297C
:1052F00028BF08214A00D31D23F0070300AFADEB00
:10530000030D06460C466846002101F0A8F86D46DC
:105310000023A3420BDB002210210748FBF730FDDE
:10532000224629460548FDF741FABD46F8BDF25C24
:1053300005F813200133ECE70000024030020020A2
:1053400073B5114C60F07F000D4616468DF80000D5
:10535000FF23002210210D488DF80430FBF710FDCB
:1053600069460A2301222046FCF7F1FF0A2301A91E
:1053700001222046FCF7EBFF324629462046FDF786
:10538000F9FA02B070BD00BF3002002000000240F8
:10539000F0B5244D244C85B0002632462846102115
:1053A0008DF804608DF80860FBF7EAFC01A90A2378
:1053B00001222046FCF7CBFF0A2302A90122204646
:1053C000FCF7C5FF284601221021FBF7D9FC04AFEA
:1053D000FE238DF80430FF2307F8043D32462846AB
:1053E0001021FBF7CDFC01A90A2301222046FCF77E
:1053F000AEFF39460A2301222046FCF7A8FF0A2304
:1054000002A901222046FDF73AF92846012210217F
:10541000FBF7B6FC9DF80800431E5842584105B002
:10542000F0BD00BF00000240300200202DE9FF4126
:10543000244E254D4FF000080124424630461021ED
:105440008DF804808DF80840FBF79AFC224601A9EC
:105450000A232846FCF77BFF0A23224602A9284696
:10546000FCF775FF224630461021FBF789FC04AF9C
:1054700093238DF80430FF2307F8043D424630465D
:105480001021FBF77DFC224601A90A232846FCF7E0
:105490005EFF224639460A232846FCF758FF0A23B6
:1054A000224602A92846FDF7EAF830462246102196
:1054B000FBF766FC9DF80800C043204004B0BDE83F
:1054C000F08100BF00000240300200202DE9FF41C2
:1054D000244E254D4FF0000801244246304610214D
:1054E0008DF804808DF80840FBF74AFC224601A99C
:1054F0000A232846FCF72BFF0A23224602A9284646
:10550000FCF725FF224630461021FBF739FC04AF9B
:10551000C0238DF80430FF2307F8043D424630468F
:105520001021FBF72DFC224601A90A232846FCF78F
:105530000EFF224639460A232846FCF708FF0A23B5
:10554000224602A92846FDF79AF830462246102145
:10555000FBF716FC9DF80800C0F3400004B0BDE85E
:10556000F08100BF00000240300200202DE9FF4121
:10557000244E254D4FF000080124424630461021AC
:105580008DF804808DF80840FBF7FAFB224601A94C
:105590000A232846FCF7DBFE0A23224602A92846F6
:1055A000FCF7D5FE224630461021FBF7E9FB04AF9D
:1055B00093238DF80430FF2307F8043D424630461C
:1055C0001021FBF7DDFB224601A90A232846FCF740
:1055D000BEFE224639460A232846FCF7B8FE0A23B7
:1055E000224602A92846FDF74AF8304622461021F5
:1055F000FBF7C6FB9DF80800C0F3400004B0BDE80F
:10560000F08100BF000002403002002073B51D4D44
:105610001D4E00242246284610218DF800408DF8AA
:105620000440FBF7ADFB69460A2301223046FCF734
:105630008EFE0A2301A901223046FCF788FE284687
:1056400001221021FBF79CFB7323224628461021E0
:105650008DF800308DF80440FBF792FB69460A2371
:1056600001223046FCF773FE0A2301A901223046CD
:10567000FCF76DFE012210212846FBF781FB02B0EA
:1056800070BD00BF00000240300200200E4B0F4AE8
:1056900019780F4B91B111780E4A127839B11AB1BD
:1056A0004AF255521A8070474AF25052FAE712B144
:1056B00048F24442F6E748F24042F3E712780AB172
:1056C000E622EFE7B822EDE72C020020E4010020FB
:1056D000DE010020DC01002070B5ACB034220021D6
:1056E00008A800F0BCFE1422002103A800F0B7FEB9
:1056F00000215C2215A800F0B2FE0024224B019488
:105700001A6C42F080521A641B6C204A03F08053DA
:105710000193019B0294136823F4404343F48043B4
:10572000136013680F9403F440430293029B102309
:105730000C931093C0231193042302250126129386
:10574000139308A80723149308950B960E95FCF75E
:105750007DFB0F233146039303A84FF48053069338
:10576000049505940794FCF75FF84FF4807315A82F
:1057700015932A94FCF71AF922464FF4C0012046EB
:10578000FCF706F82CB070BD0038024000700040F5
:105790002DE9F04FA74CA84D2068A84FA84EDFF880
:1057A000E8A291B000F048FE288800F03DFE20609D
:1057B000386800F041FE288800F036FE3860FAF7BD
:1057C00023FFFFF789FF9F4B302200251A7000212D
:1057D00014220BA800F043FE0495336B9A4843F063
:1057E00002033363336B03F002030493049B0595B8
:1057F000336B43F001033363336B03F00103059311
:10580000059B0695336B43F008033363336B03F05A
:1058100008030693069B0795336B43F080033363BD
:10582000336B03F080030793079B0895336B43F0BA
:1058300004033363336B03F0040308930122042150
:10584000089BFBF79DFA01224FF480717F48FBF71C
:1058500097FA01224FF404717D48FBF791FA4FF05B
:10586000010804230BA978480B93CDF830804FF43E
:1058700080790D950E95FBF723F902230BA9744847
:105880000C930E93CDF82C900D950F95FBF718F90E
:105890000BA96E48CDF83080CDF82C900D950E9563
:1058A000FBF70EF94FF404730BA969480B93CDF87D
:1058B00030800D950E95FBF703F90395336B43F498
:1058C00080033363336B634E03F480032A46294617
:1058D00003933A20039BFAF7E9FE3A20FAF71AFFFE
:1058E0002A4629463B20FAF7E1FE3B20FAF712FF51
:1058F000FFF764FC102229460BA800F0B0FD564BC0
:105900000995304686E828000A95B560F56035614E
:105910007561B561FDF7B4F94FF480530BA93046BA
:105920000B93FDF7D1F909A9304609950A95FDF7C2
:105930005FFA00F0D7FA4948494A85604FF4964328
:1059400080E80C0008234361C56005618561C5617D
:10595000FDF726FB434B4448197800F035FEB84666
:10596000D346DAF8003013B90120FAF779FE3F4B3D
:105970001B78002BF5D03E4B1B78002BF1D0FFF7A6
:1059800085FE3C4B3C4D1E78002E7FD02E68002EAD
:10599000E7D1FFF7FDFC0028E3D001272F60374D4A
:1059A0002B488DF80060324610218DF80460FBF71B
:1059B000E7F93A4669460A232846FCF7C8FC0A2359
:1059C0003A4601A92846FCF7C2FC3A461021204875
:1059D000FBF7D6F90DF14009F3238DF80030FF23D2
:1059E00009F8383D324610211948FBF7C9F93A4603
:1059F00069460A232846FCF7AAFC3A4649460A2388
:105A00002846FCF7A4FC1E48FAF73CFF1C48FAF7AE
:105A1000BBFE2B6809969B680993099B194BD8F824
:105A200000101A882846FCF7A5FF1B20FAF718FE7D
:105A300097E700BFE8010020B6000020E001002049
:105A400000380240DD010020000C02400008024046
:105A500000000240EC01002000000140880200200C
:105A600000440040B400002097720008C9010020E3
:105A7000C80100202C020020B000002030020020CD
:105A8000C8020020DE010020C40100202B68022B88
:105A90007FF467AFFFF77CFC00283FF462AF03237D
:105AA0002B602D4D2D488DF80060324610218DF869
:105AB0000460FBF765F90A23012269462846FCF7D2
:105AC00046FC0A23012201A92846FCF740FC0122DA
:105AD00010212248FBF754F910AFF3238DF8003062
