:020000040800F2
:1000000000000420D55D0008195800081B5800089E
:100010001D5800081F580008215800080000000063
:10002000000000000000000000000000235800084D
:10003000255800080000000027580008295800082B
:10004000255E0008255E0008255E0008255E000884
:10005000255E0008255E0008255E0008255E000874
:10006000255E0008255E0008255E0008255E000864
:10007000255E0008255E0008255E0008255E000854
:10008000255E0008255E0008255E0008255E000844
:10009000255E0008255E0008255E0008255E000834
:1000A000255E0008255E0008255E0008255E000824
:1000B000255E0008255E0008255E0008255E000814
:1000C000255E0008255E0008255E00082D58000802
:1000D000255E0008255E0008255E0008255E0008F4
:1000E000255E0008255E0008255E0008255E0008E4
:1000F000255E0008255E0008255E0008255E0008D4
:10010000255E0008255E0008255E0008255E0008C3
:10011000255E0008255E0008255E0008255E0008B3
:10012000255E0008255E000839580008455800087B
:10013000255E000800000000000000000000000034
:10014000000000000000000000000000255E000824
:10015000255E0008255E0008255E0008255E000873
:10016000255E0008255E0008255E0008255E000863
:10017000255E000851580008000000000000000043
:10018000255E0008255E0008255E0008255E000843
:10019000255E0008255E000800000000255E0008BE
:1001A000000000000000000000000000255E0008C4
:1001B000255E0008255E0008000000000000000029
:1001C000000000000000000000000000000000002F
:1001D000000000000000000000000000255E000894
:1001E00010B5054C237833B9044B13B10448AFF371
:1001F00000800123237010BDE801002000000000F2
:100200004060000808B5034B1BB103490348AFF336
:10021000008008BD00000000EC01002040600008E4
:1002200053B94AB9002908BF00281CBF4FF0FF315D
:100230004FF0FF3000F07AB9ADF1080C6DE904CE53
:1002400000F006F8DDF804E0DDE9022304B07047B1
:100250002DE9F0478C460D460446089E002B51D1EF
:100260008A4217466DD9B2FA82FEBEF1000F0BD05A
:10027000CEF1200C01FA0EF520FA0CFC02FA0EF772
:100280004CEA050C00FA0EF44FEA174A250CBCFBA9
:10029000FAF81FFA87F90AFB18CC45EA0C4508FB67
:1002A00009F3AB420AD9ED1908F1FF3280F023813E
:1002B000AB4240F22081A8F102083D44ED1AA4B2FD
:1002C000B5FBFAF00AFB105544EA054400FB09F9B6
:1002D000A14509D9E41900F1FF3380F00A81A14555
:1002E00040F2078102383C44A4EB090440EA08408C
:1002F0000021002E61D024FA0EF4002334607360D4
:10030000BDE8F0878B4207D9002E54D0002186E843
:1003100021000846BDE8F087B3FA83F1002940F0D8
:100320008E80AB4202D3824200F2FA80841A65EBDF
:1003300003050120AC46002E3FD086E81010BDE832
:10034000F08712B90127B7FBF2F7B7FA87FEBEF1C3
:10035000000F34D1EB1B3A0C1FFA87FC0121B3FBD1
:10036000F2F8250C02FB183345EA03450CFB08F3B1
:10037000AB4207D9ED1908F1FF3002D2AB4200F2CF
:10038000D1808046ED1AA3B2B5FBF2F002FB105506
:1003900043EA05440CFB00FCA44507D9E41900F12D
:1003A000FF3302D2A44500F2B8801846A4EB0C0437
:1003B00040EA08409DE731463046BDE8F087CEF17F
:1003C000200405FA0EF307FA0EF720FA04F83A0CA7
:1003D00025FA04F448EA0308B4FBF2F14FEA1845A1
:1003E00002FB11441FFA87FC45EA044501FB0CF3AC
:1003F000AB4200FA0EF409D9ED1901F1FF3080F09B
:100400008A80AB4240F2878002393D44EB1A1FFAE2
:1004100088F5B3FBF2F002FB103345EA034500FB1D
:100420000CF3AB4207D9ED1900F1FF386FD2AB42A4
:100430006DD902383D44EB1A40EA01418FE7C1F122
:10044000200722FA07F88B4005FA01F448EA030373
:1004500020FA07FE4FEA134CFD404EEA040EB5FBAE
:10046000FCF94FEA1E440CFB19551FFA83F844EAC5
:10047000054509FB08F4AC4202FA01F200FA01FA60
:1004800008D9ED1809F1FF3043D2AC4241D9A9F1A6
:1004900002091D442D1B1FFA8EFEB5FBFCF00CFB60
:1004A00010554EEA054400FB08F8A04507D9E418AA
:1004B00000F1FF3529D2A04527D902381C4440EA73
:1004C0000940A4EB0804A0FB02894C45C6464D46F2
:1004D00015D312D056B1BAEB0E0364EB050404FA3F
:1004E00007F7CB401F43CC40376074600021BDE864
:1004F000F0871846F8E69046E0E6C245EAD2B8EB47
:10050000020E69EB03050138E4E72846D7E74046C9
:1005100091E78146BEE7014678E702383C4445E76B
:10052000084608E7A8F102083D442BE7704700BFE2
:1005300038B50E4B05460E4A18784FF47A73B3FB64
:10054000F0F31068B0FBF3F000F0B2F8044658B9CD
:100550000F2D09D8024629464FF0FF3000F04EF823
:10056000044B20461D6038BD012038BD000000202E
:10057000000100200400002008B5032000F02CF842
:100580000020FFF7D5FF05F065F8002008BD00004A
:10059000034A044B11681B780B441360704700BF7B
:1005A0001402002000000020014B1868704700BFB3
:1005B0001402002038B50446FFF7F6FF0546631C19
:1005C0001EBF044B1B78E418FFF7EEFF401B84426C
:1005D000FAD838BD00000020074A0002D36800F4B2
:1005E000E06023F4E0631B041B0C43F0BF6343F49F
:1005F00000330343D360704700ED00E0194B30B582
:10060000DC68C4F30224C4F10703251D042B28BFB2
:100610000423062D4FF001058CBF033C002405FA8E
:1006200003F3002803F1FF3301EA030101FA04F1A7
:1006300005FA04F404F1FF3402EA040242EA01027A
:100640004FEA021207DB00F16040D2B200F56140D0
:1006500080F8002330BD00F00F00D2B2024B1A54D4
:1006600030BD00BF00ED00E014ED00E0002808DB25
:100670004209012300F01F0003FA00F0014B43F888
:100680002200704700E100E000280DDB4309012251
:1006900000F01F00203302FA00F0044A42F8230061
:1006A000BFF34F8FBFF36F8F704700BF00E100E0D3
:1006B0000138B0F1807F0AD2064BF021064A58601B
:1006C000002082F82310072298601A6070470120EA
:1006D000704700BF10E000E000ED00E00368182163
:1006E000DAB223F47F73103A23F00303B2FBF1F282
:1006F0000449032A895C88BF0433C1658365806D22
:10070000704700BF5860000870B50446FFF74CFF03
:100710000546002C71D00023226884F8343002236F
:1007200084F83530136823F00103136021680B68E7
:10073000D8073CD40B68324D62681D40A368A0699D
:100740001343E26813432269134362691343E26966
:1007500003431343226A1343626A042A43EA0503EC
:1007600001BF266BE56A35432B43042A0B604B69B6
:1007700023F0070343EA02030BD1A26AE56A13439D
:100780003DB1F8B9012A2DD001D3022A01D1EA01E5
:100790002BD44B612046FFF7A1FFE26D3F2393402E
:1007A000836000200123606584F8353070BDFFF759
:1007B000FBFE401B0528B9D920230320636584F87C
:1007C000350070BDB0F5005F13D1032AE1D801A058
:1007D00050F822F0EB0700088F070008EB0700082D
:1007E000E5070008B5F1C07FD3D140230120636540
:1007F000E5E7022AF9D9032AC8E7012070BD00BF46
:100800003F8010E038B5054620B390F83540E4B29B
:10081000022C1DD0036800241A6822F001021A601D
:1008200021221C605C609C60DC601C615A61FFF7E7
:1008300055FFEA6D3F23934083606C65EC632C6445
:100840006C64AC64EC642C6585F8354085F8344004
:10085000204638BD012038BD70B590F83440012CD9
:1008600035D00124866D002580F8344090F835405D
:10087000012C4FF0020428D180F83540046845650A
:10088000256825F48025256063608368402B19D195
:10089000A260E160C26D3F239340B360236843F0E0
:1008A00016032360636943F080036361036C1BB12B
:1008B000236843F0080323602368002043F001030A
:1008C000236070BDA160E260E4E780F8345002204C
:1008D00070BD90F83530022B03D080234365012092
:1008E00070470268052380F835300020136823F034
:1008F00001031360704700000023F7B5019308223D
:10090000594B0446856D1F68C36D2E689A40164288
:100910000CD001680868400708D5086820F004007A
:100920000860AA60626D42F00102626501229A408D
:10093000164208D021684969090604D5AA60626D8B
:1009400042F00202626504229A40164208D02168F1
:100950000968880704D5AA60626D42F004026265E6
:1009600010229A40164210D02368196809070CD546
:10097000AA601A68500335D51B68190301D4236C8B
:1009800000E0A36C0BB120469847E16D20228A401D
:10099000164238D023681868C60634D5AA6094F881
:1009A0003520052A1A6825D122F016021A605A69E4
:1009B00022F080025A61226C0AB9A26C1AB11A683C
:1009C00022F008021A603F238B40AB60002384F8BA
:1009D0003430012384F83530236D0BB1204698471D
:1009E00003B0F0BD1A68D205C9D41A6822F0080213
:1009F0001A60C4E7500328D51B68190332D4636C0E
:100A00000BB120469847636D002BE9D0636DDA0780
:100A100019D50523226884F83530136823F00103C3
:100A200013604FF41653B7FBF3F7019B01339F425A
:100A3000019302D31368DB07F7D4002384F8343022
:100A4000012384F83530E36CC7E71A6812F480722A
:100A500008D1196821F010011960012384F83420AD
:100A600084F83530E36BCBE7000100202DE9F04F2F
:100A70000B6885B0DFF8A88101930023664ADFF890
:100A8000A4910124019D9C402540AC4240F0AE80E1
:100A90004C684FEA430E24F0100C0CF1FF36012E87
:100AA00012D80326876806FA0EF627EA0607CE68EC
:100AB00006FA0EF63E438660C4F3001647689E4071
:100AC00027EA05073E4346600326C768BCF1020FCC
:100AD00006FA0EF66FEA060607EA060A8F6807FAB4
:100AE0000EF747EA0A07C76016D14FEAD30A03F0A8
:100AF000070B4FF00F0C00EB8A0A4FEA8B0BDAF86A
:100B000020700CFA0BFC27EA0C0C0F6907FA0BF7A4
:100B100047EA0C07CAF8207007683E4004F0030754
:100B200007FA0EFE4EEA06060660E6005ED5D8F825
:100B3000446023F0030703F0030E4FF00F0C46F45C
:100B4000804607F180474FEA8E0EC8F8446007F5EB
:100B50009C37D8F8446006F480460396039E0CFA4E
:100B60000EF6D7F808A02AEA060C2C4EB04244D064
:100B700006F58066B04242D006F58066B04240D0AD
:100B800006F58066B0423ED006F58066B0423CD0A5
:100B900048453CD006F50066B0423AD006F580667E
:100BA000B04214BF0826072606FA0EF614F4803F5A
:100BB00046EA0C06BE606FEA050716680CBF3E40A9
:100BC0002E4314F4003F166056680CBF3E402E437F
:100BD00014F4801F566096680CBF3E402E43A4025A
:100BE0009660D66854BF3E402E43D6600133102B2A
:100BF0007FF447AF05B0BDE8F08F0026D4E70126AB
:100C0000D2E70226D0E70326CEE70426CCE7052666
:100C1000CAE70626C8E700BF003C014000000240CA
:100C200000380240001402402DE9F04F0022404DF0
:100C3000DFF80491DFF804A1DFF804B1012303FA1F
:100C400002FC0CEA0104A4455FD122F0030602F085
:100C5000030E0F27374B06F180464FEA8E0E98425F
:100C600006F59C3607FA0EF7D6F8088008EA07085A
:100C700050D003F5806398424ED003F580639842CC
:100C80004CD003F5806398424AD003F580639842C4
:100C900048D0484548D0504548D058450CBF072358
:100CA000082303FA0EF3984510D12B68E443234040
:100CB0002B606B6823406B60AB682340AB60EB68D4
:100CC0001C40EC60B36823EA0707B76056000323B3
:100CD000046802F0070EB3400F274FEA8E0EDB4385
:100CE00007FA0EF71C400460D40800EB8404266A5F
:100CF00026EA07072762C4681C40C460446824EAE7
:100D00000C0444608468234083600132102A95D12A
:100D1000BDE8F08F0023C4E70123C2E70223C0E748
:100D20000323BEE70423BCE70523BAE70623B8E79D
:100D3000003C014000000240001402400018024044
:100D4000001C02400AB1816170470904FBE7F0B55D
:100D500004468BB060B390F8BD33056803F0FF0222
:100D60001BB980F8BC2304F0FBFD03236E46271D4E
:100D700084F8BD33EB6B254613F4807355F8100BE4
:100D800008BF236102F0FAF90FCD0FC60FCD0FC6D1
:100D900095E80300254686E8030097E80E0055F81D
:100DA000100B02F0F9F8064620B1022384F8BD3397
:100DB000012554E00146206802F0E6F93046D4F8F7
:100DC00004E01C264FF0010C0146C2B201309645EA
:100DD0001BD800231C261946D8B20133864522D8D9
:100DE0000FCD6E460FC60FCD0FC695E8030086E8FF
:100DF000030097E80E00206802F008FA0123054678
:100E000000B3022284F8BD23D2E706FB024383F835
:100E10003DC083F83C20A3F8422083F83F1059647A
:100E200099641965D1E706FB004282F8FD1182F84A
:100E3000FC0182F8FF11C2F80412C2F80812C2F8CD
:100E40001012C9E784F8380084F8BD33636A012BB7
:100E500002D1204600F04DFC206802F039FD284602
:100E60000BB0F0BD90F8BC33012B10B504460CD08C
:100E7000012380F8BC33006802F01EFD206802F0F8
:100E800077F9002084F8BC0310BD022010BD0000DB
:100E90002DE9F04FD0F800A087B00446504602F08C
:100EA00052FD0290002840F03C81206802F01CFDB9
:100EB000002800F03681206802F016FD870704D56F
:100EC0002268536903F002035361206802F00CFDAD
:100ED000C6062BD52268936923F010039361DAF8D4
:100EE0002050C5F3434305F00F07022B40F01C814F
:100EF00047F6F0731D4214D01C26C5F30A15504660
:100F000006FB07462A46D6F8081202F05FFCD6F820
:100F100008322B44C6F80832D6F814321D44C6F8FD
:100F200014522268936943F010039361206802F021
:100F3000DBFC050300F10781206802F0D5FC4003CB
:100F40000CD525460AF510694FF00008206802F01C
:100F5000D7FC0390039B002B40F09981206802F09E
:100F6000C3FC002815DADAF8043823F00103CAF8C4
:100F7000043894F8F433012B40F01A820021204603
:100F800084F8F41304F062FE2268536903F000430E
:100F90005361206802F0A8FC00050BD5DAF8083888
:100FA000D90702D5204604F059FD2268536903F49D
:100FB00000635361206802F097FC020114D5236896
:100FC0005A6902F000625A6194F8F423002A40F052
:100FD000F3815B6D01212046C3F3830384F8F4138E
:100FE000C4F8F83304F032FE206802F07DFCC3043C
:100FF00035D50AF500656B681021206823F00103E0
:101000006B6002F0D9F860680AF510634FF67F3123
:10101000029A824240F0D481EB6943F00113EB6104
:10102000236B002B00F0EC81D5F8843043F00B03E8
:10103000C5F884306B6C43F00B036B64DAF800384E
:1010400004F57172217C23F4FE632068CAF800382D
:1010500002F08EFC2268536903F4805353612068C8
:1010600002F042FC870416D5206802F070FC20686C
:1010700002F086F92568E06000F058FE227B014608
:10108000284602F001F8204604F0D5FC2268536996
:1010900003F400535361206802F026FC060707D5CD
:1010A000204604F0C4FC2268536903F0080353612E
:1010B000206802F019FCC50208D50021204604F082
:1010C000EDFC2268536903F480135361206802F039
:1010D0000BFC800208D50021204604F0DBFC2268CE
:1010E000536903F400135361206802F0FDFB4100D3
:1010F00007D5204604F0D6FC2268536903F08043EC
:101100005361206802F0F0FB42070AD523685D684E
:101110006B0702D5204604F0C9FC23685A681543C2
:101120005D6007B0BDE8F08F062B7FF4FAAE1C2699
:10113000082204F57171504602F048FB06FB074691
:10114000C5F30A15E8E620680AF5306602F0D0FB20
:10115000274681460025B9F1000F3FF4EDAE19F0A6
:10116000010F57D05FFA85FB2068594602F0D0FB8B
:1011700010F0010F80461AD0012320682169B36066
:1011800000F530630129D0F840E003EB45139A687D
:1011900065D1110707D5A0498E4508D9100406D599
:1011A0004FF4004202E091063AD520229A6018F0EE
:1011B000080F1FD008239849B3602368D3F840B0C4
:1011C00003F530638B4503EB45139A6804D9120489
:1011D00002D54FF400429A60204604F011FC8E4B79
:1011E0009B4507D92169012904D104F57172206852
:1011F00002F0BEFB18F0100F01D01023B36018F0FE
:10120000200F01D02023B36018F4005F02D04FF408
:101210000053B36001354FEA590920361C379AE76D
:1012200012F0280FC3D17C498E4501D91204B7D4DE
:101230001B69D7F80422C3F31203D31AC7F8143278
:10124000D7F808321A44C7F808228DB9D4F81032FA
:1012500073B904F57172012102F08AFB08E06F494D
:101260008E450AD110049BD4910601D520229A60A4
:101270005946204604F0CAFB99E7002DF8D1D4F86E
:101280001032002BF4D104F571722946E4E7039B78
:10129000DE0740F184805FFA88FB2068594602F03F
:1012A00040FB0646F00721D5012008F00F02DAF8CE
:1012B000343800FA02F2216923EA02038142CAF8B3
:1012C0003438C9F808000DD1AB6C6A6C1344AB64B8
:1012D000B8F1000F06D1236D23B904F571722068AF
:1012E00002F046FB5946204604F099FB310702D52F
:1012F0000823C9F80830F20602D51023C9F80830CF
:10130000730602D54023C9F80830B70702D5022377
:10131000C9F80830360642D56B6D2E6DB3423ED803
:10132000F61A6B6C22689E42049228BF1E4602F594
:101330001063033603EB4813B6080593059B2F6D26
:101340009B699BB2B3426B6D27D39F4225D977B976
:10135000049B08F00F02012103F5006BD3F8343829
:1013600001FA02F223EA0203CBF8343017E0FF1A45
:101370006B6C5A4604989F4228BF1F46237C0093FB
:10138000BBB2A96CFE1C02F027F9AB6CB6083B445B
:10139000AB646B6D1F446F65D0E79F42D8D9039B48
:1013A00008F101081C3509F120095B080393D1E518
:1013B000204604F06BFBE7E5204604F04FFB13E604
:1013C0009960203353F8202C22F4001243F8202C8B
:1013D00053F8202C42F0006243F8202CC3F8E811A7
:1013E000D3F8E02122F40012C3F8E021D3F8E02181
:1013F00042F00062C3F8E021029A0132029207E64D
:101400006B6943F4005343F02B036B612B6943F08A
:101410000B032B6112E600BF0A30544F0A31544FC0
:1014200090F8BC23012A10B504460BD0012280F8A5
:10143000BC2384F83810006802F02EFA002084F8EB
:10144000BC0310BD022010BD70B5044601F00F00B2
:101450001C2611F0800FC5B2C0B206FB05411DBFAE
:1014600006FB054501263C3101F5FE7105BF06FB73
:101470000545002685F83D6085F8FD618A604A785B
:101480000870CB7002B1C880022B04BF00230B711F
:1014900094F8BC33012B09D00123206884F8BC33B5
:1014A00001F079FF002084F8BC0370BD022070BDFC
:1014B00001F00F0311F0800FDAB210B504464FF0BF
:1014C0001C0000FB02411BBF00FB0242012000FB8D
:1014D00002423C3105BF01F5FE71002082F83D005B
:1014E00082F8FD010B7094F8BC33012B09D0012365
:1014F000206884F8BC3301F08FFF002084F8BC031F
:1015000010BD022010BD38B501F00F051C2404FBEE
:10151000050104FB050401F5FE71C4F81032002337
:10152000C4F80822C4F8143284F8FD3184F8FC5160
:1015300003690068012B08BFC4F80C22DAB21DB998
:1015400001F0BEFF002038BD02F05AF8FAE71C2374
:1015500001F00F0103FB0101D1F81402704738B507
:1015600001F00F051C2404FB050104FB05043C31BC
:1015700023650023A2646365012384F83C5084F84A
:101580003D3003690068012B08BFE264DAB21DB97F
:1015900001F096FF002038BD02F032F8FAE738B5C6
:1015A00001F00F05436804469D422ED811F0800FCC
:1015B0004FF01C021FD002FB050302FB05010122B4
:1015C0003C3381F83D2001221D709A7094F8BC13C1
:1015D00091421CD084F8BC231946206802F004F91B
:1015E0002DB904F57172217C206802F0C1F9002048
:1015F00084F8BC0338BD02FB010302FB0101002299
:1016000003F5FE7381F8FD21DDE7012038BD0220DE
:1016100038BD38B501F00F02436804469A4225D818
:101620001C2311F0800F4FF0000503FB02010FBFD8
:10163000002003FB020301203C3105BF01F5FE71D0
:1016400003FB024383F83D0083F8FD018D700A70AF
:1016500094F8BC33012B0BD00123206884F8BC33F1
:1016600002F0EFF884F8BC53284638BD012038BD9D
:10167000022038BD90F8BC33012B10B5044611D0C0
:10168000012380F8BC330B0608D501F00F01006878
:1016900001F092FD002084F8BC0310BD006801F049
:1016A0009DFDF7E7022010BD70B50468636A21B99B
:1016B00043EA0243A362002070BDA06A4D1E03EB03
:1016C00010430020461CC0B2854206D83F3143EA91
:1016D000024304EB81046360EDE7403004EB8000DB
:1016E000406803EB10433046ECE703680020596282
:1016F0007047012102680346C0F8FC13002083F8FC
:10170000F403936943F000639361536D43F0805396
:1017100043F0030353657047194B37B51A6C194CE6
:1017200042F080521A641B6C03F080530193019BBA
:10173000236843F480332360FEF736FF0546636871
:10174000DA030CD5236843F400332360FEF72CFF43
:101750000C4C054663689B030AD5002006E0FEF7A3
:1017600023FF401BB0F57A7FE9D9032003B030BDD9
:10177000FEF71AFF401BB0F57A7FEBD9F5E700BF03
:1017800000380240007000402DE9F341044608B9DA
:1017900001203FE00368D80710D42368990760D47C
:1017A0002368190700F1A58023685A0700F1C68055
:1017B000A069002840F0308100202BE0944B9A680B
:1017C00002F00C02042A07D09A6802F00C02082AE0
:1017D0000AD15B685A0207D58D4B1B689B03DCD589
:1017E0006368002BD9D1D3E76368894DB3F5803F97
:1017F00013D12B6843F480332B60FEF7D5FE844D64
:1018000006462B689F03C8D4FEF7CEFE801B6428D3
:10181000F7D9032002B0BDE8F0819BB92B6823F40F
:1018200080332B602B6823F480232B60FEF7BCFEF3
:1018300006462B689803B0D5FEF7B6FE801B6428D9
:10184000F7D9E6E7B3F5A02F2B6803D143F4802343
:101850002B60CEE723F480332B602B6823F48023A6
:10186000CAE76B4B9A6812F00C0F07D09A6802F027
:101870000C02082A11D15B6859020ED4644B1A6815
:10188000920702D5E268012A82D11A68216922F002
:10189000F80242EAC1021A6082E7E3685C4DBBB11C
:1018A0002B6843F001032B60FEF77EFE06462B6893
:1018B0009F0707D52B68226923F0F80343EAC20388
:1018C0002B606DE7FEF770FE801B0228EFD9A0E7C2
:1018D0002B6823F001032B60FEF766FE06462B689B
:1018E00098077FF55DAFFEF75FFE801B0228F6D9F3
:1018F0008FE76369464D83B16B6F43F001036B67FC
:10190000FEF752FE06466B6F9B073FF54DAFFEF7A5
:101910004BFE801B0228F6D97BE76B6F23F0010397
:101920006B67FEF741FE06466B6F9F077FF53CAF86
:10193000FEF73AFE801B0228F6D96AE7344B1A6C90
:10194000D00027D41A6C012642F080521A641B6C16
:1019500003F080530193019B2E4D2B68D9051BD5B5
:10196000A3682B4D012B27D12B6F43F001032B676D
:1019700041F28835FEF718FE254F80463B6F9B07E6
:101980003FD5002E3FF414AF214A136C23F080534F
:1019900013640DE70026DFE72B6843F480732B60A8
:1019A000FEF702FE07462B68DA05D9D4FEF7FCFDE8
:1019B000C01B6428F7D92CE7ABB92B6F41F28838EC
:1019C00023F001032B672B6F23F004032B67FEF733
:1019D000EBFD07462B6F9807D3D5FEF7E5FDC01B3F
:1019E0004045F7D915E7052B2B6F03D143F00403CE
:1019F0002B67B9E723F001032B672B6F23F0040358
:101A0000B5E7FEF7D1FDA0EB0800A842B6D900E784
:101A10000038024000700040384DAB6803F00C0302
:101A2000082B41D02B68022823F080732B602ED125
:101A3000FEF7BAFD06462B68990122D4226AE369B3
:101A40001343626A43F0005343EA8213E26A43EAB3
:101A50000263A26A294C5208013A43EA02436B60CE
:101A60002B6843F080732B60FEF79EFD05462368CC
:101A70009A013FF5A1AEFEF797FD401B0228F6D96B
:101A8000C7E6FEF791FD801B0228D4D9C1E6FEF718
:101A90008BFD04462B689B017FF58EAEFEF784FD1F
:101AA000001B0228F6D9B4E601286B683FF4B2AEF9
:101AB00003F48002E1698A427FF46AAE03F03F02D8
:101AC000216A8A427FF464AE47F6C072616A1A40A6
:101AD000B2EB811F7FF45CAEA26A03F4403152087E
:101AE000013AB1EB024F7FF453AEE26A03F0706348
:101AF000B3EB026F14BF012000208BE600380240D8
:101B000070B5204C88B00D461646236BE0B943F003
:101B1000010303A92363236B059003F001030790DE
:101B200019480193019B4FF480730393022304939C
:101B300003230693FEF79AFFA16821F0EC6131437D
:101B40002943A16008B070BD43F0040303A90F4806
:101B50002363236B03F004030293029B4FF400738F
:101B6000039302230493032306930023059307930F
:101B7000FEF77CFFA36845EAC60123F078450D43D4
:101B8000A560DFE700380240000002400008024084
:101B9000134908B58B6803F00C03042B03D0082B02
:101BA00003D0104808BD104808BD4A684B68496812
:101BB00002F03F0213F48003C1F388111ABF0A48F0
:101BC00000230848A1FB0001FEF72AFB044B5B68D9
:101BD000C3F3014301335B00B0FBF3F008BD00BF6A
:101BE000003802400024F40040787D012DE9F041E6
:101BF0000D46044610B90120BDE8F081464A13683D
:101C000003F00F038B4229D321688F0731D4C80713
:101C100044D4414A136803F00F039D4268D32268FD
:101C2000510771D4130707D53C4A2169936823F4FF
:101C3000604343EAC1039360FFF7AAFF374B384A7A
:101C40009B68C3F30313D35CD840364B1860364B04
:101C50001868FEF76DFC0020BDE8F081136823F0E2
:101C60000F030B431360136803F00F039942C2D1B3
:101C7000CAE711F0040F294B03D09A6842F4E052EE
:101C80009A600E0703D59A6842F460429A609A6897
:101C9000A06822F0F00202439A60B8E761681F4B27
:101CA00001291A681CD112F4003FA4D09A6841F2AD
:101CB00088381A4E22F003020A439A60FEF774FC39
:101CC0000746B368626803F00C03B3EB820FA0D041
:101CD000FEF76AFCC01B4045F3D90320BDE8F08144
:101CE000022902D112F0007FDFE712F0020FDCE7D9
:101CF000136823F00F032B431360136803F00F03E3
:101D00009D427FF478AF8AE70449E0688B6823F44A
:101D1000E05303438B6085E7003C024000380240FB
:101D2000606000080001002004000020014B1868DA
:101D3000704700BF000100202DE9F7430268044608
:101D400012F001060BD0B84B996821F4000199609C
:101D5000C66A99683143B6FA86F67609996012F434
:101D6000002512D0B049656BD1F88C30B5F5801FD5
:101D700023F4401308BF012643EA050316BFB5FA52
:101D800085F500256D09C1F88C30D70210D5A6481D
:101D9000A16BD0F88C30B1F5800F23F4400343EAF7
:101DA0000103C0F88C3000F04C81002908BF0125E8
:101DB000900631D59C4B9D4F1A6C42F080521A64AC
:101DC0001B6C03F080530193019B3B6843F48073C9
:101DD0003B60FEF7E9FB80463B68D90540F1338163
:101DE000914F3B6F13F4407340F03881A36A03F4C2
:101DF0004072B2F5407F8C4A40F05681916823F0E2
:101E0000704021F4F81120F4407001439160C3F355
:101E10000B03116F0B4313672368DF060CD5824A4F
:101E2000D2F88C1021F08071C2F88C10D2F88C108E
:101E3000206B0143C2F88C10580408D57A49E06D34
:101E4000D1F8902022F440320243C1F890201904C6
:101E500008D57549206ED1F8902022F44022024323
:101E6000C1F89020DA0308D56F49606ED1F8902050
:101E700022F440120243C1F890205F0608D56A4957
:101E8000E06BD1F8902022F003020243C1F89020C9
:101E9000180608D56449206CD1F8902022F00C0275
:101EA0000243C1F89020D90508D55F49606CD1F88C
:101EB000902022F030020243C1F890209A0508D504
:101EC0005949A06CD1F8902022F0C0020243C1F819
:101ED00090205F0508D55449E06CD1F8902022F499
:101EE00040720243C1F89020180508D54E49206D74
:101EF000D1F8902022F440620243C1F89020D90426
:101F000008D54949606DD1F8902022F4405202432F
:101F1000C1F890209A0408D54349A06DD1F89020CB
:101F200022F440420243C1F890209F020CD53E4863
:101F3000616FD0F89020B1F1006F22F0006208BF0D
:101F400001250A43C0F89020580308D53649E06EB1
:101F5000D1F8902022F040720243C1F8902019027B
:101F600008D53149A06FD1F8902022F08052024369
:101F7000C1F890205A0108D52B49E06FD1F8902084
:101F800022F000520243C1F89020002E40F09080D1
:101F9000B3F1007F00F08C80012D50D1224D2B68D1
:101FA00023F080532B60FEF7FFFA06462B689F0054
:101FB00000F1E1802068050301D5636B1BB1C1020C
:101FC00018D5A36BB3B918496369D1F8882025697E
:101FD0001B0602F4403243EA85131343C1F88830EC
:101FE000D1F88C30226A23F4F853013A43EA0223F1
:101FF000C1F88C30820210D5636FB3F1006F0CD141
:102000000949A369D1F8882020691B0402F0706295
:1020100043EA80131343C1F88830034C236843F02C
:102020008053236004E000BF00380240007000408D
:10203000FEF7BAFA054623689B0040F1A380002012
:1020400009E00126B4E6FEF7AFFAA0EB0800642829
:102050007FF6C2AE032003B0BDE8F083A26A02F4AB
:10206000407293423FF4C2AE3B6F3A6F23F4407329
:1020700042F480323A673A6F22F480323A673B6723
:102080003B6FDA077FF5B2AEFEF78EFA41F2883980
:1020900080463B6F9B073FF5A9AEFEF785FAA0EBA4
:1020A00008004845F5D9D5E7916821F4F811ADE667
:1020B000384E336823F080633360FEF775FA0746C5
:1020C00033681B0151D42268D7070DD5E36A5BB989
:1020D000A368D6F8841060681B0701F0706143EABA
:1020E00080130B43C6F88430100303D5636BB3F53C
:1020F000801F05D0D10219D5A36BB3F5800F15D180
:102100002449E368D1F8840066681B0600F0E040CB
:1021100043EA86130343C1F88430D1F88C00E369A5
:1021200020F01F00013B0343C1F88C3092010AD517
:10213000E36862681B0643EA8213A26843EA0273FB
:10214000144AC2F88430134E336843F0806333601E
:10215000FEF72AFA074633681B013FF51DAFFEF76D
:1021600023FAC01B6428F6D974E7FEF71DFAC01BDA
:102170006428A5D96EE7FEF717FA801B64287FF65E
:1021800015AF67E7FEF710FA401B64287FF653AFE0
:1021900060E700BF0038024003685A6822F0E0029E
:1021A0005A604268B2F5827F0AD18268B2F5004F68
:1021B00002D0B2F5806F03D11A6822F040021A6093
:1021C000826AB2F5005F07D11A6822F400521A60E1
:1021D0001A6842F400521A60012380F85D3000232F
:1021E00080F85C300320704770B504460D461646F3
:1021F0002368986810F0800000D170BD6A1CF8D088
:10220000FEF7D2F9801B8542F2D82046BDE8704027
:10221000FFF7C2BFF8B505460C4616461F462968AB
:102220008868204000D1F8BDB4F5C06F00D10B7BA9
:10223000731CF5D0FEF7B8F9C01B8642EFD82846CC
:10224000BDE8F840FFF7A8BF70B513460D46164627
:102250000A464FF4C0510446FFF7DCFF28B1236E55
:10226000032043F0200323660FE032462946204630
:10227000FFF7BAFF0028F2D133462A464FF4C06177
:102280002046FFF7C7FF0028E9D170BDF8B54368C5
:1022900004460E461746B3F5827F0BD18368B3F52B
:1022A000004F02D0B3F5806F04D123681A6822F082
:1022B00040021A603A4631462046FFF795FF054630
:1022C00028B1236E032543F02003236613E06368DF
:1022D000B3F5827F0FD1A368B3F5004F02D0B3F5F9
:1022E000806F08D13B4632464FF4C0612046FFF76D
:1022F00091FF0028E5D12846F8BD70B504460028B6
:102300004ED00023836290F85D3003F0FF021BB9CA
:1023100080F85C2003F0B6F902232168E26884F8B3
:102320005D300B68B2F5E06F23F040030B604FF0B7
:10233000000332D91846B2F5706F18BFA362236B41
:102340002BB9B2F5E06F8CBF022301232363A6688B
:102350006368A56933432669334366693343E66995
:102360003343266A3343A66A334305F400762D0CC3
:10237000334305F004050B60636A1A43636B1A4329
:102380002A43024300204A60CB6923F40063CB61F7
:102390000123206684F85D3070BD4FF48050CCE797
:1023A000012070BD10B5044680B10268022380F898
:1023B0005D30136823F04003136003F0F1F900204F
:1023C000206684F85C0084F85D0010BD012010BD1B
:1023D0002DE9F3411E4690F85C3004460D46012B72
:1023E000904600F0B080012380F85C30FEF7DCF806
:1023F000074694F85D00C0B2012840F0A280002D8D
:102400005ED0B8F1000F5BD003230020A56384F8F1
:102410005D30A3682066B3F5004FA4F83E802064C9
:10242000A4F84400A4F846002065E064A4F83C80C9
:10243000206803D1036843F48043036003685B06AC
:1024400003D4036843F040030360E368B3F5E06F2F
:1024500063683ED913B1B8F1010F07D135F8023BDB
:10246000C360A563E38F013B9BB2E387E38F9BB21D
:10247000A3B93A4631462046FFF7E6FE00285DD173
:10248000A36833B901932368DA6801929B680193CA
:10249000019B206E003018BF012011E02268936874
:1024A000980705D5A36B33F8021BD160A363D9E766
:1024B000FEF77AF8C01BB042D8D3711CD6D00320E7
:1024C000012384F85D30002384F85C3002B0BDE85D
:1024D000F08113B1B8F1010F13D1E38F9BB2012B3F
:1024E00006D935F8023BC360A563E38F023B06E0E3
:1024F0002B780373A36B0133A363E38F013B9BB280
:10250000E387E38F9BB2002BB3D023689A689207CE
:102510000CD5E28FA06B92B2012A04D930F8022BBD
:10252000DA60A063E1E702781A73E3E7FEF73CF8AC
:10253000C01B8642E5D8731CE3D0C0E72023236686
:102540009EE70220BCE70220C0E72DE9F8431E46C3
:1025500090F85C3004460D46012B9146089F00F030
:102560001581012380F85C30FEF71EF894F85D3089
:1025700080466168DBB2012B0AD0B1F5827F40F062
:102580000381A068002840F0FF80042B40F0FC800D
:10259000002D49D0B9F1000F46D0002E44D094F858
:1025A0005D30042B02D0052384F85D30E2680023FF
:1025B0002068B2F5E06F2366E364A4F84660236503
:1025C000E687C4F84090A4F84460A563A6874368F2
:1025D00001D8012E2AD923F48053436003685B0697
:1025E00003D4036843F040030360B2F5E06F56D9AB
:1025F00009B1012E07D135F8023BC360E38FA56313
:10260000013B9BB2E3870125E38F9BB28BB9B4F802
:1026100046309BB26BB9424639462046FFF714FE5E
:10262000002834D020232366012030E043F4805377
:10263000D3E72268936899070DD5E38F9BB253B116
:102640004DB1A36B002533F8021BD160A363E38F68
:10265000013B9BB2E3879368DB070FD5B4F84630A4
:102660009BB25BB1D2680125236C23F8022B236453
:10267000B4F84630013B9BB2A4F84630FDF794FF16
:10268000A0EB08008742BFD87E1CBDD003200123E9
:1026900084F85D30002384F85C30BDE8F88309B12C
:1026A000012E0BD1E38F9BB2012B51D935F8023BA0
:1026B000C360E38FA563023B9BB2E3870125E38FF1
:1026C0009BB223B9B4F846309BB2002BA3D022684A
:1026D0009368980711D5E38F9BB273B16DB1E38F07
:1026E0009BB2012BA36B3BD933F8021BD160A363D0
:1026F000E38F023B9BB20025E38722689368D907EA
:102700001DD5B4F846309BB2CBB1B4F846309BB27D
:10271000012B236C2CD9D16823F8021B2364B4F855
:102720004630023B9BB2A4F84630B4F846309BB228
:10273000012B03D8536843F4805353600125FDF700
:1027400033FFA0EB08008742B9D87B1CB7D09DE7C8
:102750002B780373A36B0133A363E38F013BABE7D8
:102760001B781373A36B0133A363E38F013BC1E7B2
:10277000127B1A70236C01332364B4F84630013B9A
:102780009BB2A4F84630D9E7022080E70220BDE8DA
:10279000F883000038B5044690F85C00012800F08A
:1027A000C980012084F85C0094F85D00C0B2012863
:1027B0000BD06568B5F5827F40F0B880A568002D24
:1027C00040F0B480042840F0B180002900F0B080CF
:1027D000002A00F0AD80002B00F0AA8094F85D0084
:1027E000042802D0052084F85D00002022642268BD
:1027F0002066A163E387A4F846305168E06421F4C1
:10280000C0412065A387A4F844305160E168A06D01
:10281000B1F5E06F216828D9536823F480535360E1
:1028200094F85D300C31226C042B0BBF424B434BB0
:10283000036403640CBF424B424BC363424BC3640B
:1028400000230365B4F846309BB2FEF705F8034653
:10285000002847D0236E012043F01003236684F83C
:102860005D00002384F85C3038BD556845F4805520
:102870005560656DAD69B5F5005F0AD113F0010FC4
:1028800053681ED123F480435360E38FC3F34E0398
:10289000E3878369B3F5005FC2D1536823F48053A3
:1028A0005360B4F8463013F0010F536811D123F48C
:1028B00000535360B4F84630C3F34E03A4F84630D7
:1028C000AEE743F480435360E38FC3F34E03013319
:1028D000DEE743F400535360B4F84630C3F34E03CD
:1028E0000133EBE72268606D51680C3241F0010161
:1028F00042F8081C0364C363C3640365E38FA16BE0
:102900009BB2FDF7A9FF0028A4D123681A685206DC
:1029100003D41A6842F040021A605A6842F020025A
:102920005A605A6842F002025A609AE7022098E719
:10293000012096E7022038BD952A0008A12A000848
:10294000CF2A0008232B0008AD2A0008134682680E
:1029500070B504460D465AB94668B6F5827F07D170
:102960000422BDE8704080F85D200A46FFF712BFE0
:1029700094F85C10012900F0828094F85D00012138
:10298000C0B284F85C10884277D1002D3CD0002B77
:102990003AD00421B2F5004F256484F85D104FF061
:1029A0000001A4F844302166E164A4F846302165B2
:1029B000A187E187216803D10B6823F480430B6072
:1029C0004B68A06D23F400534B60E368B3F5E06FF0
:1029D0004B681DD923F480534B602A4B2A460C3197
:1029E0000364294BC363294BC36400230365B4F814
:1029F00046309BB2FDF730FF70B3236E012043F0E9
:102A00001003236684F85D00002384F85C3070BDF9
:102A100043F480534B608369B3F5005FDDD14B68AD
:102A200023F480534B60B4F8463013F0010F4B6829
:102A300009D123F400534B60B4F84630C3F34E037E
:102A4000A4F84630C9E743F400534B60B4F846306D
:102A5000C3F34E030133F3E723681A68520603D425
:102A60001A6842F040021A605A6842F020025A6026
:102A70005A6842F001025A60C6E70220C4E7022009
:102A800070BD00BF952A0008CF2A0008AD2A0008B3
:102A90007047704708B5806BFFF7FBFF08BD7047B4
:102AA00008B5806BFFF7FBFF08BD7047806B0268BD
:102AB00008B5536823F003035360036E43F010031B
:102AC0000366012380F85D30FFF7EFFF08BD38B5DE
:102AD0000546846BFDF768FD02462B681B68DB0525
:102AE0001BD423682046596821F020015960596899
:102AF00021F0030159606421FFF7C8FB08B12023CE
:102B000023660023A4F84630012384F85D30236E49
:102B10001BB12046FFF7C9FF38BD204602F09EFEDC
:102B200038BD38B50546846BFDF73EFD02462B687F
:102B30001B68DB051FD4216820464B6823F0200367
:102B40004B606421FFF780FB18B1236E43F0200334
:102B500023662268536823F0030353600023E3874E
:102B6000A4F84630012384F85D30236E1BB1204663
:102B7000FFF79BFF38BD2046FFF78AFF38BD0000F6
:102B8000036859689A6830B502F0410585B004467B
:102B9000012D05D14D0603D5C36C984705B030BD56
:102BA000950704D5080602D5236D2046F5E712F4F3
:102BB000B07FF3D08D06F1D550060ED594F85D00A8
:102BC000002503284CD0206E40F0040020660095BC
:102BD000D868009098680090009895060CD5206EF3
:102BE00040F001002066002002909868029018686A
:102BF00020F0400018600298D00508D5226E42F0FF
:102C000008022266002203929A680392039A226EB7
:102C1000002AC3D05A6822F0E0025A60012284F8E8
:102C20005D208A0723D05A68A06D22F003025A6003
:102C300040B1114B0365FDF74CFE18B1236E43F014
:102C400040032366606D0028A8D00B4B0365FDF799
:102C500040FE0028A2D0236E43F0400323669DE788
:102C60000195DA6801929B680193019B96E72046E3
:102C7000FFF71BFF92E700BF7D2C000808B5806BB3
:102C80000023A0F84630C387FFF70FFF08BD000000
:102C9000304A0368904212D0B0F1804F0FD0A2F5B5
:102CA0007C4290420BD002F58062904207D002F540
:102CB0008062904203D002F57842904219D14A686E
:102CC00023F070031343234A904229D0B0F1804F80
:102CD00026D0A2F57C42904222D002F5806290423A
:102CE0001ED002F5806290421AD002F578429042DE
:102CF00016D0194A904213D002F5806290420FD04C
:102D000002F5806290420BD0A2F59832904207D033
:102D100002F58062904203D002F58062904203D1B6
:102D200023F44073CA6813434A6923F080031343B2
:102D300003608B68C3620B688362064B984203D0C2
:102D400003F58063984201D10B690363012343615A
:102D5000704700BF000001400040014010B504462C
:102D6000A0B190F83D3003F0FF021BB980F83C2081
:102D700002F03EFD02232068211D84F83D30FFF75C
:102D800087FF0123002084F83D3010BD012010BDD5
:102D900010B50A43846842EA032324F47F442343A2
:102DA000836010BD90F83C30012B70B504464FF0A5
:102DB000020017D084F83D000123206884F83C30DD
:102DC0008268414B134083600B68402B65D015D857
:102DD000102B0CD007D853B10123002084F83D30CC
:102DE00084F83C0070BD202B01D0302BF4D18268D8
:102DF00043F0070322F0700213431AE0602B34D033
:102E000019D8502BE8D14A68CE68016A056A21F0CA
:102E10000A0125F001050A430562836923F0F003E6
:102E200043EA061383610262836823F0700343F070
:102E300057038360D0E7702B0CD0B3F5005FCBD184
:102E4000CB684A688968FFF7A3FF2268936843F458
:102E5000804308E0CB684A688968FFF799FF2268D9
:102E6000936843F077039360B6E74D68CE68016AD4
:102E700021F0100101628269036A22F4704223F09A
:102E8000A00342EA063243EA0513826103628368C3
:102E900023F0700343F06703CBE74A68CE68016A0A
:102EA000056A21F00A0125F001050A4305628369DC
:102EB00023F0F00343EA061383610262836823F080
:102EC000700343F04703B4E78800FEFF90F83C30FE
:102ED000012B4FF0020370B53ED080F83D30012247
:102EE00003681E4D80F83C20AB425A689C6802D0B3
:102EF0001B4EB34203D122F470024E6832430E6877
:102F000022F07002AB4242EA06025A6019D0B3F1D5
:102F1000804F16D0134A934213D002F58062934239
:102F20000FD002F5806293420BD002F578429342B3
:102F300007D002F57052934203D0A2F59432934227
:102F400004D1896824F080020A439A60012380F842
:102F50003D30002380F83C30184670BD0000014031
:102F600000040140000400400A4B013B01D1032052
:102F700070470269002AF8DA0369064A43F0010340
:102F80000361013AF3D0036913F00103F9D1184644
:102F9000704700BF410D030084B038B505AD04464D
:102FA00085E80E000A9B119D012B29D1836B23F428
:102FB00080338363C36823F4840323F04003C36036
:102FC000C36843F01003C360C36823F44013C360B5
:102FD000012D03D1E36843F48013E3602046FFF73B
:102FE000C3FF089B012B07D1A36843F00603A3602E
:102FF000A36843F02003A360BDE8384004B07047E5
:10300000032B32D1836B23F480338363C36823F4AF
:10301000840323F04003C360C36823F44013C360F8
:10302000C36823F01003C360836B43F4000383631E
:10303000134B9A6942F004029A61124A996989070E
:103040000FD50A2202201A60DA6842F4716242F057
:103050000302DA601A6842F001021A60FDF7AAFA68
:10306000B6E7013AEAD10120C6E7C36843F040035E
:10307000C360FFF779FFA36B43F48033A363B0E72A
:10308000007C0140410D0300022A58D12E4B2F4AEB
:103090000B44934247D92E4B2E4A0B44934244D9BA
:1030A000A1F574032C4AA3F5105393423FD9A1F123
:1030B000837302F5C332A3F5E743A032934238D9B4
:1030C000264B274A0B44934235D9264B02F59222D0
:1030D0000B4402F5787293422FD9234B02F5C32299
:1030E0000B4402F52072934229D9A1F1B77302F57E
:1030F000B712A3F5585302F55872934221D91B4BCE
:1031000002F512220B4402F5F862934294BF0723A2
:103110000623C26822F47052C260C26842EA832366
:10312000C360002070470F23F3E70E23F1E70D2360
:10313000EFE70C23EDE70B23EBE70A23E9E709238D
:10314000E7E70823E5E700BF405327FFFF340C0003
:10315000401E1BFF3F420F007F4F120060B6E5FE8E
:103160005FE3160000D3CEFEC05BB3FEE05459FE11
:10317000836843F00103836000207047836823F075
:10318000010383600020704708B5C368012923F05C
:10319000C043C36008D1C36843F00053C36032200A
:1031A000FDF708FA002008BD19B9C36843F0804351
:1031B000F4E7012008BD00008901074A41F0200121
:1031C0000161013A05D0036913F02003F9D11846D3
:1031D00070470320704700BF410D03001023064ACB
:1031E0000361013A05D0036913F01003F9D11846C1
:1031F00070470320704700BF410D0300D0F800382E
:103200001943C0F8001800207047000084B02DE971
:10321000F843044609A80F4680E80E0000230B9AE5
:103220000E99139D1E4603F14000013304EB80000C
:103230000F2B4660F7D104F50066002D6BD1736843
:1032400043F002037360A36B23F40013A3632368AA
:1032500043F040032360236843F08003236000238E
:103260000129C4F8003ED4F80038C4F8003859D118
:10327000002A55D100212046FFF7C0FF102120462B
:10328000FFF79AFF01462046FFF7A8FF00284DD11F
:10329000081C18BF0120002304F510624FF0904E67
:1032A0004FF0006C19464FF67F3833617361F3615C
:1032B000BB423DD1002104F530624FF0904E4FF0FB
:1032C000006C0F464FF67F388B4244D1336923F4AC
:1032D000807333610023A3616FF0804363610C9BB3
:1032E0001BB9A36943F01003A361A269234B1343E5
:1032F000A3610F9B1BB1A36943F00803A361012DD8
:1033000005D1A36943F0804343F00403A361BDE802
:10331000F84304B07047A36B43F40013A3639EE724
:103320000121A8E70329A3D00321A4E70120B2E7E4
:10333000D2F80090B9F1000F0BDA3BB9C2F800C027
:1033400011610133C2F808802032B1E7C2F800E011
:10335000F6E71160F4E7D2F80090B9F1000F0BDA4C
:1033600039B9C2F800C017610131C2F808802032B3
:10337000AAE7C2F800E0F6E71760F4E700383C80FF
:10338000D0F8083813F0060004D013F0020F14BF71
:1033900002200F20704770B54A7800F500630C7862
:1033A000012ADE6904F00F051BD1AA4000EB44108E
:1033B0003243DA61D0F800391A0410D48B68C97826
:1033C000C3F30A03D0F8002943F0805343F40043C9
:1033D00043EA814343EA84531343C0F80039002091
:1033E00070BD4FF4803200EB4410AA403243DA61E2
:1033F000D0F8003B1B04F2D48B68C978C3F30A03EE
:10340000D0F8002B43F0805343F4004343EA814358
:103410001343C0F8003BE2E730B54B7800F500629B
:103420000C78012B4FF0200304F00F0513FB040070
:1034300020D1D0F80039002B0BDAD0F8003943F056
:103440000063C0F80039D0F8003943F08043C0F879
:1034500000390123D16BAB40DB431940D163D16903
:103460000B40D361144BD0F800291340C0F8003949
:10347000002030BDD0F8003B002B0BDAD0F8001B49
:1034800041F00061C0F8001BD0F8001B41F0804102
:10349000C0F8001B4FF48033D16BAB40DB431940C5
:1034A000D163D1690B40D361044BD0F8002B13409A
:1034B000C0F8003BDCE700BF007833EC0078F3EFA6
:1034C000F0B54B780C78012B4E694FF02003414F3B
:1034D00059D113FB040336BBD3F8105925F0FF551F
:1034E00025F4C015C3F81059D3F8105945F4002538
:1034F000C3F81059D3F810592F40C3F81079012A96
:103500004FF0200329D10A691AB113FB0403C3F851
:10351000142900EB4410D0F8002942F00442C0F80E
:1035200000290020F0BD03F510631D692F401F61C5
:103530001D6925F0FF5525F4C0151D618D68AE424B
:1035400088BF4D611D6945F400251D614D691E69E7
:10355000C5F3120535431D61D1E713FB0404D4F80C
:10356000003943F00443C4F800394B69002BD8D02C
:103570000A78D0F8343802F00F0101228A401A4349
:10358000C0F83428CDE713FB040000F530631C6954
:1035900027401F611C6924F0FF5424F4C0141C61EF
:1035A0008C6806B14C611D69C4F31204012A45F40C
:1035B00000251D611D6944EA05041C6102D1CA6829
:1035C00002B15A61D0F8003B43F00443C0F8003B1D
:1035D000A7E700BF0000F8FF10B59DF808404CB900
:1035E000033300EB023023F0030300F580500B445B
:1035F000994201D1002010BD51F8042B0260F7E779
:10360000F7B54B7820240E78012B6E4F4B6914FBD5
:10361000060440F09280002B38D104F51065D4F8F0
:10362000104924F0FF5424F4C0142C612C6944F494
:1036300000242C612C6927402F61012A4FF02004BF
:103640004ED10B691BB114FB0604C4F81439CB78B6
:10365000012B10D1D0F8083813F4807F4FF02003ED
:1036600013FB0603D3F800290CBF42F0005242F0CE
:103670008052C3F8002900EB4610D0F8003943F01F
:103680000443C0F80039002003B0F0BDD4F810594D
:1036900004F510642F40276125698F6825F0FF55D8
:1036A00025F4C0152561DD19D4F810E0013DB5FB06
:1036B000F7F7454D05EAC74545EA0E052561C3F311
:1036C000120527693D432561CD78012DB5D12569C6
:1036D00025F0C0452561256945F000552561ACE719
:1036E00014FB0604D4F8005945F00445C4F8005909
:1036F000CD78012D0CD0002BC5D00B78D0F83448F4
:1037000003F00F02012393402343C0F83438BAE793
:10371000D0F808589BB215F4807FD4F800590CBF3C
:1037200045F0005545F08055C4F800590C780092DA
:103730002246C968FFF750FFA5E704F530663569F2
:103740002F403761356925F0FF5525F4C0153561E7
:103750008D6823BB3369C5F312051D433561336999
:1037600043F40023012A336102D1CB6803B17361B2
:10377000CB78012B0CD1D0F8083813F4807FD4F823
:10378000003B0CBF43F0005343F08053C4F8003BB0
:10379000D4F8003B43F00443C4F8003B73E72B44E8
:1037A000094FD6F810E0013BB3FBF5F307EAC34736
:1037B0009BB247EA0E076B433761C3F312033769C5
:1037C0003B43CFE70000F8FF0000F81F033200F58D
:1037D000805022F003020A44914201D1084670470A
:1037E000036841F8043BF7E74B780A78012B4FF068
:1037F000200313FB020012D1D0F80039002B06DBA6
:103800002AB1D0F8003923F08043C0F80039D0F84D
:10381000003943F40013C0F8003900207047D0F895
:10382000003B002B06DB2AB1D0F8003B23F080439D
:10383000C0F8003BD0F8003B43F40013C0F8003B55
:10384000EBE74B780A78012B4FF0200313FB0200C3
:1038500011D1D0F8003923F40013C0F80039CB7827
:10386000023B012B05D8D0F8003943F08053C0F853
:10387000003900207047D0F8003B23F40013C0F853
:10388000003BCB78023B012BF3D8D0F8003B43F050
:103890008053C0F8003BECE7D0F80038090123F46E
:1038A000FE6301F4FE61C0F80038D0F80038194317
:1038B000C0F800180020704708B5D0F8043823F08D
:1038C0000203C0F804380320FCF774FE002008BD92
:1038D00008B5D0F8043843F00203C0F804380320D8
:1038E000FCF768FE002008BD4269806910407047FF
:1038F000D0F8183800F50060C0691840000C704717
:10390000D0F8183800F50060C069184080B27047E0
:1039100000EB411100F50060D1F8082B4069104020
:10392000704710B5D0F81048D0F8343800EB41108B
:1039300001F00F0100F51060CB408068DB01DBB2C5
:103940002343184010BD406900F001007047D0F8D3
:10395000003923F4FF6323F00703C0F80039D0F8DF
:10396000043843F48073C0F8043800207047000026
:1039700010B5144B046C9C4203D9D0F8003B002BCB
:103980001EDB00240129C0F8104BD0F8104B44F482
:103990000024C0F8104BD0F8104B44F01804C0F8C5
:1039A000104BD0F8104B44F0C044C0F8104B07D176
:1039B000C0F8142BD0F8003B43F08023C0F8003B44
:1039C000002010BD0A30544F202303800048704768
:1039D0006000002020230380004870474000002042
:1039E00020230380004870478C0000200A230380B6
:1039F000004870478000002038B504464FF41D7021
:103A000002F03CFAC4F8BC0208B9022038BD237C9D
:103A1000B3B94FF4007302220121204602F08CF862
:103A200001254FF40073A4F8785102228121204629
:103A300002F082F82046258700F0CAF8002038BD41
:103A40000125402302220121204602F075F8A4F846
:103A500078514023E9E738B504460025012102F0FA
:103A60007BF88121A4F87851204602F075F82046B1
:103A7000258700F0E7F8D4F8BC0218B102F006FA86
:103A8000C4F8BC52002038BD00232DE9F341ADF845
:103A9000063005460B780E46D0F8BC7213F0600273
:103AA0002DD0202A04D14A78FE2A05D0FF2A1BD027
:103AB00001F023FB032413E04C88002C53D1B1F810
:103AC0000680B8F1010F4ED11A064CD5D0F8C0329D
:103AD0009B699847424638603946284601F034FBD6
:103AE000204602B0BDE8F0814A88002A3BD1CC884C
:103AF000002C38D11B0636D400F08CF8F0E74B7858
:103B00000B2B30D8DFE803F006202F2F2F2F2F2F7D
:103B10002F2F121990F89C32032B24D102220DF181
:103B20000601284601F010FB0024D9E790F89C32EA
:103B3000032B18D10122391DF3E790F89C32032B97
:103B400011D18B787B60EFE790F89C32032BEBD19F
:103B50004C88002CE8D1097902F00CF8317928461C
:103B600000F018F9BCE731462846A1E708B500F097
:103B70008BF8002008BD08B500F0A2F8002008BDB1
:103B800019B1C0F8C012002070470320704738B543
:103B9000D0F8BC52044695F81C323BB9D5F818321F
:103BA00023B16B7A13B9012101F0F2FF8121204684
:103BB00001F0EEFF6B7A022B09D18121204601F042
:103BC000E7FF20460121BDE8384001F0E1BF38BDE4
:103BD00070B5D0F8BC42054600202072607284F8AF
:103BE000610284F8600284F86202D5F8C0321B6872
:103BF00098470121284601F0BDFF8121284601F0A8
:103C0000B9FF04F5047228461F230121BDE8704066
:103C100002F00AB870B50023D0F8BC620125044652
:103C200033728121757201F0C1FF2946204601F0EF
:103C3000BDFF06F50472294620461F23BDE87040EB
:103C400001F0F2BFD0F8BC3200221A7270470000B7
:103C500070B50C4B0546D0F8BC42C4F83032002396
:103C600084F83C1204F50C72237281210D2301F0BB
:103C7000CDFF04F5047228461F230121BDE87040E2
:103C800001F0D2BF55534253D0F8BC3210B51A7A66
:103C90000446022A03D012D3042A0ED910BD03F21F
:103CA0001F2293F81D1200F029FA002807DA0121DB
:103CB0002046BDE81040FFF7CBBF0021F9E710BD5B
:103CC00070B5D0F8BC420546267A16B1012E56D002
:103CD00070BDD4F814320121C4F83432D4F818324B
:103CE000C4F8383201F0AEFF1F2894F81D120BD132
:103CF000D4F81022264B9A4206D1012904D894F810
:103D00001E32013B0F2B0BD920230522284600F041
:103D100073FE022363722846BDE87040FFF737BF89
:103D200004F21F22284600F0E9F90028237A07DA76
:103D3000052BF0D101212846BDE87040FFF788BF70
:103D4000013B022B23D9E1680029F4D0D5F8BC222D
:103D5000D2F83802D2F81832401A82F83C628B420C
:103D6000C2F838024FF0040028BF0B4681211072C0
:103D700004F110022846BDE8704001F047BF04F28C
:103D80001F2294F81D1200F0B9F90028D2DB70BD93
:103D900055534243D0F8BC3210B55B7A0446022B2F
:103DA00008D1812101F0F4FE20460121BDE8104038
:103DB00001F0EEBE0A0606D5012B04D00121BDE8B4
:103DC0001040FFF745BF10BDD0F8BC0210B590F809
:103DD000613200EBC3040133DBB284F844220022D9
:103DE00084F84012042B84F8452214BF80F8613215
:103DF00080F8612210BD2DE9F04107460846D7F84A
:103E0000BC52D7F8C042D5F8706205F11008B5F879
:103E10006422B6F5007FD5F86C12646928BF4FF4B0
:103E20000076B6FBF2F3B1FBF2F29BB24146A0473B
:103E3000002808DA384603220421FFF7C5FF4FF0B7
:103E4000FF30BDE8F081D5F86C32D5F870423344CC
:103E5000A41BC5F86C32D5F83832C5F870429E1BE9
:103E6000C5F8386234B921463846FFF7F1FE002024
:103E7000BDE8F081B4F5007F234642464FF00101D2
:103E800028BF4FF40073384601F0CEFEEFE72DE96E
:103E9000F04107460846D7F8BC52D7F8C022B5F81B
:103EA000643205F11008D5F87062546941465E43EA
:103EB000D5F86C22B6F5007F28BF4FF40076B6FB2C
:103EC000F3F39BB2A047002808DA38460322042106
:103ED000FFF77AFF4FF0FF30BDE8F081B5F86432AC
:103EE000D5F86C22D5F87042B6FBF3F00244241AE0
:103EF000C5F86C22D5F83822C5F87042961BC5F873
:103F0000386234B921463846FFF7A2FE0020BDE8EA
:103F1000F0816343424601213846B3F5007F28BF54
:103F20004FF4007301F080FEF0E72DE9F041064602
:103F30000846D6F8BC42D6F8C022B4F8643204F180
:103F40001007D4F87052D2F8108039465D43D4F887
:103F50006C22B5F5007F28BF4FF40075B5FBF3F375
:103F60009BB2C047002808DA304611220421FFF72F
:103F70002BFF4FF0FF30BDE8F0812B463A46812100
:103F8000304601F043FEB4F86402D4F86C22B5FB6D
:103F9000F0F3D4F870021A44C01AD4F83832C4F8D6
:103FA0006C225D1BC4F87002C4F8385218B90323A0
:103FB0002372BDE8F0810020BDE8F08108B513440C
:103FC000D0F8BC22D2F868128B4206D921220521F2
:103FD000FFF7FAFE4FF0FF3008BD002008BD70B5B6
:103FE000D0F8BC4205460E46237A83BB94F91C32B6
:103FF000002B07DB202205212846FFF7E5FE4FF0C6
:10400000FF3070BD94F86232022B02D13A220221B5
:10401000F2E7D0F8C03208469B689847024600286D
:10402000F4D10123C4F86C0231462846C4F870323A
:10403000FFF7C4FF0028E2DBB4F86422D4F8703242
:104040005343D4F818229A42D4D1022323724FF456
:1040500000730020E36070BD2DE9F041D0F8BC4250
:1040600006468846237A002B45D1D4F818323BB94E
:10407000202205213046FFF7A7FE4FF0FF3537E03D
:1040800094F91C32002BF3DBD0F8C03208469B6851
:10409000984710B13A220221ECE7D6F8C0324046E8
:1040A000DB689847054608B12722F4E70127C4F8E2
:1040B0006C0202464146C4F870723B463046FFF738
:1040C0007DFF0028D9DBB4F86422D4F87032534362
:1040D000D4F818229342CBD1B3F5007F277204F1B4
:1040E0001002394628BF4FF40073304601F09CFDA2
:1040F0002846BDE8F0810125FAE700002DE9F043EC
:10410000137885B0074688465A2B1646D0F8BC422D
:1041100000F0AB816FD81E2B00F08F8129D8122BB5
:1041200000F043810DD8002B00F0E680032B00F057
:104130000981202205213846FFF746FE02236372DB
:10414000ECE01A2B00F082811B2BF2D194F8623242
:10415000012B137904D103F00302022A00F04A81F3
:1041600003F003030022012B40F05E8184F86222F9
:104170005EE1282B00F006822AD8232B00F08481F0
:10418000252BD6D1D0F8C03204F5197204F51A7176
:1041900040465B6898470546002840F0838194F8C4
:1041A0006232022B00F07E81D4F86832013B1A0E95
:1041B000E37422741A0C62741A0AB4F86432A2749A
:1041C0000022E375227562751A0A0823A275B4E00D
:1041D0002A2B00F017822F2BABD153789B0700F1CD
:1041E0000981D4F87032D4F86C22FFF7E7FE00287A
:1041F00080F2278192E0C22B00F0CF8346D8AA2B11
:1042000000F054822ED89E2B00F06D81A82B90D107
:10421000237A002B40F0EE8194F91C32002B6EDAE9
:1042200094F86232022B00F03D81D0F8C03208468B
:104230009B689847002840F03581F278B3781204E3
:1042400042EA036273791A43337942EA0322C4F8DB
:104250006C22F379B1791B0443EA0163717A0B4351
:10426000317AB0E1C02B00F05482C12B7FF461AFF2
:10427000BB48FEF797F87378BA4D032B00F25283D0
:10428000DFE813F04B035A035F036503E22B00F0F2
:1042900085821CD8E02B00F04982E12B7FF449AFE6
:1042A000FFF7DAFE01287ED1D7F8BC5241463846E6
:1042B000FFF7A1FD697CEC7CFF292D7D40F0528247
:1042C000FF2C40F05282284601F042F86BE0E42BCC
:1042D00000F0F282C0F04E82E62B7FF42AAF5378D2
:1042E000012B60D19578002D40F00E832A461021D5
:1042F0009D48FCF727FD21E0D4F818322BB120228D
:1043000005213846FFF760FD08E094F862120229A3
:1043100007D13A22FFF758FD052323724FF0FF35EE
:104320000CE0D0F8C03240469B689847054618B16B
:104330003A2202213846EDE70023E360284605B023
:10434000BDE8F083D4F81832002BD8D004F1100364
:1043500004F12202002103F8011B9A42FBD17023D1
:1043600094F8612223740C23E37594F860329A4226
:1043700013D004EBC302013392F84002DBB2A07405
:10438000042B92F84402207792F8452218BF84F853
:104390006032627708BF84F860121223E3603379D9
:1043A000122B98BFE3600025C8E7D4F81832002B21
:1043B000A5D05378DA071FD5B37863B906236B4AC3
:1043C000E36004F115030F3412F8011D03F801191D
:1043D0009C42F9D1E7E7802B0CD10823644AE360C3
:1043E00004F117030F3412F8011D03F801199C4260
:1043F000F9D1D8E7242283E7D0F8C03201EBC10815
:104400003279DB6903EB880898F80430053393426E
:1044100028BF1346E360002BC5D0013B9BB218F8C0
:104420000310E2181174F6E7022B03D184F862320C
:10443000E260B8E7032BFBD198E6137923B984F83F
:1044400062320025E56079E70123F8E71279172A3F
:1044500028BF172293B2E260464A002BA3D0013B4B
:104460009BB2985CE1180874F7E7127A1B2A28BF00
:104470001B2293B2E260404A002B94D0013B9BB2D6
:10448000985CE1180874F7E7D0F8C0320DF1060225
:1044900002A940465B689847054618B994F862320D
:1044A000022B02D13A2202212BE704F1100304F17E
:1044B0001C01024603F8012B9942FBD10823E37447
:1044C000029B6276013B190EE3752175190C61752B
:1044D000190A0223A1752376BDF806301A0AE3767D
:1044E0000C23A27629E7D0F8C03204F5197204F53E
:1044F0001A7140465B68984705460028D2D194F867
:104500006232022BCED0F37AB27A1B0443EA026302
:10451000727B1343327B43EA02230246E360511C61
:10452000D2B293422AD8D4F86832013B1A0EE3750E
:1045300022751A0C62751A0AB4F86432A275002248
:10454000E376227662761A0AA276F37AB27A1B04AE
:1045500043EA0263727B1343327B43EA0223ECE6B5
:10456000640200201A02002000100240E400002033
:10457000EC000020C7000020AC0000202244107492
:104580000A46CCE7237AABBB94F91C32002BBFF66A
:10459000B6AE94F86232022B84D0D0F8C03208460E
:1045A0009B68984700287FF47DAFF278B3781204B7
:1045B00042EA036273791A43337942EA0322C4F868
:1045C0006C22F179337A43EA012338464146C4F834
:1045D0007032FFF7F3FC0028FFF6A0AEB4F86422B7
:1045E000D4F870325343D4F818229A427FF487AE3D
:1045F000022323724FF40073E36041463846FFF70D
:1046000094FC51E0237A002B4AD1D4F81832002BC5
:104610003FF475AE94F91C32002BFFF670AED0F863
:10462000C03208469B68984700287FF43BAFD7F814
:10463000C0324046DB689847054608B1272232E77A
:10464000F278B378120442EA036273791A43337939
:1046500042EA0322C4F86C22F179337A43EA012357
:1046600038464146C4F87032FFF7A8FC0028FFF630
:1046700055AEB4F86422D4F870325343D4F81822FB
:1046800093427FF43CAE0121B3F5007F04F11002A8
:104690003846217228BF4FF4007301F0C5FA4DE689
:1046A00041463846FFF7F3FB054647E6237A002BE1
:1046B000F6D1D4F81832002B3FF421AE94F91C3215
:1046C000002BFFF61CAED0F8C03208469B68984716
:1046D00000287FF42DAED7F8C0324046DB689847FB
:1046E000054608B1272224E6F278B378120442EA9C
:1046F000036273791A43337942EA0322C4F86C22C5
:10470000F379B1791B0443EA0163717A0B43317A7F
:10471000A4E7FFF764FC4FF40072002104F11000DD
:1047200001F0C7FBAC4B1B78237466E75178D47853
:10473000FF2913D1204602A900F05CFDD7F8BC4246
:1047400041463846FFF74BFC4FF40072002104F15C
:10475000100001F0AEFB9DF80830E5E7002000F006
:1047600027FDE7E7002000F023FD2946204600F062
:104770001FFD18E6FFF770FC01287FF414AED7F890
:10478000BC4241463846FFF736FB637CA07C40EADA
:104790000320924B188000F07BFD04E6237A92F808
:1047A000019033BB94F91C32002BBFF6A8ADD0F8B2
:1047B000C03208469B689847024600287FF472AED4
:1047C000874B4146C4F86C0238461B78C4F87032F7
:1047D000FFF7F4FB0028FFF6A1AD0223B4F8642232
:1047E0002372D4F870325343D4F818229A427FF4DB
:1047F00086AD7B4B002104F110001A7856024FF46D
:104800000072E66001F055FB4AF25552D7F8BC42FF
:1048100092FBF6F1B4F8643206FB1120D4F8705222
:104820005D4309FB06635B1B08B101FB0662D21AFC
:104830006C4904F11006B2F5007F09683046A8BF44
:104840004FF40072194401F029FBB5F5007FB4F86C
:104850006432314628BF4FF40075D7F8C022404675
:10486000D2F81090D4F86C22B5FBF3F39BB2C84792
:10487000002802DA1122042143E52B463246812129
:10488000384601F0C3F9B4F86422B5FBF2F3D4F86A
:104890006C221A44C4F86C22D4F87022D21AD4F8CC
:1048A00038325D1BC4F87022C4F83852002A7FF4F5
:1048B0007AAD0323237276E5FFF791FB45234F2260
:1048C00096F802908DF8083052238DF80B201034A2
:1048D0008DF809308DF80A308DF80C30757800F0BD
:1048E000C0FC38B902AA835C0130052804F8013BFA
:1048F000F9D182E645EA0921204600F0F3FC412087
:10490000002100F045FD78E6012D7FF44CAD2A46EC
:1049100010213548FCF716FA45E5344A00231361A7
:1049200053612B70B378324E0C2B34D0182B15D02A
:10493000062B17D1182112E000232C4A1361012302
:10494000EEE72A4A0223002113615161E9E7274B70
:1049500002221A6101225A610323E2E70821234A55
:104960003370D1612148FDF7C8FC0021084600F0F2
:104970001FFCD7F8BC4241463846FFF730FB4FF4E6
:104980000072002104F1100001F093FA2B782374D7
:104990003378637431E61021E1E7FFF720FB70788C
:1049A000144DC3090CD04FF40072002104F1100023
:1049B00001F07FFA2B78B7E6204600F0E7FC1CE612
:1049C00010F003042870F7D0012000F0DFFC20462F
:1049D00000F0DDFC11E600BFF8000020FC00002024
:1049E000EC0000201C0200200010024064020020A5
:1049F0002803002005020020D0F8BC0210B590F872
:104A0000611200EBC1040131C9B284F844320023C1
:104A100084F84022042984F8453214BF80F86112DA
:104A200080F8613210BDA0B1D0F8B83213B10023C4
:104A3000C0F8B832D0F8CC3213B10023C0F8CC3271
:104A400009B1C0F8B4120123027080F89C3201F061
:104A500031B80320704737B500240546ADF806404D
:104A600051B1C0F8B8120DF106008B6A9847C5F82D
:104A7000CC02204603B030BD0320FBE701F04EB866
:104A8000D0F8B8320BB11B6818470320704708B53F
:104A9000D0F8B8320BB15B689847002008BD38B534
:104AA00000F2AA250446284600F013FB012394F8DF
:104AB000AA12C4F89432B4F8B032C4F8983201F0B3
:104AC0001F03012B0FD008D3022B12D0204601F078
:104AD0008001BDE8384001F05BB829462046BDE8BA
:104AE000384000F0F5B829462046BDE8384000F0CF
:104AF00035BA29462046BDE8384000F056BA70B5B0
:104B00000446164609BBD0F89432032B0ED1D0F8D8
:104B10005C31D0F8602193420AD99B1A31469A42FF
:104B2000C0F85C3128BF1A4600F023FB002070BD9E
:104B3000D0F8B8321B6923B190F89C22032A00D127
:104B40009847204600F01DFBF0E7D0F8B8329B698B
:104B500033B190F89C22032A02D1BDE87040184777
:104B6000032070BD70B5044616460D4600293AD1A3
:104B7000D0F89432022B0ED1C269036A9A4212D93C
:104B8000D21A3146C26100F0ECFA2B462A46294679
:104B9000204601F049F894F8A0320020012B2ED1D4
:104BA00084F8A00270BD0CD183699A4209D8D0F86C
:104BB0009822934205D20A4600F0D3FAC4F89852DC
:104BC000E3E7D4F8B832DB682BB194F89C22032ACF
:104BD00001D1204698478021204600F0D9FF204689
:104BE00000F0DAFAD7E7D0F8B8325B6933B190F861
:104BF0009C22032A02D1BDE870401847032070BDF3
:104C00000123002170B580F89C320446D0F8BC32F4
:104C1000C0F894124160C0F8A4121BB1D0F8B832A9
:104C20005B68984700224025012640231146204614
:104C300000F082FFA4F86461C4F860512B460022A2
:104C40008021204600F078FFA6842562002070BDF8
:104C500001740020704790F89C3280F89D32042344
:104C600080F89C320020704790F89C32042B04BFDF
:104C700090F89D3280F89C320020704708B590F87B
:104C80009C22032A04D1D0F8B832DB6903B19847DB
:104C9000002008BD002070470020704700207047AA
:104CA000012208B580F89C22D0F8B82212B15268CF
:104CB00001799047002008BD10B50446802100F01E
:104CC00067FF00212046BDE8104000F061BF0000F2
:104CD000F7B50B7804460E4603F06003202B11D085
:104CE000402B0FD07BBB4B78092B2BD8DFE813F080
:104CF000080126012A001D012A00890014002A004B
:104D0000F100A800D4F8B832314620469B68984795
:104D10000546284603B0F0BD0023ADF806304B88A9
:104D20001A0A013A0E2A0DD8DFE802F01029360CD3
:104D30000C56600C0C0C0C0C0C0C0800D0F8B432A7
:104D4000DB6933B92046FFF7B7FF73E0D0F8B43220
:104D50001B680DF10601207C9847F288002A00F0BC
:104D6000E980BDF80630002BECD09A42014628BFFE
:104D70001A46ADF80620204600F0E6F95AE0027C1B
:104D8000D0F8B83232B99B6A0DF106009847022379
:104D90004370E2E7DB6AF7E7DBB2052BD2D8DFE846
:104DA00003F003070B0F1317D0F8B4325B68C8E7A2
:104DB000D0F8B4329B68C4E7D0F8B432DB68C0E7FF
:104DC000D0F8B4321B69BCE7D0F8B4325B69B8E7FD
:104DD000D0F8B4329B69B4E7037C002BB2D1D0F891
:104DE000B8320DF106005B6B9847B6E7037C002BE9
:104DF000A8D1D0F8B8320DF106001B6B98470723F5
:104E0000C6E78B88002B9DD1CF88002F9AD14D8883
:104E10007F2D97D890F89C32E9B2032B92D080F87E
:104E20009E1200F0E5FE204600F0ABF925B102230A
:104E300084F89C3200256CE7012384F89C3268E7F3
:104E40008D78454E012D357003D9FFF735FF0325C9
:104E50005FE790F89C32022B08D0032B16D0FFF7A7
:104E60002BFF31782046FFF712FEF0E7002D61D0CE
:104E700001214160FFF704FE0546204615B1FFF70A
:104E80001BFF46E700F07DF90323D6E755B902235F
:104E90004560294680F89C32FFF7F9FD204600F076
:104EA00070F936E74168012944D0C9B2FFF7EFFD38
:104EB000317820466160FFF7E3FD0546002839D0D0
:104EC0002046FFF7F9FE21792046FFF7E0FD022397
:104ED000B3E7CA88012A7FF435AF90F89C32002BE3
:104EE0003FF430AF022B04D9032B7FF42BAF011D0D
:104EF00041E70025014641F8085F00F025F908E781
:104F000090F89C32013B022B3FF61CAFCB88022B62
:104F10007FF418AF0123C360D0F8A4320BB1032390
:104F2000C360022204F10C0125E74B88012B81D1DB
:104F3000C0F8A432204600F024F97BE790F89C32B8
:104F40000025013B022B9AD84B88012B7FF4E1AE60
:104F5000C0F8A452A2E700BF0402002070B50B788D
:104F600004460E4603F06003202B02D0402B00D0F5
:104F7000BBB994F89C32013B022B11D83379012B39
:104F80000ED8D4F8B832314620469B689847F3884B
:104F900005461BB910B9204600F0F3F8284670BD4D
:104FA0002046FFF789FE0025F8E770B50B78044628
:104FB0000D4603F06003202B13D0402B11D06BB9AA
:104FC0006A788B88012AD9B220D03FD3032A05D131
:104FD00090F89C32022B30D0032B0AD0FFF76CFEE6
:104FE00012E0D4F8B832294620469B68BDE87040EC
:104FF00018476B882BB94A0603D0EB880BB900F031
:10500000C7FD204600F0BDF8002070BD90F89C322E
:10501000022B12D0032BE1D16B88002BF4D14E066A
:1050200001D000F0C3FD204600F0ABF8D4F8B83250
:10503000294620469B689847E6E74B0617D000F0C4
:10504000A7FD8021204600F0A3FDDDE790F89C221B
:10505000022A0ED0032AC1D113F0800F01F00F02F3
:105060004FF0140303FB020214D0928CEAB92046DD
:10507000B4E74A06FBD11B064FF002024FF00003D3
:105080004CBF00F1140100F5AA710B60204600F03E
:105090005BF8B9E7B2F86421002AE8D001F07F0597
:1050A00003FB050505F5AA7504E001F07F0505FB86
:1050B0000335054411F07F0303D12B6002222946FA
:1050C000E4E7204600F080FD08B10123F5E7286001
:1050D000F4E70B7803704B784370CA788B7843EA17
:1050E000022343804A790B7943EA02238380CA79F9
:1050F0008B7943EA0223C380704710B504468021B0
:1051000000F046FD00212046BDE8104000F040BD03
:1051100030B588B105462B1A15F8014BDBB2002CCF
:10512000F9D1013301385B0013800B7003234B70FE
:10513000022310F8012F02B930BDCA545A1C0233A1
:10514000D2B2DBB28C54F4E71346022210B5C0F899
:1051500094220A4683610021C36100F057FD0020BC
:1051600010BD08B513460A46002100F04FFD00208F
:1051700008BD08B513460A46002100F055FD002081
:1051800008BD08B50423C0F8943200231A46194616
:1051900000F03CFD002008BD08B50523C0F894329E
:1051A00000231A46194600F03FFD002008BD00000C
:1051B00013B50D4C00F07F008DF8051000228DF81E
:1051C000040002212046FBF7BDFD084B01A9022285
:1051D0001B680748FDF7FCF8012202212046FBF777
:1051E000B1FD02B010BD00BF00000240F000002081
:1051F0006402002030B560F07F0085B00D4C0D4694
:105200008DF80800002220460221FBF79BFD0A4B87
:1052100003AA02A91B68094800930323FDF795F927
:10522000012202212046FBF78DFD9DF80E302B70E8
:1052300005B030BD00000240F000002064020020F4
:1052400007B500210846FFF7B3FF01A97E20FFF74D
:10525000D1FF9DF80400431E5842584103B05DF849
:1052600004FB10B542F21174FFF7EAFF013C02D0D3
:105270000028F9D010BD204610BD002108B5084611
:10528000FFF796FF00217320BDE80840FFF790BFAD
:105290000021F32330B585B0054608460D4C8DF846
:1052A0000830FFF785FF002202210B48FBF74AFD7B
:1052B0000A4B03AA02A91B68204600930223FDF7AC
:1052C00044F9074BAAB220461968FDF73FFB05B029
:1052D00030BD00BF6402002000000240F00000204A
:1052E0001C020020F0B50F46002187B0F3230646CC
:1052F00008468DF80C30FFF75BFF002202211048B2
:10530000FBF720FD0F4B104C04AA1B6803A90F4D9F
:10531000204600930223FDF718F92846FBF772FA9E
:105320002846FBF7F1F90023BAB23146059320462F
:1053300023689B680593059BFDF708FB07B0F0BD4C
:1053400000000240F000002064020020C80200209B
:10535000FF2813D010F00202094B18BF01221A7067
:1053600010F00402074B18BF012210F008001A7059
:10537000054B02D001221A7070471870704700BFA9
:1053800019020020180200206002002070477047B8
:105390000A4B0B4A1B68B3FBF2F300225843094B3C
:1053A00058609A6001221A601A6802F00112012AFC
:1053B000FAD000221A609A60704700BF00010020F6
:1053C00000127A0010E000E070B5B4B03022002185
:1053D000022408A8012500F06CFD1422002103A876
:1053E00000F067FD0021802214A800F062FD274B29
:1053F00008A800261A6C42F080521A641B6C03F055
:1054000080530193019B224B1A6842F440421A6078
:105410001B68089503F440430E9412940293029B78
:105420004FF4803309934FF480030F9319231093A3
:105430004FF4C073119308231393FCF7A5F9FCF7FD
:105440006BF90F23062103A803934FF4A053049490
:1054500006934FF4805305960793FCF7C7FB4FF470
:10546000001314A819941493C0231A9518934FF09D
:1054700000631C953193FCF75FFC4FF0C0624FF462
:10548000C0013046FCF73CFB34B070BD0038024030
:1054900000700040634C4FF01808634D02262068EE
:1054A00080B58EB0012700F0F1FC604B188800F049
:1054B000E5FC2060FBF760F80024FFF785FF14226D
:1054C000002109A800F0F5FC2B6B0022082143F015
:1054D000100357482B632B6B03F010030293029BBE
:1054E0002B6B43F002032B632B6B03F0020303933C
:1054F000039B2B6B43F001032B632B6B03F0010326
:105500000493049B2B6B43F080032B632B6B03F002
:1055100080030593059BFBF715FC012210214448ED
:10552000FBF710FC012202214248FBF70BFC09A902
:105530003F48CDF824800A970B940C94FBF796FA19
:105540004FF4807309A93B4809930A960B940C9673
:105550000D94FBF78BFA09A9364809960A970B9424
:105560000C94FBF783FA2B6B224621463A2043F436
:1055700080032B632B6B304D03F480030193019B5D
:10558000FBF73CF83A20FBF771F8214622463B2016
:10559000FBF734F83B20FBF769F82848284A4FF41A
:1055A00082738460066147610462446284620463BA
:1055B000446380E80C004FF4E063C3604FF4007371
:1055C00083610823C3610723C362FCF796FE0322AD
:1055D0001C4B1A701C4B83F8008000F099F91022C4
:1055E000214609A800F065FC184B2846069407944C
:1055F0000894AC60EC602C616C61AC6185E81800CB
:10560000FDF7ACFB4FF4805309A928460993FDF739
:10561000C9FB0DEB08012846069407940894FDF792
:1056200055FCFEE71C02002000380240FC00002070
:10563000001002400000024020020020640200200E
:10564000003001401A020020280300200000014021
:10565000704700000A4B82B01A6C42F080521A6404
:105660001A6C02F080520092009A5A6C42F4804206
:105670005A645B6C03F480430193019B02B0704752
:1056800000380240F0B589B006461422002103A874
:1056900000F00FFC32683B4B9A4270D103F5843323
:1056A0000225052403275A6C03A9374842F4805287
:1056B0005A645A6C02F480520092009A1A6B42F0BB
:1056C00002021A631A6B02F002020192019A1A6B2B
:1056D00042F001021A631B6B049503F00103079467
:1056E00006970293029B30230393FBF7BFF9202315
:1056F00004950025254803A9039307940595244C98
:105700000697FBF7B3F9234B4FF0C06E2046A56018
:10571000E5606561A561E561656284E808404FF474
:10572000806323614FF440332362FAF7EDFF08B141
:10573000FFF78EFF184B4FF48062B4654FF0C065E1
:10574000A6634027154C84E8A800226100234FF48B
:1057500040322046E3606361A361E36122626362D9
:10576000FAF7D2FF08B1FFF773FF00222320746518
:105770001146A663FAF742FF2320FAF777FF09B034
:10578000F0BD00BF003001400004024000000240B4
:10579000C802002040640240586402402C030020EC
:1057A00002680F4B9A4210B5044617D10D4A3021BA
:1057B0000D48536C23F480535364FBF735FA2021D2
:1057C0000A48FBF731FAA06DFBF71CF8606DFBF798
:1057D00019F82320BDE81040FAF756BF10BD00BFEE
:1057E0000030014000380240000402400000024046
:1057F000026882B0074B9A420AD103F59C335A6C77
:1058000042F001025A645B6C03F001030193019BB7
:1058100002B07047000001407047FEE7FEE7FEE778
:10582000FEE7704770477047FAF7B2BE0148FDF7D0
:10583000A7B900BF640200200148FBF75DB800BFB4
:10584000C80200200148FBF757B800BF2C03002016
:105850000148FBF71DBB00BF5C06002038B50122E4
:1058600002211148FBF76EFAFFF707FD0F4B1C787A
:1058700084B90F4A1068022814D10E490E4D0B88C6
:105880002D8801339BB29D420B80CABF01230C803F
:10589000136038BD0948FCF785FD0848BDE838406D
:1058A000FCF72BBD38BD00BF0000024060020020A5
:1058B000F400002006020020FA000020640200200C
:1058C00008B50A4B0246196809B9094919601868F0
:1058D000694602448A4206D900F0A6FA0C23036006
:1058E0004FF0FF3008BD1A6008BD00BF080200205D
:1058F000640C0020054BD3F8882042F47002C3F8F2
:1059000088204FF000629A60704700BF00ED00E011
:1059100008B501220E490F48FFF785F808B1FFF7D7
:1059200097FE0D490B48FFF796F808B1FFF790FE78
:105930000A490848FEF724F908B1FFF789FE05482F
:10594000FFF79CF818B1BDE80840FFF781BE08BD1D
:10595000040100208C0300200800002064010020C6
:1059600010B514228AB0044600210DEB020000F0AD
:10597000A0FA22681F4B9A4239D11F4C05A91F4833
:10598000236B43F002032363236B03F002030193B1
:10599000019B4FF44043059302230693032308938E
:1059A0000C230993FBF762F8636C00224D2043F04F
:1059B000004311466364636C03F000430293029B4F
:1059C000236B43F000532363236B03F000530393D3
:1059D000039B236B43F080432363236B03F08043DB
:1059E0000493049BFAF70AFE4D20FAF73FFE0AB033
:1059F00010BD00BF00000440003802400004024017
:105A000000F57171D0F80004FFF749B81C2303FBBF
:105A10000103D0F80004D3F80822FFF770B81C2364
:105A200003FB0103D0F800049A6CFFF79BB8D0F891
:105A30000004FFF723B9C16810B5044621B102295B
:105A400001D0FFF705FE0121D4F80004FFF700F9AB
:105A5000D4F80004BDE81040FFF7D2B810B50446F2
:105A6000D0F80004FFF7F7F82268D2F8003E43F0C0
:105A70000103C2F8003E236A23B1034A136943F0CD
:105A80000603136110BD00BF00ED00E0D0F8000474
:105A9000FFF7EAB8D0F80004FFF7FEB8D0F800042A
:105AA000FFF7F8B8D0F80004FFF7F8B8D0F8000412
:105AB000FFF7F6B808B50378012B28D1154B09225A
:105AC0001549C3F80004C0F8C432184683E806003C
:105AD000002203211A619961DA611A625A62DA625C
