:020000040800F2
:1000000000000420DD7A000811750008137500084F
:100010001575000817750008197500080000000024
:100020000000000000000000000000001B75000838
:100030001D750008000000001F75000821750008EC
:100040002D7B00082D7B00082D7B00082D7B0008F0
:100050002D7B00082D7B00082D7B00082D7B0008E0
:100060002D7B00082D7B00082D7B00082D7B0008D0
:100070002D7B00082D7B00082D7B00082D7B0008C0
:100080002D7B00082D7B00082D7B00082D7B0008B0
:100090002D7B00082D7B00082D7B00082D7B0008A0
:1000A0002D7B00082D7B00082D7B00082D7B000890
:1000B0002D7B00082D7B00082D7B00082D7B000880
:1000C0002D7B00082D7B00082D7B0008257500087E
:1000D0002D7B00082D7B00082D7B00082D7B000860
:1000E0002D7B00082D7B00082D7B00082D7B000850
:1000F0002D7B00082D7B00082D7B00082D7B000840
:100100002D7B00082D7B00082D7B00082D7B00082F
:100110002D7B00082D7B00082D7B00082D7B00081F
:100120002D7B00082D7B0008317500083D75000807
:100130002D7B00080000000000000000000000000F
:100140000000000000000000000000002D7B0008FF
:100150002D7B00082D7B00082D7B00082D7B0008DF
:100160002D7B00082D7B00082D7B00082D7B0008CF
:100170002D7B000849750008000000000000000009
:100180002D7B00082D7B00082D7B00082D7B0008AF
:100190002D7B00082D7B0008000000002D7B00084F
:1001A0000000000000000000000000002D7B00089F
:1001B0002D7B00082D7B00080000000000000000DF
:1001C000000000000000000000000000000000002F
:1001D0000000000000000000000000002D7B00086F
:1001E00010B5054C237833B9044B13B10448AFF371
:1001F00000800123237010BDE801002000000000F2
:10020000C88A000808B5034B1BB103490348AFF384
:10021000008008BD00000000EC010020C88A000832
:1002200001F0FF01102A2BDB10F0070F08D010F8A7
:10023000013B013A8B422DD010F0070F42B3F6D1AB
:10024000F0B441EA012141EA014122F007047FF0C4
:1002500000070023F0E80256083C85EA010586EA1B
:10026000010685FA47F5A3FA87F586FA47F6A5FA57
:1002700087F68EB9EED1F0BC01F0FF0102F0070263
:1002800032B110F8013B013A83EA010313B1F8D10E
:100290000020704701387047002D06BF35460338EF
:1002A000073815F0010F07D1013015F4807F02BF28
:1002B000013015F4C03F0130F0BC0138704700BF79
:1002C00081F0004102E000BF83F0004330B54FEA07
:1002D00041044FEA430594EA050F08BF90EA020F74
:1002E0001FBF54EA000C55EA020C7FEA645C7FEA07
:1002F000655C00F0E2804FEA5454D4EB5555B8BF2A
:100300006D420CDD2C4480EA020281EA030382EA9A
:10031000000083EA010180EA020281EA0303362D2C
:1003200088BF30BD11F0004F4FEA01314FF4801CFF
:100330004CEA113102D0404261EB410113F0004F11
:100340004FEA03334CEA133302D0524263EB4303C8
:1003500094EA050F00F0A780A4F10104D5F1200E66
:100360000DDB02FA0EFC22FA05F2801841F10001C1
:1003700003FA0EF2801843FA05F359410EE0A5F195
:1003800020050EF1200E012A03FA0EFC28BF4CF0C6
:10039000020C43FA05F3C01851EBE37101F000457C
:1003A00007D54FF0000EDCF1000C7EEB00006EEB89
:1003B0000101B1F5801F1BD3B1F5001F0CD3490813
:1003C0005FEA30004FEA3C0C04F101044FEA44526A
:1003D00012F5800F80F09A80BCF1004F08BF5FEAF1
:1003E000500C50F1000041EB045141EA050130BDD1
:1003F0005FEA4C0C404141EB010111F4801FA4F174
:100400000104E9D191F0000F04BF01460020B1FAC8
:1004100081F308BF2033A3F10B03B3F120020CDA00
:100420000C3208DD02F1140CC2F10C0201FA0CF0DE
:1004300021FA02F10CE002F11402D8BFC2F1200C43
:1004400001FA02F120FA0CFCDCBF41EA0C019040F9
:10045000E41AA2BF01EB0451294330BD6FEA040442
:100460001F3C1CDA0C340EDC04F11404C4F120022D
:1004700020FA04F001FA02F340EA030021FA04F33F
:1004800045EA030130BDC4F10C04C4F1200220FA96
:1004900002F001FA04F340EA0300294630BD21FAD4
:1004A00004F0294630BD94F0000F83F4801306BF9A
:1004B00081F480110134013D4EE77FEA645C18BF8E
:1004C0007FEA655C29D094EA050F08BF90EA020F25
:1004D00005D054EA000C04BF1946104630BD91EA1D
:1004E000030F1EBF0021002030BD5FEA545C05D120
:1004F0004000494128BF41F0004130BD14F580045F
:100500003CBF01F5801130BD01F0004545F0FE41D2
:1005100041F470014FF0000030BD7FEA645C1ABF07
:10052000194610467FEA655C1CBF0B46024650EA3E
:10053000013406BF52EA033591EA030F41F400216A
:1005400030BD00BF90F0000F04BF0021704730B5F0
:100550004FF4806404F132044FF000054FF00001C5
:1005600050E700BF90F0000F04BF0021704730B586
:100570004FF4806404F1320410F0004548BF40425B
:100580004FF000013EE700BF42004FEAE2014FEAB0
:1005900031014FEA02701FBF12F07F4393F07F4F8B
:1005A00081F06051704792F0000F14BF93F07F4FBD
:1005B000704730B54FF4607401F0004521F0004100
:1005C00020E700BF50EA010208BF704730B54FF086
:1005D00000050AE050EA010208BF704730B511F08B
:1005E000004502D5404261EB41014FF4806404F1C3
:1005F00032045FEA915C3FF4DCAE4FF003025FEA45
:10060000DC0C18BF03325FEADC0C18BF033202EBCC
:10061000DC02C2F1200300FA03FC20FA02F001FA26
:1006200003FE40EA0E0021FA02F11444C1E600BFC5
:1006300070B54FF0FF0C4CF4E06C1CEA11541DBF78
:100640001CEA135594EA0C0F95EA0C0F00F0DEF843
:100650002C4481EA030621EA4C5123EA4C5350EA28
:10066000013518BF52EA033541F4801143F4801379
:1006700038D0A0FB02CE4FF00005E1FB02E506F00A
:100680000042E0FB03E54FF00006E1FB03569CF05F
:10069000000F18BF4EF0010EA4F1FF04B6F5007F65
:1006A00064F5407404D25FEA4E0E6D4146EB0606D7
:1006B00042EAC62141EA55514FEAC52040EA5E5060
:1006C0004FEACE2EB4F1FD0C88BFBCF5E06F1ED80A
:1006D000BEF1004F08BF5FEA500E50F1000041EB41
:1006E000045170BD06F0004646EA010140EA0200EE
:1006F00081EA0301B4EB5C04C2BFD4EB0C0541EA10
:10070000045170BD41F480114FF0000E013C00F324
:10071000AB8014F1360FDEBF002001F0004170BD48
:10072000C4F10004203C35DA0C341BDC04F1140461
:10073000C4F1200500FA05F320FA04F001FA05F2ED
:1007400040EA020001F0004221F0004110EBD370BA
:1007500021FA04F642EB06015EEA430E08BF20EAE6
:10076000D37070BDC4F10C04C4F1200500FA04F389
:1007700020FA05F001FA04F240EA020001F000411B
:1007800010EBD37041F100015EEA430E08BF20EA8E
:10079000D37070BDC4F1200500FA05F24EEA020ED6
:1007A00020FA04F301FA05F243EA020321FA04F005
:1007B00001F0004121FA04F220EA020000EBD370BC
:1007C0005EEA430E08BF20EAD37070BD94F0000FBC
:1007D0000FD101F00046400041EB010111F4801FF0
:1007E00008BF013CF7D041EA060195F0000F18BFA1
:1007F000704703F00046520043EB030313F4801FDD
:1008000008BF013DF7D043EA0603704794EA0C0F96
:100810000CEA135518BF95EA0C0F0CD050EA4106AC
:1008200018BF52EA4306D1D181EA030101F0004129
:100830004FF0000070BD50EA410606BF1046194651
:1008400052EA430619D094EA0C0F02D150EA01365D
:1008500013D195EA0C0F05D152EA03361CBF10469E
:1008600019460AD181EA030101F0004141F0FE413D
:1008700041F470014FF0000070BD41F0FE4141F4C1
:10088000780170BD70B54FF0FF0C4CF4E06C1CEAC1
:1008900011541DBF1CEA135594EA0C0F95EA0C0F76
:1008A00000F0A7F8A4EB050481EA030E52EA033531
:1008B0004FEA013100F088804FEA03334FF0805552
:1008C00045EA131343EA12634FEA022245EA11157F
:1008D00045EA10654FEA00260EF000419D4208BF30
:1008E000964244F1FD0404F5407402D25B084FEADD
:1008F0003202B61A65EB03055B084FEA32024FF489
:1009000080104FF4002CB6EB020E75EB030E22BFE5
:10091000B61A754640EA0C005B084FEA3202B6EBA5
:10092000020E75EB030E22BFB61A754640EA5C0054
:100930005B084FEA3202B6EB020E75EB030E22BFE4
:10094000B61A754640EA9C005B084FEA3202B6EBE5
:10095000020E75EB030E22BFB61A754640EADC00A4
:1009600055EA060E18D04FEA051545EA16754FEA06
:1009700006164FEAC30343EA52734FEAC2025FEA24
:100980001C1CC0D111F4801F0BD141EA00014FF0B3
:1009900000004FF0004CB6E711F4801F04BF014384
:1009A0000020B4F1FD0C88BFBCF5E06F3FF6AFAEA0
:1009B000B5EB030C04BFB6EB020C5FEA500C50F130
:1009C000000041EB045170BD0EF0004E4EEA1131B3
:1009D00014EB5C04C2BFD4EB0C0541EA045170BDBA
:1009E00041F480114FF0000E013C90E645EA060EFE
:1009F0008DE60CEA135594EA0C0F08BF95EA0C0F2C
:100A00003FF43BAF94EA0C0F0AD150EA01347FF473
:100A100034AF95EA0C0F7FF425AF104619462CE74A
:100A200095EA0C0F06D152EA03353FF4FDAE1046AD
:100A3000194622E750EA410618BF52EA43067FF4FE
:100A4000C5AE50EA41047FF40DAF52EA43057FF48E
:100A5000EBAE12E74FF0FF3C06E000BF4FF0010C99
:100A600002E000BF4FF0010C4DF804CD4FEA410CFD
:100A70007FEA6C5C4FEA430C18BF7FEA6C5C1BD0CA
:100A800001B050EA410C0CBF52EA430C91EA030F4B
:100A900002BF90EA020F0020704710F1000F91EAA8
:100AA000030F58BF994208BF90422CBFD8176FEA76
:100AB000E37040F0010070474FEA410C7FEA6C5C44
:100AC00002D150EA013C07D14FEA430C7FEA6C5C4B
:100AD000D6D152EA033CD3D05DF8040B704700BF77
:100AE0008446104662468C461946634600E000BFC5
:100AF00001B5FFF7B7FF002848BF10F1000F01BD97
:100B00004DF808EDFFF7F4FF0CBF012000205DF861
:100B100008FB00BF4DF808EDFFF7EAFF34BF0120E6
:100B200000205DF808FB00BF4DF808EDFFF7E0FF7F
:100B300094BF012000205DF808FB00BF4DF808EDD0
:100B4000FFF7CEFF94BF012000205DF808FB00BF37
:100B50004DF808EDFFF7C4FF34BF012000205DF819
:100B600008FB00BF4A0011D212F5001211D20DD5B8
:100B70006FF47873B3EB62520ED44FEAC12343F0A3
:100B8000004343EA505323FA02F070474FF000004D
:100B9000704750EA013002D14FF0FF3070474FF0FC
:100BA0000000704753B94AB9002908BF00281CBF8C
:100BB0004FF0FF314FF0FF3000F07AB9ADF1080C83
:100BC0006DE904CE00F006F8DDF804E0DDE902236B
:100BD00004B070472DE9F0478C460D460446089E48
:100BE000002B51D18A4217466DD9B2FA82FEBEF16E
:100BF000000F0BD0CEF1200C01FA0EF520FA0CFC00
:100C000002FA0EF74CEA050C00FA0EF44FEA174A06
:100C1000250CBCFBFAF81FFA87F90AFB18CC45EA49
:100C20000C4508FB09F3AB420AD9ED1908F1FF3274
:100C300080F02381AB4240F22081A8F102083D44BC
:100C4000ED1AA4B2B5FBFAF00AFB105544EA0544CC
:100C500000FB09F9A14509D9E41900F1FF3380F03F
:100C60000A81A14540F2078102383C44A4EB090403
:100C700040EA08400021002E61D024FA0EF400233F
:100C800034607360BDE8F0878B4207D9002E54D0E2
:100C9000002186E821000846BDE8F087B3FA83F119
:100CA000002940F08E80AB4202D3824200F2FA80EB
:100CB000841A65EB03050120AC46002E3FD086E880
:100CC0001010BDE8F08712B90127B7FBF2F7B7FAA9
:100CD00087FEBEF1000F34D1EB1B3A0C1FFA87FCE4
:100CE0000121B3FBF2F8250C02FB183345EA03455A
:100CF0000CFB08F3AB4207D9ED1908F1FF3002D223
:100D0000AB4200F2D1808046ED1AA3B2B5FBF2F0FF
:100D100002FB105543EA05440CFB00FCA44507D92F
:100D2000E41900F1FF3302D2A44500F2B88018465E
:100D3000A4EB0C0440EA08409DE731463046BDE88C
:100D4000F087CEF1200405FA0EF307FA0EF720FA29
:100D500004F83A0C25FA04F448EA0308B4FBF2F16B
:100D60004FEA184502FB11441FFA87FC45EA044587
:100D700001FB0CF3AB4200FA0EF409D9ED1901F1B5
:100D8000FF3080F08A80AB4240F2878002393D44D8
:100D9000EB1A1FFA88F5B3FBF2F002FB103345EAB9
:100DA000034500FB0CF3AB4207D9ED1900F1FF3806
:100DB0006FD2AB426DD902383D44EB1A40EA014193
:100DC0008FE7C1F1200722FA07F88B4005FA01F4FA
:100DD00048EA030320FA07FE4FEA134CFD404EEAAF
:100DE000040EB5FBFCF94FEA1E440CFB19551FFA23
:100DF00083F844EA054509FB08F4AC4202FA01F223
:100E000000FA01FA08D9ED1809F1FF3043D2AC42DB
:100E100041D9A9F102091D442D1B1FFA8EFEB5FB15
:100E2000FCF00CFB10554EEA054400FB08F8A04509
:100E300007D9E41800F1FF3529D2A04527D9023897
:100E40001C4440EA0940A4EB0804A0FB02894C457D
:100E5000C6464D4615D312D056B1BAEB0E0364EB1D
:100E6000050404FA07F7CB401F43CC403760746099
:100E70000021BDE8F0871846F8E69046E0E6C24556
:100E8000EAD2B8EB020E69EB03050138E4E7284625
:100E9000D7E7404691E78146BEE7014678E702384A
:100EA0003C4445E7084608E7A8F102083D442BE723
:100EB000704700BF38B50E4B05460E4A18784FF400
:100EC0007A73B3FBF0F31068B0FBF3F000F076FA3E
:100ED000044658B90F2D09D8024629464FF0FF3075
:100EE00000F012FA044B20461D6038BD012038BDC9
:100EF00000000020000100200400002008B50320AD
:100F000000F0F0F90020FFF7D5FF06F0D9F9002036
:100F100008BD0000034A044B11681B780B441360A2
:100F2000704700BF1802002000000020014B186825
:100F3000704700BF1802002038B50446FFF7F6FFDF
:100F40000546631C1EBF044B1B78E418FFF7EEFF39
:100F5000401B8442FAD838BD0000002038B5044652
:100F6000002800F09B80056C25B906F0C1F9656486
:100F700084F83C50236CDB0600F18E80236C23F454
:100F8000885323F0020343F002032364444B5A685E
:100F900022F440325A605A6861680A435A602368F2
:100FA00021695A6822F480725A605A6842EA012222
:100FB000A1685A605A6822F040725A605A680A431F
:100FC000E1685A609A6822F400629A609A680A435B
:100FD00034499A60A26A8A4252D0996821F07061BD
:100FE000996099680A43E16A9A609A6822F04052CF
:100FF0009A609A680A439A609A68A16922F002028C
:101000009A609A6842EA41029A6094F82020002A85
:101010003ED05A68616A42F4006201395A605A68E7
:1010200022F460425A605A6842EA41325A60002013
:10103000DA6AE16922F470020139DA62DA6A42EAB4
:10104000015294F83010DA629A6822F400729A60C1
:101050009A6842EA412261699A609A6822F4806241
:101060009A609A6842EA81229A606064236C23F055
:10107000030343F001032364002384F83C3038BDAC
:101080009A6822F070629A609A6822F04052B2E741
:101090005A6822F40062C9E70120EDE7012038BD5B
:1010A000002301400100000F002382B0019390F85B
:1010B0003C30012B5CD0012380F83C3003689A68F7
:1010C000D20705D59A68D10714D4002002B0704722
:1010D0009A68284942F001029A60274A1268B2FBD6
:1010E000F1F202EB42020192019A002AEAD0019A3F
:1010F000013AF8E7026C22F4E06222F0010242F4C5
:10110000807202645A68520505D5026C22F440527E
:1011100042F480520264026C12F4805202D0426C9B
:1011200022F006024264002280F83C206FF0220286
:101130001A60124A5168C90608D1986810F04050E8
:10114000C3D19A6842F080429A60BFE70C498B4253
:1011500007D1996811F0405F03D1996841F080414F
:1011600099605268D206B0D4064A9342ADD1E4E702
:101170000220ABE740420F000001002000230140A5
:1011800000200140002201400368D86C7047000035
:101190000023F7B5019390F83C30012B7AD00D680D
:1011A00001230468092D80F83C30AEB28A6834D936
:1011B000B5F1004F31D006EB46034FF0070EE7685C
:1011C0001E3B0EFA03FE27EA0E07E760404FBD42C2
:1011D0001ED1E36843EA0263E3604A68062A4FEAE5
:1011E00082032AD81344676B591F1F238B4006FACA
:1011F00001F127EA03036363626B11436163354BBB
:101200009C4239D0002380F83C30184603B0F0BD32
:10121000E76802FA03F33B43DEE706EB46034FF0D1
:10122000070E27690EFA03FE02FA03F327EA0E07F8
:10123000276127693B432361CFE70C2A0ED813446B
:10124000216BA3F123021F23934006FA02F221EA45
:1012500003032363236B1A432263D0E713441F2243
:10126000E16A413B9A4021EA020206FA03F1E26296
:10127000E26A1143E162C2E7B5F1004F0CD1164AB0
:10128000536823F440035360BCE7134A536843F4A4
:101290008003F8E70220B9E7122DF6D00C4B9D42EF
:1012A00001D0112DAED10C499D424A6842F4000292
:1012B0004A60A7D1094B0A4A1B68B3FBF2F20A2322
:1012C00053430193019B002B9CD0019B013BF8E70A
:1012D0001200001000200140002301400001002006
:1012E00040420F00074A0002D36800F4E06023F494
:1012F000E0631B041B0C43F0BF6343F40033034360
:10130000D360704700ED00E0194B30B5DC68C4F3E2
:101310000224C4F10703251D042B28BF0423062D36
:101320004FF001058CBF033C002405FA03F30028AD
:1013300003F1FF3301EA030101FA04F105FA04F4B1
:1013400004F1FF3402EA040242EA01024FEA021207
:1013500007DB00F16040D2B200F5614080F8002365
:1013600030BD00F00F00D2B2024B1A5430BD00BFA6
:1013700000ED00E014ED00E0002808DB4209012345
:1013800000F01F0003FA00F0014B43F82200704701
:1013900000E100E000280DDB4309012200F01F00FE
:1013A000203302FA00F0044A42F82300BFF34F8FC3
:1013B000BFF36F8F704700BF00E100E00138B0F16C
:1013C000807F0AD2064BF021064A5860002082F83E
:1013D0002310072298601A6070470120704700BFF1
:1013E00010E000E000ED00E003681821DAB223F419
:1013F0007F73103A23F00303B2FBF1F20449032A8E
:10140000895C88BF0433C1658365806D704700BF08
:10141000E08A000870B50446FFF788FD0546002CF9
:1014200071D00023226884F83430022384F83530E8
:10143000136823F00103136021680B68D8073CD4BC
:101440000B68324D62681D40A368A0691343E268CF
:1014500013432269134362691343E269034313434D
:10146000226A1343626A042A43EA050301BF266B1A
:10147000E56A35432B43042A0B604B6923F00703CD
:1014800043EA02030BD1A26AE56A13433DB1F8B9FE
:10149000012A2DD001D3022A01D1EA012BD44B61BC
:1014A0002046FFF7A1FFE26D3F23934083600020B9
:1014B0000123606584F8353070BDFFF737FD401BB0
:1014C0000528B9D920230320636584F8350070BD51
:1014D000B0F5005F13D1032AE1D801A050F822F043
:1014E000F71400089B140008F7140008F114000812
:1014F000B5F1C07FD3D1402301206365E5E7022A1F
:10150000F9D9032AC8E7012070BD00BF3F8010E071
:1015100038B5054620B390F83540E4B2022C1DD012
:10152000036800241A6822F001021A6021221C605C
:101530005C609C60DC601C615A61FFF755FFEA6DDE
:101540003F23934083606C65EC632C646C64AC64F3
:10155000EC642C6585F8354085F83440204638BD6C
:10156000012038BD70B590F83440012C35D00124ED
:10157000866D002580F8344090F83540012C4FF0FE
:10158000020428D180F8354004684565256825F4B3
:101590008025256063608368402B19D1A260E160DB
:1015A000C26D3F239340B360236843F0160323606A
:1015B000636943F080036361036C1BB1236843F0EC
:1015C000080323602368002043F00103236070BDFB
:1015D000A160E260E4E780F83450022070BD70B58D
:1015E0000446856DFFF7A2FC064694F83530022BC1
:1015F00006D0802301206365002384F8343070BD59
:1016000023681A6822F016021A605A6922F08002D2
:101610005A61226C0AB9A26C1AB11A6822F0080247
:101620001A601A6822F001021A602368186810F024
:10163000010009D1E26D3F239340AB60012384F8A0
:10164000340084F8353070BDFFF770FC801B05282E
:10165000EBD9202303206365002384F8350084F848
:10166000343070BD90F83530022B03D080234365B1
:10167000012070470268052380F835300020136888
:1016800023F00103136070470023F7B5019308228C
:10169000594B0446856D1F68C36D2E689A401642EB
:1016A0000CD001680868400708D5086820F00400DD
:1016B0000860AA60626D42F00102626501229A40F0
:1016C000164208D021684969090604D5AA60626DEE
:1016D00042F00202626504229A40164208D0216854
:1016E0000968880704D5AA60626D42F00402626549
:1016F00010229A40164210D02368196809070CD5A9
:10170000AA601A68500335D51B68190301D4236CED
:1017100000E0A36C0BB120469847E16D20228A407F
:10172000164238D023681868C60634D5AA6094F8E3
:101730003520052A1A6825D122F016021A605A6946
:1017400022F080025A61226C0AB9A26C1AB11A689E
:1017500022F008021A603F238B40AB60002384F81C
:101760003430012384F83530236D0BB1204698477F
:1017700003B0F0BD1A68D205C9D41A6822F0080275
:101780001A60C4E7500328D51B68190332D4636C70
:101790000BB120469847636D002BE9D0636DDA07E3
:1017A00019D50523226884F83530136823F0010326
:1017B00013604FF41653B7FBF3F7019B01339F42BD
:1017C000019302D31368DB07F7D4002384F8343085
:1017D000012384F83530E36CC7E71A6812F480728D
:1017E00008D1196821F010011960012384F8342010
:1017F00084F83530E36BCBE7000100202DE9F04F92
:101800000B6885B0DFF8A88101930023664ADFF8F2
:10181000A4910124019D9C402540AC4240F0AE8043
:101820004C684FEA430E24F0100C0CF1FF36012EE9
:1018300012D80326876806FA0EF627EA0607CE684E
:1018400006FA0EF63E438660C4F3001647689E40D3
:1018500027EA05073E4346600326C768BCF1020F2E
:1018600006FA0EF66FEA060607EA060A8F6807FA16
:101870000EF747EA0A07C76016D14FEAD30A03F00A
:10188000070B4FF00F0C00EB8A0A4FEA8B0BDAF8CC
:1018900020700CFA0BFC27EA0C0C0F6907FA0BF707
:1018A00047EA0C07CAF8207007683E4004F00307B7
:1018B00007FA0EFE4EEA06060660E6005ED5D8F888
:1018C000446023F0030703F0030E4FF00F0C46F4BF
:1018D000804607F180474FEA8E0EC8F8446007F54E
:1018E0009C37D8F8446006F480460396039E0CFAB1
:1018F0000EF6D7F808A02AEA060C2C4EB04244D0C7
:1019000006F58066B04242D006F58066B04240D00F
:1019100006F58066B0423ED006F58066B0423CD007
:1019200048453CD006F50066B0423AD006F58066E0
:10193000B04214BF0826072606FA0EF614F4803FBC
:1019400046EA0C06BE606FEA050716680CBF3E400B
:101950002E4314F4003F166056680CBF3E402E43E1
:1019600014F4801F566096680CBF3E402E43A402BC
:101970009660D66854BF3E402E43D6600133102B8C
:101980007FF447AF05B0BDE8F08F0026D4E701260D
:10199000D2E70226D0E70326CEE70426CCE70526C9
:1019A000CAE70626C8E700BF003C0140000002402D
:1019B00000380240001402402DE9F04F0022404D53
:1019C000DFF80491DFF804A1DFF804B1012303FA82
:1019D00002FC0CEA0104A4455FD122F0030602F0E8
:1019E000030E0F27374B06F180464FEA8E0E9842C2
:1019F00006F59C3607FA0EF7D6F8088008EA0708BD
:101A000050D003F5806398424ED003F5806398422E
:101A10004CD003F5806398424AD003F58063984226
:101A200048D0484548D0504548D058450CBF0723BA
:101A3000082303FA0EF3984510D12B68E4432340A2
:101A40002B606B6823406B60AB682340AB60EB6836
:101A50001C40EC60B36823EA0707B7605600032315
:101A6000046802F0070EB3400F274FEA8E0EDB43E7
:101A700007FA0EF71C400460D40800EB8404266AC1
:101A800026EA07072762C4681C40C460446824EA49
:101A90000C0444608468234083600132102A95D18D
:101AA000BDE8F08F0023C4E70123C2E70223C0E7AB
:101AB0000323BEE70423BCE70523BAE70623B8E700
:101AC000003C0140000002400014024000180240A7
:101AD000001C02400369194214BF01200020704716
:101AE0000AB1816170470904FBE7F0B504468BB089
:101AF00060B390F8BD33056803F0FF021BB980F8AE
:101B0000BC2305F0B1FD03236E46271D84F8BD33C9
:101B1000EB6B254613F4807355F8100B08BF236157
:101B200002F002FE0FCD0FC60FCD0FC695E80300E1
:101B3000254686E8030097E80E0055F8100B02F0E2
:101B400001FD064620B1022384F8BD33012554E08F
:101B50000146206802F0EEFD3046D4F804E01C2671
:101B60004FF0010C0146C2B2013096451BD800234C
:101B70001C261946D8B20133864522D80FCD6E46B1
:101B80000FC60FCD0FC695E8030086E8030097E85F
:101B90000E00206802F010FE0123054600B3022269
:101BA00084F8BD23D2E706FB024383F83DC083F8E7
:101BB0003C20A3F8422083F83F10596499641965CA
:101BC000D1E706FB004282F8FD1182F8FC0182F8A1
:101BD000FF11C2F80412C2F80812C2F81012C9E7C5
:101BE00084F8380084F8BD33636A012B02D12046A3
:101BF00000F04DFC206803F041F928460BB0F0BD21
:101C000090F8BC33012B10B504460CD0012380F8AA
:101C1000BC33006803F026F9206802F07FFD002045
:101C200084F8BC0310BD022010BD00002DE9F04F68
:101C3000D0F800A087B00446504603F05AF902904D
:101C4000002840F03C81206803F024F9002800F0CF
:101C50003681206803F01EF9870704D5226853698E
:101C600003F002035361206803F014F9C6062BD574
:101C70002268936923F010039361DAF82050C5F3CA
:101C8000434305F00F07022B40F01C8147F6F07329
:101C90001D4214D01C26C5F30A15504606FB074604
:101CA0002A46D6F8081203F067F8D6F808322B4413
:101CB000C6F80832D6F814321D44C6F81452226809
:101CC000936943F010039361206803F0E3F8050380
:101CD00000F10781206803F0DDF840030CD52546AC
:101CE0000AF510694FF00008206803F0DFF8039050
:101CF000039B002B40F09981206803F0CBF800286B
:101D000015DADAF8043823F00103CAF8043894F835
:101D1000F433012B40F01A820021204684F8F4139A
:101D200005F018FE2268536903F0004353612068F0
:101D300003F0B0F800050BD5DAF80838D90702D55A
:101D4000204605F00FFD2268536903F400635361D8
:101D5000206803F09FF8020114D523685A6902F045
:101D600000625A6194F8F423002A40F0F3815B6D1D
:101D700001212046C3F3830384F8F413C4F8F83335
:101D800005F0E8FD206803F085F8C30435D50AF5B1
:101D900000656B681021206823F001036B6002F07E
:101DA000E1FC60680AF510634FF67F31029A8242C7
:101DB00040F0D481EB6943F00113EB61236B002BFE
:101DC00000F0EC81D5F8843043F00B03C5F8843083
:101DD0006B6C43F00B036B64DAF8003804F5717236
:101DE000217C23F4FE632068CAF8003803F096F8DB
:101DF0002268536903F480535361206803F04AF862
:101E0000870416D5206803F078F8206802F08EFD6C
:101E10002568E06000F058FE227B0146284602F06B
:101E200009FC204605F08BFC2268536903F400533B
:101E30005361206803F02EF8060707D5204605F009
:101E40007AFC2268536903F008035361206803F0A9
:101E500021F8C50208D50021204605F0A3FC226820
:101E6000536903F480135361206803F013F8800270
:101E700008D50021204605F091FC2268536903F43F
:101E800000135361206803F005F8410007D5204690
:101E900005F08CFC2268536903F08043536120688D
:101EA00002F0F8FF42070AD523685D686B0702D588
:101EB000204605F07FFC23685A6815435D6007B033
:101EC000BDE8F08F062B7FF4FAAE1C26082204F53D
:101ED0007171504602F050FF06FB0746C5F30A1524
:101EE000E8E620680AF5306602F0D8FF274681460A
:101EF0000025B9F1000F3FF4EDAE19F0010F57D0F6
:101F00005FFA85FB2068594602F0D8FF10F0010FF8
:101F100080461AD0012320682169B36000F5306340
:101F20000129D0F840E003EB45139A6865D1110709
:101F300007D5A0498E4508D9100406D54FF40042B4
:101F400002E091063AD520229A6018F0080F1FD0BF
:101F500008239849B3602368D3F840B003F5306391
:101F60008B4503EB45139A6804D9120402D54FF44C
:101F700000429A60204605F0C7FB8E4B9B4507D96F
:101F80002169012904D104F57172206802F0C6FFAD
:101F900018F0100F01D01023B36018F0200F01D0FB
:101FA0002023B36018F4005F02D04FF40053B360F5
:101FB00001354FEA590920361C379AE712F0280FED
:101FC000C3D17C498E4501D91204B7D41B69D7F817
:101FD0000422C3F31203D31AC7F81432D7F8083215
:101FE0001A44C7F808228DB9D4F8103273B904F531
:101FF0007172012102F092FF08E06F498E450AD10B
:1020000010049BD4910601D520229A60594620469F
:1020100005F080FB99E7002DF8D1D4F81032002BA1
:10202000F4D104F571722946E4E7039BDE0740F121
:1020300084805FFA88FB2068594602F048FF064614
:10204000F00721D5012008F00F02DAF8343800FA41
:1020500002F2216923EA02038142CAF83438C9F83E
:1020600008000DD1AB6C6A6C1344AB64B8F1000F7F
:1020700006D1236D23B904F57172206802F04EFF7A
:102080005946204605F04FFB310702D50823C9F811
:102090000830F20602D51023C9F80830730602D5BD
:1020A0004023C9F80830B70702D50223C9F8083021
:1020B000360642D56B6D2E6DB3423ED8F61A6B6C68
:1020C00022689E42049228BF1E4602F51063033622
:1020D00003EB4813B6080593059B2F6D9B699BB2D4
:1020E000B3426B6D27D39F4225D977B9049B08F083
:1020F0000F02012103F5006BD3F8343801FA02F224
:1021000023EA0203CBF8343017E0FF1A6B6C5A460F
:1021100004989F4228BF1F46237C0093BBB2A96C42
:10212000FE1C02F02FFDAB6CB6083B44AB646B6D3C
:102130001F446F65D0E79F42D8D9039B08F101087F
:102140001C3509F120095B080393D1E5204605F011
:1021500021FBE7E5204605F005FB13E699602033F7
:1021600053F8202C22F4001243F8202C53F8202C92
:1021700042F0006243F8202CC3F8E811D3F8E021C4
:1021800022F40012C3F8E021D3F8E02142F000620B
:10219000C3F8E021029A0132029207E66B6943F428
:1021A000005343F02B036B612B6943F00B032B614E
:1021B00012E600BF0A30544F0A31544F90F8BC2346
:1021C000012A10B504460BD0012280F8BC2384F804
:1021D0003810006802F036FE002084F8BC0310BD01
:1021E000022010BD70B5044601F00F001C2611F04E
:1021F000800FC5B2C0B206FB05411DBF06FB0545F9
:1022000001263C3101F5FE7105BF06FB05450026A0
:1022100085F83D6085F8FD618A604A780870CB706A
:1022200002B1C880022B04BF00230B7194F8BC33A9
:10223000012B09D00123206884F8BC3302F081FB14
:10224000002084F8BC0370BD022070BD01F00F03B4
:1022500011F0800FDAB210B504464FF01C0000FBFD
:1022600002411BBF00FB0242012000FB02423C3145
:1022700005BF01F5FE71002082F83D0082F8FD01E6
:102280000B7094F8BC33012B09D00123206884F82B
:10229000BC3302F097FB002084F8BC0310BD022081
:1022A00010BD38B501F00F051C2404FB050104FB2B
:1022B000050401F5FE71C4F810320023C4F80822A9
:1022C000C4F8143284F8FD3184F8FC5103690068C5
:1022D000012B08BFC4F80C22DAB21DB902F0C6FB0C
:1022E000002038BD02F062FCFAE71C2301F00F0168
:1022F00003FB0101D1F81402704738B501F00F0556
:102300001C2404FB050104FB05043C312365002368
:10231000A2646365012384F83C5084F83D3003696E
:102320000068012B08BFE264DAB21DB902F09EFB1F
:10233000002038BD02F03AFCFAE738B501F00F058D
:10234000436804469D422ED811F0800F4FF01C02C6
:102350001FD002FB050302FB050101223C3381F87B
:102360003D2001221D709A7094F8BC1391421CD03C
:1023700084F8BC231946206802F00CFD2DB904F541
:102380007172217C206802F0C9FD002084F8BC0332
:1023900038BD02FB010302FB0101002203F5FE73BD
:1023A00081F8FD21DDE7012038BD022038BD38B5B8
:1023B00001F00F02436804469A4225D81C2311F00D
:1023C000800F4FF0000503FB02010FBF002003FB4D
:1023D000020301203C3105BF01F5FE7103FB0243FE
:1023E00083F83D0083F8FD018D700A7094F8BC33CA
:1023F000012B0BD00123206884F8BC3302F0F7FCDA
:1024000084F8BC53284638BD012038BD022038BDB1
:1024100090F8BC33012B10B5044611D0012380F88D
:10242000BC330B0608D501F00F01006802F09AF9E1
:10243000002084F8BC0310BD006802F0A5F9F7E79E
:10244000022010BD70B50468636A21B943EA0243F3
:10245000A362002070BDA06A4D1E03EB1043002054
:10246000461CC0B2854206D83F3143EA024304EB22
:1024700081046360EDE7403004EB8000406803EBCB
:1024800010433046ECE70368002059627047012191
:1024900002680346C0F8FC13002083F8F403936934
:1024A00043F000639361536D43F0805343F00303A3
:1024B00053657047194B37B51A6C194C42F080526E
:1024C0001A641B6C03F080530193019B236843F44F
:1024D00080332360FEF72AFD05466368DA030CD5D6
:1024E000236843F400332360FEF720FD0C4C0546BF
:1024F00063689B030AD5002006E0FEF717FD401B2A
:10250000B0F57A7FE9D9032003B030BDFEF70EFDA8
:10251000401BB0F57A7FEBD9F5E700BF00380240E9
:10252000007000402DE9F341044608B901203FE066
:102530000368D80710D42368990760D42368190763
:1025400000F1A58023685A0700F1C680A069002821
:1025500040F0308100202BE0944B9A6802F00C028E
:10256000042A07D09A6802F00C02082A0AD15B6894
:102570005A0207D58D4B1B689B03DCD56368002B83
:10258000D9D1D3E76368894DB3F5803F13D12B6868
:1025900043F480332B60FEF7C9FC844D06462B685C
:1025A0009F03C8D4FEF7C2FC801B6428F7D9032020
:1025B00002B0BDE8F0819BB92B6823F480332B6017
:1025C0002B6823F480232B60FEF7B0FC06462B68B3
:1025D0009803B0D5FEF7AAFC801B6428F7D9E6E77C
:1025E000B3F5A02F2B6803D143F480232B60CEE7F3
:1025F00023F480332B602B6823F48023CAE76B4BD2
:102600009A6812F00C0F07D09A6802F00C02082AA0
:1026100011D15B6859020ED4644B1A68920702D537
:10262000E268012A82D11A68216922F0F80242EA9E
:10263000C1021A6082E7E3685C4DBBB12B6843F0CE
:1026400001032B60FEF772FC06462B689F0707D537
:102650002B68226923F0F80343EAC2032B606DE77D
:10266000FEF764FC801B0228EFD9A0E72B6823F05B
:1026700001032B60FEF75AFC06462B6898077FF58E
:102680005DAFFEF753FC801B0228F6D98FE7636924
:10269000464D83B16B6F43F001036B67FEF746FC59
:1026A00006466B6F9B073FF54DAFFEF73FFC801B67
:1026B0000228F6D97BE76B6F23F001036B67FEF707
:1026C00035FC06466B6F9F077FF53CAFFEF72EFC8F
:1026D000801B0228F6D96AE7344B1A6CD00027D445
:1026E0001A6C012642F080521A641B6C03F080536E
:1026F0000193019B2E4D2B68D9051BD5A3682B4D4B
:10270000012B27D12B6F43F001032B6741F2883552
:10271000FEF70CFC254F80463B6F9B073FD5002EF4
:102720003FF414AF214A136C23F0805313640DE778
:102730000026DFE72B6843F480732B60FEF7F6FB7F
:1027400007462B68DA05D9D4FEF7F0FBC01B6428D6
:10275000F7D92CE7ABB92B6F41F2883823F001038E
:102760002B672B6F23F004032B67FEF7DFFB074675
:102770002B6F9807D3D5FEF7D9FBC01B4045F7D97F
:1027800015E7052B2B6F03D143F004032B67B9E743
:1027900023F001032B672B6F23F00403B5E7FEF74B
:1027A000C5FBA0EB0800A842B6D900E700380240FC
:1027B00000700040384DAB6803F00C03082B41D08B
:1027C0002B68022823F080732B602ED1FEF7AEFB1E
:1027D00006462B68990122D4226AE3691343626A90
:1027E00043F0005343EA8213E26A43EA0263A26AB7
:1027F000294C5208013A43EA02436B602B6843F0CC
:1028000080732B60FEF792FB054623689A013FF523
:10281000A1AEFEF78BFB401B0228F6D9C7E6FEF7F8
:1028200085FB801B0228D4D9C1E6FEF77FFB044656
:102830002B689B017FF58EAEFEF778FB001B02280C
:10284000F6D9B4E601286B683FF4B2AE03F4800217
:10285000E1698A427FF46AAE03F03F02216A8A424C
:102860007FF464AE47F6C072616A1A40B2EB811F12
:102870007FF45CAEA26A03F440315208013AB1EB36
:10288000024F7FF453AEE26A03F07063B3EB026F62
:1028900014BF012000208BE60038024070B5204CA8
:1028A00088B00D461646236BE0B943F0010303A937
:1028B0002363236B059003F00103079019480193EC
:1028C000019B4FF480730393022304930323069325
:1028D000FEF794FFA16821F0EC6131432943A16028
:1028E00008B070BD43F0040303A90F482363236BB2
:1028F00003F004030293029B4FF40073039302233B
:10290000049303230693002305930793FEF776FFB2
:10291000A36845EAC60123F078450D43A560DFE7CB
:10292000003802400000024000080240134908B588
:102930008B6803F00C03042B03D0082B03D0104842
:1029400008BD104808BD4A684B68496802F03F025C
:1029500013F48003C1F388111ABF0A480023084802
:10296000A1FB0001FEF71EF9044B5B68C3F30143B2
:1029700001335B00B0FBF3F008BD00BF003802403C
:102980000024F40040787D012DE9F0410D46044615
:1029900010B90120BDE8F081464A136803F00F0327
:1029A0008B4229D321688F0731D4C80744D4414AC8
:1029B000136803F00F039D4268D32268510771D456
:1029C000130707D53C4A2169936823F4604343EA1F
:1029D000C1039360FFF7AAFF374B384A9B68C3F3E4
:1029E0000313D35CD840364B1860364B1868FEF79B
:1029F00061FA0020BDE8F081136823F00F030B4358
:102A00001360136803F00F039942C2D1CAE711F0B3
:102A1000040F294B03D09A6842F4E0529A600E07E3
:102A200003D59A6842F460429A609A68A06822F0DE
:102A3000F00202439A60B8E761681F4B01291A68E7
:102A40001CD112F4003FA4D09A6841F288381A4E83
:102A500022F003020A439A60FEF768FA0746B36859
:102A6000626803F00C03B3EB820FA0D0FEF75EFAAE
:102A7000C01B4045F3D90320BDE8F081022902D1F3
:102A800012F0007FDFE712F0020FDCE7136823F09B
:102A90000F032B431360136803F00F039D427FF471
:102AA00078AF8AE70449E0688B6823F4E053034376
:102AB0008B6085E7003C024000380240338C000800
:102AC0000001002004000020014B1868704700BF7F
:102AD00000010020044B054A9B68C3F38223D35CAA
:102AE000034A1068D840704700380240438C000801
:102AF00000010020044B054A9B68C3F34233D35CBA
:102B0000034A1068D840704700380240438C0008E0
:102B1000000100202DE9F7430268044612F0010687
:102B20000BD0B84B996821F400019960C66A996886
:102B30003143B6FA86F67609996012F4002512D070
:102B4000B049656BD1F88C30B5F5801F23F4401384
:102B500008BF012643EA050316BFB5FA85F500252F
:102B60006D09C1F88C30D70210D5A648A16BD0F8FA
:102B70008C30B1F5800F23F4400343EA0103C0F821
:102B80008C3000F04C81002908BF0125900631D51A
:102B90009C4B9D4F1A6C42F080521A641B6C03F0E0
:102BA00080530193019B3B6843F480733B60FEF7C5
:102BB000BDF980463B68D90540F13381914F3B6FA9
:102BC00013F4407340F03881A36A03F44072B2F505
:102BD000407F8C4A40F05681916823F0704021F488
:102BE000F81120F4407001439160C3F30B03116F9F
:102BF0000B4313672368DF060CD5824AD2F88C108A
:102C000021F08071C2F88C10D2F88C10206B014337
:102C1000C2F88C10580408D57A49E06DD1F890209C
:102C200022F440320243C1F89020190408D57549B6
:102C3000206ED1F8902022F440220243C1F8902067
:102C4000DA0308D56F49606ED1F8902022F4401263
:102C50000243C1F890205F0608D56A49E06BD1F8BD
:102C6000902022F003020243C1F89020180608D5F4
:102C70006449206CD1F8902022F00C020243C1F884
:102C80009020D90508D55F49606CD1F8902022F0DA
:102C900030020243C1F890209A0508D55949A06C2A
:102CA000D1F8902022F0C0020243C1F890205F05C5
:102CB00008D55449E06CD1F8902022F440720243C8
:102CC000C1F89020180508D54E49206DD1F8902004
:102CD00022F440620243C1F89020D90408D5494942
:102CE000606DD1F8902022F440520243C1F8902048
:102CF0009A0408D54349A06DD1F8902022F44042AF
:102D00000243C1F890209F020CD53E48616FD0F875
:102D10009020B1F1006F22F0006208BF01250A4344
:102D2000C0F89020580308D53649E06ED1F89020BD
:102D300022F040720243C1F89020190208D53149AF
:102D4000A06FD1F8902022F080520243C1F8902069
:102D50005A0108D52B49E06FD1F8902022F000529B
:102D60000243C1F89020002E40F09080B3F1007F24
:102D700000F08C80012D50D1224D2B6823F0805320
:102D80002B60FEF7D3F806462B689F0000F1E18028
:102D90002068050301D5636B1BB1C10218D5A36B75
:102DA000B3B918496369D1F8882025691B0602F474
:102DB000403243EA85131343C1F88830D1F88C3090
:102DC000226A23F4F853013A43EA0223C1F88C3013
:102DD000820210D5636FB3F1006F0CD10949A3696A
:102DE000D1F8882020691B0402F0706243EA801346
:102DF0001343C1F88830034C236843F080532360A9
:102E000004E000BF0038024000700040FEF78EF87A
:102E1000054623689B0040F1A380002009E00126BD
:102E2000B4E6FEF783F8A0EB080064287FF6C2AE94
:102E3000032003B0BDE8F083A26A02F4407293421B
:102E40003FF4C2AE3B6F3A6F23F4407342F48032DA
:102E50003A673A6F22F480323A673B673B6FDA0792
:102E60007FF5B2AEFEF762F841F2883980463B6FDB
:102E70009B073FF5A9AEFEF759F8A0EB08004845BF
:102E8000F5D9D5E7916821F4F811ADE6384E3368ED
:102E900023F080633360FEF749F8074633681B016F
:102EA00051D42268D7070DD5E36A5BB9A368D6F879
:102EB000841060681B0701F0706143EA80130B43C4
:102EC000C6F88430100303D5636BB3F5801F05D0BB
:102ED000D10219D5A36BB3F5800F15D12449E3684E
:102EE000D1F8840066681B0600F0E04043EA8613D0
:102EF0000343C1F88430D1F88C00E36920F01F004F
:102F0000013B0343C1F88C3092010AD5E368626843
:102F10001B0643EA8213A26843EA0273144AC2F80A
:102F20008430134E336843F080633360FDF7FEFF57
:102F3000074633681B013FF51DAFFDF7F7FFC01BC8
:102F40006428F6D974E7FDF7F1FFC01B6428A5D902
:102F50006EE7FDF7EBFF801B64287FF615AF67E790
:102F6000FDF7E4FF401B64287FF653AF60E700BF26
:102F70000038024003685A6822F0E0025A60426852
:102F8000B2F5827F0AD18268B2F5004F02D0B2F565
:102F9000806F03D11A6822F040021A60826AB2F58B
:102FA000005F07D11A6822F400521A601A6842F4CE
:102FB00000521A60012380F85D30002380F85C30F5
:102FC0000320704770B504460D461646236898687E
:102FD00010F0800000D170BD6A1CF8D0FDF7A6FF8C
:102FE000801B8542F2D82046BDE87040FFF7C2BF83
:102FF000F8B505460C4616461F46296888682040E5
:1030000000D1F8BDB4F5C06F00D10B7B731CF5D0B7
:10301000FDF78CFFC01B8642EFD82846BDE8F8407C
:10302000FFF7A8BF03681A6822F0400213B51A60C0
:1030300045F6C051194A04461268B2FBF1F1642208
:103040004A4301925A6822F040025A60019AF2B94A
:10305000236E43F040032366FDF768FF64210246B8
:103060002046FFF7AFFF08B140232366FDF75EFF60
:10307000642203464FF4C0612046FFF7B9FF08B150
:1030800040232366072384F85D3002B010BD019A07
:10309000013A01925A685206D8D4DDE700010020B7
:1030A00070B513460D4616460A464FF4C051044605
:1030B000FFF79EFF28B1236E032043F02003236611
:1030C0000FE0324629462046FFF77CFF0028F2D168
:1030D00033462A464FF4C0612046FFF789FF002897
:1030E000E9D170BD344B45F6C0521B68B3FBF2F218
:1030F0006423534313B50193044603685A6822F0CE
:1031000080025A60019A002A47D1236E43F040039F
:103110002366FDF70BFF642102462046FFF7C0FF40
:1031200008B1402323662268136823F0400313602C
:10313000FDF7FCFE642203464FF4C0612046FFF712
:1031400057FF08B14023236623685A6851061FD5EC
:103150005A6822F040025A60019A2ABB236E43F05B
:1031600040032366FDF7E2FE642102462046FFF796
:1031700029FF08B140232366FDF7D8FE64220346E9
:103180004FF4C0612046FFF733FF08B140232366A8
:10319000072384F85D3002B010BD019A013A019214
:1031A0005A681006AED4B4E7019A013A01925A68FF
:1031B0005206D1D4D6E700BF00010020F8B543681D
:1031C00004460E461746B3F5827F0BD18368B3F5EC
:1031D000004F02D0B3F5806F04D123681A6822F043
:1031E00040021A603A4631462046FFF7EBFE05469C
:1031F00028B1236E032543F02003236613E06368A0
:10320000B3F5827F0FD1A368B3F5004F02D0B3F5B9
:10321000806F08D13B4632464FF4C0612046FFF72D
:10322000E7FE0028E5D12846F8BD70B50446002821
:103230004ED00023836290F85D3003F0FF021BB98B
:1032400080F85C2004F068F802232168E26884F8C2
:103250005D300B68B2F5E06F23F040030B604FF078
:10326000000332D91846B2F5706F18BFA362236B02
:103270002BB9B2F5E06F8CBF022301232363A6684C
:103280006368A56933432669334366693343E66956
:103290003343266A3343A66A334305F400762D0C84
:1032A000334305F004050B60636A1A43636B1A43EA
:1032B0002A43024300204A60CB6923F40063CB61B8
:1032C0000123206684F85D3070BD4FF48050CCE758
:1032D000012070BD10B5044680B10268022380F859
:1032E0005D30136823F04003136004F0A3F800205E
:1032F000206684F85C0084F85D0010BD012010BDDC
:103300002DE9F3411E4690F85C3004460D46012B32
:10331000904600F0B080012380F85C30FDF706FE97
:10332000074694F85D00C0B2012840F0A280002D4D
:103330005ED0B8F1000F5BD003230020A56384F8B2
:103340005D30A3682066B3F5004FA4F83E8020648A
:10335000A4F84400A4F846002065E064A4F83C808A
:10336000206803D1036843F48043036003685B066D
:1033700003D4036843F040030360E368B3F5E06FF0
:1033800063683ED913B1B8F1010F07D135F8023B9C
:10339000C360A563E38F013B9BB2E387E38F9BB2DE
:1033A000A3B93A4631462046FFF77AFE00285DD1A0
:1033B000A36833B901932368DA6801929B6801938B
:1033C000019B206E003018BF012011E02268936835
:1033D000980705D5A36B33F8021BD160A363D9E727
:1033E000FDF7A4FDC01BB042D8D3711CD6D003207A
:1033F000012384F85D30002384F85C3002B0BDE81E
:10340000F08113B1B8F1010F13D1E38F9BB2012BFF
:1034100006D935F8023BC360A563E38F023B06E0A3
:103420002B780373A36B0133A363E38F013B9BB240
:10343000E387E38F9BB2002BB3D023689A6892078F
:103440000CD5E28FA06B92B2012A04D930F8022B7E
:10345000DA60A063E1E702781A73E3E7FDF766FD3F
:10346000C01B8642E5D8731CE3D0C0E72023236647
:103470009EE70220BCE70220C0E72DE9F8431E4684
:1034800090F85C3004460D46012B9146089F00F0F1
:103490001581012380F85C30FDF748FD94F85D301C
:1034A00080466168DBB2012B0AD0B1F5827F40F023
:1034B0000381A068002840F0FF80042B40F0FC80CE
:1034C000002D49D0B9F1000F46D0002E44D094F819
:1034D0005D30042B02D0052384F85D30E2680023C0
:1034E0002068B2F5E06F2366E364A4F846602365C4
:1034F000E687C4F84090A4F84460A563A6874368B3
:1035000001D8012E2AD923F48053436003685B0657
:1035100003D4036843F040030360B2F5E06F56D96B
:1035200009B1012E07D135F8023BC360E38FA563D3
:10353000013B9BB2E3870125E38F9BB28BB9B4F8C3
:1035400046309BB26BB9424639462046FFF7A8FD8C
:10355000002834D020232366012030E043F4805338
:10356000D3E72268936899070DD5E38F9BB253B1D7
:103570004DB1A36B002533F8021BD160A363E38F29
:10358000013B9BB2E3879368DB070FD5B4F8463065
:103590009BB25BB1D2680125236C23F8022B236414
:1035A000B4F84630013B9BB2A4F84630FDF7BEFCB0
:1035B000A0EB08008742BFD87E1CBDD003200123AA
:1035C00084F85D30002384F85C30BDE8F88309B1ED
:1035D000012E0BD1E38F9BB2012B51D935F8023B61
:1035E000C360E38FA563023B9BB2E3870125E38FB2
:1035F0009BB223B9B4F846309BB2002BA3D022680B
:103600009368980711D5E38F9BB273B16DB1E38FC7
:103610009BB2012BA36B3BD933F8021BD160A36390
:10362000E38F023B9BB20025E38722689368D907AA
:103630001DD5B4F846309BB2CBB1B4F846309BB23E
:10364000012B236C2CD9D16823F8021B2364B4F816
:103650004630023B9BB2A4F84630B4F846309BB2E9
:10366000012B03D8536843F4805353600125FDF7C1
:103670005DFCA0EB08008742B9D87B1CB7D09DE762
:103680002B780373A36B0133A363E38F013BABE799
:103690001B781373A36B0133A363E38F013BC1E773
:1036A000127B1A70236C01332364B4F84630013B5B
:1036B0009BB2A4F84630D9E7022080E70220BDE89B
:1036C000F883000038B5044690F85C00012800F04B
:1036D000C980012084F85C0094F85D00C0B2012824
:1036E0000BD06568B5F5827F40F0B880A568002DE5
:1036F00040F0B480042840F0B180002900F0B08090
:10370000002A00F0AD80002B00F0AA8094F85D0044
:10371000042802D0052084F85D000020226422687D
:103720002066A163E387A4F846305168E06421F481
:10373000C0412065A387A4F844305160E168A06DC2
:10374000B1F5E06F216828D9536823F480535360A2
:1037500094F85D300C31226C042B0BBF424B434B71
:10376000036403640CBF424B424BC363424BC364CC
:1037700000230365B4F846309BB2FDF7F3FE034621
:10378000002847D0236E012043F01003236684F8FD
:103790005D00002384F85C3038BD556845F48055E1
:1037A0005560656DAD69B5F5005F0AD113F0010F85
:1037B00053681ED123F480435360E38FC3F34E0359
:1037C000E3878369B3F5005FC2D1536823F4805364
:1037D0005360B4F8463013F0010F536811D123F44D
:1037E00000535360B4F84630C3F34E03A4F8463098
:1037F000AEE743F480435360E38FC3F34E030133DA
:10380000DEE743F400535360B4F84630C3F34E038D
:103810000133EBE72268606D51680C3241F0010121
:1038200042F8081C0364C363C3640365E38FA16BA0
:103830009BB2FDF797FE0028A4D123681A685206B0
:1038400003D41A6842F040021A605A6842F020021B
:103850005A605A6842F002025A609AE7022098E7DA
:10386000012096E7022038BD3D3B0008493B000897
:10387000773B0008CB3B0008553B000813468268A5
:1038800070B504460D465AB94668B6F5827F07D131
:103890000422BDE8704080F85D200A46FFF712BFA1
:1038A00094F85C10012900F0828094F85D000121F9
:1038B000C0B284F85C10884277D1002D3CD0002B38
:1038C0003AD00421B2F5004F256484F85D104FF022
:1038D0000001A4F844302166E164A4F84630216573
:1038E000A187E187216803D10B6823F480430B6033
:1038F0004B68A06D23F400534B60E368B3F5E06FB1
:103900004B681DD923F480534B602A4B2A460C3157
:103910000364294BC363294BC36400230365B4F8D4
:1039200046309BB2FDF71EFE70B3236E012043F0BC
:103930001003236684F85D00002384F85C3070BDBA
:1039400043F480534B608369B3F5005FDDD14B686E
:1039500023F480534B60B4F8463013F0010F4B68EA
:1039600009D123F400534B60B4F84630C3F34E033F
:10397000A4F84630C9E743F400534B60B4F846302E
:10398000C3F34E030133F3E723681A68520603D4E6
:103990001A6842F040021A605A6842F020025A60E7
:1039A0005A6842F001025A60C6E70220C4E70220CA
:1039B00070BD00BF3D3B0008773B0008553B000849
:1039C0001FB55A4B45F6C05204461B68B3FBF2F2D2
:1039D000642353430193019B009303685A6822F0C8
:1039E00020025A605A6810060BD5514A2265009A87
:1039F000002A40F08780226E42F040022266019A3F
:103A000000925A6851060BD54A4AE264009A002A8D
:103A100040F08180226E42F040022266019A0092BC
:103A20005B689A0728D5606D30B300230365FDF706
:103A3000D6FD08B1402323662268536823F00203B1
:103A40005360FDF773FA642102462046FFF728FB16
:103A500008B1402323662268136823F040031360F3
:103A6000FDF764FA642203464FF4C0612046FFF775
:103A7000BFFA08B14023236623685B68DB0728D5BB
:103A8000A06D30B300230365FDF7A9FD08B1402305
:103A900023662268136823F040031360FDF746FA9B
:103AA000642102462046FFF78DFA08B140232366C1
:103AB000FDF73CFA642203464FF4C0612046FFF74D
:103AC00097FA08B1402323662268536823F0010364
:103AD00053600023A4F84630E387226E402A23D0A7
:103AE0001846236622680293D16802919168029178
:103AF0000299039393680393039B012384F85D3039
:103B000004B010BD009A013A009294F85D20072A93
:103B10007FF46DAF73E7009A013A009294F85D204C
:103B2000072A7FF473AF79E70120DBE7000100206B
:103B3000E5300008253000087047704708B5806BF5
:103B4000FFF7FBFF08BD704708B5806BFFF7FBFF71
:103B500008BD7047806B026808B5536823F0030303
:103B60005360036E43F010030366012380F85D3059
:103B7000FFF7EFFF08BD38B50546846BFDF7D6F9B2
:103B800002462B681B68DB051BD423682046596856
:103B900021F020015960596821F003015960642126
:103BA000FFF70CFB08B1202323660023A4F846305E
:103BB000012384F85D30236E1BB12046FFF7C9FF57
:103BC00038BD204603F0C6FC38BD38B50546846BC9
:103BD000FDF7ACF902462B681B68DB051FD4216892
:103BE00020464B6823F020034B606421FFF758FA0E
:103BF00018B1236E43F0200323662268536823F034
:103C0000030353600023E387A4F84630012384F8BC
:103C10005D30236E1BB12046FFF79BFF38BD204669
:103C2000FFF78AFF38BD0000036859689A6830B50D
:103C300002F0410585B00446012D05D14D0603D59E
:103C4000C36C984705B030BD950704D5080602D56A
:103C5000236D2046F5E712F4B07FF3D08D06F1D541
:103C600050060ED594F85D00002503284CD0206E38
:103C700040F0040020660095D86800909868009095
:103C8000009895060CD5206E40F0010020660020BB
:103C9000029098680290186820F04000186002981E
:103CA000D00508D5226E42F0080222660022039257
:103CB0009A680392039A226E002AC3D05A6822F0AF
:103CC000E0025A60012284F85D208A0723D05A68F6
:103CD000A06D22F003025A6040B1114B0365FDF75D
:103CE000C1FC18B1236E43F040032366606D0028C9
:103CF000A8D00B4B0365FDF7B5FC0028A2D0236EBE
:103D000043F0400323669DE70195DA6801929B68C2
:103D10000193019B96E72046FFF71BFF92E700BF48
:103D2000253D000808B5806B0023A0F84630C38706
:103D3000FFF70FFF08BD0000304A0368904212D021
:103D4000B0F1804F0FD0A2F57C4290420BD002F52B
:103D50008062904207D002F58062904203D002F563
:103D60007842904219D14A6823F070031343234AE2
:103D7000904229D0B0F1804F26D0A2F57C429042EB
:103D800022D002F5806290421ED002F580629042FD
:103D90001AD002F57842904216D0194A904213D0B8
:103DA00002F5806290420FD002F5806290420BD003
:103DB000A2F59832904207D002F58062904203D07B
:103DC00002F58062904203D123F44073CA68134322
:103DD0004A6923F08003134303608B68C3620B6856
:103DE0008362064B984203D003F58063984201D169
:103DF0000B69036301234361704700BF000001406A
:103E00000040014010B50446A0B190F83D3003F0E9
:103E1000FF021BB980F83C2003F034FB022320682A
:103E2000211D84F83D30FFF787FF0123002084F82F
:103E30003D3010BD012010BD10B50A43846842EA30
:103E4000032324F47F442343836010BD90F83C3067
:103E5000012B70B504464FF0020017D084F83D00E6
:103E60000123206884F83C308268414B1340836012
:103E70000B68402B65D015D8102B0CD007D853B148
:103E80000123002084F83D3084F83C0070BD202BD5
:103E900001D0302BF4D1826843F0070322F0700286
:103EA00013431AE0602B34D019D8502BE8D14A685C
:103EB000CE68016A056A21F00A0125F001050A436E
:103EC0000562836923F0F00343EA0613836102620B
:103ED000836823F0700343F057038360D0E7702BAF
:103EE0000CD0B3F5005FCBD1CB684A688968FFF787
:103EF000A3FF2268936843F4804308E0CB684A68D4
:103F00008968FFF799FF2268936843F0770393600D
:103F1000B6E74D68CE68016A21F01001016282693E
:103F2000036A22F4704223F0A00342EA063243EA15
:103F3000051382610362836823F0700343F0670313
:103F4000CBE74A68CE68016A056A21F00A0125F0CC
:103F500001050A430562836923F0F00343EA06136F
:103F600083610262836823F0700343F04703B4E780
:103F70008800FEFF90F83C30012B4FF0020370B533
:103F80003ED080F83D30012203681E4D80F83C2071
:103F9000AB425A689C6802D01B4EB34203D122F454
:103FA00070024E6832430E6822F07002AB4242EA61
:103FB00006025A6019D0B3F1804F16D0134A9342CB
:103FC00013D002F5806293420FD002F580629342D3
:103FD0000BD002F57842934207D002F5705293421B
:103FE00003D0A2F59432934204D1896824F0800270
:103FF0000A439A60012380F83D30002380F83C306A
:10400000184670BD0000014000040140000400405B
:1040100038B5C26904460368816800691D680143B8
:1040200060690143904811432840256A0143E068D4
:104030001960596821F4405101435960A169986899
:10404000294320F430600143996088498B4217D19D
:10405000874B8849D3F8903003F00303B2F5004F43
:10406000CB5C29D1082B00F29D80DFE813F08C0097
:10407000E800EE009B00FA009B009B009B0076008E
:104080007D498B4206D17A4B7C49D3F8903003F0BE
:104090000C03E3E77A498B421DD1754BD3F890307E
:1040A00003F03003102B00F0D9800ED8002B67D01E
:1040B000B2F5004F76D01023082B73D8DFE803F059
:1040C000999FA272B4727272B700202B00F0BA806E
:1040D000302B3FD0ECE76B498B420DD1644BD3F8CA
:1040E000903003F0C003402B00F0B880DED9802B65
:1040F00000F0A880C02BECE763498B4210D15C4BE9
:10410000D3F8903003F44073B3F5807F00F0A680BD
:10411000CCD9B3F5007F00F09580B3F5407FD8E7A8
:104120005A498B421ED1524BD3F8903003F440636E
:10413000B3F5806F00F0928006D8002B7CD0B2F5EA
:10414000004F2FD110238DE7B3F5006F7AD0B3F570
:10415000406FF4D1B2F5004F69D16368580800F59B
:10416000803078E04A498B4224D1414BD3F89030DB
:1041700003F44053B3F5805F70D015D8002BDED127
:10418000B2F5004F35D1FEF7A5FC6268530803EB8A
:104190004000B0FBF2F080B24FF6EF73A0F11002D6
:1041A0009A421AD9012020E0B3F5005F4AD0B3F556
:1041B000405FCEE737498B42F4D12D4BD3F8903096
:1041C00003F44043B3F5804F48D07FF66FAFB3F5AB
:1041D000004F37D0B3F5404F7BE720F00F03C0F31B
:1041E000420022681843D0600020002323666366E3
:1041F00038BDFEF76FFC636800EB530008E0FEF784
:1042000079FCF8E76368580800F5740000F5105071
:10421000B0FBF3F080B24FF6EF73A0F110029A42B8
:10422000C0D82368D860DFE7FEF780FBE3E7636868
:10423000580800F50040EBE7B2F5004FDFD1FEF77C
:1042400059FCA2E7B2F5004FDCD16368580800F1D1
:10425000F47000F59040B0FBF3F09CE7B2F5004F2E
:10426000E2D1FEF763FB90E7F369FFEF0010014036
:1042700000380240E88A000800440040EC8A000848
:1042800000480040004C0040005000400014014035
:1042900000780040007C0040436ADA0710B506D57C
:1042A0000168846A4A6822F4003222434A609C070B
:1042B00006D50168C46A4A6822F4803222434A6003
:1042C000590706D50168046B4A6822F4802222430C
:1042D0004A601A0706D50168446B4A6822F4004216
:1042E00022434A60DC0606D50168846B8A6822F4A2
:1042F000805222438A60990606D50168C46B8A6899
:1043000022F4005222438A605A0610D50168046CD8
:104310004A68B4F5801F22F4801242EA04024A601F
:1043200005D14A68446C22F4C00222434A601B064D
:1043300006D50268816C536823F400230B43536055
:1043400010BD2DE9F041069D04460F4616469846DD
:104350002168CA6937EA02030CBF01220022B24277
:1043600002D00020BDE8F081681CF2D0FCF7DEFD31
:10437000A0EB080085422068036800D37DB923F4D0
:10438000D0730360836823F0010383602023636795
:10439000A3670023032084F87030BDE8F0815A073A
:1043A000D6D5C3691B05D3D54FF4006303620368F8
:1043B00023F4D0730360836823F001038360202318
:1043C0006367A367E367E4E72DE9F7439846436F24
:1043D00004460E46202B91464CD1002948D0002A95
:1043E00046D090F87030012B44D00123002580F88E
:1043F00070302123C5674367FCF798FDA368074623
:10440000A4F85090B3F5805FA4F8529003D12369CB
:104410000BB935461E46002384F87030B4F852209C
:104420003B46CDF8008092B23AB940212046FFF7D2
:1044300088FF40B92023636706E0002280212046E0
:10444000FFF77FFF18B1032003B0BDE8F0832268B7
:104450005EB935F8023BC3F308039362B4F85230F7
:10446000013B9BB2A4F85230D8E716F8013BF4E7C1
:104470000120E9E70220E7E737B500250446C567D4
:10448000FCF754FD226803461268120707D4202364
:104490000020636784F87000A36703B030BD6FF03D
:1044A0007E424FF40011204600922A46FFF749FF52
:1044B0000028ECD00320F0E710B5044640B3436F6A
:1044C0001BB980F8703002F0F1FF226824232046E7
:1044D0006367136823F001031360FFF799FD012858
:1044E00016D0636A13B12046FFF7D6FE2368204634
:1044F0005A6822F490425A609A6822F02A029A601E
:104500001A6842F00102BDE810401A60FFF7B4BF1C
:10451000012010BD0A4B013B01D103207047026905
:10452000002AF8DA0369064A43F001030361013AFD
:10453000F3D0036913F00103F9D11846704700BFA7
:10454000410D030084B038B505AD044685E80E0082
:104550000A9B119D012B29D1836B23F48033836344
:10456000C36823F4840323F04003C360C36843F0AB
:104570001003C360C36823F44013C360012D03D14B
:10458000E36843F48013E3602046FFF7C3FF089B12
:10459000012B07D1A36843F00603A360A36843F08F
:1045A0002003A360BDE8384004B07047032B32D12C
:1045B000836B23F480338363C36823F4840323F081
:1045C0004003C360C36823F44013C360C36823F08F
:1045D0001003C360836B43F400038363134B9A6936
:1045E00042F004029A61124A996989070FD50A229A
:1045F00002201A60DA6842F4716242F00302DA6063
:104600001A6842F001021A60FCF796FCB6E7013A1C
:10461000EAD10120C6E7C36843F04003C360FFF757
:1046200079FFA36B43F48033A363B0E7007C0140C0
:10463000410D0300022A58D12E4B2F4A0B449342BE
:1046400047D92E4B2E4A0B44934244D9A1F574030B
:104650002C4AA3F5105393423FD9A1F1837302F57D
:10466000C332A3F5E743A032934238D9264B274AF9
:104670000B44934235D9264B02F592220B4402F5A6
:10468000787293422FD9234B02F5C3220B4402F5D3
:104690002072934229D9A1F1B77302F5B712A3F59D
:1046A000585302F55872934221D91B4B02F512223E
:1046B0000B4402F5F862934294BF07230623C268B5
:1046C00022F47052C260C26842EA8323C3600020B1
:1046D00070470F23F3E70E23F1E70D23EFE70C23D9
:1046E000EDE70B23EBE70A23E9E70923E7E70823D4
:1046F000E5E700BF405327FFFF340C00401E1BFFBF
:104700003F420F007F4F120060B6E5FE5FE31600E8
:1047100000D3CEFEC05BB3FEE05459FE836843F085
:104720000103836000207047836823F001038360E6
:104730000020704708B5C368012923F0C043C36057
:1047400008D1C36843F00053C3603220FCF7F4FB88
:10475000002008BD19B9C36843F08043F4E7012085
:1047600008BD00008901074A41F020010161013ABA
:1047700005D0036913F02003F9D1184670470320D0
:10478000704700BF410D03001023064A0361013A40
:1047900005D0036913F01003F9D1184670470320C0
:1047A000704700BF410D0300D0F800381943C0F82E
:1047B000001800207047000084B02DE9F84304463B
:1047C00009A80F4680E80E0000230B9A0E99139D4E
:1047D0001E4603F14000013304EB80000F2B4660BE
:1047E000F7D104F50066002D6BD1736843F0020326
:1047F0007360A36B23F40013A363236843F04003A7
:104800002360236843F08003236000230129C4F858
:10481000003ED4F80038C4F8003859D1002A55D1E8
:1048200000212046FFF7C0FF10212046FFF79AFF26
:1048300001462046FFF7A8FF00284DD1081C18BFED
:104840000120002304F510624FF0904E4FF0006CF1
:1048500019464FF67F3833617361F361BB423DD136
:10486000002104F530624FF0904E4FF0006C0F467F
:104870004FF67F388B4244D1336923F48073336120
:104880000023A3616FF0804363610C9B1BB9A36994
:1048900043F01003A361A269234B1343A3610F9B51
:1048A0001BB1A36943F00803A361012D05D1A369DE
:1048B00043F0804343F00403A361BDE8F84304B030
:1048C0007047A36B43F40013A3639EE70121A8E79D
:1048D0000329A3D00321A4E70120B2E7D2F8009076
:1048E000B9F1000F0BDA3BB9C2F800C01161013316
:1048F000C2F808802032B1E7C2F800E0F6E71160A4
:10490000F4E7D2F80090B9F1000F0BDA39B9C2F828
:1049100000C017610131C2F808802032AAE7C2F84E
:1049200000E0F6E71760F4E700383C80D0F808387C
:1049300013F0060004D013F0020F14BF02200F2062
:10494000704770B54A7800F500630C78012ADE697B
:1049500004F00F051BD1AA4000EB44103243DA618A
:10496000D0F800391A0410D48B68C978C3F30A034D
:10497000D0F8002943F0805343F4004343EA8143D5
:1049800043EA84531343C0F80039002070BD4FF44C
:10499000803200EB4410AA403243DA61D0F8003B89
:1049A0001B04F2D48B68C978C3F30A03D0F8002B38
:1049B00043F0805343F4004343EA81431343C0F878
:1049C000003BE2E730B54B7800F500620C78012B34
:1049D0004FF0200304F00F0513FB040020D1D0F8A2
:1049E0000039002B0BDAD0F8003943F00063C0F82F
:1049F0000039D0F8003943F08043C0F80039012372
:104A0000D16BAB40DB431940D163D1690B40D3611B
:104A1000144BD0F800291340C0F80039002030BDF5
:104A2000D0F8003B002B0BDAD0F8001B41F00061FE
:104A3000C0F8001BD0F8001B41F08041C0F8001BFB
:104A40004FF48033D16BAB40DB431940D163D16964
:104A50000B40D361044BD0F8002B1340C0F8003B4F
:104A6000DCE700BF007833EC0078F3EFF0B54B786B
:104A70000C78012B4E694FF02003414F59D113FBA5
:104A8000040336BBD3F8105925F0FF5525F4C015A3
:104A9000C3F81059D3F8105945F40025C3F810593C
:104AA000D3F810592F40C3F81079012A4FF0200392
:104AB00029D10A691AB113FB0403C3F8142900EBC6
:104AC0004410D0F8002942F00442C0F80029002028
:104AD000F0BD03F510631D692F401F611D6925F0AE
:104AE000FF5525F4C0151D618D68AE4288BF4D612C
:104AF0001D6945F400251D614D691E69C5F3120548
:104B000035431D61D1E713FB0404D4F8003943F0A9
:104B10000443C4F800394B69002BD8D00A78D0F888
:104B2000343802F00F0101228A401A43C0F83428B9
:104B3000CDE713FB040000F530631C6927401F61BB
:104B40001C6924F0FF5424F4C0141C618C6806B165
:104B50004C611D69C4F31204012A45F400251D614E
:104B60001D6944EA05041C6102D1CA6802B15A6198
:104B7000D0F8003B43F00443C0F8003BA7E700BF78
:104B80000000F8FF10B59DF808404CB9033300EB66
:104B9000023023F0030300F580500B44994201D109
:104BA000002010BD51F8042B0260F7E7F7B54B78F1
:104BB00020240E78012B6E4F4B6914FB060440F045
:104BC0009280002B38D104F51065D4F8104924F0F8
:104BD000FF5424F4C0142C612C6944F400242C618B
:104BE0002C6927402F61012A4FF020044ED10B6918
:104BF0001BB114FB0604C4F81439CB78012B10D177
:104C0000D0F8083813F4807F4FF0200313FB06031D
:104C1000D3F800290CBF42F0005242F08052C3F892
:104C2000002900EB4610D0F8003943F00443C0F8E7
:104C30000039002003B0F0BDD4F8105904F5106419
:104C40002F40276125698F6825F0FF5525F4C01591
:104C50002561DD19D4F810E0013DB5FBF7F7454DAE
:104C600005EAC74545EA0E052561C3F31205276924
:104C70003D432561CD78012DB5D1256925F0C0458D
:104C80002561256945F000552561ACE714FB060454
:104C9000D4F8005945F00445C4F80059CD78012DE9
:104CA0000CD0002BC5D00B78D0F8344803F00F029D
:104CB000012393402343C0F83438BAE7D0F80858AA
:104CC0009BB215F4807FD4F800590CBF45F0005515
:104CD00045F08055C4F800590C7800922246C96806
:104CE000FFF750FFA5E704F5306635692F403761BF
:104CF000356925F0FF5525F4C01535618D6823BB56
:104D00003369C5F312051D433561336943F400234C
:104D1000012A336102D1CB6803B17361CB78012BD7
:104D20000CD1D0F8083813F4807FD4F8003B0CBFC6
:104D300043F0005343F08053C4F8003BD4F8003BE9
:104D400043F00443C4F8003B73E72B44094FD6F803
:104D500010E0013BB3FBF5F307EAC3479BB247EA18
:104D60000E076B433761C3F3120337693B43CFE749
:104D70000000F8FF0000F81F033200F5805022F019
:104D800003020A44914201D108467047036841F882
:104D9000043BF7E74B780A78012B4FF0200313FB15
:104DA000020012D1D0F80039002B06DB2AB1D0F86E
:104DB000003923F08043C0F80039D0F8003943F4BB
:104DC0000013C0F8003900207047D0F8003B002BDA
:104DD00006DB2AB1D0F8003B23F08043C0F8003B4B
:104DE000D0F8003B43F40013C0F8003BEBE74B78EE
:104DF0000A78012B4FF0200313FB020011D1D0F8E9
:104E0000003923F40013C0F80039CB78023B012BA2
:104E100005D8D0F8003943F08053C0F8003900209D
:104E20007047D0F8003B23F40013C0F8003BCB7868
:104E3000023B012BF3D8D0F8003B43F08053C0F87D
:104E4000003BECE7D0F80038090123F4FE6301F4DD
:104E5000FE61C0F80038D0F800381943C0F80018D7
:104E60000020704708B5D0F8043823F00203C0F8DA
:104E700004380320FCF760F8002008BD08B5D0F81E
:104E8000043843F00203C0F804380320FCF754F858
:104E9000002008BD4269806910407047D0F818387A
:104EA00000F50060C0691840000C7047D0F8183851
:104EB00000F50060C069184080B2704700EB4111F6
:104EC00000F50060D1F8082B40691040704710B51C
:104ED000D0F81048D0F8343800EB411001F00F0141
:104EE00000F51060CB408068DB01DBB22343184043
:104EF00010BD406900F001007047D0F8003923F47C
:104F0000FF6323F00703C0F80039D0F8043843F4F6
:104F10008073C0F8043800207047000010B5144BAF
:104F2000046C9C4203D9D0F8003B002B1EDB00240C
:104F30000129C0F8104BD0F8104B44F40024C0F8FD
:104F4000104BD0F8104B44F01804C0F8104BD0F8B8
:104F5000104B44F0C044C0F8104B07D1C0F8142BDC
:104F6000D0F8003B43F08023C0F8003B002010BD88
:104F70000A30544F0020704701466422024808B5A9
:104F800002F010FE08BD00BF7C02002038B560248E
:104F90000D4601460448224602F004FE22462946F8
:104FA000024802F0FFFD38BDE00200201C02002094
:104FB00010B5032825D8DFE800F0020E161E114CAC
:104FC0002046FEF787F90023236163612046BDE890
:104FD0001040FEF72AB90B4C2046FEF77BF9002360
:104FE00023610123F1E7074C2046FEF773F9022302
:104FF00023610023E9E7034C2046FEF76BF9022307
:10500000EEE710BD7C02002010B5032822D8DFE8AF
:1050100000F0020A151B1048FEF75CF90020BDE8FD
:10502000104000F04FB80C4C2046FEF753F908230F
:10503000E3612046BDE81040FEF7F7B8064C204675
:10504000FEF748F91023F3E7034C2046FEF742F938
:105050001823EDE710BD00BF7C020020094B186942
:1050600028B9586968B1431E584258417047022810
:1050700006D15B692BB1012B14BF002003207047C0
:10508000002070477C0200200D4A92F85D10A9B103
:10509000D369082B04D1002814BF182001207047C1
:1050A000102B04D1002814BF0C2002207047182BAD
:1050B00004D1002814BF0620032070470020704749
:1050C0007C020020024602210148FCF709BD00BF16
:1050D0000000024007B500F07F008DF805108DF844
:1050E00004000020FFF7EEFF0A23022201A9044872
:1050F000FEF706F90120FFF7E5FF03B05DF804FBBA
:105100007C0200201FB560F07F000C468DF808007F
:105110000020FFF7D7FF0A2303AA02A90093032365
:105120000548FEF7AAF90120FFF7CCFF9DF80E30E5
:10513000237004B010BD00BF7C020020002108B520
:105140000846FFF7C7FF00217320BDE80840FFF7BE
:10515000C1BF00007FB50F4C05460E462046FEF746
:105160002FFC0021F32308468DF80830FFF7B2FF2B
:105170000020FFF7A7FF0A2303AA02A900932046F5
:105180000223FEF77AF92946B2B22046FEF776FBF3
:1051900004B070BD7C020020FFF7DCBFB8230D4ACD
:1051A0000D4913800B800D4B0D4A1B7803B104236E
:1051B00013700C4B1B7833B1E6230B80137803EB91
:1051C00083039B1013701378B8220988064802F0F5
:1051D000A9BD00BF0A0000200E000020050200202B
:1051E0000402002007020020778B000810F0020262
:1051F00038B518BF0122104B104D1A7010F0040280
:105200000F4C18BF012210F0080019782A7014BF43
:10521000012220700B4818BF227002F083FD29780C
:10522000094802F07FFD2178084802F07BFDBDE8C7
:105230003840FFF7B3BF00BF07020020050200207F
:1052400006020020A88B0008B78B0008658B0008B9
:105250000A4683B2144970B50B8091B2134C4B438C
:10526000134E21800146134C1348238002F05AFD4F
:10527000306802F08FFC2588284602F083FC2A461D
:105280000E4D0021306002F098FC286802F082FC8C
:105290002488204602F076FC224628600021BDE8E2
:1052A000704002F08ABC00BF0E0000200A000020FF
:1052B000880300200C000020F98A00081404002054
:1052C000034A044B10881B8840EA032080B27047D1
:1052D0000A0000200E0000202DE9F0411D4D00F0D5
:1052E0000F011D4B04462A881C4F0A441C481970A4
:1052F00092B22A8002F016FD386802F04BFC2E882C
:10530000304602F03FFC3246164E0021386002F073
:1053100054FC306802F03EFC2D88284602F032FC36
:105320002A460021306002F048FC0F4B21090F484B
:1053300001F001021A70C1F340020D4B1A70C1F363
:10534000800301F0010103700A48BDE8F04102F05A
:10535000E9BC00BF0C0000200402002088030020EC
:10536000248B0008140400200702002006020020FD
:1053700005020020458B0008054B1878430143EADD
:105380000012044B1B78134343EA8010704700BFA0
:105390000702002004020020800810B5C4B200F00B
:1053A000010000F0BDF8C4F3400000F0CDF8C4F3F4
:1053B0008000BDE8104000F0CAB8A0F540400138B8
:1053C00010B50C46042822D8DFE800F003210C12A7
:1053D000170001F0030000F0C7F82046BDE81040B8
:1053E000FFF7DABF200AC9B2BDE81040FFF730BFAF
:1053F0000846BDE81040FFF76FBF01F00300FFF75C
:10540000D7FDC4F38100BDE81040FFF7FDBD10BD1E
:1054100038B500F08DF8044600F097F8054600F026
:1054200097F8800040EA4500204380B2800080B2B7
:1054300038BDA0F54040013810B5042820D8DFE879
:1054400000F0030B0E12160000F068F884B2FFF7AC
:10545000DFFF204380B210BD00F0EAF8FAE7BDE8B4
:105460001040FFF72DBFBDE81040FFF785BFFFF7E5
:10547000F5FD04460020FFF707FE44EA8000E9E757
:10548000002010BD08B503460846F02B03D0F12BD1
:1054900005D0002008BD1146FFF78FFFF9E7BDE8F2
:1054A0000840FFF7C6BF07B500210846FFF712FE08
:1054B00001A97E20FFF726FE9DF80400431E5842F6
:1054C000584103B05DF804FB10B56524FFF7EBFF0E
:1054D000013C02D00028F9D010BD204610BD0000CC
:1054E0007FB51422002101A802F067FB4FF48073FE
:1054F00001A90448019302230293FCF77FF907B046
:105500005DF804FB0000024001464822024808B54D
:1055100002F048FB08BD00BF4003002070470000B8
:10552000024610210148FCF7DBBA00BF0010024020
:1055300008B510210348FCF7CDFA003018BF012050
:1055400008BD00BF00100240704700207047704740
:105550007047000008B1FFF7C3BF4FF480710148E6
:10556000FCF72ABA0000024008B503281CD8DFE87F
:1055700000F0020711160020BDE80840FFF7EABF5F
:10558000FFF7AEFF00224FF080410120BDE8084048
:10559000FDF784B9FFF7A4FF4FF08062F3E7FFF750
:1055A0009FFF4FF0C062EEE708BD000010B5044653
:1055B000FBF77AFD2046FBF7E7FD0446014602486B
:1055C00002F0B0FB204610BDDC8B000800F100406B
:1055D000A0F53E7010B54400052094FBF0F419349A
:1055E0000248214602F09EFB204610BDCA8B0008EF
:1055F0000D4B10B5013313F8011C13F8022C5C7825
:105600001B7842EA012243EA0423C824181A9B1A91
:1056100044430648B4FBF3F4C4F57374214602F026
:1056200081FB204610BD00BF2D7AF01FD88B0008EB
:1056300008B50748FFF7BAFFFFF7DAFFFFF7C6FF25
:105640000028BDBF4042C0B240F08000C0B208BDDB
:10565000400300202023038000487047680000209A
:105660002023038000487047480000202023038047
:1056700000487047940000200A23038000487047C8
:105680008800002038B504464FF41D7002F07AFA05
:10569000C4F8BC0208B9022038BD237CB3B94FF46A
:1056A000007302220121204602F0CAF801254FF4BE
:1056B0000073A4F8785102228121204602F0C0F83C
:1056C0002046258700F0CAF8002038BD0125402378
:1056D00002220121204602F0B3F8A4F878514023B9
:1056E000E9E738B504460025012102F0B9F8812127
:1056F000A4F87851204602F0B3F82046258700F040
:10570000E7F8D4F8BC0218B102F044FAC4F8BC526D
:10571000002038BD00232DE9F341ADF806300546E1
:105720000B780E46D0F8BC7213F060022DD0202A00
:1057300004D14A78FE2A05D0FF2A1BD001F075FB60
:10574000032413E04C88002C53D1B1F80680B8F143
:10575000010F4ED11A064CD5D0F8C0329B6998473C
:10576000424638603946284601F086FB204602B0A2
:10577000BDE8F0814A88002A3BD1CC88002C38D182
:105780001B0636D400F08CF8F0E74B780B2B30D8A2
:10579000DFE803F006202F2F2F2F2F2F2F2F121986
:1057A00090F89C32032B24D102220DF106012846E9
:1057B00001F062FB0024D9E790F89C32032B18D14A
:1057C0000122391DF3E790F89C32032B11D18B781D
:1057D0007B60EFE790F89C32032BEBD14C88002CD8
:1057E000E8D1097902F04AF83179284600F018F931
:1057F000BCE731462846A1E708B500F08BF8002049
:1058000008BD08B500F0A2F8002008BD19B1C0F825
:10581000C012002070470320704738B5D0F8BC5242
:10582000044695F81C323BB9D5F8183223B16B7A8F
:1058300013B9012102F030F88121204602F02CF842
:105840006B7A022B09D18121204602F025F82046EF
:105850000121BDE8384002F01FB838BD70B5D0F85E
:10586000BC42054600202072607284F8610284F810
:10587000600284F86202D5F8C0321B6898470121A3
:10588000284601F0FBFF8121284601F0F7FF04F5CF
:10589000047228461F230121BDE8704002F048B879
:1058A00070B50023D0F8BC62012504463372812113
:1058B000757201F0FFFF2946204601F0FBFF06F557
:1058C0000472294620461F23BDE8704002F030B81C
:1058D000D0F8BC3200221A727047000070B50C4B31
:1058E0000546D0F8BC42C4F83032002384F83C129C
:1058F00004F50C72237281210D2302F00BF804F5DC
:10590000047228461F230121BDE8704002F010B840
:1059100055534253D0F8BC3210B51A7A0446022AC5
:1059200003D012D3042A0ED910BD03F21F2293F81C
:105930001D1200F077FA002807DA01212046BDE8A1
:105940001040FFF7CBBF0021F9E710BD70B5D0F8CC
:10595000BC420546267A16B1012E56D070BDD4F849
:1059600014320121C4F83432D4F81832C4F8383271
:1059700001F0ECFF1F2894F81D120BD1D4F810226F
:10598000264B9A4206D1012904D894F81E32013BD5
:105990000F2B0BD920230522284600F0F4F902230F
:1059A00063722846BDE87040FFF737BF04F21F223C
:1059B000284600F037FA0028237A07DA052BF0D1C1
:1059C00001212846BDE87040FFF788BF013B022B4C
:1059D00023D9E1680029F4D0D5F8BC22D2F83802E6
:1059E000D2F81832401A82F83C628B42C2F8380270
:1059F0004FF0040028BF0B468121107204F1100201
:105A00002846BDE8704001F085BF04F21F2294F8DB
:105A10001D1200F007FA0028D2DB70BD5553424337
:105A2000D0F8BC3210B55B7A0446022B08D1812134
:105A300001F032FF20460121BDE8104001F02CBFEB
:105A40000A0606D5012B04D00121BDE81040FFF75E
:105A500045BF10BDD0F8BC0210B590F8613200EB24
:105A6000C3040133DBB284F84422002284F84012DC
:105A7000042B84F8452214BF80F8613280F861223B
:105A800010BD2DE9F04107460846D7F8BC52D7F8BB
:105A9000C042D5F8706205F11008B5F86422B6F579
:105AA000007FD5F86C12646928BF4FF40076B6FB0E
:105AB000F2F3B1FBF2F29BB24146A047002808DAAC
:105AC000384603220421FFF7C5FF4FF0FF30BDE841
:105AD000F081D5F86C32D5F870423344A41BC5F878
