:020000040800F2
:1000000000000220055E0008C5570008C757000819
:10001000C9570008CB570008CD5700080000000062
:10002000000000000000000000000000CF570008A2
:10003000D157000800000000D3570008D55700082A
:10004000555E0008555E0008555E0008555E0008C4
:10005000555E0008555E0008555E0008555E0008B4
:10006000555E0008555E0008555E0008555E0008A4
:10007000555E0008555E0008555E0008555E000894
:10008000555E0008555E0008555E0008555E000884
:10009000555E0008555E0008555E0008555E000874
:1000A000555E0008555E0008555E0008555E000864
:1000B000555E0008555E0008555E0008555E000854
:1000C000555E0008555E0008555E0008555E000844
:1000D000555E0008555E0008555E0008555E000834
:1000E000555E0008555E0008555E0008555E000824
:1000F000555E0008555E0008555E0008555E000814
:10010000555E0008555E0008555E0008555E000803
:10011000555E0008555E0008555E0008555E0008F3
:10012000555E0008555E0008D9570008E5570008DD
:10013000555E00080000000000000000555E000849
:10014000555E0008555E0008555E0008F15700082E
:10015000555E0008555E0008555E0008555E0008B3
:10016000555E0008555E0008555E0008555E0008A3
:10017000555E0008555E0008555E0008000000004E
:1001800000000000555E00080000000000000000B4
:10019000555E00080000000000000000555E0008E9
:1001A000000000000000000000000000555E000894
:1001B000555E0008555E0008555E0008555E000853
:0401C000555E000880
:1001D00010B5054C237833B9044B13B10448AFF381
:1001E00000800123237010BDA80100200000000042
:1001F000E46C000808B5034B1BB103490348AFF397
:10020000008008BD00000000AC010020E46C000884
:1002100001F0FF01102A2BDB10F0070F08D010F8B7
:10022000013B013A8B422DD010F0070F42B3F6D1BB
:10023000F0B441EA012141EA014122F007047FF0D4
:1002400000070023F0E80256083C85EA010586EA2B
:10025000010685FA47F5A3FA87F586FA47F6A5FA67
:1002600087F68EB9EED1F0BC01F0FF0102F0070273
:1002700032B110F8013B013A83EA010313B1F8D11E
:100280000020704701387047002D06BF35460338FF
:10029000073815F0010F07D1013015F4807F02BF38
:1002A000013015F4C03F0130F0BC0138704700BF89
:1002B00053B94AB9002908BF00281CBF4FF0FF31CD
:1002C0004FF0FF3000F07AB9ADF1080C6DE904CEC3
:1002D00000F006F8DDF804E0DDE9022304B0704721
:1002E0002DE9F0478C460D460446089E002B51D15F
:1002F0008A4217466DD9B2FA82FEBEF1000F0BD0CA
:10030000CEF1200C01FA0EF520FA0CFC02FA0EF7E1
:100310004CEA050C00FA0EF44FEA174A250CBCFB18
:10032000FAF81FFA87F90AFB18CC45EA0C4508FBD6
:1003300009F3AB420AD9ED1908F1FF3280F02381AD
:10034000AB4240F22081A8F102083D44ED1AA4B26C
:10035000B5FBFAF00AFB105544EA054400FB09F925
:10036000A14509D9E41900F1FF3380F00A81A145C4
:1003700040F2078102383C44A4EB090440EA0840FB
:100380000021002E61D024FA0EF400233460736043
:10039000BDE8F0878B4207D9002E54D0002186E8B3
:1003A00021000846BDE8F087B3FA83F1002940F048
:1003B0008E80AB4202D3824200F2FA80841A65EB4F
:1003C00003050120AC46002E3FD086E81010BDE8A2
:1003D000F08712B90127B7FBF2F7B7FA87FEBEF133
:1003E000000F34D1EB1B3A0C1FFA87FC0121B3FB41
:1003F000F2F8250C02FB183345EA03450CFB08F321
:10040000AB4207D9ED1908F1FF3002D2AB4200F23E
:10041000D1808046ED1AA3B2B5FBF2F002FB105575
:1004200043EA05440CFB00FCA44507D9E41900F19C
:10043000FF3302D2A44500F2B8801846A4EB0C04A6
:1004400040EA08409DE731463046BDE8F087CEF1EE
:10045000200405FA0EF307FA0EF720FA04F83A0C16
:1004600025FA04F448EA0308B4FBF2F14FEA184510
:1004700002FB11441FFA87FC45EA044501FB0CF31B
:10048000AB4200FA0EF409D9ED1901F1FF3080F00A
:100490008A80AB4240F2878002393D44EB1A1FFA52
:1004A00088F5B3FBF2F002FB103345EA034500FB8D
:1004B0000CF3AB4207D9ED1900F1FF386FD2AB4214
:1004C0006DD902383D44EB1A40EA01418FE7C1F192
:1004D000200722FA07F88B4005FA01F448EA0303E3
:1004E00020FA07FE4FEA134CFD404EEA040EB5FB1E
:1004F000FCF94FEA1E440CFB19551FFA83F844EA35
:10050000054509FB08F4AC4202FA01F200FA01FACF
:1005100008D9ED1809F1FF3043D2AC4241D9A9F115
:1005200002091D442D1B1FFA8EFEB5FBFCF00CFBCF
:1005300010554EEA054400FB08F8A04507D9E41819
:1005400000F1FF3529D2A04527D902381C4440EAE2
:100550000940A4EB0804A0FB02894C45C6464D4661
:1005600015D312D056B1BAEB0E0364EB050404FAAE
:1005700007F7CB401F43CC40376074600021BDE8D3
:10058000F0871846F8E69046E0E6C245EAD2B8EBB6
:10059000020E69EB03050138E4E72846D7E7404639
:1005A00091E78146BEE7014678E702383C4445E7DB
:1005B000084608E7A8F102083D442BE7704700BF52
:1005C00038B50E4A0E4B054618784FF47A73B3FBD4
:1005D000F0F31068B0FBF3F000F0AAF8044658B945
:1005E0000F2D09D8024629464FF0FF3000F05EF883
:1005F000044B20461D6038BD012038BDC0000020DE
:10060000000000200400002008B50B4B1A6842F4DB
:1006100000721A601A6842F480621A601A6842F422
:1006200080721A60032000F02FF80020FFF7C8FF47
:1006300004F0CAFF002008BD003C0240034A044BFE
:1006400011681B780B441360704700BFD85100201D
:1006500000000020014B1868704700BFD8510020EF
:1006600038B50446FFF7F6FF631C1CBF054B1B782B
:10067000054618BFE418FFF7EDFF401B8442FAD887
:1006800038BD00BF00000020074AD36823F4E063B0
:100690001B041B0C43F0BF63000243F4003300F45F
:1006A000E0600343D360704700ED00E0174B30B5C6
:1006B000DC68C4F30224C4F10703251D042B28BF02
:1006C0000423062D4FF0010505FA03F303F1FF3370
:1006D0008CBF033C00241940A14005FA04F4013CFE
:1006E0002240002842EA01024FEA0212ADBF00F1A7
:1006F000604000F00F00064B00F56140B5BFD2B27C
:10070000D2B21A5480F8002330BD00BF00ED00E0E3
:1007100014ED00E0002808DB4209012300F01F006F
:1007200003FA00F0014B43F82200704700E100E0BB
:100730000138B0F1807F0AD2064B074A5860F02199
:1007400082F823100020072298601A607047012069
:10075000704700BF10E000E000ED00E00368DAB28F
:1007600023F47F7323F003031821103AB2FBF1F254
:100770000449032A88BF0433895C8365C165806DA1
:10078000704700BFFC6C000870B50446FFF762FFBD
:100790000546002C71D0002384F8343022680223EF
:1007A00084F83530136823F00103136021680B6867
:1007B000D8073CD40B68324D6268A0691D40A3681D
:1007C0001343E26813432269134362691343E269E6
:1007D00003431343226A1343626A042A43EA05036C
:1007E00001BF266BE56A35432B430B604B69042A36
:1007F00023F0070343EA02030BD1A26AE56A13431D
:100800003DB1F8B9012A2DD001D3022A01D1EA0164
:100810002BD44B612046FFF7A1FFE26D3F239340AD
:10082000836000200123606584F8353070BDFFF7D8
:1008300011FF401B0528B9D920236365032084F8E4
:10084000350070BDB0F5005F13D1032AE1D801A0D7
:1008500050F822F06B0800080F0800086B08000829
:1008600065080008B5F1C07FD3D14023636501203E
:10087000E5E7022AF9D9032AC8E7012070BD00BFC5
:100880003F8010F038B5054620B390F83540E4B20B
:10089000022C1DD003681A6822F0010200241A609D
:1008A00021221C605C609C60DC601C615A61FFF767
:1008B00055FFEA6DEC633F2393402C646C64AC6499
:1008C000EC642C6583606C6585F8344085F83540B0
:1008D000204638BD012038BD70B590F83440012C59
:1008E00032D0012480F8344090F83540866D012CD8
:1008F0004FF000054FF0020424D180F83540046821
:100900004565256825F48025256063608368402B54
:100910000EBFA260A160E260C26D08BFE1603F232C
:100920009340B360236843F016032360036C1BB14C
:10093000236843F008032360236843F00103236026
:10094000002070BD80F83450022070BDF7B5002340
:1009500001935A4B856D1F68C36D2E6808229A401B
:10096000164204460CD001680868400708D508689C
:1009700020F004000860AA60626D42F00102626526
:1009800001229A40164208D021684969090641BFF0
:10099000AA60626D42F00202626504229A40164229
:1009A00008D021680968880741BFAA60626D42F0DB
:1009B0000402626510229A40164210D0236819681A
:1009C00009070CD5AA601A68500335D51B681903AE
:1009D00001D4236C00E0A36C0BB120469847E16D75
:1009E00020228A40164238D023681868C60634D5BB
:1009F000AA6094F83520052A1A6825D122F016023B
:100A00001A605A6922F080025A61226C0AB9A26CFB
:100A10001AB11A6822F008021A603F238B40AB60BB
:100A2000002384F83430012384F83530236D0BB172
:100A30002046984703B0F0BD1A68D2055EBF1A6819
:100A400022F008021A60C4E7500328D51B68190376
:100A500032D4636C0BB120469847636D002BE9D00C
:100A6000636DDA0719D50523226884F835301368D9
:100A700023F0010313604FF41653B7FBF3F7019B08
:100A800001339F42019302D31368DB07F7D400239D
:100A900084F83430012384F83530E36CC7E71A68F2
:100AA00012F4807208D1196821F010011960012335
:100AB00084F8342084F83530E36BCBE7C0000020A5
:100AC0002DE9F04F85B00B68DFF8A081654ADFF8AB
:100AD000A091019300230124019D9C402540AC423C
:100AE00040F0AC804C6824F0100C0CF1FF36012E65
:100AF0004FEA430E12D88768032606FA0EF627EA55
:100B00000607CE6806FA0EF63E4386604768C4F3D1
:100B1000001627EA05079E403E4346600326C76845
:100B200006FA0EF6F64307EA060A8F6807FA0EF78A
:100B300047EA0A07BCF1020FC76016D14FEAD30A91
:100B400000EB8A0A03F0070BDAF820704FEA8B0BF0
:100B50004FF00F0C0CFA0BFC27EA0C0C0F6907FA8C
:100B60000BF747EA0C07CAF8207007683E4004F00C
:100B7000030707FA0EFE4EEA06060660E6005DD59C
:100B80004FF0000BCDF80CB0D8F84470364E47F457
:100B90008047C8F84470D8F8447007F4804703973A
:100BA000039F23F0030707F1804707F59C3703F005
:100BB000030CD7F808A04FEA8C0C4FF00F0E0EFA7A
:100BC0000CFEB0422AEA0E0E3FD006F58066B04217
:100BD0003DD006F58066B0423BD006F58066B04257
:100BE00039D006F58066B04237D0484537D006F593
:100BF0000066B04214BF0726062606FA0CF646EA3F
:100C00000E06BE601668EF4314F4803F0CBF3E40F2
:100C10002E431660566814F4003F0CBF3E402E432E
:100C20005660966814F4801F0CBF3E402E439660B9
:100C3000D668A40254BF3E402E43D6600133102B29
:100C40007FF449AF05B0BDE8F08F5E46D5E70126D9
:100C5000D3E70226D1E70326CFE70426CDE7052612
:100C6000CBE700BF003C01400000024000380240DA
:100C7000001402402DE9F04F3D4DDFF8FCA0DFF8F5
:100C8000FCB000234FF0010909FA03FC0CEA010251
:100C900094455CD123F0030606F1804606F59C36A8
:100CA00003F0030EB4684FEA8E0E0F2707FA0EF713
:100CB00004EA07082F4CA0424ED004F58064A042FD
:100CC0004CD004F58064A0424AD004F58064A04270
:100CD00048D004F58064A04246D0504546D05845DF
:100CE0000CBF0624072404FA0EF4A04510D12C688A
:100CF000D24314402C606C6814406C60AC681440A3
:100D0000AC60EC682240EA60B26822EA0707B7608C
:100D10005E0003220468B240D24314400460DC0841
:100D200000EB840403F0070E266A4FEA8E0E0F27AD
:100D300007FA0EF726EA07072762C4681440C46062
:100D4000446824EA0C0444608468224082600133D1
:100D5000102B99D1BDE8F08F0024C4E70124C2E72D
:100D60000224C0E70324BEE70424BCE70524BAE755
:100D7000003C014000000240001402400018024004
:100D80000AB1816170470904FBE7F0B504468BB0F6
:100D900060B390F8BD33056803F0FF021BB980F81B
:100DA000BC2304F0C3FD032384F8BD33EB6B25465D
:100DB00013F4807355F8100B08BF236102F0BAF9E1
:100DC0000FCD6E460FC60FCD0FC695E8030086E81F
:100DD00003002546271D97E80E0055F8100B02F07A
:100DE000EFF8064620B1022384F8BD33012556E012
:100DF0000146206802F0A4F93046D4F804E01C262D
:100E00004FF0010C0146C2B2964500F101001CD81A
:100E100000231C261946D8B2864503F1010322D8C7
:100E20000FCD6E460FC60FCD0FC695E8030086E8BE
:100E3000030097E80E00206802F0C4F9012305467C
:100E400000B3022284F8BD23D0E706FB024383F8F7
:100E50003DC083F83C20A3F8422083F83F1059643A
:100E600099641965CFE706FB004282F8FD1182F80C
:100E7000FC0182F8FF11C2F80412C2F80812C2F88D
:100E80001012C8E784F8380084F8BD33636A012B78
:100E900002D1204600F068FC206802F0E1FC284600
:100EA0000BB0F0BD90F8BC33012B10B5044616D042
:100EB0000123006884F8BC33A36A012B06D1A3691F
:100EC000012B1EBF836B43F48033836302F0BCFCB1
:100ED000206802F029F9002084F8BC0310BD02202C
:100EE00010BD00002DE9F04F066887B0044630467B
:100EF00002F0F1FC0290002840F03C81206802F0F2
:100F0000BBFC002800F03681206802F0B5FC8307A6
:100F100048BF2268206842BF536903F0020353614F
:100F200002F0AAFC070300F12881206802F0A4FC6B
:100F300045030CD5206802F0ABFC2546834606F538
:100F4000106A4FF00009BBF1000F40F0D681206815
:100F500002F092FC002815DAD6F8043823F00103D9
:100F6000C6F8043894F8F433012B40F05B8200217A
:100F700084F8F413204604F03BFE2268536903F022
:100F800000435361206802F077FC05050BD5D6F8C5
:100F90000838D80702D5204604F038FD2268536986
:100FA00003F400635361206802F066FC010114D56C
:100FB00023685A6902F000625A6194F8F423002A07
:100FC00040F034825B6D0121C3F3830384F8F41392
:100FD000C4F8F833204604F00BFE206802F04CFC05
:100FE000C20435D506F500656B68206823F001035F
:100FF0006B60102102F0BCF8606806F510634FF6D4
:101000007F31029A824240F01582EB6943F001136E
:10101000EB61236B002B00F01F82D5F8843043F086
:101020000B03C5F884306B6C43F00B036B64D6F88C
:101030000038217C206823F4FE63C6F8003804F5EC
:10104000717202F067FC2268536903F480535361A4
:10105000206802F011FC830416D5206802F03FFCE2
:10106000206802F06FF9E060256800F079FC227BCF
:101070000146284601F0E4FF204604F0B4FC226853
:10108000536903F400535361206802F0F5FBC7066F
:101090002AD52268936923F010039361356AC5F35A
:1010A0004343022B05F00F0740F0E18147F6F07350
:1010B0001D4214D01C2303FB0747C5F30A152A461B
:1010C000D7F80812304602F049FBD7F808322B4413
:1010D000C7F80832D7F814321D44C7F814522268F2
:1010E000936943F010039361206802F0C5FB060783
:1010F00007D5204604F073FC2268536903F0080307
:101100005361206802F0B8FBC50208D500212046D3
:1011100004F09CFC2268536903F480135361206837
:1011200002F0AAFB800208D50021204604F08AFCC8
:101130002268536903F400135361206802F09CFB9A
:10114000410007D5204604F085FC2268536903F06E
:1011500080435361206802F08FFB42070AD5236861
:101160005D686B0702D5204604F078FC23685A6856
:1011700015435D6007B0BDE8F08F2068DFF810B35D
:1011800002F07EFB06F530658246A0460027BAF1E4
:10119000000F3FF4CAAE1AF0010F00F0A780FAB2B8
:1011A00011462068039202F07BFB10F0010F81468C
:1011B000039A4CD00123AB6023682069D3F840E048
:1011C00003F5306303EB47130128996854D10807EE
:1011D00014D5DE4504D90A0444BF4FF400429A6096
:1011E0002046039304F0E4FB04F5717201212068AA
:1011F00002F090FB039B08229A6028E0880601D544
:101200002022F9E711F0280F21D1DE4504D9090485
:1012100002D54FF40042EFE71B69D8F80412C3F37C
:101220001203CB1AC8F81432D8F808321944C8F897
:1012300008122046114604F0C1FB47B9D4F8103219
:101240002BB904F571720121206802F063FB19F0DB
:10125000080F33D0236820691A6C03F5306303EB61
:1012600047130128996815D15A4516D9090444BF76
:101270004FF40041996010E08448864505D1080488
:10128000C7D4880644BF202199601146204604F047
:1012900095FBDCE77D488242E8D02046039204F0CB
:1012A00087FB039A5A4507D92169012904D104F51E
:1012B0007172206802F02EFB0823AB6019F0100F4A
:1012C0001CBF1023AB6019F0200F09D02169012940
:1012D00004D104F57172206802F01CFB2023AB607E
:1012E00019F4005F1CBF4FF40053AB6001374FEAA5
:1012F0005A0A203508F11C0849E71BF0010F00F0DD
:1013000089805FFA89F319462068039302F0D1FAC5
:10131000C307074624D5D6F834380399012009F0CD
:101320000F0200FA02F223EA0203C6F834382369F6
:10133000CAF80800834201BFAB6C6A6C9B18AB64AF
:10134000204604F044FB2169012909D1B9F1000FBD
:1013500006D1236D23B904F57172206802F0DAFA20
:10136000380744BF0823CAF80830F90644BF1023E1
:10137000CAF808307A0644BF4023CAF80830BB07D1
:1013800044BF0223CAF808303F0643D56B6D2F6D6A
:10139000BB423FD8FF1A6B6C226804929F4228BF61
:1013A0001F4602F51063033703EB4913BF0805938B
:1013B000059B6A6D9B699BB2BB422B6D28D3934200
:1013C00026D963B9049B09F00F01D3F83428012012
:1013D00000FA01F122EA0102C3F834281AE0A3EB73
:1013E00002086B6C039A0498984528BF9846237CA2
:1013F0000093A96C1FFA88F302F0AEF8AB6C43447B
:10140000AB646B6D08F103074344BF086B65CFE71E
:101410009342D7D909F101094FEA5B0B1C350AF158
:10142000200A90E5204604F009FBA6E5204604F0DA
:10143000EDFAD2E599601A6822F400121A60C3F836
:101440000812D3F8002222F40012C3F80022029AF4
:10145000013202922033D4E56B6943F4005343F028
:101460002B036B612B6943F00B032B61DFE5062B2C
:101470007FF435AE082204F57171304602F06EF942
:101480001C2303FB0747C5F30A1523E60A31544F13
:101490000A30544F90F8BC23012A10B504460BD0F3
:1014A000012280F8BC2384F83810006802F0BCF9EF
:1014B000002084F8BC0310BD022010BD70B50446A6
:1014C00001F00F0011F0800F4FF01C06C5B206FBB3
:1014D000054115BF06FB054506FB05453C3101F5F9
:1014E000FE7115BF0126002685F83D6085F8FD6177
:1014F0008A604A78CB70C0B2087002B1C880022BF3
:1015000004BF00230B7194F8BC33012B09D00123D5
:1015100084F8BC33206801F020FF002084F8BC036D
:1015200070BD022070BD01F00F03DAB210B50446A1
:101530001C2011F0800F00FB024119BF3C3100FB61
:10154000024200FB024201F5FE7115BF012000209E
:1015500082F83D0082F8FD010B7094F8BC33012B3A
:1015600009D0012384F8BC33206801F039FF002042
:1015700084F8BC0310BD022010BD38B501F00F0582
:101580001C2404FB050104FB050401F5FE71C4F8ED
:1015900010320023C4F80822C4F8143284F8FD3154
:1015A00084F8FC5103690068012B08BFC4F80C22C1
:1015B000DAB21DB901F046FF002038BD01F0E0FFAE
:1015C000FAE71C2301F00F0103FB0101D1F814021B
:1015D000704738B501F00F051C2404FB050104FB1E
:1015E00005043C312365002363650123A26484F86C
:1015F0003D3084F83C5003690068012B08BFE26469
:10160000DAB21DB901F01EFF002038BD01F0B8FFAD
:10161000FAE738B5436801F00F059D4204462ED81D
:1016200011F0800F4FF01C021FD002FB050102FBDE
:10163000050301223C3381F83D2001229A701D7080
:1016400094F8BC1391421CD084F8BC23194620683E
:1016500002F092F82DB904F57172217C206802F035
:1016600059F9002084F8BC0338BD02FB010302FBDA
:101670000101002203F5FE7381F8FD21DDE7012061
:1016800038BD022038BD38B5436801F00F029A42D8
:10169000044626D81C2311F0800F03FB020119BF5A
:1016A0003C3103FB020301F5FE7103FB024314BF4F
:1016B000012000204FF0000514BF83F83D0083F89F
:1016C000FD018D700A7094F8BC33012B0BD00123FF
:1016D00084F8BC33206802F07CF884F8BC532846B8
:1016E00038BD012038BD022038BD90F8BC33012B35
:1016F00010B5044611D0012380F8BC330B0608D581
:1017000001F00F01006801F033FD002084F8BC03F4
:1017100010BD006801F03EFDF7E7022010BD70B576
:101720000468636A21B943EA0243A362002070BDE2
:10173000A06A4D1E03EB10430020461CC0B2854238
:1017400006D83F3104EB810443EA02436360EDE7CE
:10175000403004EB8000406803EB10433046ECE778
:101760000368002059627047026803460121C0F8EF
:10177000FC13002083F8F403936943F00063936142
:10178000536D43F0805343F00303536570470000EB
:1017900070B50D4688B01646204CF0B90190236B09
:1017A00043F001032363236B059003F001030193CE
:1017B000019B07904FF4807303930223049303A9C2
:1017C000032317480693FFF77BF9A16821F0EC612A
:1017D00031432943A16008B070BD00230293226BFE
:1017E000104842F004022263226B059302F00402C7
:1017F0000292029A07934FF400720392022204921B
:1018000003A903220692FFF75BF9A36845EAC60124
:1018100023F078450D43A560DDE700BF00380240A6
:1018200000000240000802402DE9F0410D46044648
:1018300010B90120BDE8F081444B1A6802F00F0294
:101840008A4229D321688F072ED4C80741D43F4B41
:101850001A6802F00F02954267D3226851076DD4CF
:10186000130707D53A4A2169936823F4604343EA92
:10187000C103936000F0A2FA354B364A9B68C3F36C
:101880000313D35CD840344B1860344B1868FEF710
:1018900097FE0020BDE8F081CAB21A701B6803F001
:1018A0000F039942C5D1CDE7294B11F0040F1EBF9C
:1018B0009A6842F4E0529A600E0742BF9A6842F476
:1018C00060429A609A68A06822F0F00202439A602F
:1018D000BBE762681E4B012A1DD11B6813F4003F51
:1018E000A7D01B4EB36823F003031343B360FEF786
:1018F000B1FE41F288380746B368626803F00C0312
:10190000B3EB820FA3D0FEF7A5FEC01B4045F3D971
:101910000320BDE8F081911E01291B6802D813F055
:10192000007FDDE713F0020FDAE7EAB21A701B68F6
:1019300003F00F039D427FF47CAF8EE70449E0681B
:101940008B6823F4E05303438B6089E7003C02403B
:10195000003802403A6D0008C0000020040000205A
:10196000014B1868704700BFC0000020044B054AB7
:101970009B68C3F38223D35C034A1068D840704746
:10198000003802404A6D0008C0000020044B054AA0
:101990009B68C3F34233D35C034A1068D840704756
:1019A000003802404A6D0008C000002003682DE99D
:1019B000F74313F0010604460BD0AA49866BD1F811
:1019C0008C2022F0C0623243B6FA86F6C1F88C2031
:1019D00076099D070BD5A348E16BD0F88C2022F047
:1019E000C0520A430029C0F88C2008BF012613F01A
:1019F000040512D09B49256BD1F88C20B5F5801FCA
:101A000022F4401242EA050218BFB5FA85F5C1F882
:101A10008C2012BF6D090025012618070FD59148AB
:101A2000616BD0F88C2022F440020A43B1F5800F9C
:101A3000C0F88C2000F00981002908BF0125990613
:101A400033D500230193874B874F1A6C42F08052A5
:101A50001A641B6C03F080530193019B3B6843F4B1
:101A600080733B60FEF7F6FD80463B68DA0540F187
:101A7000EE807C4F3B6F13F4407340F0FB80236C8F
:101A800003F44072B2F5407F764A40F016819168C7
:101A900023F0704021F4F81120F44070014391606C
:101AA000116FC3F30B030B4313672368D90642BFBF
:101AB0006E4B94F858201A6023681A0608D56949B5
:101AC000E06CD1F8942022F440020243C1F8942043
:101AD0005F0608D56349A06CD1F8942022F080629B
:101AE0000243C1F89420D8050CD55E48616DD0F84A
:101AF000942022F000620A43B1F1006FC0F89420F4
:101B000008BF0125990508D55649606CD1F8942085
:101B100022F080520243C1F894205A0500F1D1808E
:101B2000012E40F0DC80524E4E4F00233360FEF712
:101B300091FD80463B681B0100F125812268D0079A
:101B400001D5A36B1BB1910715D5E36B9BB9454933
:101B5000D1F88430D1F8840003F4403300F0706091
:101B6000034360680343A06843EA8013606943EA63
:101B70000073C1F88430530703D5236BB3F5801F7E
:101B800005D0170720D5636BB3F5800F1CD13549FD
:101B9000D1F88430D1F8840003F4403300F0E04001
:101BA000034360680343A06843EA8013206943EA63
:101BB0000063C1F88430D1F88C00A36A20F01F00C4
:101BC000013B0343C1F88C3050051BD5236DB3F1A5
:101BD000005F17D123486768D0F88410D0F88430AC
:101BE00003F0E0433B43A768C1F30141013143EAFD
:101BF000871343EA4163E1684908013943EA014335
:101C0000C0F88430110511D52369A2681B0643EA88
:101C1000821362681343626943EA0273E2685208FE
:101C2000013A43EA02430F4AC2F884300123336089
:101C3000FEF710FD0B4E074633681A0153D4FEF72A
:101C400009FDC01B0228F7D908E00126F7E6FEF7D8
:101C500001FDA0EB080002287FF607AF032003B0C8
:101C6000BDE8F0830038024000700040E0114742B8
:101C700068004742226C02F4407293423FF4FFAE88
:101C80003B6F4B4A0121116023F440730021116026
:101C90003B673B6FDB077FF5F2AEFEF7DBFC41F203
:101CA000883980463B6F98073FF5E9AEFEF7D2FCD6
:101CB000A0EB08004845F5D9D0E7916821F4F81168
:101CC000EDE63C48216DD0F8942022F000520A4302
:101CD000B1F1005FC0F894207FF422AF23E7B3F5A1
:101CE000006F3FF420AF012D4BD1334D314E002317
:101CF0002B60FEF7AFFC074633689B004BD421688E
:101D00004E0701D5236B1BB108071AD5636BC3B906
:101D1000284AA069D2F8883003F440330343E069CD
:101D200043EA8013606A43EA0063C2F88830D2F85D
:101D30008C30E06A23F4F853013843EA0023C2F8F8
:101D40008C30CA0514D5636DB3F1006F10D11949F9
:101D5000A269D1F8883003F070631343E26943EA63
:101D60008213226A5208013A43EA0243C1F88830DA
:101D700001232B60FEF76EFC0E4C054623689B008A
:101D80000FD500206BE7FEF765FCA0EB08000228EA
:101D90007FF6D0AE62E7FEF75DFCC01B0228ABD930
:101DA0005CE7FEF757FC401B0228E7D956E700BF67
:101DB000400E47420038024070004742204908B5B3
:101DC0008B6803F00C03082B07D00C2B20D01D4A86
:101DD0001D48042B18BF104608BD4A684B68496867
:101DE00013F4800314BF18481648C1F3881118BFB4
:101DF000002302F03F02A1FB0001FEF759FA104B4D
:101E00005B68C3F3014301335B00B0FBF3F008BD33
:101E10004A684B68496813F4800314BF0A480948AC
:101E2000C1F3881118BF002302F03F02A1FB00019B
:101E3000FEF73EFA024B5B68C3F30273E5E700BFAF
:101E4000003802400024F40040787D0103682DE949
:101E5000F341DF07044610D423689E0767D4236844
:101E60001A0700F1B28023685B0700F1D080A269F5
:101E7000002A40F0398100201EE0974B9A6802F05A
:101E80000C02042A10D09A6802F00C02082A02D12F
:101E90005B685D0208D4904B9A6802F00C020C2A31
:101EA0000DD15A6850020AD58B4B1B689903D3D5C4
:101EB0006368002BD0D1012002B0BDE8F0816268D8
:101EC000B2F5803F11D11A6842F480321A60FEF7F1
:101ED000C1FB814D06462B689A03BDD4FEF7BAFBC1
:101EE000801B6428F7D90320E6E77B4DB2F5A02FCD
:101EF0002B6807D143F480232B602B6843F4803395
:101F00002B60E4E723F480332B602B6823F48023D9
:101F10002B60002ADBD1FEF79DFB06462B689B0356
:101F20009AD5FEF797FB801B6428F7D9DBE76A4B4D
:101F30009A6812F00C0F10D09A6802F00C02082A6E
:101F400002D15B685F0208D5634A936803F00C0313
:101F50000C2B11D153685E020ED45F4B1A689507A3
:101F600002D5E268012AA6D11A68216922F0F80296
:101F700042EAC1021A6072E7E268584BB2B101222C
:101F80001A60FEF767FB544D06462B68980707D585
:101F90002B68226923F0F80343EAC2032B605EE753
:101FA000FEF758FB801B0228EFD99CE71A60FEF76A
:101FB00051FB494D06462B6899077FF550AFFEF758
:101FC00049FB801B0228F6D98DE76269444B7AB140
:101FD00001221A60FEF73EFB3F4D06466B6F9F07DE
:101FE0003FF541AFFEF736FB801B0228F6D97AE7B2
:101FF0001A60FEF72FFB384D06466B6F98077FF58A
:1020000032AFFEF727FB801B0228F6D96BE7324B75
:102010001A6C12F0805228D101921A6C42F0805250
:102020001A641B6C03F080530193019B01262D4D14
:102030002B68D9051BD5A368274D012B27D12B6F02
:1020400043F001032B67FEF705FB234D074641F2E2
:1020500088382B6F9B0739D5002E3FF408AF1E4AF6
:10206000136C23F08053136401E70026DFE72B682D
:1020700043F480732B60FEF7EDFA07462B68DA0510
:10208000D9D4FEF7E7FAC01B0228F7D92BE7052BB6
:1020900004D12B6F43F004032B67D0E72A6F22F0A3
:1020A00001022A672A6F22F004022A67002BCAD194
:1020B000FEF7D0FA41F2883807462B6F9807CBD548
:1020C000FEF7C8FAC01B4045F7D90CE7FEF7C2FA85
:1020D000C01B4045BDD906E700380240000047421A
:1020E000800E474200700040234DAB6803F00C03A4
:1020F000082B3FF4E0AE214E0023022A33602DD19D
:10210000FEF7A8FA07462B68990121D4226AE369F1
:102110001343626A43EA8213E26A43EA0263226B70
:1021200043EA0273A26A144C5208013A43EA02439A
:102130006B6001233360FEF78DFA054623689A0130
:102140003FF599AEFEF786FA401B0228F6D9CAE69B
:10215000FEF780FAC01B0228D5D9C4E6FEF77AFA4A
:1021600004462B689B017FF586AEFEF773FA001BD1
:102170000228F6D9B7E600BF0038024060004742A7
:10218000F8B504460E4615461F4621688A6836EAA9
:10219000020301D00020F8BD6B1CF7D0FEF75AFAFD
:1021A000C01B8542F1D823685A6822F0E0025A60C9
:1021B0006268B2F5827F0AD1A268B2F5004F02D000
:1021C000B2F5806F03D11A6822F040021A60A26A49
:1021D000B2F5005F07D11A6822F400521A601A683B
:1021E00042F400521A60012384F85130002384F82D
:1021F00050300320F8BD38B513464268B2F5827FEF
:1022000004461FD18268B2F5004F02D0B2F5806F4C
:1022100007D125682868B2F5806F20F0400028605B
:1022200007D00A4680212046FFF7AAFF20B90020E8
:1022300038BD0A460121F6E7636D43F0200363656C
:10224000032038BD0A460121EEE7000073B51346AE
:10225000134A144E15684268B5FBF6F64FF47A75CA
:102260007543B2F5827F044601950DD10A4680215F
:10227000FFF786FF10B9002002B070BD636D43F018
:10228000200363650320F7E7019B002BF3D0019B3C
:10229000013B019323689B681B06F5D4EBE700BF65
:1022A000C000002000366E0110B50446002836D06C
:1022B0000023836290F8513003F0FF021BB980F8CD
:1022C000502003F09DF92168A068A269022384F8D8
:1022D00051300B6823F040030B6063680343E068F0
:1022E00003432069034360690343E0690343206AB1
:1022F0000343A06A034302F4007003430B60120C13
:10230000636A02F004021A434A60CB6923F4006353
:10231000CB6100200123606584F8513010BD01209D
:1023200010BD10B5044680B10268022380F8513018
:10233000136823F04003136003F0D6F900206065B2
:1023400084F8500084F8510010BD012010BD2DE923
:10235000F3411E4690F85030012B04460D4690463E
:1023600000F09B80012380F85030FEF773F9074698
:1023700094F85100C0B2012840F08D80002D5DD04E
:10238000B8F1000F5AD0032384F851300020A3681D
:102390006065A063A4F83680A087E087606420644D
:1023A00020682563B3F5004F08BF0368A4F83480A4
:1023B00004BF43F48043036003685B065EBF0368A9
:1023C00043F040030360E368B3F5006F63683ED1F8
:1023D00013B1B8F1010F07D135F8023BC360256393
:1023E000E38E013B9BB2E386E38E9BB2A3B93A46F0
:1023F00031462046FFF72AFF002849D1A36833B9A8
:1024000001932368DA6801929B680193019B606DD8
:10241000003018BF012011E022689368980705D5A5
:10242000236B33F8021BD1602363D9E7FEF712F95F
:10243000C01BB042D8D3711CD6D00320012384F82E
:102440005130002384F8503002B0BDE8F08113B160
:10245000B8F1010F08D12B780373236B0133236389
:10246000E38E013B9BB2E386E38E9BB2002BBED092
:1024700023689A68920703D5226B12781A73ECE7E7
:10248000FEF7E8F8C01B8642EED8731CECD0D4E708
:1024900020236365B2E70220D0E70220D4E72DE9CC
:1024A000F7431E4690F850300A9F012B04460D4614
:1024B000914600F0E280012380F85030FEF7CAF820
:1024C00094F851306168DBB2012B80460AD0B1F537
:1024D000827F40F0D080A068002840F0CC80042BA0
:1024E00040F0C980002D00F0C480B9F1000F00F069
:1024F000C080002E00F0BD8094F85130C4F83890B0
:10250000042B1CBF052384F851300023636523642A
:1025100063642368E687E6861A68A687500658BF74
:102520001A68256358BF42F04002A68658BF1A6059
:10253000E268B2F5006F58D109B1012E07D135F824
:10254000022BDA60E38E2563013B9BB2E386012513
:10255000E38E9BB2ABB9E38F9BB293B94246394647
:102560002046FFF773FE002840F08180A368002B0F
:1025700032D123680190DA6801929B680193019B34
:102580002AE02268936899070DD5E38E9BB253B178
:102590004DB1236B33F8021BD1602363E38E013B03
:1025A0009BB2E38600259368DB070CD5E38F9BB2D3
:1025B0004BB1A36BD26823F8022BA363E38F013BDB
:1025C0009BB2E3870125FEF745F8A0EB08008742A0
:1025D000BED87E1CBCD00320012384F851300023D8
:1025E00084F8503003B0BDE8F08309B1012E08D162
:1025F0002A781A73236B01332363E38E013B9BB26A
:10260000E3860125E38E9BB21BB9E38F9BB2002BBF
:10261000A4D02268936898070ED5E38E9BB25BB175
:1026200055B1236B1B781373236B01332363E38E44
:10263000013B9BB2E386002522689368D9070DD53C
:10264000E38F9BB253B1A36BD2681A70A36B0133B3
:10265000A363E38F013B9BB2E3870125FDF7FAFFFC
:10266000A0EB08008742CDD87B1CCBD0B3E720235A
:1026700063650120B0E70220AEE70220B2E72DE952
:10268000F3411D464368B3F5827F044688461746EA
:102690000CD1836853B9042380F851301346009558
:1026A0000A46FFF7FCFE02B0BDE8F08194F8503016
:1026B000012B79D0012384F85030FDF7CBFF06467B
:1026C00094F85100C0B201286CD1B8F1000F57D076
:1026D000002F55D0042384F8513000236365236311
:1026E000E787A386E38623646364A368A787B3F5BB
:1026F000004F2368C4F8388002BF1A6822F4804271
:102700001A601A6857065EBF1A6842F040021A60E3
:10271000E368F3B1E38F9BB2FBB123689A68D207F9
:1027200035D5DA68A36B23F8022BA363E38F013B53
:102730009BB2E387EEE723689A68D00718D5A26BAF
:102740001B7B1370A36B0133A363E38F013B9BB22D
:10275000E387E38F9BB2002BEDD13246294620461A
:10276000FFF749FDD8B9606D003018BF012007E0C0
:10277000FDF770FF801B8542EBD8691CE9D0032070
:10278000012384F85130002384F850308BE7FDF7A3
:1027900061FF801B8542BDD86B1CBBD0EFE72023B7
:1027A0006365E0E70220EBE702207CE738B50446EA
:1027B00090F85000012872D0012084F8500094F85D
:1027C0005100C0B2012808D06568B5F5827F62D19A
:1027D000A568002D5FD104285DD100295DD0002AB5
:1027E0005BD0002B59D094F85100A38604281CBF5D
:1027F000052084F8510000206065E386E387A38705
:1028000094F851302064042B6064E06C0CBF254BBD
:10281000254B2163A2630BBF03640364234B244B4A
:10282000C363244BC364002303652168E38F0C3129
:102830009BB2FEF751F8034650B1636D012043F09F
:102840001003636584F85100002384F8503038BDCC
:102850002268A06C516841F0010151600364C363B8
:10286000C3640365E38E216B9BB20C32FEF734F830
:102870000028E2D123681A6852065EBF1A6842F047
:1028800040021A605A6842F020025A605A6842F0C8
:1028900002025A60D8E70220D6E70120D4E70220DE
:1028A00038BD00BF99290008A5290008D3290008D0
:1028B000252A0008B12900081346826870B504462D
:1028C0000D465AB94668B6F5827F07D1042280F8D2
:1028D0005120BDE870400A46FFF768BF94F85010D9
:1028E00001294ED094F851000121C0B2884284F8E9
:1028F000501044D1002D2DD0002B2BD0042184F872
:102900005110002161652164E3876164E186A1863D
:102910002168A387B2F5004F08BF0B68E06CA56380
:1029200004BF23F480430B60174B0364174BC3634E
:10293000174BC36400230365E38F2A469BB20C3117
:10294000FDF7CAFF50B1636D012043F010036365CA
:1029500084F85100002384F8503070BD23681A6851
:1029600052065EBF1A6842F040021A605A6842F08E
:1029700020025A605A6842F001025A60EAE70220D7
:10298000E8E7022070BD00BF99290008D32900089C
:10299000B12900087047704708B5806BFFF7FBFF4F
:1029A00008BD704708B5806BFFF7FBFF08BD704797
:1029B000806B026808B5536823F003035360436DCE
:1029C00043F010034365012380F85130FFF7EFFF18
:1029D00008BD38B50546846BFDF73CFE2B681B68C7
:1029E000DB0502461AD42368596821F0200159609A
:1029F000596821F00301596020466421FFF7FBFB71
:102A000008B1202363650023E387012384F8513054
:102A1000636D1BB12046FFF7CAFF38BD204602F0A8
:102A2000EDFE38BD38B50546846BFDF713FE2B6807
:102A30001B68DB0502461ED421684B6823F0200387
:102A40004B6020466421FFF701FC18B1636D43F031
:102A5000200363652268536823F003035360002357
:102A6000E386E387012384F85130636D1BB1204670
:102A7000FFF79DFF38BD2046FFF78CFF38BD0000F3
:102A8000304A0368904212D0B0F1804F0FD0A2F5C7
:102A90007C4290420BD002F58062904207D002F552
:102AA0008062904203D002F57842904219D14A6880
:102AB00023F070031343234A904229D0B0F1804F92
:102AC00026D0A2F57C42904222D002F5806290424C
:102AD0001ED002F5806290421AD002F578429042F0
:102AE00016D0194A904213D002F5806290420FD05E
:102AF00002F5806290420BD0A2F59832904207D046
:102B000002F58062904203D002F58062904203D1C8
:102B1000CA6823F4407313434A6923F080031343C4
:102B200003608B68C3620B688362064B984203D0D4
:102B300003F58063984201D10B690363012343616C
:102B4000704700BF000001400040014010B504463E
:102B5000A0B190F83D3003F0FF021BB980F83C2093
:102B600002F0E0FD022384F83D302068211DFFF7CC
:102B700087FF012384F83D30002010BD012010BDE7
:102B800010B584680A4324F47F4442EA03232343B4
:102B9000836010BD90F83C30012B70B504464FF0B7
:102BA000020019D084F83D002068012384F83C30ED
:102BB000836823F47F4323F0770383600B68402B03
:102BC00065D015D8102B0CD007D853B101230020A5
:102BD00084F83D3084F83C0070BD202B01D0302BB0
:102BE000F4D1826843F0070322F0700213431AE025
:102BF000602B34D019D8502BE8D14A68CE68016ACE
:102C0000056A25F001050562836921F00A0123F0B8
:102C1000F00343EA06130A4383610262836823F0E8
:102C2000700343F057038360D0E7702B0CD0B3F5EB
:102C3000005FCBD1CB684A688968FFF7A1FF2268A3
:102C4000936843F4804308E0CB684A688968FFF7DB
:102C500097FF2268936843F077039360B6E74D6867
:102C6000CE68016A21F0100101628269036A22F4D0
:102C7000704223F0A00343EA051342EA0632826160
:102C80000362836823F0700343F06703CBE74A686D
:102C9000CE68016A056A25F001050562836921F0A5
:102CA0000A0123F0F00343EA06130A438361026238
:102CB000836823F0700343F04703B4E790F83C3097
:102CC000012B30B54FF0020335D080F83D3003685A
:102CD0000D685C6824F0700401222C4380F83C20CD
:102CE0009A685C60154CA3421AD0B3F1804F17D09C
:102CF000A4F57C44A34213D004F58064A3420FD012
:102D000004F58064A3420BD004F57844A34207D0B5
:102D100004F57054A34203D0A4F59434A34204D123
:102D2000496822F080020A439A60012380F83D300E
:102D3000002380F83C30184630BD00BF0000014041
:102D400038B50368C1681A69044622F440520A4340
:102D50001A612569A268D968C0692A43656921F4A6
:102D600016412A4321F00C0102430A43DA605A69F2
:102D7000A16922F440720A43B0F5004F5A61254A16
:102D800029D1934203D002F58062934220D1FEF70D
:102D9000FDFD6268256892184FF000034FF019019D
:102DA0005B41A0FB0101FDF783FA6421B0FBF1F464
:102DB00001FB1403DB003233B3FBF1F303F0070232
:102DC0005B0002EB041203F4F8731344AB6038BDEC
:102DD000FEF7CCFDDDE7934202D00F4A934216D1B5
:102DE000FEF7D4FD6368256819219A00A0FB010154
:102DF0009B0FFDF75DFA6422B0FBF2F102FB1103B9
:102E00001B013233B3FBF2F303EB0113DEE7FEF7F2
:102E1000ADFDE7E70010014000140140F8B504469D
:102E20000E4617461D4621680B6836EA030301D19A
:102E30000020F8BD6B1CF7D095B92368DA6822F43E
:102E4000D072DA605A6922F001025A61202384F8B4
:102E5000393084F83A30002384F838300320F8BD44
:102E6000FDF7F8FBC01B8542DDD2E6E710B504464E
:102E700060B390F8393003F0FF021BB980F83820B6
:102E800002F068FC2268242384F83930D36823F4E4
:102E90000053D3602046FFF753FF23681A6922F4DA
:102EA00090421A615A6922F022025A615A6942F02C
:102EB00008025A61DA6842F40052DA6000202023E6
:102EC000E06384F8393084F83A3010BD012010BD39
:102ED0002DE9F8431F4690F83930202B04460D4663
:102EE000904651D100294CD0002A4AD090F8383071
:102EF000012B49D0012380F838304FF000092123FD
:102F0000C0F83C9080F83930FDF7A4FBA4F8248089
:102F10000646A4F8268084F83890E38C9BB25BB90F
:102F20003B46324640212046FFF778FFA0B92023D8
:102F300084F83930BDE8F883E38C013B9BB2E3842D
:102F4000A368B3F5805F32463B464FF080012046D0
:102F50000ED1FFF763FF10B10320BDE8F8832B8883
:102F60002268C3F308035360236943B90235D4E7E9
:102F7000FFF754FF0028EFD123682A785A60013503
:102F8000CBE70120BDE8F8830220BDE8F88300000C
:102F90000A4B013B01D1032070470269002AF8DA8D
:102FA0000369064A43F001030361013AF3D0036960
:102FB00013F00103F9D11846704700BF410D03001B
:102FC00084B038B505AD85E80E000A9B012B044698
:102FD00025D1836B23F480338363C36823F4840394
:102FE00023F04003C360C36823F44013C360119B04
:102FF000012B02BFC36843F48013C360FFF7C8FF0F
:10300000089B012B07D1A36843F00603A360A368C4
:1030100043F02003A360BDE8384004B07047C368A4
:1030200043F04003C360FFF7B3FF0E9B23B9A36BCC
:1030300043F48033A363E3E7A36B23F48033F9E71E
:10304000022A58D12E4B2F4A0B44934247D92E4B7C
:103050002E4A0B44934244D9A1F574032C4AA3F59C
:10306000105393423FD9A1F1837302F5C332A3F504
:10307000E743A032934238D9264B274A0B44934268
:1030800035D9264B02F592220B4402F57872934211
:103090002FD9234B02F5C3220B4402F52072934231
:1030A00029D9A1F1B77302F5B712A3F5585302F568
:1030B0005872934221D91B4B02F512220B4402F5A0
:1030C000F862934294BF07230623C26822F4705229
:1030D000C260C26842EA8323C360002070470F23A6
:1030E000F3E70E23F1E70D23EFE70C23EDE70B23C6
:1030F000EBE70A23E9E70923E7E70823E5E700BF51
:10310000405327FFFF340C00401E1BFF3F420F00BF
:103110007F4F120060B6E5FE5FE3160000D3CEFEDF
:10312000C05BB3FEE05459FE836843F00103836043
:1031300000207047836823F00103836000207047FC
:1031400008B5C368012923F0C043C36008D1C36830
:1031500043F00053C3603220FDF782FA002008BD1F
:1031600019B9C36843F08043F4E7012008BD0000AB
:10317000890141F02001064A0161013A05D0036945
:1031800013F02003F9D1184670470320704700BFA1
:10319000410D03001023064A0361013A05D003697B
:1031A00013F01003F9D1184670470320704700BF91
:1031B000410D0300D0F800381943C0F80018002072
:1031C0007047000084B02DE9F047044609A880E864
:1031D0000E0000230C9F139E8846194603F14002FF
:1031E00004EB820201330F2B5160F7D1A36B002E49
:1031F00072D123F40013A363236843F040032360D8
:10320000236843F0800323600023C4F8003ED4F811
:103210000038C4F800380E9B012B04F5006561D11D
:103220000B9900295CD12046FFF7C4FF10212046EE
:10323000FFF79EFF01462046FFF7ACFF002853D161
:10324000081C18BF012000232B6104F510626B617C
:103250001946EB614FF0904E4FF0006C4FF67F39FE
:10326000434543D1002104F530628E464FF0904C27
:103270004FF000684FF67F398B424AD12B69012FFE
:1032800023F480732B6107D12C4B2B632B6B43F4FE
:10329000803343F003032B630023A3616FF080436B
:1032A00063611FB9A36943F01003A361A269244BB2
:1032B0001343A3610F9B1BB1A36943F00803A361F0
:1032C000012E01BFA36943F0804343F00403A361CF
:1032D000BDE8F04704B0704743F40013A36393E7DD
:1032E0001946A0E703219EE70120ACE7D2F800A031
:1032F000BAF1000F0BDA3BB9C2F800C0116101331B
:10330000C2F808902032ABE7C2F800E0F6E711609F
:10331000F4E7D2F800A0BAF1000F0CDA41B9C2F814
:103320000080C2F810E00131C2F808902032A3E713
:10333000C2F800C0F5E7C2F800E0F2E70001800043
:1033400000383C80D0F8083813F0060004D013F0A1
:10335000020F14BF02200F20704770B54A780C7816
:10336000D0F81C6800F50063012A04F00F051BD19A
:10337000AA40324300EB4410DA61D0F800391A0455
:1033800010D48B68C978D0F80029C3F30A0343F03E
:10339000805343F4004343EA814343EA8453134395
:1033A000C0F80039002070BD4FF48032AA4032438B
:1033B00000EB4410DA61D0F8003B1B04F2D48B68B8
:1033C000C978D0F8002BC3F30A0343F0805343F4C9
:1033D000004343EA81431343C0F8003BE2E70000A7
:1033E00030B54B780C78D0F83C1800F50062012B12
:1033F00004F00F0510D1AB40DB431940D163D16914
:1034000000EB44100B40D361D0F800290B4B134064
:10341000C0F80039002030BD4FF48033AB40DB43AF
:103420001940D163D16900EB44100B40D361D0F84F
:10343000002B034B1340C0F8003BEBE7007833EC64
:103440000078F3EFF0B54B780C784E69414F012BC3
:103450004FF0200359D113FB040336BBD3F81059A6
:1034600025F0FF5525F4C015C3F81059D3F81059AD
:1034700045F40025C3F81059D3F810592F40C3F86C
:103480001079012A4FF0200329D10A691AB113FBE0
:103490000403C3F8142900EB4410D0F8002942F0CB
:1034A0000442C0F800290020F0BD03F510631D6937
:1034B0002F401F611D6925F0FF5525F4C0151D61C2
:1034C0008D68AE4288BF4D611D6945F400251D61C0
:1034D0004D691E69C5F3120535431D61D1E713FB24
:1034E0000404D4F8003943F00443C4F800394B69AC
:1034F000002BD8D00A78D0F8343802F00F0101221E
:103500008A401A43C0F83428CDE713FB040000F5C5
:1035100030631C6927401F611C6924F0FF5424F4A8
:10352000C0141C618C6806B14C611D6945F400250E
:103530001D611D69C4F312042C43012A1C6102D1D0
:10354000CA6802B15A61D0F8003B43F00443C0F8A6
:10355000003BA8E70000F8FF10B59DF808404CB903
:10356000033300EB023023F0030300F580500B44DB
:10357000994201D1002010BD51F8042B0260F7E7F9
:10358000F7B54B780E78734F012B4FF020044B6941
:1035900014FB060440F09880002B38D104F5106528
:1035A000D4F8104924F0FF5424F4C0142C612C6981
:1035B00044F400242C612C6927402F61012A4FF02C
:1035C000200454D10B691BB114FB0604C4F8143950
:1035D000CB78012B10D1D0F8083813F4807F4FF04E
:1035E000200313FB0603D3F800290CBF42F000525E
:1035F00042F08052C3F8002900EB4610D0F80039A1
:1036000043F00443C0F80039002003B0F0BDD4F803
:1036100010592F40C4F81079D4F810598F6825F04C
:10362000FF5525F4C015C4F81059DD19013DB5FB4F
:10363000F7F7494DD4F810E905EAC74545EA0E0504
:10364000C4F81059D4F81079C3F312053D43C4F8F7
:103650001059CD78012D04F51064AFD1256925F0FE
:10366000C0452561256945F000552561A6E714FB95
:103670000604D4F8005945F00445C4F80059CD7843
:10368000012D0CD0002BBFD00B78D0F8344803F0BC
:103690000F02012393402343C0F83438B4E7D0F835
:1036A000085815F4807FD4F800590CBF45F0005538
:1036B00045F08055C4F800590C7800929BB2224620
:1036C000C968FFF749FF9FE704F5306635692F4069
:1036D0003761356925F0FF5525F4C01535618D68D2
:1036E00023BB3369C5F312051D433561336943F4C8
:1036F0000023012A336102D1CB6803B17361CB7817
:10370000012B0CD1D0F8083813F4807FD4F8003B9B
:103710000CBF43F0005343F08053C4F8003BD4F88F
:10372000003B43F00443C4F8003B6DE70A4FD6F872
:1037300010E02B44013BB3FBF5F307EAC34747EA2C
:103740000E0737619BB237696B43C3F312033B43E8
:10375000CFE700BF0000F8FF0000F81F033222F09F
:1037600003020A4400F58050914201D10846704797
:10377000036841F8043BF7E74B780A78012B4FF0D8
:10378000200313FB020012D1D0F80039002B06DB16
:103790002AB1D0F8003923F08043C0F80039D0F8BE
:1037A000003943F40013C0F8003900207047D0F806
:1037B000003B002B06DB2AB1D0F8003B23F080430E
:1037C000C0F8003BD0F8003B43F40013C0F8003BC6
:1037D000EBE74B780A78012B4FF0200313FB020034
:1037E00011D1D0F8003923F40013C0F80039CB7898
:1037F000023B012B05D8D0F8003943F08053C0F8C4
:10380000003900207047D0F8003B23F40013C0F8C3
:10381000003BCB78023B012B9EBFD0F8003B43F02E
:103820008053C0F8003BECE7D0F8003823F4FE6387
:10383000C0F80038D0F80038090101F4FE611943DE
:10384000C0F800180020704708B5D0F8043823F0FD
:103850000203C0F804380320FCF702FF002008BD73
:1038600008B5D0F8043843F00203C0F80438032048
:10387000FCF7F6FE002008BD4269806910407047E1
:10388000D0F8183800F50060C0691840000C704787
:10389000D0F8183800F50060C069184080B2704751
:1038A00000EB411100F50060D1F8082B4069104091
:1038B000704710B5D0F81048D0F8343800EB4110FC
:1038C00001F00F01CB4000F51060DB018068DBB236
:1038D0002343184010BD406900F001007047D0F844
:1038E000003923F4FF6323F00703C0F8003900F523
:1038F00000639A6802F00602042A02BFD0F8002989
:1039000042F00302C0F800295A6842F480725A60FB
:103910000020704710B5164B046C9C4203D9D0F8B8
:10392000003B002B21DB0024C0F8104BD0F8104BDB
:1039300044F40024C0F8104BD0F8104B44F01804A5
:10394000C0F8104BD0F8104B012944F0C044C0F827
:10395000104B08BFC0F8142B00F5306302BFD0F83D
:10396000003B43F08023C0F8003B002010BD00BFA7
:103970000A30544F20230380004870476000002025
:10398000202303800048704740000020202303804C
:10399000004870478C0000200A23038000487047CD
:1039A0008000002038B5037C0446E3B94FF400736F
:1039B00002220121012502F091F8C4F858514FF478
:1039C000007302228121204602F088F8E5624FF45C
:1039D0001B7002F06BFAC4F8900270B1204600F040
:1039E000EAF8002038BD402302220121012502F01F
:1039F00075F8C4F858514023E3E7022038BD38B5C4
:103A000004460121002502F079F88121C4F85851BB
:103A1000204602F073F82046E56200F0F7F8D4F88B
:103A2000900218B102F04AFAC4F89052002038BD52
:103A30002DE9F3410023ADF806300B78D0F89072F1
:103A400013F0600204460E462DD0202A04D14A7895
:103A5000FE2A05D0FF2A18D001F065FA02201FE0E7
:103A60004D88002D75D1B1F80680B8F1010F70D1E5
:103A70001A066ED5D0F894329B6998474246386052
:103A80003946204601F076FA09E04A88002A60D1DA
:103A9000CD88002D5DD11B065BD400F0ACF8002072
:103AA00002B0BDE8F0814B780B2B52D8DFE803F071
:103AB000061C51515151515151510E1590F874320B
:103AC000032B46D102220DF10601DAE790F8743299
:103AD000032B3ED10122391DD3E790F87432032B1A
:103AE00037D18B787B60DAE7097902F015F8317904
:103AF000204602F003F8B388227C142113F0800FD3
:103B000003F00F0301FB03434FF0000111D0996153
:103B10006AB94FF4007302228121204601F0DEFFD2
:103B20000123E3623179204600F01AF9B7E7402318
:103B3000F1E7C3F8441152B94FF400730222012196
:103B4000204601F0CBFF0123C4F85831EAE74023B7
:103B5000F4E7314620467FE708B500F079F8002009
:103B600008BD08B500F090F8002008BD09B1C0F804
:103B700094120020704770B5D0F8904294F8183233
:103B800005463BB9D4F8143223B1637A13B9012145
:103B900001F0D0FF8121284601F0CCFF637A022B8F
:103BA00008D104F5037228461F230121BDE87040A7
:103BB00002F00CB870BD70B5D0F8905204460020E9
:103BC0002872687285F85D0285F85C02D4F8943238
:103BD0001B6898470121204601F09EFF8121204665
:103BE00001F09AFF05F5037220461F230121BDE86D
:103BF000704001F0EBBFD0F8902200230121137236
:103C000051721F2302F5037201F0E0BFD0F8903229
:103C100000221A727047000070B5D0F890420B4B2A
:103C2000C4F82C320023054684F83812237204F5B8
:103C30000B720D23812101F0BBFF04F503722846AE
:103C40001F230121BDE8704001F0C0BF555342530E
:103C500010B5D0F890321A7A022A044603D012D353
:103C6000042A0ED910BD03F21B2293F8191200F09A
:103C7000CDF9002807DA01212046BDE81040FFF702
:103C8000CBBF0021F9E710BD70B5D0F89042237A80
:103C9000054613B1012B58D070BDD4F81032C4F8CA
:103CA0003032D4F81432C4F83432012101F09CFFD0
:103CB0001F2894F819120BD1D4F80C22274B9A42E2
:103CC00006D1012904D894F81A32013B0F2B0BD9E5
:103CD00020230522284600F0D7FD022363722846E0
:103CE000BDE87040FFF747BF04F21B22284600F0F2
:103CF0008DF90028237A07DA052BF0D10121284617
:103D0000BDE87040FFF788BF013B022B25D96389CE
:103D1000CBB1D5F89012D1F83402D1F8146204F185
:103D20000C021C46001BC1F83402002081F8380246
:103D3000042008729E4238BFB3B228468121BDE8F4
:103D4000704001F035BF1946D9E704F21B2294F800
:103D5000191200F05BF90028D0DB70BD55534243C7
:103D600010B5D0F89042637A022B05D1812101F081
:103D7000E1FE0023637210BD0A0606D5012B04D0B4
:103D80000121BDE81040FFF747BF10BDD0F89022D9
:103D900092F85D3202EBC3000133DBB280F83C12D3
:103DA000042B4FF0000180F8401214BF82F85D32FE
:103DB00082F85D1270472DE9F04107460846D7F8B2
:103DC0009052D7F89442D5F86862B5F85E22D5F8DB
:103DD00064126469B6F5007F05F10C0828BF4FF442
:103DE0000076B6FBF2F3B1FBF2F29BB24146A0477C
:103DF000002807DA38460421FFF7C8FF4FF0FF30EC
:103E0000BDE8F081D5F86432D5F868423344C5F88E
:103E10006432D5F83432A41B9E1BC5F86842C5F83D
:103E2000346234B921463846FFF7F6FE0020BDE87B
:103E3000F081B4F5007F28BF4FF40074A3B242466E
:103E40000121384601F0C2FEF0E72DE9F0410646B7
:103E50000846D6F89042D6F89422B4F85E32D4F8E8
:103E60006852D2F81080D4F864225D43B5F5007F23
:103E700004F10C0728BF4FF400753946B5FBF3F386
:103E80009BB2C047002807DA30460421FFF77EFFC7
:103E90004FF0FF30BDE8F081ABB23A4681213046A9
:103EA00001F086FEB4F85E02D4F86422B5FBF0F3AC
:103EB000D4F868021A44C01AD4F83432C4F8642220
:103EC0005D1BC4F86802C4F8345218B90323237286
:103ED000BDE8F0810020BDE8F08108B51344D0F8BA
:103EE0009022D2F860128B4205D90521FFF74EFFD0
:103EF0004FF0FF3008BD002008BD70B5D0F89042EB
:103F0000237A05460E464BBB94F91832002B06DB8C
:103F100005212846FFF73AFF4FF0FF3070BDD0F87B
:103F2000943208469B689847024608B10221F0E7A0
:103F30000123C4F86402C4F8683231462846FFF70A
:103F4000CCFF0028E8DB0223B4F85E222372D4F809
:103F500068325343D4F814229A42D9D14FF40073F3
:103F60006381002070BD2DE9F041D0F89042237AA2
:103F700006468846002B47D194F91832002B06DA02
:103F800005213046FFF702FF4FF0FF3539E0D0F84A
:103F9000943208469B68984708B10221F1E7D6F8A9
:103FA00094324046DB68984705460028F5D1012742
:103FB000C4F864020246C4F868723B464146304683
:103FC000FFF78BFF0028DFDBB4F85E12D4F8642221
:103FD000D4F868324A43C4F86422D4F814224B431C
:103FE0009342C4F86832CBD1B3F5007F28BF4FF4B9
:103FF000007327729BB204F10C023946304601F07F
:10400000E5FD2846BDE8F0810125FAE72DE9F043FA
:1040100013782F2B87B006460F46154600F0BA825C
:1040200000F29A801B2B00F0F88121D8032B00F0BE
:104030009D8109D8002B00F06D8105213046FFF7E6
:10404000A5FE4FF0FF3481E1122B00F0BE811A2B48
:10405000F3D1D0F89032BF4908225A8103F11302FC
:104060000B3311F8010D02F801099342F9D16AE10D
:10407000252B00F0ED811CD81E2B00F0CE81232BC8
:10408000DBD1D0F89042002104F10C0304F11802B6
:1040900003F8011B9342FBD1D6F894320DF10202D2
:1040A0005B6801A938469847002800F0BB810221CF
:1040B00038E1282B00F0EF812A2BBED1D0F8908276
:1040C00098F80830002B40F0248298F91832002B21
:1040D000C0F22781D0F8943208469B6898470028A0
:1040E000E5D1D6F894323846DB6898470446002874
:1040F000DDD1EA78AB78120442EA03626B791A43A5
:104100002B7942EA0322C8F86422E9792B7A43EA40
:104110000123C8F8683239463046FFF7DEFE002832
:10412000C0F21181B8F85E22D8F868325343D8F84B
:104130001422934240F0F580B3F5007F4FF0010167
:1041400028BF4FF4007388F808109BB208F10C02E6
:10415000304601F03BFDF9E0E02B00F03C822DD829
:10416000C02B00F0298211D85A2B7FF466AFD0F80B
:104170009032794908225A8103F113020B3311F866
:10418000010D02F801099A42F9D1DCE0C12B00F0DF
:10419000E582C22B7FF451AFD0F89042FFF7ADFE1D
:1041A00068786E4DC30900F05C834FF40072002103
:1041B00004F10C0001F095FE2B780AE2E32B00F0ED
:1041C0004E8200F29880E12B00F02182E22B7FF4F6
:1041D00034AFD0F8904292F80180237A2BBB94F947
:1041E0001832002B80F29D80D0F8943208469B68EC
:1041F0009847024600287FF45AAF594BC4F864022E
:104200001B78C4F8683239463046FFF766FE00284E
:10421000C0F299800223B4F85E222372D4F8683287
:104220005343D4F814229A427BD14D4B1A784FEA6B
:104230004229A4F80A904FF40072002104F10C0006
:1042400001F04FFED6F89052B5F85E32D5F86842CC
:104250004AF250525C4392FBF9F108FB099309FBC7
:1042600011201B1B08B101FB09923E490978D21AA3
:1042700005F10C08002900F020823B49B2F5007FCF
:104280000968A8BF4FF400721944404601F01EFEB1
:10429000D6F89422B5F85E32D2F81090D5F86422A0
:1042A000B4F5007F28BF4FF400744146B4FBF3F32C
:1042B00038469BB2C8470028C0F24481A3B24246A8
:1042C0008121304601F074FCB5F85E32B4FBF3F2A4
:1042D000D5F864321344C5F86432D5F868329B1AB5
:1042E000D5F83422C5F86832141BC5F8344253BBE4
:1042F00003222A7227E0E62B00F0E381E72B7FF40C
:104300009CAEFFF730FE01281DD139463046FFF73D
:1043100052FD18E0D0F89052D5F81482B8F1000F91
:1043200004D005213046FFF731FD0CE0D0F894327F
:1043300008469B689847044638B102213046FFF78B
:1043400025FD05232B72002400E06881204607B07C
:10435000BDE8F083146D00080C6D0008C501002055
:10436000AC000020AD000020E0510020D0F89032D9
:10437000002003F10C0203F11E0102F8010B91422F
:10438000FBD170221A730C22DA7493F85D1293F841
:104390005C22914212D003EBC201013291F83C42FF
:1043A0009C7391F841421C76D2B291F84012597632
:1043B000042A14BF83F85C2283F85C0212225A811B
:1043C0002A79122A98BF5A81BDE76B78D0F89022DB
:1043D000DB070CD50723C349538102F112030B32CB
:1043E00011F8010D03F801099342F9D1ABE7D0F8B8
:1043F0009432DB6901EBC10703EB870729793B792D
:1044000005338B4228BF0B465381002B9BD0013BC9
:104410009BB2D118F85C0873F7E7D6F89032002405
:104420005C8193E70823E373019B6075013B1A0EDF
:1044300022741A0C6274E3741A0A02232375BDF8FD
:104440000230A274E3751A0A0C23A27563817AE71D
:10445000D0F89052D0F8943205F25E225B6805F5F0
:10446000187138469847044600287FF420AED5F8E6
:1044700060322874013B1A0E2A731A0C6A73EB73AC
:104480001A0AB5F85E32AA73EB741A0A0823687424
:10449000AA746B815AE7D0F89042237A8BBB94F9C7
:1044A0001832002BBFF63DAFD0F8943208469B6817
:1044B000984700287FF4FBADEA78AB78120442EA13
:1044C00003626B791A432B7942EA0322C4F864220F
:1044D000E9792B7A43EA0123C4F868323946304639
:1044E000FFF7FBFC0028FFF62EAF0223B4F85E2294
:1044F0002372D4F868325343D4F814229A427FF4DA
:1045000010AF4FF40073638139463046FFF79DFCCE
:1045100019E7B8F85E32D8F86852D0F894225D43B3
:10452000B5F5007F08F10C0928BF4FF400755469F8
:10453000B5FBF3F3D8F864229BB249463846A0474E
:10454000002801DA0421EDE6D8F86422B8F85E32DA
:10455000B5FBF3F10A44D8F86842C8F86422D8F8E9
:104560003422641A551BC8F86842C8F8345224B97A
:1045700021463046FFF750FBE8E66343B3F5007F82
:1045800028BF4FF400739BB24A460121304601F028
:104590001DFBD8E65478D0F8907214F002047FF432
:1045A000C0AED7F86832D7F86422FFF796FC00282F
:1045B000FFF6C9AE7C81C9E6D0F89042FFF79DFCBA
:1045C0004FF40072002104F10C0001F08AFC464B0C
:1045D0001B78237398E75178D478FF2913D12046AC
:1045E00001A900F049FDD6F8904239463046FFF760
:1045F00084FC4FF40072002104F10C0001F071FC06
:104600009DF80430E5E7002000F00EFDE7E7FFF736
:10461000AAFC01287FF497AED6F89052394630466E
:10462000FFF7C9FB697BEC7B2D7CFF290FD1FF2CA9
:1046300010D12E48FDF775FE2C48FDF735FE002100
:10464000084600F0F1FC284600F0E6FD7BE600207D
:1046500000F0EAFC2946204600F0E6FC73E6FFF78E
:1046600082FC01287FF46FAED6F89042394630467E
:10467000FFF7A1FB637BA17B41EA03211C4B19805F
:104680001C4B1A781C4B72B1E6221A801B4B1C780B
:104690007CB11B4A147844B100241A4B147018687A
:1046A00000F060FD52E6B822EFE701231370164BCD
:1046B000F5E7164B01221A6048E6B2F5007F124971
:1046C000DEE553789478022B2ED0032B3AD0012BC1
:1046D0007FF439AEF4B90E4822464FF48071FCF7EE
:1046E0004FFB33E61B6D0008B8000020305200205D
:1046F000BC000020E4510020BE0000202852002011
:10470000AD000020E05100202C520020B400002019
:1047100000080240012C7FF416AE554822464FF4A3
:104720008071FCF72DFB0EE624B922464FF4007190
:104730005048D4E7012C7FF406AE01224FF40071FB
:104740004C48EEE71CB9002204214B48C7E7012C76
:104750007FF4F9AD224604214748E2E75378DFF8B9
:104760002081DFF820914548002B41D19478002C1E
:104770003ED1FDF7D6FD1422214601A801F0B1FB80
:10478000E0230193022302930323049301A9052349
:1047900038480593FCF794F9224680213548FCF708
:1047A000EFFA224620213348FCF7EAFA224640215C
:1047B0003048FCF7E5FA224610212E48FCF7E0FAD3
:1047C00088F8004089F80040D6F8904239463046D3
:1047D000FFF793FB4FF40072002104F10C0001F08D
:1047E00080FB98F80030237399F8003063738BE6F0
:1047F000FDF797FD6A780023032A13D8DFE802F05B
:1048000002080C1B1D4A1361536188F8003009E04F
:104810001A4A13610123F7E7184902220A614B6122
:1048200088F80020AB780C2B19D0182B0AD0062B57
:104830000DD1102107E0114B02221A6101225A61A9
:104840000323E2E700210D4A89F80030D1610B48CB
:10485000FDF72AFD0021084600F0E6FBB4E7082139
:10486000F1E7287000F0030000F0BAFC4CE600BF4E
:104870000008024000000240000C024030520020BC
:10488000E551002028530020D0F8901291F85D32B5
:1048900001EBC3000133DBB280F83C22042B4FF064
:1048A000000280F8402214BF81F85D3281F85D2259
:1048B000704708B580B1D0F88C3213B10023C0F82E
:1048C0008C3209B1C0F88812012380F8743202706A
:1048D00001F0C8F8002008BD022008BD19B1C0F8D9
:1048E0008C12002070470220704708B501F0E8F8EC
:1048F000002008BD08B5D0F88C320BB9022008BDE5
:104900001B6898470028F9D108BD08B5D0F88C324B
:104910005B689847002008BD38B5044600F520754F
:10492000284600F0ECFA012394F88012C4F86C32A7
:10493000B4F88632C4F8703201F01F03012B0ED098
:1049400007D3022B10D001F08001204601F0F2F8CD
:1049500003E02946204600F003F9002038BD29462F
:10496000204600F01FFAF8E72946204600F03FFAFB
:10497000F3E770B50546164649BBD0F86C32032BF9
:104980001ED1D0F84C31D0F8502193420BD99B1A4C
:104990009A42C0F84C318CBF9AB292B2314600F0C4
:1049A000FEFA002070BDD0F88C321B6923B190F85C
:1049B0007422032A00D19847284600F0F8FAF0E75D
:1049C000052BEED1C5F86C1201F0B4F8E9E7D0F888
:1049D0008C329B692BB190F87422032A01D198473D
:1049E000DFE7022070BD70B5134604460E4600296D
:1049F00048D1D0F86C22022A3DD1056A426A95421C
:104A000014D9AA1A0262194692B200F0C0FA3346CB
:104A10001A461946204601F0D9F894F87832012B4D
:104A20004FF000003AD184F8780270BDC369B3FB3F
:104A3000F2F502FB153565B99A420AD8D0F8702212
:104A4000934206D22A4600F0A2FAC4F870522B46CE
:104A5000DEE7D4F88C32DB682BB194F87422032A99
:104A600001D1204698478021204601F063F8204676
:104A700000F0A8FAD1E732F00403CED1802101F092
:104A800059F8CAE7D0F88C325B6933B190F87422D8
:104A9000032A02D19847002070BD022070BD70B576
:104AA00000220446114601254026402301F016F855
:104AB00033468021C4F84451C4F850610022204696
:104AC00001F00CF8D4F89032A5610021666284F8F8
:104AD0007452C4F86C126160C4F87C1223B1D4F82B
:104AE0008C3220465B689847002070BD017400201E
:104AF000704790F8743280F87532042380F874326D
:104B00000020704790F8753280F8743200207047AA
:104B100008B590F87422032A04D1D0F88C32DB69EE
:104B200003B19847002008BD00207047002070475F
:104B30000020704708B5012280F87422D0F88C223A
:104B4000017952689047002008BD10B580210446C5
:104B500000F0F0FF20460021BDE8104000F0EABF61
:104B600037B50B7803F06003202B04460D4614D0B4
:104B7000402B12D0002B40F095804B78092B00F28F
:104B80009080DFE813F0E70001018E00FA008E004C
:104B9000820013008E00D200A000D4F88C32294687
:104BA0009B6820469847002003B030BD4B881A0A06
:104BB000013A0E2A75D8DFE802F0242835747455BE
:104BC0005E747474747474740800D0F88832DB698D
:104BD000207C0DF106019847BDF8062052B1EB8804
:104BE00043B19A4228BF1A4601462046ADF8062036
:104BF00000F0C0F9EB88002BD5D1204600F0D7F9A2
:104C0000D1E7D0F888321B68E2E7027CD0F88C321A
:104C100032B99B6A0DF10600984702234370DBE727
:104C2000DB6AF7E7DBB2052B3BD8DFE803F00307CD
:104C30000B0F1317D0F888325B68C9E7D0F88832B9
:104C40009B68C5E7D0F88832DB68C1E7D0F88832C6
:104C50001B69BDE7D0F888325B69B9E7D0F88832C4
:104C60009B69B5E7037CE3B9D0F88C320DF10600FF
:104C70005B6B9847B0E7037C9BB9D0F88C320DF1A1
:104C800006001B6B98470723C8E78B884BB9CB8876
:104C90003BB94D887F2D04D890F87432032BE9B2CC
:104CA00003D12046FFF751FF7DE780F8761200F030
:104CB00071FF204600F07BF91DB1022384F87432A5
:104CC00071E70123FAE78978354D01292970E8D881
:104CD00090F87432022B08D0032B14D0FFF735FF65
:104CE00029782046FFF711FE5DE7002985D00121D4
:104CF0000323416080F874322046FFF7FBFD022851
:104D00007FF47BAFCDE731B9022380F87432416084
:104D1000FFF7FBFD71E7416801293FF46EAFC9B2AF
:104D2000FFF7F3FD29786160E6E7CA88012AB8D168
:104D300090F87432002BB4D0022B03D9032BB0D1DE
:104D4000011D03E00146002341F8083F204600F022
:104D500011F928E790F87432013B022BA1D8CB88D7
:104D6000022B9ED10123C360D0F87C320BB1032308
:104D7000C360022204F10C01E8E74B88012B7FF4A9
:104D800012AFC4F87C3238E790F87432013B022B42
:104D900087D84B88012B7FF406AF0023F1E700BFD3
:104DA000C401002038B50B7803F06003202B0446C3
:104DB0000D4602D0402B00D0B3B994F87432013BB9
:104DC000022B10D82B79012B0DD8D4F88C32294620
:104DD0009B6820469847EB881BB910B9204600F025
:104DE000E6F8002038BD2046FFF7AFFEF9E738B5FA
:104DF0000A7802F06002202A04460B4613D0402AAB
:104E000011D06AB95D788A88012DD1B21FD035D30F
:104E1000032D05D190F87422022A26D0032A0AD045
:104E2000FFF793FE05E0D4F88C22194692682046DD
:104E30009047002038BD5A882AB94A0603D0DB883B
:104E40000BB900F077FE204600F0B1F8F1E790F8DA
:104E50007422022A09D0032AE2D15B88002BE8D110
:104E60004D06F0D000F074FEEDE74B0617D000F0D1
:104E700061FE8021204600F05DFEDAE790F8743292
:104E8000022B0ED0032BCBD112F0800F4FF0140366
:104E900001F00F0203FB020212D09269DAB9204638
:104EA000BEE74906FBD113064CBF00F1140100F523
:104EB000A07100230B600222204600F05BF8B8E7E7
:104EC000D2F84421002AEAD001F07F0503FB050552
:104ED00005F5A07504E001F07F0505FB03350544E9
:104EE00011F07F0303D12B6002222946E4E720461C
:104EF00000F03CFE08B10123F5E72860F4E70B78E9
:104F000003704B784370CA788B7803EB022343809D
:104F10004A790B7903EB02238380CA798B7903EBFF
:104F20000223C380704710B58021044600F002FEC2
:104F300020460021BDE8104000F0FCBD30B588B12E
:104F400005462B1A15F8014BDBB2002CF9D10133C1
:104F50005B0013800B7003234B700138022310F8A1
:104F6000015F05B930BD5A1CD2B2CD540233DBB259
:104F70008C54F4E710B513460222C0F86C22C361CA
:104F80000A460362002100F013FE002010BD08B5A0
:104F900013460A46002100F00BFE002008BD08B5AC
:104FA00013460A46002100F011FE002008BD08B596
:104FB0000423C0F86C3200231A46194600F0F8FDAD
:104FC000002008BD08B50523C0F86C3200231A463E
:104FD000194600F0FBFD002008BD00007FB514223B
:104FE000002101A800F07DFF4FF48073019301A917
:104FF0000223044802930493FBF762FD07B05DF8B7
:1050000004FB00BF0000024007B502A94FF6FF7382
:1050100041F8040D01220348FDF75AFF019803B03F
:105020005DF804FB8852002073B5104C104E114DF2
:105030008DF8041000F07F008DF80000002220465B
:105040001021FBF79DFE3368694601222846FDF7D3
:105050007EF9336801A901222846FDF778F901227B
:1050600010212046FBF78CFE02B070BD000002400C
:10507000B000002030520020F0B5164E164D174CEF
:1050800085B060F07F000F468DF80400FF233046A6
:10509000002210218DF80C30FBF772FE2B6801A95D
:1050A00001222046FDF753F92B6803A9012220466F
:1050B000FDF74DF92B6802A901222046FDF7DFFA22
:1050C000012210213046FBF75BFE9DF808303B7053
:1050D00005B0F0BD00000240B000002030520020BA
:1050E00007B500210846FFF79FFF01A97E20FFF7C3
:1050F000C3FF9DF80400431E5842584103B05DF8B9
:1051000004FB08B500210846FFF78EFF002173203D
:10511000BDE80840FFF788BF7FB50E460021F323A6
:10512000054608468DF80830FFF77EFF0022102163
:1051300009480A4CFBF724FE094B1B68009303AA9D
:10514000022302A92046FDF7AAF9B2B22946204659
:10515000FDF7B2FB04B070BD0000024030520020E9
:10516000B0000020FFF7D8BF154B2DE9F0470E46E1
:1051700019788146904629B1124B1B78002B0CBF41
:1051800004210521104F002408F1FF3A8D193B78C6
:105190008BB1FFF7A5FF70B13B78544506FB04F0D7
:1051A00083F00103B4BF3146294648443B70FFF702
:1051B000B3FF0134E4B2A045E9DCBDE8F08700BFED
:1051C000DC510020E4510020AE00002008B1FFF7C0
:1051D00005BF4FF480710148FBF74CBD0000024051
:1051E00010B510F0030404D12046BDE81040FFF7CD
:1051F000EDBFFFF7F3FE012C07D100224FF4C001F1
:105200000020BDE81040FCF7C3BA022C0CBF4FF0E1
:1052100080624FF0C062F1E7FF2813D010F0020265
:10522000094B18BF01221A7010F00402074B18BF77
:10523000012210F008001A70054B02D001221A70EA
:1052400070471870704700BFE4510020DC51002007
:105250002852002070B5ACB03422002108A800F01C
:1052600040FE1422002103A800F03BFE00215C2236
:1052700015A800F036FE0024224B01941A6C42F06F
:1052800080521A641B6C204A03F080530193019BE7
:105290000294136823F4404343F48043136013687B
:1052A0000F9403F440430293029B10230C9310933A
:1052B000C02311930423022501261293139308A8F7
:1052C0000723149308950B960E95FCF7BFFD0F234B
:1052D0003146039303A84FF4805306930495059435
:1052E0000794FCF7A1FA4FF4807315A815932A943C
:1052F000FCF75CFB22464FF4C0012046FCF748FA5D
:105300002CB070BD003802400070004080B5974E50
:10531000974C3068974F8EB000F0D0FD2588284616
:1053200000F0C4FD2A460021306000F0DAFD386844
:10533000914D00F0C3FD2488204600F0B7FD2246C1
:1053400000210024386000F0CCFDFBF75DF9FFF789
:1053500081FF1422002109A800F0C3FD02942B6BE9
:10536000864843F002032B632B6B03F00203029386
:10537000029B03942B6B43F001032B632B6B03F015
:1053800001030393039B04942B6B43F008032B63EB
:105390002B6B03F008030493049B05942B6B43F0E1
:1053A00080032B632B6B03F080030593059B06940E
:1053B0002B6B43F004032B632B6B03F00403069366
:1053C00001220421069BFBF7DBFC01224FF48071D4
:1053D0006B48FBF7D5FC01224FF404716948FBF7D9
:1053E000CFFC4FF00108042309A9644809934FF04A
:1053F0000209CDF828800B940C944FF4807AFBF7C7
:105400005FFB09A95F480B940D94CDF824A0CDF85B
:105410002890CDF83090FBF753FB09A95848CDF8F8
:1054200028800B940C94CDF824A0FBF749FB4FF493
:10543000047309A953480993CDF828800B940C9460
:10544000FBF73EFB01942B6B43F480032B632B6B28
:105450004D4D03F480032246214601933A20019BDF
:10546000FBF724F93A20FBF755F9214622463B2069
:10547000FBF71CF93B20FBF74DF94448444A846094
:105480004FF4827380E80C004FF4007383610A23A9
:10549000C460C0F81480C461046244628462C36260
:1054A000C0F81090FCF700FF3A4B03221A703A4BF9
:1054B000182221461A7009A8102200F012FD374B5D
:1054C000AC60284685E81800EC602C616C61AC612A
:1054D00007940894FDF73AFB4FF4805309A9284636
:1054E0000993FDF757FB07A9284607940894FDF791
:1054F000E5FB00F0F3F92A482A4984604FF416537B
:1055000080E80A0008234361C46004618461C461C7
:10551000FDF7ACFC2046FFF759FE234B23481978D2
:10552000234D244C00F092FDB046234E3078C0B994
:105530002968012915D194F800E0204A80232B60C6
:105540001F4BBEF1000F07D0207012881988D8F8C1
:105550000000FFF709FEE9E7217012881988386812
:10556000F7E70120FBF77CF8E0E700BFE0510020FF
:10557000BC0000202C52002000380240000C0240E9
:105580000008024000000240E85100203052002094
:1055900000300140E5510020285300200000014068
:1055A0008852002000440040B80000201B6D000815
:1055B000B4000020AD00002028520020BA000020D6
:1055C000BE0000207047000082B00C4B002100910B
:1055D0005A6C42F480425A645A6C02F4804200923F
:1055E000009A01911A6C42F080521A641B6C03F00D
:1055F00080530193019B02B0704700BF0038024006
:1056000070B5064688B01422002103A800F069FC9A
:1056100032682F4B9A4258D1002503F58433019507
:105620005A6C2C482C4C42F480525A645A6C02F446
:1056300080520192019A02951A6B42F001021A639C
:105640001B6B03F001030293029BE02303930223ED
:1056500004930323069303A905230793FBF730FA6A
:105660001E4BA5604FF0C06C84E808104FF48063B7
:10567000236120464FF40033E5606561A561E56173
:1056800023626562FBF780F808B1FFF79BFF144BBC
:10569000F464A663134C4FF480624FF0C0654FF082
:1056A000400E84E82840226100234FF40032204657
:1056B000E3606361A361E36122626362FBF764F804
:1056C00008B1FFF77FFFB464A66308B070BD00BFE8
:1056D0000030014000000240C852002040640240F7
:1056E000586402402C53002002680B4B9A4210B5BC
:1056F000044610D1094A0A48536C23F4805353647A
:10570000E021FBF7B7FAE06CFBF7BCF8A06CBDE852
:105710001040FBF7B7B810BD003001400038024020
:10572000000002400268094B9A4282B00BD100236C
:105730000193074B5A6C42F001025A645B6C03F010
:1057400001030193019B02B0704700BF00000140BC
:105750000038024010B5044688B01422002103A886
:1057600000F0BFFB2268154B9A4224D103F5FA33AF
:10577000002101911A6C124842F400321A641A6C2A
:1057800002F400320192019A02911A6B42F0010276
:105790001A631B6B03F001030293029B0423039320
:1057A00012230493012305930323069303A90723DC
:1057B0000793FBF785F908B010BD00BF0044004017
:1057C000000002407047FEE7FEE7FEE7FEE7704795
:1057D00070477047FAF732BF0148FBF7B7B800BF10
:1057E000C85200200148FBF7B1B800BF2C5300207D
:1057F0000148FBF777BB00BF2856002008B50122FF
:1058000010210A48FBF7BCFA0948FCF78AFD084852
:10581000FCF74AFDFFF775FC064B1B7823B9064AD7
:10582000137883F00103137008BD00BF000002402D
:105830003052002028520020AE00002070B50E46E5
:1058400015460C46A31B9D4201DC284670BDAFF3F4
:10585000008004F8010BF5E770B50E4615460C46BE
:10586000A31B9D4201DC284670BD14F8010BFFF715
:10587000CBFBF5E708B50A4B1968024609B9094997
:1058800019601868694602448A4206D900F0E4FAB1
:105890000C2303604FF0FF3008BD1A6008BD00BF45
:1058A000C8010020345C00204FF0FF3070474FF4F7
:1058B00000534B6000207047012070470020704764
:1058C000054BD3F8882042F47002C3F888204FF0CB
:1058D00000629A60704700BF00ED00E008B500224A
:1058E0000E490F48FEF7E5FF08B1FFF76BFE0D49C3
:1058F0000B48FEF7F3FF08B1FFF764FE0A490848BA
:10590000FEF734F908B1FFF75DFE0548FEF7EDFF3D
:1059100018B1BDE80840FFF755BE08BDC40000201F
:105920008C530020080000202401002030B50446DC
:1059300089B01422002103A800F0D3FA2368B3F140
:10594000A04F2ED1184C194800250195236B43F028
:1059500001032363236B03F001030193019B4FF4C5
:10596000C0530393022304930323069303A90A233A
:105970000793FBF7A5F8636B43F08003636302951D
:10598000636C43F480436364636C03F48043029369
:1059900043202A462946029BFAF788FE4320FAF75D
:1059A000B9FE09B030BD00BF00380240000002401F
:1059B00000F57171D0F80404FEF7AEBF1C2303FBA1
:1059C0000103D0F80404D3F80822FEF7D2BF1C2349
:1059D00003FB0103D0F804049A6CFFF704B8D0F875
:1059E0000404FFF795B8C16810B5044621B1022937
:1059F00001D0FFF7E7FD0121D4F80404FFF776F8A2
:105A0000D4F80404BDE81040FFF749B810B50446C7
:105A1000D0F80404FFF76DF82268D2F8003E43F096
:105A20000103C2F8003E236A23B1034A136943F01D
:105A30000603136110BD00BF00ED00E0D0F80404C0
:105A4000FFF760B8D0F80404FFF770B8D0F804048A
:105A5000FFF76AB8D0F80404FFF76AB8D0F8040476
:105A6000FFF768B808B5027832BB144B0621C3F8BB
:105A70000404C0F898324FF0A04083E803000221EC
:105A80001846D9601A619961DA611A625A62DA625B
:105A90001A63FBF77AF908B1FFF794FD80210748F4
:105AA000FBF75EFE402200210448FBF738FE80220F
:105AB00001210248FBF733FE002008BD28560020D4
:105AC00008B5D0F89802FBF7EDF903289ABF024B0E
:105AD000185C022008BD00BF526D000810B51C46BE
