:020000040800F2
:1000000000000420DD3801084120010845200108D6
:10001000492001084D20010851200108000000007E
:100020000000000000000000000000005520010852
:1000300059200108000000005D200108612001082E
:100040002D3901082D3901082D3901082D390108F4
:100050002D3901082D3901082D3901082D390108E4
:100060002D3901082D3901082D3901082D390108D4
:100070002D3901082D3901082D3901082D390108C4
:100080002D3901082D3901082D3901082D390108B4
:100090002D3901082D3901082D3901082D390108A4
:1000A0002D3901082D3901082D3901082D39010894
:1000B0002D3901082D3901082D3901082D39010884
:1000C0002D3901082D3901082D3901086520010855
:1000D0002D3901082D3901082D3901082D39010864
:1000E0002D3901082D3901082D3901082D39010854
:1000F0002D3901082D3901082D3901082D39010844
:100100002D3901082D3901082D3901082D39010833
:100110002D3901082D3901082D3901082D39010823
:100120002D3901082D390108712001087D200108B1
:100130002D39010800000000000000000000000050
:100140000000000000000000000000002D39010840
:100150002D3901082D3901082D3901082D390108E3
:100160002D3901082D3901082D3901082D390108D3
:100170002D3901088920010800000000000000005E
:100180002D3901082D3901082D3901082D390108B3
:100190002D3901082D390108000000002D39010812
:1001A0000000000000000000000000002D390108E0
:1001B0002D3901082D390108000000000000000061
:1001C000000000000000000000000000000000002F
:1001D0000000000000000000000000002D390108B0
:1001E00010B5054C237833B9044B13B10448AFF371
:1001F00000800123237010BDE001002000000000FA
:10020000F048010808B5034B1BB103490348AFF39D
:10021000008008BD00000000E4010020F048010853
:10022000704700BF704700BF10B5094B4FF0FF3259
:1002300000241A621C625A625C621A611C615A6173
:100240005C619A619C61FFF7EDFF204610BD00BF25
:100250000038024038B50D4C4FF47A730C4905460E
:1002600022780868B3FBF2F3B0FBF3F001F092FAE6
:1002700050B90F2D08D8002229464FF0FF3001F069
:100280001BFA6560002038BD012038BD0000002049
:10029000F800002008B5032001F0FAF90020FFF76C
:1002A000D9FF11F059FD002008BD00BF034A044BDF
:1002B00011681B780B441360704700BF1CA200201C
:1002C00000000020014B1868704700BF1CA20020EE
:1002D000014B5868704700BF0000002038B5074C3C
:1002E0002578854207D0034660682370FFF7B2FF88
:1002F00010B1257038BD002038BD00BF00000020BF
:10030000014B1878704700BF0000002038B5044644
:10031000FFF7D8FF0546631C02D0044B1B781C4432
:10032000FFF7D0FF401B8442FAD838BD0000002000
:10033000024A136823F002031360704710E000E0E4
:10034000024A136843F002031360704710E000E0B4
:100350000048704700080201014B1868000C704704
:10036000002004E0024B1868C0F30B00704700BF88
:10037000002004E0014B1868704700BF107AF01F9E
:10038000014B1868704700BF147AF01F014B1868C2
:10039000704700BF187AF01F024A536843F0010308
:1003A00053607047002004E0024A536823F00103C1
:1003B00053607047002004E0024A536843F0020390
:1003C00053607047002004E0024A536823F00203A0
:1003D00053607047002004E0024A536843F004036E
:1003E00053607047002004E0024A536823F004037E
:1003F00053607047002004E0024A136A43F001038F
:100400001362704700380140024A136A23F0010367
:100410001362704700380140024A136843F4806356
:100420001360704700380140024A136823F44063A8
:100430001360704700380140704700BF002800F08B
:10044000A580F8B5056C04463DB1236CDB060CD5E0
:100450000023012084F83C30F8BD11F095FC656460
:10046000236C84F83C50DB06F2D4236C484A49499B
:100470001A402368484E42F0020222644A6822F47D
:1004800040324A604A68606802434A605A6820699C
:1004900022F48072A168E7685A605D68A26A45EA42
:1004A0000025B2425D605D6825F040755D6058686A
:1004B00040EA01005860986820F4006098609968EC
:1004C00041EA0701996049D09968E06A21F07061BA
:1004D000996099680A439A60996821F0405199603F
:1004E0009A6802439A609968A56921F0020194F81C
:1004F000200099609A6842EA45029A60002836D145
:100500005A6822F400625A60D86A0026E56920F42D
:10051000700094F830E067696A1ED8623046DD6A80
:1005200045EA0255DD629D6825F400759D60996875
:1005300041EA4E219960996821F4806199609A6836
:1005400042EA87229A606664236C23F0030343F037
:1005500001032364002384F83C30F8BD9A6822F03C
:1005600070629A609A6822F040529A60BBE75868BD
:10057000626A40F40060511E58605A6822F460427A
:100580005A605A6842EA41325A60BDE7012070471A
:10059000FDEEFFFF002301400100000F704700BF88
:1005A000D0B1026C38B542F002020368044602641E
:1005B0009A6822F001029A609D6815F0010503D047
:1005C000002084F83C0038BD11F0F4FB0020656485
:1005D00084F83C00256438BD0120704790F83C3019
:1005E000002210B4012B83B0019253D00268012184
:1005F000936880F83C10D90714D4364B364C1B68EE
:100600009168A4FB034341F001019B0C916003EB53
:1006100043030193019B2BB1019B013B0193019B80
:10062000002BF9D19368DB072FD5016C2B4B0B40C6
:1006300043F48073036453685C0505D5036C23F4AD
:10064000405343F480530364036C13F4805326D166
:1006500043646FF022010024214B80F83C4011607C
:100660005968C90608D1906810F040500DD19368C0
:1006700043F08043936009E01A498A421DD05B68C9
:10068000DB0602D418498A420ED0002003B05DF880
:10069000044B7047022003B05DF8044B7047436C75
:1006A00023F006034364D4E7886810F04050ECD18F
:1006B0008B6843F080438B60E8E7936813F0405FFA
:1006C00003D1936843F080439360054B00205B683F
:1006D000DCE700BFF800002083DE1B43FEF8FFFFCD
:1006E00000230140002001400022014090F83C30EE
:1006F000012B14D0036801219A6880F83C1022F085
:1007000001029A609B68DB0704D4026C054B13401E
:100710000B430364002380F83C30184670470220E6
:10072000704700BFFEEEFFFF03689A6870B504468D
:10073000500502D59B68DA053ED40D46FFF7C2FD91
:1007400006466B1C226825D113689807FCD56FF00C
:1007500012031360236C43F400732364936813F053
:10076000405F15D1A3699BB9D36A13F4700F0CD104
:10077000236C23F480732364206C10F4805007D121
:10078000236C43F00103236470BD93685B05EFD5D0
:10079000002070BD13689907D9D425B1FFF792FDE9
:1007A000801B8542CDD2236C0022032043F004033A
:1007B00084F83C20236470BD236C0022012043F0A8
:1007C000200384F83C20236470BD00BF2DE9F04174
:1007D00006460D461746FFF775FD80467B1C3468BC
:1007E00013D1236835EA0303FBD1012D336C21D0EB
:1007F00043F480636FF0200200203364736C43F095
:10080000020373642260BDE8F081236835EA0303C4
:10081000EBD02FB1FFF756FDA0EB08008742DDD2E9
:10082000336C0022032043F0040386F83C20336439
:10083000BDE8F0816FF0010243F48033002033649F
:100840002260BDE8F08100BF90F83C30002210B477
:10085000012B83B0019257D002680121936880F880
:100860003C10D90714D4384B384C1B689168A4FB52
:10087000034341F001019B0C916003EB430301939F
:10088000019B2BB1019B013B0193019B002BF9D1F3
:100890009368DB0733D5016C2D4B0B4043F4807319
:1008A000036453685C0505D5036C23F4405343F49B
:1008B00080530364036C13F480532AD143646FF0B4
:1008C00022010024234B80F83C40116050682249EB
:1008D000034353604B68D80608D1906810F040502D
:1008E0000DD1936843F08043936009E01B4B9A421B
:1008F0001DD04B68DB0602D419498A420ED0002075
:1009000003B05DF8044B7047022003B05DF8044B60
:100910007047436C23F006034364D0E7886810F007
:100920004050ECD18B6843F080438B60E8E79368DC
:1009300013F0405F03D1936843F080439360064B0C
:1009400000205B68DCE700BFF800002083DE1B436B
:10095000FEF8FFFF200000040023014000200140BA
:100960000022014090F83C30012B21D00368012186
:100970009A6880F83C1022F001029A609A68D207C7
:1009800011D40C490C4A10B45C6821405DF8044B4A
:100990005960036C1A40002342F0010280F83C3099
:1009A000026418467047002380F83C3018467047B0
:1009B00002207047DFFFFFFBFEEEFFFF90F83C30A8
:1009C000F0B5012B83B04FF0000401946CD00568A2
:1009D0000124AB6880F83C40DF0714D4414B424E01
:1009E0001C68AB68A6FB046443F00103A40CAB6075
:1009F00004EB44040194019B2BB1019C013C019444
:100A0000019C002CF9D1AB68DE074AD5036C374C4A
:100A10001C4044F4807404646B685C0505D5036C69
:100A200023F4405343F480530364036C13F4805362
:100A30003DD14364134606460A460021846B6FF09D
:100A4000220786F83C102A482A49DFF8B8E0E0631C
:100A50002046216405F14C01C4F84CE02F606C681D
:100A600044F080646C60AC6844F48074AC6001F065
:100A70008FF8214B5A68D20609D13368986810F074
:100A800040500ED19A6842F080429A600AE0326883
:100A90001A498A4219D05B68DB0602D418498A4297
:100AA0000AD0002003B0F0BD022003B0F0BD436CBB
:100AB00023F006034364BDE7886810F04050F0D18E
:100AC0008B6843F080438B60ECE7936813F0405FE2
:100AD00003D1936843F080439360074B00205B6829
:100AE000E0E700BFF800002083DE1B43FEF8FFFFB5
:100AF000D50C0008790B00080023014000200140BC
:100B000000220140BD0C000890F83C30012B11D0B0
:100B1000036801219A6822F0010210B580F83C10A8
:100B200004469A609A68D20706D50023002084F80C
:100B30003C3010BD022070479A68806B22F48072AE
:100B40009A6001F069F82168064B4A6822F08062D9
:100B50004A60226C134043F001032364002384F8AD
:100B60003C3010BDFEEEFFFF0368D86C704700BF3D
:100B7000704700BF704700BF08B5806BFFF7FAFFF2
:100B800008BD00BF704700BF704700BF38B503689D
:100B900004461A685968900713D58A0611D5226C45
:100BA000D50603D4226C42F4007222649A6812F0D3
:100BB000405F58D02046FFF7DBFF23686FF012023A
:100BC0001A601A685968520713D50D0611D5226CA0
:100BD000D00603D4226C42F4005222649A6812F4C4
:100BE000401F22D0204600F04DFC23686FF00C021D
:100BF0001A6019685A68500604D5CA0702D51A68DF
:100C0000D5074AD41A68596890060DD54A010BD504
:100C1000626C6FF02005204642F0020262641D60A3
:100C2000FFF7B2FF23681D6038BD9A6B12F4401FB6
:100C30003FD15A685205D5D49A6812F0405FD1D19D
:100C4000A269002ACED15A6822F080025A60236C31
:100C500023F480532364236CDD05C3D4236C43F059
:100C600001032364BEE7A269002AA3D1DA6A12F461
:100C7000700F02D09A6850059CD45A6822F0200266
:100C80005A60236C23F480732364236CD90491D4B9
:100C9000236C43F0010323648CE7236C204643F468
:100CA00080332364FFF76EFF23686FF001021A6040
:100CB000A8E79A68510595D4BBE700BF08B5402264
:100CC000836B1A6418465A6C42F004025A64FFF7A8
:100CD0005BFF08BD836B1A6C12F0500F1A6C10B5D5
:100CE00023D142F4007219681A648A6812F0405FD6
:100CF00017D19A69AAB9CA6A12F4700F02D08A6829
:100D000050050ED44A6822F020024A601A6C22F480
:100D100080721A641A6CD10403D41A6C42F0010276
:100D20001A641846FFF724FF10BDD20604D49B6B4B
:100D3000BDE81040DB6C18471846FFF725FF10BDD3
:100D400090F83C300022F0B5012B83B001925DD0C9
:100D50000D68012307270468092D80F83C30AEB2E6
:100D600030D9B5F1004F2DD006EB4603E268DFF82D
:100D700040E11E3B754507FA03F722EA0702E260ED
:100D800000F081808A68E76802FA03F33B43E3607E
:100D90004B68062B27D803EB83031F21626B053BAF
:100DA000994006FA03F322EA01026263626B13437D
:100DB00063633E4B9C423BD0002380F83C30184696
:100DC00003B0F0BD06EB460E22698B6807FA0EF7FA
:100DD00003FA0EF322EA0702226122691343236118
:100DE0004B68062BD7D90C2B13D803EB83031F2793
:100DF000226BA3F1230107FA01F306FA01F122EABB
:100E000003032363236B19432163D2E7022003B05A
:100E1000F0BD03EB83021F27E36A413A974006FACD
:100E200002F123EA0703E362E26A1143E162C0E7E9
:100E3000B5F1004F34D0122D2CD01D4B9D4201D066
:100E4000112DB9D11B4A1A4953688D4243F400034E
:100E50005360B1D102F14672174B02F52E321B6876
:100E600002F28332A2FB03239B0C03EB83035B00A0
:100E70000193019B002B9FD0019B013B0193019BA0
:100E8000002BF9D198E7E36812268A6843EA0263E7
:100E9000E3607DE7074A536843F4800353608BE7C0
:100EA000044A536823F44003536085E7002001405F
:100EB0001200001000230140F800002090F83C30A0
:100EC000012B2AD00B7C0246012083421368F0B527
:100ED00082F83C004FF000065868114D0CBF40F0FE
:100EE000400020F04000586030465C68D1F800E0D7
:100EF00025404F685D605C688D6844EA0E0489890E
:100F00005C605F629D625C6824F01F045C605C68EA
:100F10002143596082F83C60F0BD0220704700BF59
:100F2000FFFD3FFF006C7047406C7047836B4022B1
:100F30001A6418465A6C42F004025A64FFF724BE41
:100F4000806BFFF717BE00BF836B1A6C12F0500F57
:100F500020D11A6C196842F400721A648A6812F07F
:100F6000405F14D19A6992B9CA6A12F4700F14D111
:100F70004A6822F020024A601A6C22F480721A64D5
:100F80001A6CD20403D41A6C42F001021A64184697
:100F9000FFF7EEBD9B6BDB6C18478A685005F6D4F3
:100FA000E6E700BF90F83C30002210B4012B83B07C
:100FB00001924AD002680121936880F83C10D90759
:100FC00014D42A4B2A4C1B689168A4FB034341F0BC
:100FD00001019B0C916003EB43030193019B2BB137
:100FE000019B013B0193019B002BF9D19368DB0727
:100FF00026D5016C1F4B0B4043F480530364036CF4
:1010000013F4807300D1436400236FF004041A4981
:1010100080F83C301460486810F01F000BD19368D2
:10102000516813F4401F0BD14C0509D4936843F465
:101030008003936005E0114990688A42546809D0A2
:10104000002003B05DF8044B7047022003B05DF848
:10105000044B704710F4401FF2D16105F0D4916841
:10106000184641F480019160EBE700BFF8000020D2
:1010700083DE1B43FECFFFFF002301400020014021
:1010800090F83C30002210B4012B83B001924ED076
:1010900002680121936880F83C10DB0714D42C4BC4
:1010A0002C4C1B689168A4FB034341F001019B0C8D
:1010B000916003EB43030193019B2BB1019B013B27
:1010C0000193019B002BF9D19368DC072AD5016CB1
:1010D000214B0B4043F480530364036C13F480737F
:1010E00000D143646FF0040300211C4C80F83C10D5
:1010F0001360536843F080035360606810F01F0072
:101100000BD19368516813F4401F0BD1490509D4E2
:10111000936843F48003936005E0114B90689A4212
:10112000546809D0002003B05DF8044B70470220DA
:1011300003B05DF8044B704710F4401FF2D1630513
:10114000F0D49368084643F480039360EBE700BF54
:10115000F800002083DE1B43FECFFFFF0023014089
:101160000020014090F83C200346012A23D0026C65
:101170000121D20580F83C1008D51A6C012042F0FC
:1011800020021A64002283F83C20704702685068ED
:1011900010F48060F1D1916821F0010191609268B2
:1011A00012F00102EED1196C1046044A0A4042F0D6
:1011B00001021A64E6E70220704700BFFEEEFFFF5F
:1011C00070B504460D46FFF77DF806466B1C226895
:1011D00027D113685D07FCD56FF00C031360236CF7
:1011E00043F400532364936813F4401F2CD1936B92
:1011F00013F4401F25D153685B0525D4936813F081
:10120000405F21D1A369FBB9236C23F4805323648D
:10121000206C10F4807017D1236C43F00103236419
:1012200070BD13685807D7D425B1FFF74BF8801B62
:101230008542CBD2042200230320226484F83C3070
:1012400070BD93685905D6D5002070BD90F83C203C
:10125000012A2ED0026C01210346D20580F83C10F1
:1012600008D51A6C012042F020021A64002283F88B
:101270003C2070470268506810F48060F1D191689A
:1012800021F001019160916811F00101EED1084651
:10129000094910B4546824F0800454601A6C5DF855
:1012A000044B1140002241F0010183F83C201964F5
:1012B00070470220704700BFFEEEFFFF036882B058
:1012C00000206FF00402013901901A60032905D84B
:1012D000DFE801F0110C02075B6C0193019802B08A
:1012E00070479B6C0193019802B070471B6C01938F
:1012F000019802B07047DB6B0193019802B0704710
:1013000090F83C30F0B5012B83B04FF0000401940D
:1013100060D005680124AB6880F83C40DE0714D437
:10132000334B344E1C68AB68A6FB046443F00103E6
:10133000A40CAB6004EB44040194019B2BB1019C11
:10134000013C0194019C002CF9D1AB68DC073ED52F
:10135000036C294C1C4044F4807404646B685B0586
:1013600005D5036C23F4405343F480530364036CAA
:1013700013F4805331D14364866B00271F4C6FF008
:10138000020380F83C70F4631D4F1E4C3764F46414
:101390002B606B6890F8304043F080636B600CB357
:1013A000194C636843F400536360044613463046A7
:1013B0000A46164900F0ECFB2368986810F040508C
:1013C00005D19A6842F080429A6003B0F0BD0020D7
:1013D00003B0F0BD022003B0F0BD436C23F0060360
:1013E0004364C9E7084C636823F400536360DCE797
:1013F000F800002083DE1B43FEF8FFFF490F0008C2
:10140000410F00082D0F0008002301400823014070
:1014100090F83C30012B11D0036801219A6822F02A
:10142000010210B580F83C1004469A609B68DB0707
:1014300006D50023002084F83C3010BD0220704700
:101440000B4A806B536823F40053536000F0E4FBB5
:101450002168084B4A6822F080624A60226C13407F
:1014600043F001032364002384F83C3010BD00BF27
:1014700000230140FEEEFFFF014B9868704700BF5C
:1014800000230140704700BF90F83C30012B00F072
:1014900085800123F0B50E6880F83C30092E344673
:1014A00069D8036806EB460E07278A681D6907FAA4
:1014B0000EF702FA0EF225EA07051D611D692A439F
:1014C0001A614F68D3F838E00D69FA1C2EF4401EFB
:1014D000521B013DC3F838E0D2B2D3F838E002EB3A
:1014E00082024EEA05554FF01F0E94409D630EFA9E
:1014F00002FE9A6B8D6922EA0E02DFF83CE19A63E4
:1015000075459A6B44EA02049C6366D09C68D1F8E6
:101510001CE024F470249C609A6815439D609C68CC
:1015200024F440149C609A6842EA0E029A604A7D54
:10153000002A44D05A6842F480625A600A7D002A28
:101540002ED05A68022F42F480525A602ED0032FB8
:101550004CD0012F38D01A6A334CC96814401C6231
:101560001A6A0A431A62314A934248D0002380F82B
:101570003C301846F0BDB4B203684FF0070E8A68DD
:1015800004EB4405DF681E3D0EFA05FEAA4027EA7B
:101590000E07DF60DD682A43DA6092E702207047B9
:1015A0005A68022F22F480525A60D0D19A691E4C98
:1015B000C96814409C619A690A439A61D3E75A68E2
:1015C00022F480625A60B9E75A69174CC96814401E
:1015D0005C615A690A435A61C5E79A6822F470222D
:1015E0009A609A6822F440129A60A0E7DA690E4C79
:1015F000C9681440DC61DA690A43DA61B3E7122E84
:101600000AD00B4B9E4201D0112EAFD1094A53682C
:1016100043F400035360A9E7D2F8043343F4800392
:10162000C2F80433A2E700BF00F0FFFF0020014032
:10163000120000100023014001000F0090F83C3020
:10164000012B20D0114B024670B45C68002524F0B9
:101650001F0428465C605C680E6834435C605C680C
:1016600024F440445C605C684E6834435C605C68B1
:1016700024F470645C608C6859682143596082F876
:101680003C5070BC70470220704700BF00230140EF
:1016900007490002074BCA6800F4E06010B44FF637
:1016A000FF0422405DF8044B13431843C8607047A1
:1016B00000ED00E00000FA05194B70B4DC68C4F3DB
:1016C0000224C4F10706231D042E28BF0426062B7E
:1016D00019D9033C0125A540013D2A4001230028DA
:1016E00003FA06F303F1FF3301EA030101FA04F1FF
:1016F00041EA02010ADB09010A4BC9B2034483F83B
:10170000001370BC704700221446E7E700F00F009A
:101710000901054BC9B20344197670BC704700BF7C
:1017200000ED00E000E100E0FCEC00E0002807DB59
:1017300000F01F0101234009024A8B4042F820308B
:10174000704700BF00E100E000280DDB43090122E3
:1017500000F01F000549203302FA00F041F8230091
:10176000BFF34F8FBFF36F8F704700BF00E100E002
:10177000BFF34F8F0549064BCA6802F4E06213437A
:10178000CB60BFF34F8F00BFFDE700BF00ED00E06F
:101790000400FA050138B0F1807F0DD2074B00221A
:1017A000072130B4F025064C5860104684F82350C9
:1017B0009A60196030BC70470120704710E000E06B
:1017C00000ED00E0BFF35F8F044A00200449536A34
:1017D00023F4803353624860704700BF00ED00E09F
:1017E00090ED00E0064A40F00100064B5860536A55
:1017F00043F480335362BFF34F8FBFF36F8F704753
:1018000000ED00E090ED00E0F0B4134943788B6008
:1018100004781CB9CC600C61F0BC70474368CB60A5
:10182000C27A057B1206837A477B42EA0572867B81
:10183000C57B2243447A007A42EAC34343EA8743A2
:1018400043EA464343EA054343EA042343EA4003A9
:10185000F0BC0B61704700BF90ED00E0024BD86810
:10186000C0F30220704700BF00ED00E0002870B414
:101870001EDB124C245C240901F00701C1F10706AC
:10188000081D042E28BF042606280ED90339012579
:101890008D40013D25400120CC4000FA06F1013980
:1018A000214011601D6070BC704700252946F2E799
:1018B00000F00F00024C245C2409DDE700E400E0A6
:1018C00014ED00E0002809DB4309012200F01F00AD
:1018D0000349403302FA00F041F82300704700BF8B
:1018E00000E100E000280ADB4209064900F01F037E
:1018F000403251F82200D84000F00100704700202B
:10190000704700BF00E100E0002809DB4309012225
:1019100000F01F000349603302FA00F041F8230091
:10192000704700BF00E100E000280ADB42090649D9
:1019300000F01F03803251F82200D84000F001006F
:1019400070470020704700BF00E100E0044A04280F
:1019500013680CBF43F0040323F0040313607047C3
:1019600010E000E0704700BF08B5FFF7FBFF08BDBF
:10197000F8B50446FEF7A6FC002C76D002222368B8
:101980000021054684F835201A6884F8341022F0C6
:1019900001021A6005E0FEF795FC401B05283ED8C1
:1019A00023681A68D107F6D4A1686268E0680A4320
:1019B000216965690243A669E0690A43374F1968DE
:1019C0002A43656A0F40216A3243042D42EA00022D
:1019D00042EA010242EA070228D01A605A6922F05C
:1019E00007021543DAB22E482E49103A5D610125EF
:1019F000A0FB02021209885C032A2B4A4FF0000167
:101A0000E06502EA03024FF03F0388BF04328340DF
:101A10000846A2659360616584F83550F8BD0323DC
:101A200020221846626584F83530F8BDE06A216BE3
:101A3000A76A014347F004050A431A605A6922F075
:101A4000070215430028CDD08EB1B6F5005F18D03F
:101A5000022F03D9032FC5D1C201C3D501234022D0
:101A60001846626584F83530F8BD0120F8BD012FB5
:101A700003D0F1D3022FB5D1EEE7B0F1C07FB1D1E1
:101A8000ECE7032FAED801A252F827F05D1A000848
:101A9000591A00085D1A00087B1A00083F8010E000
:101AA000ABAAAAAA0849010800FCFFFF002836D00B
:101AB000034690F83500C0B202282FD01A680020E3
:101AC000D1B2F0B41039174F14682126A7FB017169
:101AD000154D24F00104090914603F246D5C0329AD
:101AE000124904FA05F4106001EA020150609060A6
:101AF00088BF0431D060106156610022DD659965B0
:101B000010468C605A65DA631A645A649A64DA641F
:101B10001A6583F8352083F83420F0BC7047012023
:101B2000704700BFABAAAAAA0849010800FCFFFF42
:101B300070B490F83440012C0DD0012590F8354058
:101B4000AC4280F834500AD00022022380F83420BE
:101B5000184670BC7047022370BC18467047046872
:101B60000226002580F83560456586682568402E88
:101B700025F480252560636007D0A160E2602268BB
:101B8000002342F001022260E2E7A260E160F6E792
:101B9000F0B490F83440012C0ED0012590F8354077
:101BA000866DAC4280F834500AD00022022380F8BF
:101BB00034201846F0BC70470223F0BC184670472A
:101BC00004680227002580F8357045658768256818
:101BD000402F25F480252560636019D0A160E26064
:101BE000C16D3F23026C8B40B360236843F0160342
:101BF0002360636943F0800363611AB1236843F093
:101C0000080323602268002342F001022260D0E72B
:101C1000A260E160E4E700BF70B50446866DFEF7A0
:101C200051FB94F83530022B06D08022002301208E
:101C3000626584F8343070BD23680546216C1A68EB
:101C400022F016021A605A6922F080025A6139B3F2
:101C50001A6822F008021A601A6822F001021A605B
:101C600005E0FEF72FFB401B05280FD823681B68F3
:101C700013F00103F5D1E56D3F2201211846AA407A
:101C8000B26084F8343084F8351070BD032320210D
:101C900000226165184684F8342084F8353070BD20
:101CA000A26C002AD4D1D7E790F835200346022A47
:101CB00003D0802201205A65704702680521002068
:101CC00083F83510136823F001031360704700BFD9
:101CD0002DE9F04F044683B015460191FEF7F2FA64
:101CE00094F83530022B08D0802200230120626551
:101CF00084F8343003B0BDE8F08F23681B68DE053C
:101D00005ED4019B0646002B54D04FF0100BE26DC1
:101D10000BFA02FBD4F858A0DAF80030002D56D0A8
:101D2000681C64D04FF008094FF0010804271BEA33
:101D3000030F30D1636DDB072DD4FEF7C3FA801B90
:101D400085424AD3E26DDAF8003009FA02FE08FA59
:101D500002F007FA02F113EA0E0F07D0D4F854C0CC
:101D60004CF0010CC4F854C0CAF808E0034207D094
:101D7000D4F854E04EF0020EC4F854E0CAF808005B
:101D80000B42D4D0606D1BEA030F40F00400606585
:101D9000CAF80810CED0636D13B1636DD9075DD456
:101DA000019B002B4DD01023002003FA02F2CAF849
:101DB00008209FE74FF0200BE26D0BFA02FBA9E72A
:101DC0004FF480730120636503B0BDE8F08F1BEA18
:101DD000030FE0D1636DD807DDD420210022012359
:101DE0000320616584F8342084F8353082E70826C2
:101DF000012504209640954090401BEA030FCAD16C
:101E0000636DD907C7D4DAF80030334205D0616D6D
:101E100041F001016165CAF808602B4205D0616D8F
:101E200041F002016165CAF808500342E5D0616DD6
:101E30001BEA030F41F004016165CAF80800DFD016
:101E4000A9E71D463023012103FA02F22846CAF809
:101E5000082084F8345084F835104BE7A66DFEF75F
:101E600031FA94F835300546022B0ED08023E16D0F
:101E700063653023012200258B401046CAF80830E4
:101E800084F8345084F8352034E72368216C1A68CC
:101E900022F016021A605A6922F080025A6101B3D8
:101EA0001A6822F008021A601A6822F001021A6009
:101EB00005E0FEF707FA401B05280BD823681B68CE
:101EC000DB07F6D4E16D3F2301228B40B36084F839
:101ED0003520CEE720220323E16D626584F835309A
:101EE000C7E7A26C002ADBD1DEE700BFF0B50446ED
:101EF00083B000200822A76DE36D01909A403D68F1
:101F0000604915420E6803D021680868400776D4FE
:101F100001229A40154203D021684969080668D415
:101F200004229A40154203D02168096889075AD4CF
:101F300010229A40154203D02168086800073FD458
:101F400020229A40154203D021680868C00625D493
:101F5000636D0BB3636DDA071AD5052321684A4A0E
:101F600084F83530A2FB06320B6823F00103920A95
:101F70000B6002E00B68DB0704D5019B01339A423A
:101F80000193F7D20022012384F8342084F83530FD
:101F9000E36C0BB12046984703B0F0BDBA6094F8EB
:101FA0003520052A3BD00B6813F4802F0B6854D0E2
:101FB00019035FD5E36B002BCAD020469847C7E7CB
:101FC000BA600A6812F4802F0A6822D1D20503D4BD
:101FD0000A6822F008020A60226C002AB0D020466B
:101FE0009047E36DACE7BA60626D42F0040262654F
:101FF0009EE7BA60626D42F00202626590E708688F
:1020000020F004000860BA60626D42F0010262656F
:102010007EE71103E0D5A26C002AE0D190E70A68C0
:10202000206C22F016020A604A6922F080024A619E
:1020300020B30A6822F008020A603F22002501202E
:10204000216D02FA03F3BB6084F8345084F8350044
:102050000029A1D0204688479EE713F48073A9D1B8
:102060000A68012022F010020A6084F8343084F8F3
:1020700035009FE7636C002B9FD169E7A26C002AB3
:10208000D7D1DAE7F8000020B5814E1B034690F85F
:10209000340001280DD0012010B493F8354083F8A6
:1020A0003400844207D000225DF8044B83F83420CA
:1020B000704702207047052916D8DFE801F0120F9B
:1020C0000C0906031A650020EDE7DA640020EAE750
:1020D0009A640020E7E75A640020E4E71A640020CD
:1020E000E1E7DA630020DEE70020DCE790F8342047
:1020F0000346012A0AD0012093F83520824283F852
:10210000340005D0002283F8342070470220704745
:10211000062920D8DFE801F01C191613100D040061
:102120000022DA6310461A645A649A64DA641A6503
:10213000E8E700201865E5E70020D864E2E7002022
:102140009864DFE700205864DCE700201864D9E7D2
:102150000020D863D6E70120D4E700BF90F835000F
:10216000704700BF406D70472DE9F04F002583B0E8
:102170008846D1F800902A46DFF8E0C104E0013239
:102180000235102A00F0A4800123934003EA0901DC
:102190008B42F4D1D8F8046026F010077B1E012B87
:1021A0004FF0030340F29780AB40DB43C468022F3B
:1021B00004EA030ED8F8084004FA05F444EA0E04D1
:1021C000C46015D1D70802F0070B4FF00F0AD8F8FA
:1021D000104000EB87074FEA8B0BD7F820E00AFA94
:1021E0000BFA04FA0BF42EEA0A0E44EA0E043C62DF
:1021F000076806F003041F402346AB403B430360DF
:10220000F300BCD5504B22F003074FF00F0E5C6C6F
:1022100002F0030307F1804744F480444FEA830A45
:10222000494B07F59C370EFA0AFE5C645C6CA3F51B
:10223000605304F4804498420194019CBC6824EAF1
:102240000E0460D003F5806398425ED03F4B984205
:1022500060D03F4B984262D03E4B984264D03E4B98
:10226000984266D0DFF8F8E0704567D0DFF8F4E018
:1022700070450CBF4FF0070E4FF0080E0EFA0AF330
:102280002343CC4301320235BB60F703DCF8003056
:1022900054BF23400B43B703CCF80030DCF80430C4
:1022A00054BF23400B43F702CCF80430DCF808306D
:1022B00054BF23400B43B602CCF80830DCF80C3096
:1022C00054BF23400B43102ACCF80C307FF45CAF92
:1022D00003B0BDE8F08FAB40D0F808B0D8F80C40A0
:1022E000C6F3001EDB4304FA05FA0EFA02FE0BEAFF
:1022F00003044AEA04048460446824EA01044EEAC0
:102300000404446052E70023BAE74FF0010E0EFACE
:102310000AF3B5E74FF0020E0EFA0AF3B0E74FF0FA
:10232000030E0EFA0AF3ABE74FF0040E0EFA0AF3AF
:10233000A6E74FF0050E0EFA0AF3A1E74FF0060EDE
:102340000EFA0AF39CE700BF003802400008024082
:10235000000C02400010024000140240003C01400A
:1023600000180240001C02402DE9F04F0023DFF866
:102370004CA1DFF84C91DFF84C81DFF84CB102E062
:102380000133102B58D0012505FA03F202EA0106A9
:10239000B242F5D123F0030703F003044FF00F0E10
:1023A000484557444FEA8404D7F808C00EFA04FEA3
:1023B0000CEA0E0C5CD0584512D03A4DA84259D0C8
:1023C000394DA8425AD0394DA8425BD0384DA84269
:1023D0005CD0384DA8425DD0374DA8425ED008256C
:1023E00005FA04F4A44529D003255C00D0F800E0E8
:1023F0000F2705FA04F423FA05F603F00705013365
:10240000E44300EB8606AD00102B0EEA040E07FA3B
:1024100005F7C0F800E0356A25EA07053562C568AA
:1024200005EA0405C560456825EA02024260826843
:1024300004EA02048460A6D1BDE8F08FD8F8004019
:10244000F6433440C8F80040D8F804403440C8F897
:102450000440D8F808403440C8F80840D8F80C4088
:102460002640C8F80C60BC6824EA0E04BC60BBE7D8
:102470000024B7E7022505FA04F4B3E7032505FABB
:1024800004F4AFE7042505FA04F4ABE7052505FAE3
:1024900004F4A7E7062505FA04F4A3E7072505FADF
:1024A00004F49FE700080240000C024000100240C4
:1024B0000014024000180240001C02400038014095
:1024C00000000240003C0140000402400369194240
:1024D00014BF01200020704702B9090481617047D0
:1024E00043690B4218BF09048161704782B04FF401
:1024F00080330193019B0B430193019BC361C16135
:10250000019BC361C3690193C06980F48030C0F34B
:10251000004002B0704700BF704700BF044A5169D5
:10252000014200D1704708B55061FFF7F5FF08BDC3
:10253000003C0140704700BFF0B58BB0002800F0B0
:102540008B8090F8BD330446056803F0FF02002B32
:102550007CD0284603236F46261D84F8BD33EB6BE1
:10256000254613F4807308BF23610AF0E5FF55F890
:1025700010CBAE46BEE80F000FC7BEE80F000FC776
:102580009EE8030087E80300604696E80E000AF024
:102590008FFE074630B101250223284684F8BD335B
:1025A0000BB0F0BD014620680AF0CEFF606860B352
:1025B00039464FF0010E3A46C1EBC1034F1C04EB04
:1025C000830383F83C10A3F84210F9B283F83DE08E
:1025D000814283F83F205A649A641A65ECD3002242
:1025E0001146C2EBC203571C04EB830383F8FC21A2
:1025F000FAB283F8FD11824283F8FF11C3F8041286
:10260000C3F80812C3F81012EBD30FCD6F46D4F8FD
:1026100000E00FC70FCD0FC795E8030087E8030060
:10262000704696E80E000AF0ABFF05460028B2D1CE
:102630000122636A84F83800934284F8BD230FD0E6
:1026400020680BF0A7FC28460BB0F0BD80F8BC2337
:102650000FF02AFE20687DE7012528460BB0F0BD6B
:10266000204600F075FDEBE7704700BFF0B1032294
:1026700038B590F8BC33044680F8BD23012B06D151
:1026800020460FF061FE002084F8BD0338BD012311
:10269000006884F8BC330AF04FFF20680BF0FAFBA7
:1026A000054628B1002384F8BC33E9E701207047D0
:1026B00020680BF06FFC84F8BC53E1E790F8BC3362
:1026C000012B01D10220704710B501230446006898
:1026D00084F8BC330BF052FC20680AF025FF002080
:1026E00084F8BC0310BD00BF90F8BC33012B70B55B
:1026F00002D10225284670BD04460126006884F8F0
:10270000BC630AF019FF20680BF0C4FB054628B132
:102710000023354684F8BC33284670BD20680BF092
:1027200039FC84F8BC53284670BD00BF704700BF19
:10273000704700BF704700BF704700BF704700BFC1
:10274000704700BF704700BF704700BF704700BFB1
:10275000704700BF704700BF2DE9F04F076889B090
:10276000044638460BF058FC10B109B0BDE8F08FB4
:10277000064620680BF01AFC0028F6D020680BF003
:1027800015FC10F0020F206803D0436903F0020328
:1027900043610BF00BFC10F0100F206811D083691F
:1027A00023F0100383613D6AC5F3434305F00F082E
:1027B000022B00F07882062B77D0836943F0100358
:1027C00083610BF0F3FB10F4002F206840F0D780FA
:1027D0000BF0ECFB43037BD42368184603930BF008
:1027E000E5FB0028C0F2968120680BF0DFFB0005B6
:1027F0004CD420680BF0DAFB020113D5226894F860
:10280000F413536903F000635361002949D1536DF8
:1028100001212046C3F3830384F8F413C4F8F8338A
:102820000FF002FF20680BF0C1FBC30400F1208110
:1028300020680BF0BBFB10F4005F206840F00181C2
:102840000BF0B4FB070700F1F38020680BF0AEFB40
:10285000C60200F1E38020680BF0A8FB850200F1BE
:10286000D38020680BF0A2FB400000F1C4802068F8
:102870000BF09CFB41077FF578AF23685D686A0722
:1028800000F1FE815A6815435D606EE7D7F808389D
:10289000D90700F104822068436903F400634361AF
:1028A000A8E720460FF0A6FDBCE7C8EBC808082241
:1028B00004F5717138460BF081FAC5F30A1304EB85
:1028C00088022068D2F814120B44C2F8143274E75C
:1028D00020680BF077FB236881460393002800F003
:1028E0006782A04607F5106B4FF0000A0497059623
:1028F00009E05FEA59090AF1010A08F11C080BF125
:10290000200B00F01D8119F0010FF2D05FFA8AF65A
:10291000039831460BF068FB0546E80715D50127FB
:10292000049B0AF00F002169D3F8342807FA00F05D
:10293000B94222EA0002C3F83428CBF8087000F04C
:10294000D481314620460FF031FD290702D50823F6
:10295000CBF80830EA0602D51023CBF808306B0616
:1029600002D54023CBF80830AF0702D50223CBF8BD
:1029700008302D0600F1E88023680393B9E70BF0D7
:1029800019FB0546002800F0158207F53068A246BD
:102990004FF000092068039608E06D0809F101096D
:1029A00008F120080AF11C0A00F0C880EE07F4D5EF
:1029B0005FFA89F631460BF00DFB834620681BF069
:1029C000010F40F03F811BF0080F40F021811BF008
:1029D000100F02D01023C8F808301BF0200F02D0CF
:1029E0002023C8F808301BF4005FD6D04FF4005302
:1029F000C8F80830D1E720460FF020FD2068436971
:102A000003F08043436133E7204600210FF00EFDC1
:102A10002068436903F40013436123E72046002143
:102A20000FF008FD2068436903F48013436113E746
:102A300020460FF0C5FC2068436903F0080343619A
:102A400004E70BF0EDFA20680AF0A2FE2568E060CA
:102A500001F03EF9227B014628460AF0E5FC2046BB
:102A60000FF0B2FC2068436903F400534361E7E6CA
:102A700007F500656B682068102123F001036B6087
:102A80000AF05CFE606808B307F510634FF67F310B
:102A9000996001361A682033864222F4001243F806
:102AA000202C53F8202C42F0006243F8202CC3F86D
:102AB000E811D3F8E02122F40012C3F8E021D3F8A2
:102AC000E02142F00062C3F8E021E1D1EB69226B22
:102AD00043F00113EB61002A00F0D780D5F8843071
:102AE00043F00B03C5F884306B6C43F00B036B644D
:102AF000D7F8003804F57172217C23F4FE63206856
:102B0000C7F800380BF0A2FA2068436903F4805339
:102B100043618EE694F8F413D7F80428012922F0D3
:102B20000102C7F8042800F0F58020460FF07AFC77
:102B30002068436903F00043436156E6039E47E67D
:102B4000049F059E03984AE6D8F85430D8F85020E0
:102B50002768934203973FF6CCAED51AD8F84400C5
:102B600007F510618542AE4601EB4A1128BF864643
:102B7000069189690EF1030E89B2B1EB9E0F35D330
:102B8000A2B3934232D2CDF81CA0D8F84810DDF899
:102B900018A00BE0D8F850209A42A2EB030540F2AF
:102BA000D680002A00F0D380D8F84400854232460F
:102BB00028BF0546207CABB2009038460BF0E6F803
:102BC000DAF81820D8F84810E81CD8F8543092B237
:102BD00029442B44B2EB900FC8F84810C8F8543081
:102BE000D8D2DDF81CA0D8F8502027689A4200F20D
:102BF000A580039B0AF00F020120039703F50061F3
:102C0000D3F8343800FA02F223EA02034B6370E689
:102C1000082200F53063C8F8082003EB4913026C62
:102C20006A48996882425BD90E0402D54FF400428B
:102C30009A6020460FF0AAFB2169012900F0B280BA
:102C40002068C4E6216900F53062012302EB4912D5
:102C50000129C8F80830D0F840E0936861D05C4999
:102C60008E456DD0B9F1000F04D1D4F81022002A9E
:102C700000F0A280204631460FF08EFB2068A2E6CD
:102C800020460FF0DFFB2368FCE56A6942F22B0364
:102C900013436B612B6943F00B032B6128E720463C
:102CA0000FF0A8FBF7E547F6F0731D423FF485AD42
:102CB000C8EBC808C5F30A15384604EB88082A464D
:102CC000D8F808120BF07AF8D8F80822D8F814329D
:102CD0002A4420681D44C8F80822C8F814526CE53C
:102CE00020460FF053FB206871E6D8F84830D8F83A
:102CF00044201344C8F84830BAF1000F7FF421AEE5
:102D0000236D002B7FF41DAE04F5717220680BF06B
:102D10009DF916E60021204684F8F4130FF084FC98
:102D200006E7190717D529498E457FF64CAE1E04D4
:102D30007FF549AE4FF40043936044E60397D8E52E
:102D40001904F7D49B0695D52021916092E7DDF810
:102D50001CA027684AE7990634D413F0280F7FF4A3
:102D600032AE1A498E4501D91B04E3D41269DAF850
:102D70000432DAF80812C2F3120219449A1ACAF895
:102D80000812CAF81422B9F1000F7FF473AFD4F817
:102D90001022002A7FF46EAF04F5717201210BF04E
:102DA00055F967E704F5717220680BF04FF947E7B2
:102DB000184614E520680BE504F5717249460BF0DE
:102DC00045F957E720239360FDE500BF0A30544FD3
:102DD0000A31544F90F8BC33012B01D102207047C7
:102DE00010B501230446006884F8BC330BF0C6F824
:102DF000002084F8BC0310BD90F8BC33012B01D136
:102E00000220704710B501230446006884F8BC33E3
:102E10000BF0C0F8002084F8BC0310BD90F8BC2370
:102E2000012A01D10220704710B50122044684F81E
:102E30003810006884F8BC230BF08EF8002084F86A
:102E4000BC0310BD11F0800F70B501F00F044FF0FE
:102E50001C0126D1C4EBC40501FB0401002600EBD4
:102E6000850501F5FE7185F8FD614D780C708A606D
:102E7000CB7005B1CC80022B10D090F8BC33012B65
:102E800001D1022070BD04460123006884F8BC33E0
:102E90000AF08AFC002084F8BC0370BD00230B718B
:102EA000EBE7C4EBC405012601FB040100EB85053B
:102EB0003C3185F83D60D8E711F0800F01F00F0339
:102EC0004FF01C0110B51CD1C3EBC30201FB030181
:102ED000002400EB820201F5FE7182F8FD410B70C7
:102EE00090F8BC33012B01D1022010BD0446012310
:102EF000006884F8BC330AF0E9FC002084F8BC03C5
:102F000010BDC3EBC302012401FB030100EB8202ED
:102F10003C3182F83D40E2E770B501F00F05002634
:102F20001C21C5EBC50401FB050100EB840401F580
:102F3000FE71C4F80822C4F8103284F8FC51C4F8B9
:102F4000146284F8FD6103690068012B08BFC4F8AE
:102F50000C22DAB21DB10AF06FFD002070BD0AF03C
:102F600081FE002070BD00BF01F00F01C1EBC10167
:102F700000EB8101D1F81402704700BFF8B501F0F1
:102F80000F05012600271C21C5EBC50401FB050127
:102F900000EB84043C31A264236584F83C506765EF
:102FA00084F83D6003690068B34208BFE264DAB2A6
:102FB0001DB10AF041FD0020F8BD0AF053FE0020CB
:102FC000F8BD00BF38B5436801F00F059D4216D823
:102FD0000B0621D41C24C1EBC103002204FB010118
:102FE00000EB830301F5FE7183F8FD2101230D70D1
:102FF0008B7090F8BC239A4203D1022038BD012087
:1030000038BD044680F8BC3300680AF0EBFE7DB1A1
:10301000002084F8BC0338BD1C21C5EBC503012288
:1030200001FB050100EB83033C3183F83D20DDE724
:1030300004F57172217C20680BF008F8E8E700BF06
:1030400038B5426801F00F03934218D811F0800F91
:10305000C3EBC3024FF01C011ED101FB030100248E
:1030600000EB820201F5FE7182F8FD4100250B7034
:103070008D7090F8BC33012B03D1022038BD0120A4
:1030800038BD04460123006884F8BC330AF0D6FE3C
:1030900084F8BC53284638BD012401FB030100EB32
:1030A00082023C3182F83D40E0E700BF90F8BC333B
:1030B000012B0DD0012310B580F8BC330B0604465C
:1030C00008D400680AF04CFB002084F8BC0310BD53
:1030D0000220704701F00F0100680AF02FFB00206A
:1030E00084F8BC0310BD00BF00680BF081BB00BFBB
:1030F00000680BF089BB00BF90F8BD03704700BFAC
:1031000030B405686C6AC9B1AB6A013904EB134489
:103110000BD0002303F14000013305EB8000DBB24C
:1031200040688B4204EB1044F4D3403144EA02443B
:10313000002005EB81014C6030BC704744EA02443A
:103140000020AC6230BC70470368002059627047B1
:1031500003680121084A30B4C0F8FC130446996999
:10316000002541F0006184F8F45328469961596DB7
:103170000A4330BC5A6570470300001003680146DB
:10318000074A10B40024C1F8FC43204699695DF851
:10319000044B21F000619961596D0A405A657047EE
:1031A000FCFFFFEF704700BF704700BF38B50D4B05
:1031B0005A681C4642F400725A605A6842F480729F
:1031C0005A60FDF77FF8054605E0FDF77BF8401BE8
:1031D000B0F57A7F04D863681B07F6D5002038BDA8
:1031E000032038BD0070004038B50D4B5A681C46AE
:1031F00022F400725A605A6842F480725A60FDF7F5
:1032000061F8054605E0FDF75DF8401BB0F57A7FF3
:1032100004D8606810F00800F5D138BD032038BD2F
:1032200000700040024A136843F400731360704753
:1032300000700040024A136823F400731360704763
:1032400000700040024A136843F400631360704743
:1032500000700040024A136823F400631360704753
:1032600000700040024A136843F4806313607047A3
:1032700000700040024A136823F4806313607047B3
:10328000007000401B4A1C4B116C41F0805130B55E
:10329000116483B0126C1C4602F080520192019AB4
:1032A0001A6842F480321A60FDF70CF8054605E012
:1032B000FDF708F8401BB0F57A7F17D86368DA038A
:1032C000F6D523680C4D43F400332360FCF7FAFF76
:1032D000044605E0FCF7F6FF001BB0F57A7F05D841
:1032E0006B689B03F6D5002003B030BD032003B00C
:1032F00030BD00BF00380240007000401B4A1C4B2C
:10330000116C41F0805130B5116483B0126C1C46D1
:1033100002F080520192019A1A6822F400321A6077
:10332000FCF7D0FF054605E0FCF7CCFF401BB0F5ED
:103330007A7F17D863689B03F6D423680C4D23F477
:1033400080332360FCF7BEFF044605E0FCF7BAFFBC
:10335000001BB0F57A7F05D8686810F48030F5D18D
:1033600003B030BD032003B030BD00BF00380240C1
:1033700000700040214A224BF0B50E46116C83B01C
:10338000074641F080511C461164126C02F08052D5
:103390000192019A5A6842F440225A601A6842F433
:1033A00040221A60FCF78EFF054605E0FCF78AFF15
:1033B000401BB0F57A7F1CD8636803F44023B3F553
:1033C000402FF3D02168012E0E4B0F4A03EA010370
:1033D00047EA03072760136943F0040313610BD026
:1033E00020BF094A0020136923F00403136103B0CE
:1033F000F0BD032003B0F0BD30BFF2E7003802405B
:1034000000700040FCF3FFFF00ED00E0024B186885
:1034100000F44040704700BF007000402A4B1A6C17
:1034200042F0805270B51A6482B01A6C02F0805279
:103430000092009A9A6802F00C02082A40D01A689A
:1034400006461C4622F080721A60FCF73BFF0546D8
:1034500004E0FCF737FF401B02282ED823689901AF
:10346000F7D41A4A184D136823F440431E431660DC
:10347000136803F440430193019B236843F0807376
:103480002360FCF71FFF044604E0FCF71BFF001B52
:10349000022812D82B689A01F7D5FCF713FF0B4CC2
:1034A000054605E0FCF70EFF401BB0F57A7F04D817
:1034B00063685B04F6D5002000E0032002B070BD15
:1034C000012002B070BD00BF003802400070004013
:1034D000F8B5FCF7F7FE474B05461A681C4642F064
:1034E00001021A6004E0FCF7EDFE401B02287ED8C2
:1034F00023689E07F7D5236841F288373D4D43F096
:1035000080032360FCF7DEFE00230646A36004E090
:10351000FCF7D8FE801BB84269D8AB6813F00C0FDB
:10352000F6D1FCF7CFFE2B680646324C23F450232D
:103530002B6004E0FCF7C6FE801B642857D8236884
:103540009803F7D4FCF7BEFE23680646294D23F006
:103550008073236004E0FCF7B5FE801B022846D888
:103560002B689901F7D4FCF7ADFE2B680646214C79
:1035700023F080632B6004E0FCF7A4FE801B64282A
:1035800035D823681A01F7D4FCF79CFE2368064659
:10359000184D23F08053236004E0FCF793FE801B5A
:1035A000642824D82B689B00F7D4134B134A144883
:1035B0006A60C5F88430C5F88830EB68114A23F496
:1035C000FE431149EB60EB6843F47F03EB606B6FE4
:1035D00023F001036B676B6F43F080736B670068C8
:1035E0001160FCF737FE003018BF0120F8BD032042
:1035F000F8BD00BF00380240003000241030002425
:1036000004000020F80000200024F400002800F04E
:10361000FA8103682DE9F041DD0782B0044630D518
:10362000AA498A6802F00C02042A00F01A818A680A
:1036300002F00C02082A00F010816368B3F5803FA5
:1036400000F05281002B00F0DC80B3F5A02F9F4BDF
:103650001A6800F0D08122F480321A601A6822F4CD
:1036600080221A60FCF72EFE984D064605E0FCF716
:1036700029FE801B642800F2EC802B689A03F6D5A3
:1036800023689F0729D5914A916811F00C0F00F02B
:103690008380916801F00C0108297AD0E368002B3F
:1036A00000F00A81894B1A681D4642F001021A6037
:1036B000FCF708FE064605E0FCF704FE801B022826
:1036C00000F2C7802B689807F6D52B68226923F093
:1036D000F80343EAC2032B6023681A071FD45D076F
:1036E00036D57A4B1A6CD00074D50025784B1A6801
:1036F000D10540F19D80A368012B00F02581002BAE
:1037000000F0B980052B714B1A6F00F0378122F061
:1037100001021A671A6F22F004021A6719E163693D
:10372000002B44D0694B5A6F1D4642F001025A6784
:10373000FCF7C8FD064605E0FCF7C4FD801B022827
:1037400000F287806B6F9B07F6D523685D07C8D4AE
:10375000A069D0B15D4B9A6802F00C02082A00F013
:10376000C98002281A6800F0118122F080721C467C
:103770001A60FCF7A7FD054604E0FCF7A3FD401B1B
:10378000022866D823689B01F7D4002002B0BDE868
:10379000F0815268560281D44C4A1268950724D5AC
:1037A000E268012A21D0012002B0BDE8F081474B38
:1037B0005A6F1D4622F001025A67FCF783FD064648
:1037C00004E0FCF77FFD801B022842D86B6F9F0747
:1037D000F7D4BAE71A6C012542F080521A641B6CC8
:1037E00003F080530193019B80E7384920690A6800
:1037F00022F0F80242EAC0020A601A077FF56FAFB2
:103800008DE7324B1A681D4622F480321A601A681E
:1038100022F480221A60FCF755FD064604E0FCF70E
:1038200051FD801B642814D82B689B03F7D427E72D
:103830001A681E4642F480721A60FCF743FD074680
:103840003368DA053FF557AFFCF73CFDC01B642831
:10385000F6D9032002B0BDE8F0814A6850027FF536
:10386000ECAE1A4A126891037FF50BAF6268002A2A
:103870007FF407AF97E7154B41F288381A6F1E4661
:1038800022F001021A671A6F22F004021A67FCF78D
:1038900019FD074604E0FCF715FDC01B4045D8D8CC
:1038A000336F9807F7D4002D3FF452AF074A136CDB
:1038B00023F0805313644BE7044B1A681D4622F033
:1038C00001021A60FCF7FEFC064608E000380240E0
:1038D00000700040FCF7F6FC801B0228B9D82B686A
:1038E0009907F7D42368F8E6484A136843F480330D
:1038F0001360B7E601285A683FF448AF02F480032A
:10390000E1698B427FF44FAF02F03F03216A8B42A3
:103910007FF449AF47F6C073616A1340B3EB811F70
:103920007FF441AFA36A02F440315B08013BB1EB85
:10393000034F7FF438AFE36A02F07062B2EB036FBB
:1039400014BF0120002021E7304A136F43F0010328
:103950001367FCF7B7FC2D4E804641F2883706E02E
:10396000FCF7B0FCA0EB0800B8423FF672AF336F33
:103970009B07F5D5002D3FF4EBAE97E742F004022C
:103980001A671A6F42F001021A67E2E722F08072AA
:103990001D461A60FCF796FC064605E0FCF792FC13
:1039A000801B02283FF655AF2B689901F6D4226A96
:1039B000E369606A1343A26AE16A43F00053520864
:1039C000124C43EA8013013A43EA016343EA02439B
:1039D0006B602B6843F080732B60FCF773FC05462B
:1039E00005E0FCF76FFC401B02283FF632AF23686E
:1039F0009A01F6D5C9E642F480221A601A6842F4A8
:103A000080321A602EE60120704700BF0038024065
:103A100078B15F4A136803F00F038B420BD213682F
:103A200023F00F030B431360136803F00F03994255
:103A300001D00120704703682DE9F0419D0714D59E
:103A40005C0704D5534CA26842F4E052A2601A0706
:103A500004D5504CA26842F46042A2604D4C856887
:103A6000A26822F0F0022A43A260DF0704460D4656
:103A700021D54268474B012A1B687CD0022A72D0AC
:103A8000990728D5434941F288388B680E4623F0C0
:103A9000030313438B60FCF715FC074604E0FCF7B7
:103AA00011FCC01B404563D8B368626803F00C0387
:103AB000B3EB820FF3D1364A136803F00F039D4234
:103AC0000CD2136823F00F032B431360136803F029
:103AD0000F039D4202D00120BDE8F08123685A0700
:103AE00006D52C49E0688A6822F4E05202438A60D5
:103AF0001B0707D5274A2169936823F4604343EAEB
:103B0000C103936023498B6803F00C03042B19D085
:103B1000082B2BD14A684B6802F03F02496813F426
:103B200080032BD11C48C1F38811A1FB00010FF0C9
:103B300001FC184B5B68C3F3014301335B00B0FB2E
:103B4000F3F300E0154B134A154C92681548C2F385
:103B5000031215490068A25CD3400B60FCF77AFBA6
:103B60000020BDE8F08198018CD4B4E70A4BEAE765
:103B70000320BDE8F0819E0384D4ACE70748C1F37D
:103B800088110023A1FB00010FF0D4FBD1E700BF97
:103B9000003C0240003802400024F40040787D01DF
:103BA0003C49010804000020F8000020F0B50C4654
:103BB00089B01646214D00B32B6B022000224FF432
:103BC000007E43F00403032703A944EAC6042B63E1
:103BD0002B6B049003F0040319480592029307929B
:103BE000CDF80CE0029B0697FEF7BEFAAA6822F019
:103BF00078421443AC6009B0F0BD2B6B4FF4807E6B
:103C00000322022743F0010303A92B632B6B0590CA
:103C100003F0010307900B480193019B0692CDF836
:103C20000CE00497FEF7A0FAAB6823F0EC6343EADC
:103C300006021443AC6009B0F0BD00BF003802407A
:103C40000008024000000240024A136843F40023C7
:103C50001360704700380240024A136823F40023BF
:103C60001360704700380240164908B58B6803F0AE
:103C70000C03042B1BD0082B17D14A684B6802F0A9
:103C80003F02496813F4800313D10F48C1F3881130
:103C9000A1FB00010FF04EFB0A4B5B68C3F301432D
:103CA00001335B00B0FBF3F008BD074808BD0748CF
:103CB00008BD0648C1F388110023A1FB00010FF0E5
:103CC00039FBE9E7003802400024F40040787D0128
:103CD000014B1868704700BFF8000020044B054AEC
:103CE0009B680549C3F382230868D35CD8407047BA
:103CF000003802404C490108F8000020044B054AF6
:103D00009B680549C3F342330868D35CD8407047C9
:103D1000003802404C490108F80000200F22244BD3
:103D200002601A68510334D54FF4A0234360204B3E
:103D30001A6802F00102C2601A68C2F3C40202618A
:103D40001A6F52072DD505238360194B5A6F02F065
:103D5000010242611A6812F0807F14BF0222012220
:103D600082615A6802F48002C2615A6802F03F021E
:103D700002625A68C2F3881242625A6802F4403200
:103D800002F58032D20B82625B68C3F30363C362C5
:103D900070471B6813F4803318BF4FF480334360BF
:103DA000C5E71B6F13F0010318BF01238360CCE745
:103DB000003802400E4B0F2202609A6802F00302A4
:103DC00042609A6802F0F00282609A6802F4E0525F
:103DD000C2609B68DB0810B403F4E053054C036138
:103DE00023685DF8044B03F00F030B60704700BFBE
:103DF00000380240003C0240704700BF08B5054B48
:103E0000DB681B0604D5FFF7F7FF034B80221A700F
:103E100008BD00BF003802400E38024003682DE99B
:103E2000F04313F0010683B004460BD0AC4A91680E
:103E300021F400019160C66A91683143B6FA86F6B2
:103E40007609916013F4002510D0A549656BD1F86F
:103E50008C20B5F5801F22F4401242EA0502C1F819
:103E60008C2000F07681B5FA85F56D09DA0210D55F
:103E70009B48A16BD0F88C20B1F5800F22F4400252
:103E800042EA0102C0F88C2000F06181002908BFDD
:103E900001259F0600F11081DF060CD5904AD2F86B
:103EA0008C1021F08071C2F88C10D2F88C10206B2D
:103EB0000143C2F88C10580408D58949E06DD1F847
:103EC000902022F440320243C1F89020190408D512
:103ED0008349206ED1F8902022F440220243C1F899
:103EE0009020DA0308D57E49606ED1F8902022F444
:103EF00040120243C1F890205F0608D57849E06B74
:103F0000D1F8902022F003020243C1F89020180655
:103F100008D57349206CD1F8902022F00C0202439E
:103F2000C1F89020D90508D56D49606CD1F8902072
:103F300022F030020243C1F890209A0508D5684962
:103F4000A06CD1F8902022F0C0020243C1F890206A
:103F50005F0508D56249E06CD1F8902022F44072E8
:103F60000243C1F89020180508D55D49206DD1F8AD
:103F7000902022F440620243C1F89020D90408D571
:103F80005749606DD1F8902022F440520243C1F8A5
:103F900090209A0408D55249A06DD1F8902022F4BF
:103FA00040420243C1F890209F020CD54C49606FFB
:103FB000D1F89020B0F1006F22F0006208BF012517
:103FC0000243C1F89020580308D54549E06ED1F866
:103FD000902022F040720243C1F89020190208D5C7
:103FE0003F49A06FD1F8902022F080520243C1F8DF
:103FF00090205A010AD4B3F1007F14D09EB9012D4C
:1040000000F0AA80002003B0BDE8F0833449B3F18A
:10401000007FE06FD1F8902022F0005242EA0002C7
:10402000C1F89020EAD12E4B1A681E4622F0806219
:104030001A60FCF747F9074604E0FCF743F9C01B98
:10404000642835D833681B01F7D42368DF0703D50C
:10405000E26A002A00F0C980180304D5626BB2F549
:10406000801F00F0E880D90204D5A26BB2F5800F62
:1040700000F0E1809A010AD5E36860681B06A16838
:10408000174A43EA801343EA0173C2F88430144BA1
:104090001A681E4642F080621A60FCF713F9074660
:1040A00033681B01ABD4FCF70DF9C01B6428F7D9AA
:1040B000032003B0BDE8F083094A0A4B116C1F4688
:1040C00041F080511164126C02F080520192019A09
:1040D0001A6842F480721A60FCF7F4F8804609E02E
:1040E0000038024000700040FCF7ECF8A0EB08003C
:1040F0006428DDD83B68D805F6D5664AA36A116FF7
:1041000003F4407011F4407110D081420ED0116F51
:10411000176F21F4407147F480371767176F27F442
:10412000803717671167116FC9076FD4B0F5407FEB
:1041300000F0988057498A6822F4F8128A60554A3C
:10414000C3F30B03116F0B4313672368A4E6012627
:104150009FE60025012689E64E4B1A681D4622F08F
:1041600080521A60FCF7AEF8064604E0FCF7AAF8A5
:10417000801B64289CD82B689F00F7D42368180301
:1041800040D4D90218D5A26BB2B942496269D1F8BC
:1041900088002569120600F4403042EA8512024385
:1041A000C1F88820D1F88C20206A22F4F852013816
:1041B00042EA0022C1F88C209A0203D5636FB3F162
:1041C000006F58D0334B1A681C4642F080521A6078
:1041D000FCF778F8054623689B003FF513AFFCF722
:1041E00071F8401B6428F6D962E7A2686068D6F8C7
:1041F0008410120701F0706142EA80120A43C6F887
:10420000842029E7626B002ABFD0BAE7174641F243
:104210008838FCF757F8814606E0FCF753F8A0EB26
:10422000090040453FF644AF3B6F9B07F5D5A36AB5
:1042300003F440707AE71749E268D1F884006668B1
:10424000120600F0E04042EA86120243C1F88420E0
:10425000D1F88C00E26920F01F00013A0243C1F856
:104260008C2007E70B480C498268194022F4F812A9
:104270000A43826063E70749A369D1F8882020696F
:104280001B0402F0706243EA80131343C1F88830C4
:1042900098E700BF00380240FFFCFF0F484B494A37
:1042A0000260D3F88420C2F388124260D3F88420DD
:1042B000C2F30362C260D3F88420C2F30272826048
:1042C000D3F88820C2F388120261D3F88820C2F3A1
:1042D00001428261D3F88820C2F303624261D3F8BD
:1042E0008C2002F01F02C261D3F88C20C2F304229A
:1042F0000262D3F88C2002F440124263D3F88C207F
:1043000002F4400282639A6802F40002C262D3F8A7
:10431000902002F44032C265D3F8902002F440228B
:104320000266D3F8902002F440124266D3F890203F
:1043300002F00302C263D3F8902002F00C02026480
:10434000D3F8902002F030024264D3F8902002F0BB
:10435000C0028264D3F8902002F44072C264D3F8A1
:10436000902002F440620265D3F8902002F440529B
:104370004265D3F8902002F440428265D3F8902041
:1043800002F04072C266D3F8902002F000624267E9
:10439000D3F8902002F080528267D3F8902002F088
:1043A0000052C2679A68196F02F4F81201F4407162
:1043B0000A438262D3F88C3003F080730363704742
:1043C00000380240F1FFBD04B0F5002F10D0B0F569
:1043D000801F0BD12E4AD2F88C3003F44003B3F582
:1043E000800F33D0B3F5000F0DD073B100207047AC
:1043F000274AD2F88C3003F44013B3F5801F25D040
:10440000B3F5001FF1D123487047536813F4800FB0
:10441000536808BF204803F03F0318BF1F48B0FB94
:10442000F3F01B4BD3F88820D3F88810C2F3036253
:10443000D3F88C30C1F38811C3F3042300FB01F0DF
:104440000133B0FBF2F0B0FBF3F07047536813F4A4
:10445000800F536808BF104803F03F0318BF0F4890
:10446000B0FBF3F00A4BD3F88420D3F88410C2F3E6
:104470000362D3F88C30C1F3881103F01F0300FBF3
:1044800001F00133B0FBF2F0B0FBF3F0704700BF76
:10449000003802400080BB000024F40040787D0119
:1044A000194B1A6822F0806270B51A6006461C46E5
:1044B000FBF708FF054604E0FBF704FF401B6428F8
:1044C0001FD823681A01F7D4B36831681B067268D5
:1044D0000D4D43EA811343EA0273C4F88430236824
:1044E00043F080632360FBF7EDFE044604E0FBF736
:1044F000E9FE001B642804D82B681B01F7D50020B7
:1045000070BD032070BD00BF0038024038B50B4BB2
:104510001A681C4622F080621A60FBF7D3FE05463B
:1045200004E0FBF7CFFE401B642804D8206810F09D
:104530000060F6D138BD032038BD00BF003802400E
:10454000194B1A6822F0805270B51A6006461C4654
:10455000FBF7B8FE054604E0FBF7B4FE401B6428F9
:104560001FD823689A00F7D4B36831681B047268B7
:104570000D4D43EA811343EA0263C4F8883023688F
:1045800043F080532360FBF79DFE044604E0FBF7F5
:1045900099FE001B642804D82B689B00F7D50020E7
:1045A00070BD032070BD00BF0038024038B50B4B12
:1045B0001A681C4622F080521A60FBF783FE0546FB
:1045C00004E0FBF77FFE401B642804D8206810F04D
:1045D0000050F6D138BD032038BD00BF003802407E
:1045E0000268034640685168B0F5827F21F0E0011F
:1045F000516013D0996AB1F5005F07D1116821F4B9
:1046000000511160116841F4005111600121002234
:10461000032083F85D1083F85C2070479968B1F53A
:10462000004F02D0B1F5806FE4D1116821F0400154
:104630001160DFE74E4B642130B51B6804464D48DE
:1046400083B02268A0FB030310685B0A20F04000DF
:1046500001FB03F310600193536823F040035360A0
:1046600005E0019B013B01935368590606D5019B68
:10467000002BF6D1236E43F040032366FBF722FEA6
:10468000054604E0FBF71EFE401B632817D823688D
:104690009B681B06F6D4FBF715FE054605E01B7B61
:1046A000FBF710FE401B632827D823689A6812F492
:1046B000C06FF4D1072384F85D3003B030BD2368A8
:1046C00061685A68B1F5827F22F0E0025A6042D0F8
:1046D000A26AB2F5005F07D11A6822F400521A608C
:1046E0001A6842F400521A6001210022402384F823
:1046F0005D1084F85C202366CDE7236861685A6802
:10470000B1F5827F22F0E0025A6018D0A26AB2F5B9
:10471000005F07D11A6822F400521A601A6842F446
:1047200000521A6001214023002284F85D102366A4
:10473000072384F85C2084F85D3003B030BDA268A4
:10474000B2F5004F02D0B2F5806FDFD11A6822F0C7
:1047500040021A60DAE7A268B2F5004F02D0B2F563
:10476000806FB5D11A6822F040021A60B0E700BF2E
:10477000F8000020F119760538B504460D4604E02E
:10478000FBF7A0FD401B63281FD823689A6812F42A
:10479000C05FF5D105E0FBF795FD401B236863285A
:1047A00014D89A681206F6D49A6812F4C06F0AD028
:1047B0001B7BFBF787FD401B632833D823689A686F
:1047C00012F4C06FF4D1002038BD236861685A68C4
:1047D000B1F5827F22F0E0025A6017D0A26AB2F5EA
:1047E000005F07D11A6822F400521A601A6842F476
:1047F00000521A6001230022032084F85D30236EEA
:1048000084F85C2043F02003236638BDA268B2F52B
:10481000004F02D0B2F5806FE0D11A6822F040025A
:104820001A60DBE72046FFF7DBFE0028CBD0236EC3
:10483000032043F02003236638BD00BF7B4B642177
:1048400030B51B6804467A4883B02268A0FB030396
:104850005B0A01FB03F30193536823F08003536069
:1048600005E0019B013B01935368180606D5019BA7
:10487000002BF6D1236E43F040032366FBF722FDA5
:1048800001462046FFF778FF08B1402323662268DF
:10489000136823F040031360FBF714FD054605E0A1
:1048A0001B7BFBF70FFD401B63283AD823689A68EF
:1048B00012F4C06FF4D15A6851062DD55A6822F00F
:1048C00040025A6005E0019A013A01925A68520684
:1048D00006D5019A002AF6D1236E43F040032366E1
:1048E000FBF7F0FC054604E0FBF7ECFC401B6328FB
:1048F0004FD823689B681B06F6D4FBF7E3FC0546FC
:1049000005E01B7BFBF7DEFC401B632827D82368F0
:104910009A6812F4C06FF4D1072384F85D3003B0B5
:1049200030BD236861685A68B1F5827F22F0E002E9
:104930005A606ED0A26AB2F5005F07D11A6822F4FD
:1049400000521A601A6842F400521A6001200021D5
:10495000402284F85D0084F85C102266ABE723688F
:1049600061685A68B1F5827F22F0E0025A6044D053
:10497000A26AB2F5005F2BD001214023002284F807
:104980005D102366072384F85C2084F85D3003B053
:1049900030BD236861685A68B1F5827F22F0E00279
:1049A0005A601ED0A26AB2F5005F08D00121002231
:1049B000402384F85D1084F85C2023669DE71A6824
:1049C00022F400521A601A6842F400521A60EDE7AD
:1049D0001A6822F400521A601A6842F400521A60EF
:1049E000CAE7A268B2F5004F02D0B2F5806FD9D104
:1049F0001A6822F040021A60D4E7A268B2F5004FAC
:104A000002D0B2F5806FB3D11A6822F040021A606A
:104A1000AEE7A268B2F5004F02D0B2F5806F89D13F
:104A20001A6822F040021A6084E700BFF8000020F4
:104A3000F119760570B504460D461646691C2068C6
:104A400011D1836813F4C05FFBD183681B0604D5C2
:104A500083681B06F9D400E0037B836813F4C06FFE
:104A6000FAD1002070BD836813F4C05F23D0FBF738
:104A700029FC801B8542E1D8236861685A68B1F53A
:104A8000827F22F0E0025A602ED0A26AB2F5005F67
:104A900021D001230022032084F85D30236E84F8A6
:104AA0005C2043F02003236670BDFBF70BFC801BEA
:104AB0008542E1D9206883681A06F6D406E0037BB4
:104AC000FBF700FC801B85421AD92068836813F429
:104AD000C06FF4D1C5E71A6822F400521A601A6850
:104AE00042F400521A60D4E7A268B2F5004F02D037
:104AF000B2F5806FC9D11A6822F040021A60C4E78B
:104B00002046FFF76DFD0028ABD0236E032043F055
:104B10002003236670BD00BF38B5436804460D46C8
:104B2000B3F5827F30D0236805E0FBF7CBFB401B59
:104B30002368632808D89A681206F6D46268B2F52A
:104B4000827F2ED0002038BD61685A68B1F5827F1F
:104B500022F0E0025A6038D0A26AB2F5005F07D1B5
:104B60001A6822F400521A601A6842F400521A605D
:104B700001230022032084F85D30236E84F85C203A
:104B800043F02003236638BD8368B3F5004F02D09D
:104B9000B3F5806FC7D123681A6822F040021A600B
:104BA000C9E7A268B2F5004F0AD0B2F5806FC9D14B
:104BB00006E01B7BFBF786FB401B23686328C3D8FA
:104BC0009A6812F4C06FF4D1BCE7A268B2F5004F46
:104BD00002D0B2F5806FBFD11A6822F040021A608D
:104BE000BAE700BF704700BF00285DD0002290F8F0
:104BF0005D302DE9F0418262044603F0FF02002B94
:104C00004DD0E76802232268B7F5E06F84F85D3085
:104C100027F40061136894BF4FF48055002523F0FA
:104C20004003B1F5E06F136035D1A66A236B2BB951
:104C3000B7F5E06F8CBF022301232363A1684FF017
:104C40000008636820690B4361690343A0690B4353
:104C5000E1694FEA104E00F4007C0B43616A0EF0EC
:104C6000040E40460F43216A0B43616B0F4343EA36
:104C70000C034FF0010C47EA0E0733433D4313602A
:104C80005560D36923F40063D361C4F8608084F86D
:104C90005DC0BDE8F08100231E46A362C6E780F830
:104CA0005C200DF097F8ACE701207047704700BF1B
:104CB00098B10268022310B580F85D30044613688D
:104CC00023F0400313600DF023F9002323661846F8
:104CD00084F85D3084F85C3010BD0120704700BF5F
:104CE0002DE9F04190F85C4082B0012C03D1022004
:104CF00002B0BDE8F0811D4601230446904680F8CD
:104D00005C300F46FBF7DEFA94F85D300646012B67
:104D100009D002200122002384F85D2084F85C3051
:104D200002B0BDE8F081002F59D0B8FA88F35B09D2
:104D3000002B54D1A26803212364B2F5004F84F8FC
:104D40005D10A4F8443023662365E364A4F83E8034
:104D5000A763A4F84630A4F83C80236800F0C7801D
:104D60001A68510603D41A6842F040021A60E268D9
:104D7000B2F5E06F62684ED9002A00F0AF80B8F15A
:104D8000010F00F0AB806A1C2BD1E38F9BB283B183
:104D9000226893689B073BD5A36B33F8021BD16055
:104DA000E28FA363013A92B2E287E38F9BB2002BBA
:104DB000EED1324629462046FFF73CFE08B12023BB
:104DC0002366A36833B922680193D368019393687B
:104DD0000193019B206E003018BF01209AE701204B
:104DE00098E7E38F9BB2002BE3D023689A6897077C
:104DF00040F18280A26B32F8021BD960E38FA2637C
:104E0000013B9BB2E387E38F9BB2002BEDD1D0E750
:104E1000FBF758FAB9E7002A53D0B8F1010F50D088
:104E2000681C29D1E28F92B2002AC2D0226893680E
:104E3000990714D5E38F9BB2012B37D9A16B31F8B9
:104E4000023BD360E38FA163023B9BB2E387E28F17
:104E500092B2002AADD0226893689907EAD4FBF792
:104E600031FADFE7A36B1B781373E38FA26B013B6F
:104E700001329BB2A263E387E38F9BB2002B98D0F1
:104E8000226893689B073FD5E38F9BB2012BE9D93A
:104E9000A16B31F8023BD360E38FA163023B9BB26D
:104EA000E387E38F9BB2002BEAD182E7A36B1B78E9
:104EB0001373E38FA26B013B01329BB2A263E387C2
:104EC000B0E7E28F92B2012A24D937F8022BDA60D8
:104ED000E38FA763023B9BB2E387A1E737F8022B7E
:104EE000DA60E38FA763013B9BB2E3874BE71A6865
:104EF00042F480421A6033E7FBF7E4F9801BA842D2
:104F0000FFF46FAF032005E7FBF7DCF9801B854258
:104F1000F8D9B1E73A781A73E38FA26B013B0132FB
:104F20009BB2A263E3877BE72DE9F041044640682A
:104F300088461746B0F5827F1D461AD094F85C303B
:104F4000012B02D10220BDE8F081012384F85C30FE
:104F5000FBF7B8F994F85D300646012B00F090801D
:104F600002200122002384F85D2084F85C30BDE833
:104F7000F081A368002BE1D194F85C300422012B6E
:104F800084F85D20DED0012384F85C30FBF79AF9C9
:104F900094F85D3006466268DBB2012B07D0B2F5AB
:104FA000827FDDD1A1680029DAD1042BD8D1B8F1F4
:104FB000000F00F0C180002F00F0BE8094F85D303B
:104FC000042B02D0052384F85D300023E068C4F888
:104FD00040802366B0F5E06FE36423652368A4F89E
:104FE0004670A4F84470E787C4F83880A7875968EA
:104FF00002D8012F40F2EC8121F4805159601968E8
:10500000490603D4196841F040011960B0F5E06F1A
:1050100040F26681002A00F05981012F00F056818C
:105020000127E38F9BB22BB9B4F846309BB2002B1B
:1050300000F0228123689A68910705D5E28F92B229
:1050400012B1002F40F000819A68D2070FD5B4F852
:10505000462092B25AB1DB680127226C22F8023B4B
:10506000B4F846302264013B9BB2A4F84630FBF70B
:1050700029F9801B8542D4D8681CD2D0032070E760
:10508000B8F1000F58D0B7FA87F35B09002B53D162
:105090000422E168A36384F85D20B1F5E06F226823
:1050A0002366A387A4F84670E3642365E387536807
:1050B000C4F840808CBF23F4805343F48053A4F899
:1050C00044705360A368B3F5004F00F09A801368F2
:1050D000580603D4136843F040031360B1F5E06F42
:1050E00059D9691C30D1B4F846309BB293B193685A
:1050F000DB0742D5D168236C23F8021BB4F84610B5
:105100002364013989B2A4F84610B4F846309BB242
:10511000002BECD16368B3F5827F77D06F1C30D160
:1051200093681806FCD46368B3F5827F7AD0206E4A
:10513000003018BF012014E7012012E7FBF7C2F886
:10514000801B85429AD92268B4F846309BB2002B66
:10515000E0D09368DB07F1D5D368216C21F8023BDE
:10516000B4F846302164013B9BB2A4F84630B4F851
:1051700046309BB2002BECD1CCE7FBF7A3F82268BA
:10518000B1E793681906CED5FBF79CF8801B8542E2
:1051900065D92268C2E76F1C0DD024E0127B236C16
:1051A0001A70B4F84620236C013A013392B223649A
:1051B000A4F846202268B4F846309BB2002BA9D050
:1051C0009368D807EAD4FBF77DF8F3E7127B236CEA
:1051D0001A70B4F84630226C013B01329BB2226453
:1051E000A4F846302268B4F846309BB2002B91D028
:1051F0009368D907EAD4FBF765F8801B8542F1D89C
:105200003CE7136823F48043136060E7A368B3F5B9
:10521000004F02D0B3F5806F80D1136823F04003B4
:1052200013607BE7A368B3F5004F03D0B3F5806F3D
:105230007FF47DAF6A1C236801D029E01A7B9A684D
:1052400012F4C06FFAD172E7A16B002731F8022B7C
:10525000DA60E28FA163013A92B2E287F4E6204677
:10526000FFF7BEF900283FF45EAF236E43F0200342
:105270002366202323665AE7324629462046FFF755
:10528000D9FB00283FF46DAE20230120236668E699
:105290009A6812F4C06F3FF44AAF1B7BFBF712F819
:1052A000801B8542C6D8236861685A68B1F5827F41
:1052B00022F0E0025A6000F0A380A26AB2F5005F1B
:1052C00000F09580012384F85D30CEE7424632F845
:1052D000021BD960E38FA263013B9BB2E3879FE689
:1052E000012F5AD0002A58D00127E38F9BB223B94F
:1052F000B4F846309BB2002BBED023689A68910761
:1053000003D5E28F92B202B127BB9A68D20719D5B2
:10531000B4F8462092B2AAB1B4F8462092B2012A5B
:1053200027D9DA68216C21F8022BB4F846202164D1
:10533000023A92B2A4F84620B4F8462092B2012A6A
:1053400025D90127FAF7BEFF801B8542CDD86B1CFB
:10535000CBD093E6E28F92B2012A2CD9A16B002721
:1053600031F8022BDA60E28FA163023A92B2E2874F
:10537000CBE71A7B0127236C1A70B4F84630226CF5
:10538000013B3A449BB22264A4F84630DAE75A68FB
:10539000012742F480525A60D4E7E28F92B2012A88
:1053A0001AD9424632F8021BD960E38FA263023B4E
:1053B0009BB2E38798E7A26B002712781A73E28FFB
:1053C000A16B013A2368013192B2A163E2879CE7A5
:1053D00041F48051596012E698F800201A73E38F67
:1053E000A26B013B01329BB2A263E3877CE71A68A0
:1053F00022F400521A601A6842F400521A6061E7FF
:10540000A268B2F5004F03D0B2F5806F7FF455AFBC
:105410001A6822F040021A604FE700BF2DE9F04100
:1054200090F85C40012C02D10220BDE8F0811D46BD
:1054300001230446174680F85C300E46FAF742FF17
:1054400094F85D3080466268DBB2012B10D0B2F573
:10545000827F08D002200122002384F85D2084F896
:105460005C30BDE8F081A1680029F3D1042BF1D1B3
:10547000002F18BF002E5DD0002D5BD094F85D305A
:10548000042B02D0052384F85D300023012D27640E
:105490002366E36423652368A4F84650A4F84450C7
:1054A000E587A663A587E068596803D8B0F5E06F83
:1054B00040F2DB8021F48051596019684F0603D413
:1054C000196841F040011960B0F5E06F54D9002A25
:1054D00049D0012D47D00125E38F9BB223B9B4F801
:1054E00046309BB2002B32D023689A68960703D5CA
:1054F000E28F92B202B1FDB99A68D0070FD5B4F825
:10550000462092B25AB1DB680125226C22F8023B98
:10551000B4F846302264013B9BB2A4F84630FAF757
:10552000D1FE069BA0EB08008342D5D80133D3D02F
:10553000032090E701208EE7A16B002531F8022BB4
:10554000DA60E28FA163013A92B2E287D4E7424681
:1055500006992046FFF76EFA00283FF47CAF20231F
:105560000120236677E736F8022BDA60E38FA66323
:10557000013B9BB2E387AEE7012D5CD0002A5AD0F5
:105580000125E38F9BB223B9B4F846309BB2002BC0
:10559000DDD023689A68910703D5E28F92B202B1F9
:1055A00035BB9A68D20719D5B4F8462092B2AAB191
:1055B000B4F8462092B2012A29D9DA68216C21F880
:1055C000022BB4F846202164023A92B2A4F8462095
:1055D000B4F8462092B2012A27D90125FAF772FEC3
:1055E000069BA0EB08008342CBD80133C9D09FE7CC
:1055F000E28F92B2012A2BD9A16B002531F8022B40
:10560000DA60E28FA163023A92B2E287C9E71A7BBD
:105610000125236C1A70B4F84630226C013B2A44F1
:105620009BB22264A4F84630D8E75A68012542F4B8
:1056300080525A60D2E7E28F92B2012A19D936F825
:10564000022BDA60E38FA663023B9BB2E38797E706
:10565000A26B002512781A73E28FA16B013A2368BE
:10566000013192B2A163E2879BE741F48051596016
:1056700023E732781A73E38FA26B013B01329BB2AE
:10568000A263E3877CE700BF034690F85C00012833
:1056900017D0012083F85C0071B1B2FA82F04009A2
:1056A00050B9F0B493F85D40012C0CD002200022D8
:1056B00083F85C20F0BC70470022012083F85C2056
:1056C000704702207047DF680325164C164E996319
:1056D0009968B7F5E06F88BF344683F85D50B1F53F
:1056E000004F18669A87DA871864A3F84400D864D4
:1056F0001C65A3F846001A680ED0516841F0A0015D
:105700005160106810F0400004D1116841F0400170
:105710001160CCE70020CAE7116841F480411160B4
:10572000EBE700BF59620008C966000803468068BD
:1057300070B418B95C68B4F5827F10D093F85C40FF
:10574000012C13D0012593F85D40AC4283F85C50E6
:105750000FD00220002283F85C2070BC704793F8C1
:105760005C000424012883F85D4031D1022070BC24
:10577000704759B3B2FA82F464093CBBDD68042671
:10578000A3F84420B5F5E06F83F85D6019641C66EA
:105790009C63A3F846209C871C65DC871A6853D855
:1057A0005168354C41F480515160DC64B0F5004FD4
:1057B00053D0516841F060015160106810F0400012
:1057C00049D1116841F040011160C3E70120C1E7F0
:1057D00093F85D000124C0B283F85C40A04201D080
:1057E0000428B6D10029F1D0002AEFD093F85D004B
:1057F000042802D0052083F85D00D868002499634E
:10580000B0F5E06F1C669A87DA871964A3F8442024
:10581000A3F8462026D81948012A19491865D964E1
:1058200024D819684A6842F480524A604A6842F0B3
:10583000E0024A600A6812F040020CD10C6810467F
:1058400044F040040C6085E751680E4C21F480510F
:105850005160DC64AAE700207CE7116821F48041F4
:105860001160A6E70849094A1965DA6419684A68A7
:1058700022F480524A60D9E7D96200084D680008D6
:10588000496300085D660008CD67000849670008A5
:1058900030B4044690F85C00012811D094F85D0003
:1058A0000125C0B284F85C50A84211D06568B5F5F6
:1058B000827F08D00220002384F85C3030BC70471F
:1058C000022030BC7047A568002DF3D10428F1D127
:1058D000002B18BF002A2DD061B394F85D00042876
:1058E00002D0052084F85D00E0680025A163B0F5D2
:1058F000E06F2566A387E3872264A4F84430A4F808
:10590000463019D81249012B124A2165E26417D892
:1059100023685A6842F480525A605A6842F0E002A2
:105920005A60186810F0400010D11A6842F0400226
:105930001A60C0E70120BEE7074A084B2265E3640E
:1059400023685A6822F480525A60E6E70020B2E7E2
:105950004D68000849630008CD67000849670008E2
:10596000F8B590F85C30012B0CD00446012094F877
:105970005D3084F85C00834206D00220002384F866
:105980005C30F8BD0220F8BD00294FD0B2FA82F396
:105990005B09002B4AD1A0680325A287B0F5004F10
:1059A00084F85D50A16323662364E2872365E36482
:1059B000A4F84430A4F84630226842D0606D002636
:1059C000274D5368274FC56323F48043E568076478
:1059D000B5F5E06F244F0665C76453600FD883693F
:1059E000B3F5005F0BD1E38F13F0010F53682DD196
:1059F00023F480435360E38FC3F34E03E387E38FC5
:105A00000C329BB2FCF7C4F890B923681A685206AE
:105A100003D41A6842F040021A605A6842F0200229
:105A20005A605A6842F002025A60A7E70120A5E7CF
:105A3000236E012243F010031046236684F85D2094
:105A40009CE7136843F480431360B7E743F4804353
:105A50005360E38FC3F34E030133E387CFE700BF07
:105A60002D6400082962000809640008F8B58368FD
:105A700004461BB94068B0F5827F0FD094F85C00F3
:105A8000012812D0012594F85D00A84284F85C50EA
:105A90000DD00220002384F85C30F8BD94F85C300F
:105AA0000420012B84F85D004ED10220F8BD0029AE
:105AB00048D0B2FA82F04009002843D10425B3F55A
:105AC000004F216484F85D50A4F844202066E0640F
:105AD000A4F846202065A087E087236800F0A58011
