:020000040800F2
:1000000000000420DD8D0008D1870008D587000896
:10001000D9870008DD870008E1870008000000009C
:10002000000000000000000000000000E58700085C
:10003000E987000800000000ED870008F18700084C
:100040002D8E00082D8E00082D8E00082D8E0008A4
:100050002D8E00082D8E00082D8E00082D8E000894
:100060002D8E00082D8E00082D8E00082D8E000884
:100070002D8E00082D8E00082D8E00082D8E000874
:100080002D8E00082D8E00082D8E00082D8E000864
:100090002D8E00082D8E00082D8E00082D8E000854
:1000A0002D8E00082D8E00082D8E00082D8E000844
:1000B0002D8E00082D8E00082D8E00082D8E000834
:1000C0002D8E00082D8E00082D8E0008F587000863
:1000D0002D8E00082D8E00082D8E00082D8E000814
:1000E0002D8E00082D8E00082D8E00082D8E000804
:1000F0002D8E00082D8E00082D8E00082D8E0008F4
:100100002D8E00082D8E00082D8E00082D8E0008E3
:100110002D8E00082D8E00082D8E00082D8E0008D3
:100120002D8E00082D8E0008018800080D8800081B
:100130002D8E0008000000000000000000000000FC
:100140000000000000000000000000002D8E0008EC
:100150002D8E00082D8E00082D8E00082D8E000893
:100160002D8E00082D8E00082D8E00082D8E000883
:100170002D8E000819880008000000000000000013
:100180002D8E00082D8E00082D8E00082D8E000863
:100190002D8E00082D8E0008000000002D8E000816
:1001A0000000000000000000000000002D8E00088C
:1001B0002D8E00082D8E00080000000000000000B9
:1001C000000000000000000000000000000000002F
:1001D0000000000000000000000000002D8E00085C
:1001E00010B5054C237833B9044B13B10448AFF371
:1001F00000800123237010BDE401002000000000F6
:10020000F09D000808B5034B1BB103490348AFF349
:10021000008008BD00000000E8010020F09D0008FB
:1002200001F0FF01102A2BDB10F0070F08D010F8A7
:10023000013B013A8B422DD010F0070F42B3F6D1AB
:10024000F0B441EA012141EA014122F007047FF0C4
:1002500000070023F0E80256083C85EA010586EA1B
:10026000010685FA47F5A3FA87F586FA47F6A5FA57
:1002700087F68EB9EED1F0BC01F0FF0102F0070263
:1002800032B110F8013B013A83EA010313B1F8D10E
:100290000020704701387047002D06BF35460338EF
:1002A000073815F0010F07D1013015F4807F02BF28
:1002B000013015F4C03F0130F0BC0138704700BF79
:1002C00081F0004102E000BF83F0004330B54FEA07
:1002D00041044FEA430594EA050F08BF90EA020F74
:1002E0001FBF54EA000C55EA020C7FEA645C7FEA07
:1002F000655C00F0E2804FEA5454D4EB5555B8BF2A
:100300006D420CDD2C4480EA020281EA030382EA9A
:10031000000083EA010180EA020281EA0303362D2C
:1003200088BF30BD11F0004F4FEA01314FF4801CFF
:100330004CEA113102D0404261EB410113F0004F11
:100340004FEA03334CEA133302D0524263EB4303C8
:1003500094EA050F00F0A780A4F10104D5F1200E66
:100360000DDB02FA0EFC22FA05F2801841F10001C1
:1003700003FA0EF2801843FA05F359410EE0A5F195
:1003800020050EF1200E012A03FA0EFC28BF4CF0C6
:10039000020C43FA05F3C01851EBE37101F000457C
:1003A00007D54FF0000EDCF1000C7EEB00006EEB89
:1003B0000101B1F5801F1BD3B1F5001F0CD3490813
:1003C0005FEA30004FEA3C0C04F101044FEA44526A
:1003D00012F5800F80F09A80BCF1004F08BF5FEAF1
:1003E000500C50F1000041EB045141EA050130BDD1
:1003F0005FEA4C0C404141EB010111F4801FA4F174
:100400000104E9D191F0000F04BF01460020B1FAC8
:1004100081F308BF2033A3F10B03B3F120020CDA00
:100420000C3208DD02F1140CC2F10C0201FA0CF0DE
:1004300021FA02F10CE002F11402D8BFC2F1200C43
:1004400001FA02F120FA0CFCDCBF41EA0C019040F9
:10045000E41AA2BF01EB0451294330BD6FEA040442
:100460001F3C1CDA0C340EDC04F11404C4F120022D
:1004700020FA04F001FA02F340EA030021FA04F33F
:1004800045EA030130BDC4F10C04C4F1200220FA96
:1004900002F001FA04F340EA0300294630BD21FAD4
:1004A00004F0294630BD94F0000F83F4801306BF9A
:1004B00081F480110134013D4EE77FEA645C18BF8E
:1004C0007FEA655C29D094EA050F08BF90EA020F25
:1004D00005D054EA000C04BF1946104630BD91EA1D
:1004E000030F1EBF0021002030BD5FEA545C05D120
:1004F0004000494128BF41F0004130BD14F580045F
:100500003CBF01F5801130BD01F0004545F0FE41D2
:1005100041F470014FF0000030BD7FEA645C1ABF07
:10052000194610467FEA655C1CBF0B46024650EA3E
:10053000013406BF52EA033591EA030F41F400216A
:1005400030BD00BF90F0000F04BF0021704730B5F0
:100550004FF4806404F132044FF000054FF00001C5
:1005600050E700BF90F0000F04BF0021704730B586
:100570004FF4806404F1320410F0004548BF40425B
:100580004FF000013EE700BF42004FEAE2014FEAB0
:1005900031014FEA02701FBF12F07F4393F07F4F8B
:1005A00081F06051704792F0000F14BF93F07F4FBD
:1005B000704730B54FF4607401F0004521F0004100
:1005C00020E700BF50EA010208BF704730B54FF086
:1005D00000050AE050EA010208BF704730B511F08B
:1005E000004502D5404261EB41014FF4806404F1C3
:1005F00032045FEA915C3FF4DCAE4FF003025FEA45
:10060000DC0C18BF03325FEADC0C18BF033202EBCC
:10061000DC02C2F1200300FA03FC20FA02F001FA26
:1006200003FE40EA0E0021FA02F11444C1E600BFC5
:1006300070B54FF0FF0C4CF4E06C1CEA11541DBF78
:100640001CEA135594EA0C0F95EA0C0F00F0DEF843
:100650002C4481EA030621EA4C5123EA4C5350EA28
:10066000013518BF52EA033541F4801143F4801379
:1006700038D0A0FB02CE4FF00005E1FB02E506F00A
:100680000042E0FB03E54FF00006E1FB03569CF05F
:10069000000F18BF4EF0010EA4F1FF04B6F5007F65
:1006A00064F5407404D25FEA4E0E6D4146EB0606D7
:1006B00042EAC62141EA55514FEAC52040EA5E5060
:1006C0004FEACE2EB4F1FD0C88BFBCF5E06F1ED80A
:1006D000BEF1004F08BF5FEA500E50F1000041EB41
:1006E000045170BD06F0004646EA010140EA0200EE
:1006F00081EA0301B4EB5C04C2BFD4EB0C0541EA10
:10070000045170BD41F480114FF0000E013C00F324
:10071000AB8014F1360FDEBF002001F0004170BD48
:10072000C4F10004203C35DA0C341BDC04F1140461
:10073000C4F1200500FA05F320FA04F001FA05F2ED
:1007400040EA020001F0004221F0004110EBD370BA
:1007500021FA04F642EB06015EEA430E08BF20EAE6
:10076000D37070BDC4F10C04C4F1200500FA04F389
:1007700020FA05F001FA04F240EA020001F000411B
:1007800010EBD37041F100015EEA430E08BF20EA8E
:10079000D37070BDC4F1200500FA05F24EEA020ED6
:1007A00020FA04F301FA05F243EA020321FA04F005
:1007B00001F0004121FA04F220EA020000EBD370BC
:1007C0005EEA430E08BF20EAD37070BD94F0000FBC
:1007D0000FD101F00046400041EB010111F4801FF0
:1007E00008BF013CF7D041EA060195F0000F18BFA1
:1007F000704703F00046520043EB030313F4801FDD
:1008000008BF013DF7D043EA0603704794EA0C0F96
:100810000CEA135518BF95EA0C0F0CD050EA4106AC
:1008200018BF52EA4306D1D181EA030101F0004129
:100830004FF0000070BD50EA410606BF1046194651
:1008400052EA430619D094EA0C0F02D150EA01365D
:1008500013D195EA0C0F05D152EA03361CBF10469E
:1008600019460AD181EA030101F0004141F0FE413D
:1008700041F470014FF0000070BD41F0FE4141F4C1
:10088000780170BD70B54FF0FF0C4CF4E06C1CEAC1
:1008900011541DBF1CEA135594EA0C0F95EA0C0F76
:1008A00000F0A7F8A4EB050481EA030E52EA033531
:1008B0004FEA013100F088804FEA03334FF0805552
:1008C00045EA131343EA12634FEA022245EA11157F
:1008D00045EA10654FEA00260EF000419D4208BF30
:1008E000964244F1FD0404F5407402D25B084FEADD
:1008F0003202B61A65EB03055B084FEA32024FF489
:1009000080104FF4002CB6EB020E75EB030E22BFE5
:10091000B61A754640EA0C005B084FEA3202B6EBA5
:10092000020E75EB030E22BFB61A754640EA5C0054
:100930005B084FEA3202B6EB020E75EB030E22BFE4
:10094000B61A754640EA9C005B084FEA3202B6EBE5
:10095000020E75EB030E22BFB61A754640EADC00A4
:1009600055EA060E18D04FEA051545EA16754FEA06
:1009700006164FEAC30343EA52734FEAC2025FEA24
:100980001C1CC0D111F4801F0BD141EA00014FF0B3
:1009900000004FF0004CB6E711F4801F04BF014384
:1009A0000020B4F1FD0C88BFBCF5E06F3FF6AFAEA0
:1009B000B5EB030C04BFB6EB020C5FEA500C50F130
:1009C000000041EB045170BD0EF0004E4EEA1131B3
:1009D00014EB5C04C2BFD4EB0C0541EA045170BDBA
:1009E00041F480114FF0000E013C90E645EA060EFE
:1009F0008DE60CEA135594EA0C0F08BF95EA0C0F2C
:100A00003FF43BAF94EA0C0F0AD150EA01347FF473
:100A100034AF95EA0C0F7FF425AF104619462CE74A
:100A200095EA0C0F06D152EA03353FF4FDAE1046AD
:100A3000194622E750EA410618BF52EA43067FF4FE
:100A4000C5AE50EA41047FF40DAF52EA43057FF48E
:100A5000EBAE12E74FF0FF3C06E000BF4FF0010C99
:100A600002E000BF4FF0010C4DF804CD4FEA410CFD
:100A70007FEA6C5C4FEA430C18BF7FEA6C5C1BD0CA
:100A800001B050EA410C0CBF52EA430C91EA030F4B
:100A900002BF90EA020F0020704710F1000F91EAA8
:100AA000030F58BF994208BF90422CBFD8176FEA76
:100AB000E37040F0010070474FEA410C7FEA6C5C44
:100AC00002D150EA013C07D14FEA430C7FEA6C5C4B
:100AD000D6D152EA033CD3D05DF8040B704700BF77
:100AE0008446104662468C461946634600E000BFC5
:100AF00001B5FFF7B7FF002848BF10F1000F01BD97
:100B00004DF808EDFFF7F4FF0CBF012000205DF861
:100B100008FB00BF4DF808EDFFF7EAFF34BF0120E6
:100B200000205DF808FB00BF4DF808EDFFF7E0FF7F
:100B300094BF012000205DF808FB00BF4DF808EDD0
:100B4000FFF7CEFF94BF012000205DF808FB00BF37
:100B50004DF808EDFFF7C4FF34BF012000205DF819
:100B600008FB00BF4A0011D212F5001211D20DD5B8
:100B70006FF47873B3EB62520ED44FEAC12343F0A3
:100B8000004343EA505323FA02F070474FF000004D
:100B9000704750EA013002D14FF0FF3070474FF0FC
:100BA0000000704753B94AB9002908BF00281CBF8C
:100BB0004FF0FF314FF0FF3000F07AB9ADF1080C83
:100BC0006DE904CE00F006F8DDF804E0DDE902236B
:100BD00004B070472DE9F0478C460D460446089E48
:100BE000002B51D18A4217466DD9B2FA82FEBEF16E
:100BF000000F0BD0CEF1200C01FA0EF520FA0CFC00
:100C000002FA0EF74CEA050C00FA0EF44FEA174A06
:100C1000250CBCFBFAF81FFA87F90AFB18CC45EA49
:100C20000C4508FB09F3AB420AD9ED1908F1FF3274
:100C300080F02381AB4240F22081A8F102083D44BC
:100C4000ED1AA4B2B5FBFAF00AFB105544EA0544CC
:100C500000FB09F9A14509D9E41900F1FF3380F03F
:100C60000A81A14540F2078102383C44A4EB090403
:100C700040EA08400021002E61D024FA0EF400233F
:100C800034607360BDE8F0878B4207D9002E54D0E2
:100C9000002186E821000846BDE8F087B3FA83F119
:100CA000002940F08E80AB4202D3824200F2FA80EB
:100CB000841A65EB03050120AC46002E3FD086E880
:100CC0001010BDE8F08712B90127B7FBF2F7B7FAA9
:100CD00087FEBEF1000F34D1EB1B3A0C1FFA87FCE4
:100CE0000121B3FBF2F8250C02FB183345EA03455A
:100CF0000CFB08F3AB4207D9ED1908F1FF3002D223
:100D0000AB4200F2D1808046ED1AA3B2B5FBF2F0FF
:100D100002FB105543EA05440CFB00FCA44507D92F
:100D2000E41900F1FF3302D2A44500F2B88018465E
:100D3000A4EB0C0440EA08409DE731463046BDE88C
:100D4000F087CEF1200405FA0EF307FA0EF720FA29
:100D500004F83A0C25FA04F448EA0308B4FBF2F16B
:100D60004FEA184502FB11441FFA87FC45EA044587
:100D700001FB0CF3AB4200FA0EF409D9ED1901F1B5
:100D8000FF3080F08A80AB4240F2878002393D44D8
:100D9000EB1A1FFA88F5B3FBF2F002FB103345EAB9
:100DA000034500FB0CF3AB4207D9ED1900F1FF3806
:100DB0006FD2AB426DD902383D44EB1A40EA014193
:100DC0008FE7C1F1200722FA07F88B4005FA01F4FA
:100DD00048EA030320FA07FE4FEA134CFD404EEAAF
:100DE000040EB5FBFCF94FEA1E440CFB19551FFA23
:100DF00083F844EA054509FB08F4AC4202FA01F223
:100E000000FA01FA08D9ED1809F1FF3043D2AC42DB
:100E100041D9A9F102091D442D1B1FFA8EFEB5FB15
:100E2000FCF00CFB10554EEA054400FB08F8A04509
:100E300007D9E41800F1FF3529D2A04527D9023897
:100E40001C4440EA0940A4EB0804A0FB02894C457D
:100E5000C6464D4615D312D056B1BAEB0E0364EB1D
:100E6000050404FA07F7CB401F43CC403760746099
:100E70000021BDE8F0871846F8E69046E0E6C24556
:100E8000EAD2B8EB020E69EB03050138E4E7284625
:100E9000D7E7404691E78146BEE7014678E702384A
:100EA0003C4445E7084608E7A8F102083D442BE723
:100EB000704700BF0E4A4FF47A730E491278B3FBA5
:100EC000F2F310B504460868B0FBF3F000F0B0FA96
:100ED00058B90F2C09D8002221464FF0FF3000F0FE
:100EE0004BFA054B00201C6010BD012010BD00BF57
:100EF00000000020FC0000200400002008B50320B2
:100F000000F026FA0020FFF7D5FF07F021FB0020B4
:100F100008BD00BF034A044B11681B780B441360E3
:100F2000704700BF1402002000000020014B186829
:100F3000704700BF1402002038B50446FFF7F6FFE3
:100F40000546631C02D0044B1B781C44FFF7EEFFE0
:100F5000401B8442FAD838BD00000020002800F071
:100F6000A580F8B5056C04463DB1236CDB060CD5B5
:100F70000023012084F83C30F8BD07F001FB6564D4
:100F8000236C84F83C50DB06F2D4236C484A494970
:100F90001A402368484E42F0020222644A6822F452
:100FA00040324A604A68606802434A605A68206971
:100FB00022F48072A168E7685A605D68A26A45EA17
:100FC0000025B2425D605D6825F040755D6058683F
:100FD00040EA01005860986820F4006098609968C1
:100FE00041EA0701996049D09968E06A21F070618F
:100FF000996099680A439A60996821F04051996014
:101000009A6802439A609968A56921F0020194F8F0
:10101000200099609A6842EA45029A60002836D119
:101020005A6822F400625A60D86A0026E56920F402
:10103000700094F830E067696A1ED8623046DD6A55
:1010400045EA0255DD629D6825F400759D6099684A
:1010500041EA4E219960996821F4806199609A680B
:1010600042EA87229A606664236C23F0030343F00C
:1010700001032364002384F83C30F8BD9A6822F011
:1010800070629A609A6822F040529A60BBE7586892
:10109000626A40F40060511E58605A6822F460424F
:1010A0005A605A6842EA41325A60BDE701207047EF
:1010B000FDEEFFFF002301400100000F90F83C30DF
:1010C000002210B4012B83B0019253D00268012199
:1010D000936880F83C10D90714D4364B364C1B6803
:1010E0009168A4FB034341F001019B0C916003EB69
:1010F00043030193019B2BB1019B013B0193019B96
:10110000002BF9D19368DB072FD5016C2B4B0B40DB
:1011100043F48073036453685C0505D5036C23F4C2
:10112000405343F480530364036C13F4805326D17B
:1011300043646FF022010024214B80F83C40116091
:101140005968C90608D1906810F040500DD19368D5
:1011500043F08043936009E01A498A421DD05B68DE
:10116000DB0602D418498A420ED0002003B05DF895
:10117000044B7047022003B05DF8044B7047436C8A
:1011800023F006034364D4E7886810F04050ECD1A4
:101190008B6843F080438B60E8E7936813F0405F0F
:1011A00003D1936843F080439360054B00205B6854
:1011B000DCE700BFFC00002083DE1B43FEF8FFFFDE
:1011C0000023014000200140002201400368D86C48
:1011D000704700BF90F83C300022F0B5012B83B07F
:1011E00001925DD00D68012307270468092D80F85E
:1011F0003C30AEB230D9B5F1004F2DD006EB4603EE
:10120000E268DFF840E11E3B754507FA03F722EA82
:101210000702E26000F081808A68E76802FA03F35F
:101220003B43E3604B68062B27D803EB83031F2166
:10123000626B053B994006FA03F322EA01026263FE
:10124000626B134363633E4B9C423BD0002380F8A8
:101250003C30184603B0F0BD06EB460E22698B68A1
:1012600007FA0EF703FA0EF322EA07022261226957
:10127000134323614B68062BD7D90C2B13D803EBF0
:1012800083031F27226BA3F1230107FA01F306FA58
:1012900001F122EA03032363236B19432163D2E79D
:1012A000022003B0F0BD03EB83021F27E36A413A3B
:1012B000974006FA02F123EA0703E362E26A114368
:1012C000E162C0E7B5F1004F34D0122D2CD01D4B98
:1012D0009D4201D0112DB9D11B4A1A4953688D4244
:1012E00043F400035360B1D102F14672174B02F58B
:1012F0002E321B6802F28332A2FB03239B0C03EB0A
:1013000083035B000193019B002B9FD0019B013B5A
:101310000193019B002BF9D198E7E36812268A68B4
:1013200043EA0263E3607DE7074A536843F48003BE
:1013300053608BE7044A536823F44003536085E706
:10134000002001401200001000230140FC0000209A
:1013500007490002074BCA6800F4E06010B44FF67A
:10136000FF0422405DF8044B13431843C8607047E4
:1013700000ED00E00000FA05194B70B4DC68C4F31E
:101380000224C4F10706231D042E28BF0426062BC1
:1013900019D9033C0125A540013D2A40012300281D
:1013A00003FA06F303F1FF3301EA030101FA04F142
:1013B00041EA02010ADB09010A4BC9B2034483F87E
:1013C000001370BC704700221446E7E700F00F00DE
:1013D0000901054BC9B20344197670BC704700BFC0
:1013E00000ED00E000E100E0FCEC00E0002807DB9D
:1013F00000F01F0101234009024A8B4042F82030CF
:10140000704700BF00E100E000280DDB4309012226
:1014100000F01F000549203302FA00F041F82300D4
:10142000BFF34F8FBFF36F8F704700BF00E100E045
:101430000138B0F1807F0DD2074B0022072130B474
:10144000F025064C5860104684F823509A601960C5
:1014500030BC70470120704710E000E000ED00E074
:10146000F8B50446FFF762FD002C76D0022223680F
:101470000021054684F835201A6884F8341022F0DB
:1014800001021A6005E0FFF751FD401B05283ED818
:1014900023681A68D107F6D4A1686268E0680A4335
:1014A000216965690243A669E0690A43374F1968F3
:1014B0002A43656A0F40216A3243042D42EA000242
:1014C00042EA010242EA070228D01A605A6922F071
:1014D00007021543DAB22E482E49103A5D61012504
:1014E000A0FB02021209885C032A2B4A4FF000017C
:1014F000E06502EA03024FF03F0388BF04328340F5
:101500000846A2659360616584F83550F8BD0323F1
:1015100020221846626584F83530F8BDE06A216BF8
:10152000A76A014347F004050A431A605A6922F08A
:10153000070215430028CDD08EB1B6F5005F18D054
:10154000022F03D9032FC5D1C201C3D501234022E5
:101550001846626584F83530F8BD0120F8BD012FCA
:1015600003D0F1D3022FB5D1EEE7B0F1C07FB1D1F6
:10157000ECE7032FAED801A252F827F04D15000872
:10158000491500084D1500086B1500083F8010E054
:10159000ABAAAAAA089E000800FCFFFF002836D0CC
:1015A000034690F83500C0B202282FD01A680020F8
:1015B000D1B2F0B41039174F14682126A7FB01717E
:1015C000154D24F00104090914603F246D5C0329C2
:1015D000124904FA05F4106001EA020150609060BB
:1015E00088BF0431D060106156610022DD659965C5
:1015F00010468C605A65DA631A645A649A64DA6435
:101600001A6583F8352083F83420F0BC7047012038
:10161000704700BFABAAAAAA089E000800FCFFFF03
:10162000F0B490F83440012C0ED0012590F83540EC
:10163000866DAC4280F834500AD00022022380F834
:1016400034201846F0BC70470223F0BC184670479F
:1016500004680227002580F835704565876825688D
:10166000402F25F480252560636019D0A160E260D9
:10167000C16D3F23026C8B40B360236843F01603B7
:101680002360636943F0800363611AB1236843F008
:10169000080323602268002342F001022260D0E7A1
:1016A000A260E160E4E700BF70B50446866DFFF715
:1016B0003DFC94F83530022B06D080220023012017
:1016C000626584F8343070BD23680546216C1A6861
:1016D00022F016021A605A6922F080025A6139B368
:1016E0001A6822F008021A601A6822F001021A60D1
:1016F00005E0FFF71BFC401B05280FD823681B687B
:1017000013F00103F5D1E56D3F2201211846AA40EF
:10171000B26084F8343084F8351070BD0323202182
:1017200000226165184684F8342084F8353070BD95
:10173000A26C002AD4D1D7E790F835200346022ABC
:1017400003D0802201205A657047026805210020DD
:1017500083F83510136823F001031360704700BF4E
:10176000F0B5044683B000200822A76DE36D019018
:101770009A403D68604915420E6803D021680868A8
:10178000400776D401229A40154203D02168496966
:10179000080668D404229A40154203D021680968DB
:1017A00089075AD410229A40154203D0216808684C
:1017B00000073FD420229A40154203D021680868D0
:1017C000C00625D4636D0BB3636DDA071AD5052304
:1017D00021684A4A84F83530A2FB06320B6823F0B0
:1017E0000103920A0B6002E00B68DB0704D5019B42
:1017F00001339A420193F7D20022012384F8342066
:1018000084F83530E36C0BB12046984703B0F0BD47
:10181000BA6094F83520052A3BD00B6813F4802F6A
:101820000B6854D019035FD5E36B002BCAD0204658
:101830009847C7E7BA600A6812F4802F0A6822D175
:10184000D20503D40A6822F008020A60226C002A3A
:10185000B0D020469047E36DACE7BA60626D42F0CD
:10186000040262659EE7BA60626D42F00202626540
:1018700090E7086820F004000860BA60626D42F0EA
:10188000010262657EE71103E0D5A26C002AE0D177
:1018900090E70A68206C22F016020A604A6922F07A
:1018A00080024A6120B30A6822F008020A603F22DF
:1018B00000250120216D02FA03F3BB6084F8345047
:1018C00084F835000029A1D0204688479EE713F40C
:1018D0008073A9D10A68012022F010020A6084F8FE
:1018E000343084F835009FE7636C002B9FD169E7A3
:1018F000A26C002AD7D1DAE7FC000020B5814E1B8C
:101900002DE9F04F002583B08846D1F800902A4693
:10191000DFF8E0C104E001320235102A00F0A480B3
:101920000123934003EA09018B42F4D1D8F8046003
:1019300026F010077B1E012B4FF0030340F2978027
:10194000AB40DB43C468022F04EA030ED8F808401A
:1019500004FA05F444EA0E04C46015D1D70802F075
:10196000070B4FF00F0AD8F8104000EB87074FEA3B
:101970008B0BD7F820E00AFA0BFA04FA0BF42EEAE4
:101980000A0E44EA0E043C62076806F003041F4096
:101990002346AB403B430360F300BCD5504B22F0E1
:1019A00003074FF00F0E5C6C02F0030307F1804752
:1019B00044F480444FEA830A494B07F59C370EFAFA
:1019C0000AFE5C645C6CA3F5605304F480449842A6
:1019D0000194019CBC6824EA0E0460D003F5806386
:1019E00098425ED03F4B984260D03F4B984262D0C5
:1019F0003E4B984264D03E4B984266D0DFF8F8E008
:101A0000704567D0DFF8F4E070450CBF4FF0070E6B
:101A10004FF0080E0EFA0AF32343CC43013202358D
:101A2000BB60F703DCF8003054BF23400B43B7031F
:101A3000CCF80030DCF8043054BF23400B43F702ED
:101A4000CCF80430DCF8083054BF23400B43B60216
:101A5000CCF80830DCF80C3054BF23400B43102A7C
:101A6000CCF80C307FF45CAF03B0BDE8F08FAB4036
:101A7000D0F808B0D8F80C40C6F3001EDB4304FAD7
:101A800005FA0EFA02FE0BEA03044AEA0404846033
:101A9000446824EA01044EEA0404446052E7002347
:101AA000BAE74FF0010E0EFA0AF3B5E74FF0020E57
:101AB0000EFA0AF3B0E74FF0030E0EFA0AF3ABE7A3
:101AC0004FF0040E0EFA0AF3A6E74FF0050E0EFAD9
:101AD0000AF3A1E74FF0060E0EFA0AF39CE700BFE7
:101AE0000038024000080240000C02400010024092
:101AF00000140240003C014000180240001C02405B
:101B00002DE9F04F0023DFF84CA1DFF84C91DFF80E
:101B10004C81DFF84CB102E00133102B58D0012585
:101B200005FA03F202EA0106B242F5D123F00307F7
:101B300003F003044FF00F0E484557444FEA840466
:101B4000D7F808C00EFA04FE0CEA0E0C5CD058451B
:101B500012D03A4DA84259D0394DA8425AD0394DE9
:101B6000A8425BD0384DA8425CD0384DA8425DD029
:101B7000374DA8425ED0082505FA04F4A44529D0C3
:101B800003255C00D0F800E00F2705FA04F423FADF
:101B900005F603F007050133E44300EB8606AD00CC
:101BA000102B0EEA040E07FA05F7C0F800E0356ABC
:101BB00025EA07053562C56805EA0405C56045687C
:101BC00025EA02024260826804EA02048460A6D127
:101BD000BDE8F08FD8F80040F6433440C8F8004024
:101BE000D8F804403440C8F80440D8F808403440DD
:101BF000C8F80840D8F80C402640C8F80C60BC680B
:101C000024EA0E04BC60BBE70024B7E7022505FA0E
:101C100004F4B3E7032505FA04F4AFE7042505FA55
:101C200004F4ABE7052505FA04F4A7E7062505FA51
:101C300004F4A3E7072505FA04F49FE7000802402F
:101C4000000C024000100240001402400018024044
:101C5000001C02400038014000000240003C0140EE
:101C6000000402400369194214BF0120002070479C
:101C700002B9090481617047F0B58BB0002800F00B
:101C80008B8090F8BD330446056803F0FF02002BFB
:101C90007CD0284603236F46261D84F8BD33EB6BAA
:101CA000254613F4807308BF236103F05FF855F8ED
:101CB00010CBAE46BEE80F000FC7BEE80F000FC73F
:101CC0009EE8030087E80300604696E80E0002F0F5
:101CD0004BFF074630B101250223284684F8BD3367
:101CE0000BB0F0BD0146206803F048F8606860B3AF
:101CF00039464FF0010E3A46C1EBC1034F1C04EBCD
:101D0000830383F83C10A3F84210F9B283F83DE056
:101D1000814283F83F205A649A641A65ECD300220A
:101D20001146C2EBC203571C04EB830383F8FC216A
:101D3000FAB283F8FD11824283F8FF11C3F804124E
:101D4000C3F80812C3F81012EBD30FCD6F46D4F8C6
:101D500000E00FC70FCD0FC795E8030087E8030029
:101D6000704696E80E0003F025F805460028B2D12B
:101D70000122636A84F83800934284F8BD230FD0AF
:101D8000206803F0F3FB28460BB0F0BD80F8BC23BD
:101D900006F0D0FD20687DE7012528460BB0F0BD98
:101DA000204600F0E1FCEBE790F8BC33012B01D1B9
:101DB0000220704710B501230446006884F8BC3344
:101DC00003F0C8FB206802F0C9FF002084F8BC03C0
:101DD00010BD00BF2DE9F04F076889B004463846B2
:101DE00003F002FC10B109B0BDE8F08F0646206890
:101DF00003F0C8FB0028F6D0206803F0C3FB10F006
:101E0000020F206803D0436903F00203436103F02B
:101E1000B9FB10F0100F206811D0836923F0100374
:101E200083613D6AC5F3434305F00F08022B00F0C0
:101E30007882062B77D0836943F01003836103F027
:101E4000A1FB10F4002F206840F0D78003F09AFB2C
:101E500043037BD423680393039803F093FB002888
:101E6000C0F29681206803F08DFB00054CD42068F9
:101E700003F088FB020113D5226894F8F413536928
:101E800003F000635361002949D1536D01212046BD
:101E9000C3F3830384F8F413C4F8F83306F0CCFEDC
:101EA000206803F06FFBC30400F12081206803F079
:101EB00069FB10F4005F206840F0018103F062FBD1
:101EC000070700F1F380206803F05CFBC60200F115
:101ED000E380206803F056FB850200F1D380206880
:101EE00003F050FB400000F1C480206803F04AFB7F
:101EF00041077FF578AF23685D686A0700F1FE81CE
:101F00005A6815435D606EE7D7F80838D90700F1C5
:101F1000FA812068436903F400634361A8E720461F
:101F200006F08CFDBCE7C8EBC808082204F5717107
:101F3000384603F091FAC5F30A1304EB88022068CF
:101F4000D2F814120B44C2F8143274E7206803F07C
:101F500025FB23688146039300283FF47DAFA0460C
:101F600007F5106B4FF0000A0497059609E05FEA49
:101F700059090AF1010A08F11C080BF1200B00F0C5
:101F80001D8119F0010FF2D05FFA8AF603983146ED
:101F900003F016FB0546E80715D50127049B0AF058
:101FA0000F002169D3F8342807FA00F0B94222EA79
:101FB0000002C3F83428CBF8087000F0D481314611
:101FC000204606F017FD290702D50823CBF8083074
:101FD000EA0602D51023CBF808306B0602D5402361
:101FE000CBF80830AF0702D50223CBF808302D0616
:101FF00000F1028123680393B9E703F0C7FA0546AD
:10200000002800F0138207F53068A2464FF000095F
:102010002068039608E06D0809F1010908F120081D
:102020000AF11C0A00F0C880EE07F4D55FFA89F6C1
:10203000314603F0BBFA834620681BF0010F40F0E5
:102040003F811BF0080F40F0BC801BF0100F02D046
:102050001023C8F808301BF0200F02D02023C8F846
:1020600008301BF4005FD6D04FF40053C8F8083096
:10207000D1E7204606F006FD2068436903F080435F
:10208000436133E72046002106F0F4FC20684369F1
:1020900003F40013436123E72046002106F0EEFC21
:1020A0002068436903F48013436113E7204606F078
:1020B000ABFC2068436903F00803436104E703F0C5
:1020C00097FA206802F064FF2568E06000F0CAFE1D
:1020D000227B0146284602F0C1FD204606F098FC0E
:1020E0002068436903F400534361E7E607F50065A0
:1020F0006B682068102123F001036B6002F026FF5B
:10210000606808B307F510634FF67F3199600136B8
:102110001A682033864222F4001243F8202C53F828
:10212000202C42F0006243F8202CC3F8E811D3F8C9
:10213000E02122F40012C3F8E021D3F8E02142F0BC
:102140000062C3F8E021E1D1EB69226B43F0011397
:10215000EB61002A00F0DB80D5F8843043F00B03FC
:10216000C5F884306B6C43F00B036B64D7F8003810
:1021700004F57172217C23F4FE632068C7F80038EF
:1021800003F04CFA2068436903F4805343618EE600
:1021900094F8F413D7F80428012922F00102C7F8B3
:1021A000042800F0F580204606F060FC20684369B2
:1021B00003F00043436156E6039E47E6049F059EF5
:1021C0004AE6082200F53063C8F8082003EB4913FB
:1021D000026C9C489968824240F2C0800E0402D58D
:1021E0004FF400429A60204606F0F4FB2169012971
:1021F00000F01681206828E7D8F85430D8F850202D
:102200002768934203973FF6B2AED51AD8F8440038
:1022100007F510618542AE4601EB4A1128BF86469C
:10222000069189690EF1030E89B2B1EB9E0F35D389
:10223000A2B3934232D2CDF81CB0D8F84810DDF8E2
:1022400018B00BE0D8F850209A42A2EB030540F2F8
:10225000BC80002A00F0B980D8F84400854232469C
:1022600028BF0546207CABB20090384603F0DCF86E
:10227000DBF81820D8F84810E81CD8F8543092B28F
:1022800029442B44B2EB900FC8F84810C8F85430DA
:10229000D8D2DDF81CB0D8F8502027689A4200F256
:1022A0008B80039B0AF00F020120039703F5006166
:1022B000D3F8343800FA02F223EA02034B6356E6FD
:1022C000216900F53062012302EB49120129C8F8A7
:1022D0000830D0F840E0936861D05B498E456DD0FE
:1022E000B9F1000F04D1D4F81022002A00F0A08028
:1022F0002046314606F074FB2068A2E6204606F030
:10230000C5FB2368FCE5204606F098FB01E66A69F8
:1023100042F22B0313436B612B6943F00B032B61D8
:1023200024E747F6F0731D423FF485ADC8EBC808BB
:10233000C5F30A15384604EB88082A46D8F808126F
:1023400003F08AF8D8F80822D8F814322A44206812
:102350001D44C8F80822C8F814526CE5204606F05F
:1023600039FB206871E6D8F84830D8F84420134487
:10237000C8F84830BAF1000F7FF421AE236D002B6E
:102380007FF41DAE04F57172206803F047F916E67C
:102390000021204684F8F41306F04EFC06E71907E6
:1023A00017D528498E457FF64CAE1E047FF549AE01
:1023B0004FF40043936044E60397D8E51904F7D43B
:1023C0009B0695D52021916092E7DDF81CB0276827
:1023D00064E7990632D413F0280F7FF432AE19491E
:1023E0008E4501D91B04E3D41269DAF80432DAF815
:1023F0000812C2F3120219449A1ACAF80812CAF84B
:102400001422B9F1000F7FF473AFD4F81022002A20
:102410007FF46EAF04F57172012103F0FFF867E7F6
:1024200004F57172206803F0F9F8E3E620680DE521
:1024300004F57172494603F0F1F859E720239360DF
:10244000FFE500BF0A30544F0A31544F90F8BC23C7
:10245000012A01D10220704710B50122044684F8F8
:102460003810006884F8BC2303F062F8002084F878
:10247000BC0310BD11F0800F70B501F00F044FF0D8
:102480001C0126D1C4EBC40501FB0401002600EBAE
:10249000850501F5FE7185F8FD614D780C708A6047
:1024A000CB7005B1CC80022B10D090F8BC33012B3F
:1024B00001D1022070BD04460123006884F8BC33BA
:1024C00002F072FD002084F8BC0370BD00230B7184
:1024D000EBE7C4EBC405012601FB040100EB850515
:1024E0003C3185F83D60D8E711F0800F01F00F0313
:1024F0004FF01C0110B51CD1C3EBC30201FB03015B
:10250000002400EB820201F5FE7182F8FD410B70A0
:1025100090F8BC33012B01D1022010BD04460123E9
:10252000006884F8BC3302F087FD002084F8BC0307
:1025300010BDC3EBC302012401FB030100EB8202C7
:102540003C3182F83D40E2E770B501F00F0500260E
:102550001C21C5EBC50401FB050100EB840401F55A
:10256000FE71C4F80822C4F8103284F8FC51C4F893
:10257000146284F8FD6103690068012B08BFC4F888
:102580000C22DAB21DB102F0B9FD002070BD02F0DC
:10259000CBFE002070BD00BF01F00F01C1EBC101F7
:1025A00000EB8101D1F81402704700BFF8B501F0CB
:1025B0000F05012600271C21C5EBC50401FB050101
:1025C00000EB84043C31A264236584F83C506765C9
:1025D00084F83D6003690068B34208BFE264DAB280
:1025E0001DB102F08BFD0020F8BD02F09DFE002021
:1025F000F8BD00BF38B5436801F00F059D4216D8FD
:102600000B0621D41C24C1EBC103002204FB0101F1
:1026100000EB830301F5FE7183F8FD2101230D70AA
:102620008B7090F8BC239A4203D1022038BD012060
:1026300038BD044680F8BC33006802F021FF7DB14C
:10264000002084F8BC0338BD1C21C5EBC503012262
:1026500001FB050100EB83033C3183F83D20DDE7FE
:1026600004F57172217C206802F0D8FFE8E700BF12
:1026700038B5426801F00F03934218D811F0800F6B
:10268000C3EBC3024FF01C011ED101FB0301002468
:1026900000EB820201F5FE7182F8FD4100250B700E
:1026A0008D7090F8BC33012B03D1022038BD01207E
:1026B00038BD04460123006884F8BC3302F00CFFE7
:1026C00084F8BC53284638BD012401FB030100EB0C
:1026D00082023C3182F83D40E0E700BF90F8BC3315
:1026E000012B0DD0012310B580F8BC330B06044636
:1026F00008D4006802F03CFC002084F8BC0310BD44
:102700000220704701F00F01006802F01FFC00205A
:1027100084F8BC0310BD00BF30B405686C6AC9B151
:10272000AB6A013904EB13440BD0002303F14000E2
:10273000013305EB8000DBB240688B4204EB1044B0
:10274000F4D3403144EA0244002005EB81014C609F
:1027500030BC704744EA02440020AC6230BC704791
:10276000036800205962704703680121084A30B4A9
:10277000C0F8FC1304469969002541F0006184F813
:10278000F45328469961596D0A4330BC5A65704725
:10279000030000101B4A1C4B116C41F0805130B5F6
:1027A000116483B0126C1C4602F080520192019AAF
:1027B0001A6842F480321A60FEF7B8FB054605E05D
:1027C000FEF7B4FB401BB0F57A7F17D86368DA03D5
:1027D000F6D523680C4D43F400332360FEF7A6FBC7
:1027E000044605E0FEF7A2FB001BB0F57A7F05D892
:1027F0006B689B03F6D5002003B030BD032003B007
:1028000030BD00BF0038024000700040002800F0DA
:10281000FA8103682DE9F041DD0782B0044630D526
:10282000AA498A6802F00C02042A00F01A818A6818
:1028300002F00C02082A00F010816368B3F5803FB3
:1028400000F05281002B00F0DC80B3F5A02F9F4BED
:102850001A6800F0D08122F480321A601A6822F4DB
:1028600080221A60FEF762FB984D064605E0FEF7EF
:102870005DFB801B642800F2EC802B689A03F6D580
:1028800023689F0729D5914A916811F00C0F00F039
:102890008380916801F00C0108297AD0E368002B4D
:1028A00000F00A81894B1A681D4642F001021A6045
:1028B000FEF73CFB064605E0FEF738FB801B0228CE
:1028C00000F2C7802B689807F6D52B68226923F0A1
:1028D000F80343EAC2032B6023681A071FD45D077D
:1028E00036D57A4B1A6CD00074D50025784B1A680F
:1028F000D10540F19D80A368012B00F02581002BBC
:1029000000F0B980052B714B1A6F00F0378122F06F
:1029100001021A671A6F22F004021A6719E163694B
:10292000002B44D0694B5A6F1D4642F001025A6792
:10293000FEF7FCFA064605E0FEF7F8FA801B0228CF
:1029400000F287806B6F9B07F6D523685D07C8D4BC
:10295000A069D0B15D4B9A6802F00C02082A00F021
:10296000C98002281A6800F0118122F080721C468A
:102970001A60FEF7DBFA054604E0FEF7D7FA401BC3
:10298000022866D823689B01F7D4002002B0BDE876
:10299000F0815268560281D44C4A1268950724D5BA
:1029A000E268012A21D0012002B0BDE8F081474B46
:1029B0005A6F1D4622F001025A67FEF7B7FA064623
:1029C00004E0FEF7B3FA801B022842D86B6F9F0722
:1029D000F7D4BAE71A6C012542F080521A641B6CD6
:1029E00003F080530193019B80E7384920690A680E
:1029F00022F0F80242EAC0020A601A077FF56FAFC0
:102A00008DE7324B1A681D4622F480321A601A682C
:102A100022F480221A60FEF789FA064604E0FEF7E7
:102A200085FA801B642814D82B689B03F7D427E70A
:102A30001A681E4642F480721A60FEF777FA07465B
:102A40003368DA053FF557AFFEF770FAC01B64280C
:102A5000F6D9032002B0BDE8F0814A6850027FF544
:102A6000ECAE1A4A126891037FF50BAF6268002A38
:102A70007FF407AF97E7154B41F288381A6F1E466F
:102A800022F001021A671A6F22F004021A67FEF799
:102A90004DFA074604E0FEF749FAC01B4045D8D876
:102AA000336F9807F7D4002D3FF452AF074A136CE9
:102AB00023F0805313644BE7044B1A681D4622F041
:102AC00001021A60FEF732FA064608E000380240BA
:102AD00000700040FEF72AFA801B0228B9D82B6844
:102AE0009907F7D42368F8E6484A136843F480331B
:102AF0001360B7E601285A683FF448AF02F4800338
:102B0000E1698B427FF44FAF02F03F03216A8B42B1
:102B10007FF449AF47F6C073616A1340B3EB811F7E
:102B20007FF441AFA36A02F440315B08013BB1EB93
:102B3000034F7FF438AFE36A02F07062B2EB036FC9
:102B400014BF0120002021E7304A136F43F0010336
:102B50001367FEF7EBF92D4E804641F2883706E009
:102B6000FEF7E4F9A0EB0800B8423FF672AF336F0E
:102B70009B07F5D5002D3FF4EBAE97E742F004023A
:102B80001A671A6F42F001021A67E2E722F08072B8
:102B90001D461A60FEF7CAF9064605E0FEF7C6F9BB
:102BA000801B02283FF655AF2B689901F6D4226AA4
:102BB000E369606A1343A26AE16A43F00053520872
:102BC000124C43EA8013013A43EA016343EA0243A9
:102BD0006B602B6843F080732B60FEF7A7F9054606
:102BE00005E0FEF7A3F9401B02283FF632AF236849
:102BF0009A01F6D5C9E642F480221A601A6842F4B6
:102C000080321A602EE60120704700BF0038024073
:102C1000F0B50C4689B01646214D00B32B6B02204F
:102C200000224FF4007E43F00403032703A944EA83
:102C3000C6042B632B6B049003F004031948059220
:102C400002930792CDF80CE0029B0697FEF758FE20
:102C5000AA6822F078421443AC6009B0F0BD2B6B37
:102C60004FF4807E0322022743F0010303A92B6364
:102C70002B6B059003F0010307900B480193019B18
:102C80000692CDF80CE00497FEF73AFEAB6823F00D
:102C9000EC6343EA06021443AC6009B0F0BD00BF28
:102CA000003802400008024000000240024A136857
:102CB00043F400231360704700380240164908B5FA
:102CC0008B6803F00C03042B1BD0082B17D14A6828
:102CD0004B6802F03F02496813F4800313D10F4898
:102CE000C1F38811A1FB0001FDF75CFF0A4B5B6893
:102CF000C3F3014301335B00B0FBF3F008BD0748A9
:102D000008BD074808BD0648C1F388110023A1FB90
:102D10000001FDF747FFE9E7003802400024F40016
:102D200040787D0178B14A4A136803F00F038B4263
:102D30000BD2136823F00F030B431360136803F0E7
:102D40000F03994201D00120704703682DE9F0413B
:102D50009D0714D55C0704D53E4CA26842F4E052AE
:102D6000A2601A0704D53B4CA26842F46042A260FC
:102D7000384C8568A26822F0F0022A43A260DF077F
:102D800004460D4621D54268324B012A1B685CD0AF
:102D9000022A54D0990728D52E4941F288388B68E9
:102DA0000E4623F0030313438B60FEF7BFF807467C
:102DB00004E0FEF7BBF8C01B404543D8B368626827
:102DC00003F00C03B3EB820FF3D1214A136803F035
:102DD0000F039D420CD2136823F00F032B431360A3
:102DE000136803F00F039D4202D00120BDE8F0817B
:102DF00023685A0706D51749E0688A6822F4E0522A
:102E000002438A601B0707D5124A2169936823F49D
:102E1000604343EAC1039360FFF750FF0D4B0E4C34
:102E20009B680E49C3F303130D4AE35C20FA03F3D6
:102E300008681360FEF73EF80020BDE8F0819801B5
:102E4000AAD4D2E70320BDE8F0819E03A4D4CCE746
:102E5000003C024000380240849F0008040000202B
:102E6000FC000020014B1868704700BFFC000020E8
:102E7000044B054A9B680549C3F382230868D35C69
:102E8000D840704700380240949F0008FC000020A2
:102E9000044B054A9B680549C3F342330868D35C79
:102EA000D840704700380240949F0008FC00002082
:102EB000704700BF08B5054BDB681B0604D5FFF75C
:102EC000F7FF034B80221A7008BD00BF0038024094
:102ED0000E38024003682DE9F04313F0010683B079
:102EE00004460BD0AC4A916821F400019160C66A97
:102EF00091683143B6FA86F67609916013F400259D
:102F000010D0A549656BD1F88C20B5F5801F22F44F
:102F1000401242EA0502C1F88C2000F07681B5FA31
:102F200085F56D09DA0210D59B48A16BD0F88C208D
:102F3000B1F5800F22F4400242EA0102C0F88C2071
:102F400000F06181002908BF01259F0600F1108172
:102F5000DF060CD5904AD2F88C1021F08071C2F8AF
:102F60008C10D2F88C10206B0143C2F88C105804DE
:102F700008D58949E06DD1F8902022F4403202430F
:102F8000C1F89020190408D58349206ED1F890200B
:102F900022F440220243C1F89020DA0308D57E498A
:102FA000606ED1F8902022F440120243C1F89020C4
:102FB0005F0608D57849E06BD1F8902022F0030233
:102FC0000243C1F89020180608D57349206CD1F847
:102FD000902022F00C020243C1F89020D90508D5B8
:102FE0006D49606CD1F8902022F030020243C1F8A4
:102FF00090209A0508D56849A06CD1F8902022F05D
:10300000C0020243C1F890205F0508D56249E06C18
:10301000D1F8902022F440720243C1F890201805A4
:1030200008D55D49206DD1F8902022F4406202431A
:10303000C1F89020D90408D55749606DD1F8902087
:1030400022F440520243C1F890209A0408D5524914
:10305000A06DD1F8902022F440420243C1F89020A4
:103060009F020CD54C49606FD1F89020B0F1006FF1
:1030700022F0006208BF01250243C1F890205803E6
:1030800008D54549E06ED1F8902022F04072024305
:10309000C1F89020190208D53F49A06FD1F89020BF
:1030A00022F080520243C1F890205A010AD4B3F1B1
:1030B000007F14D09EB9012D00F0AA80002003B03B
:1030C000BDE8F0833449B3F1007FE06FD1F8902080
:1030D00022F0005242EA0002C1F89020EAD12E4BC1
:1030E0001A681E4622F080621A60FDF71FFF07462D
:1030F00004E0FDF71BFFC01B642835D833681B01B3
:10310000F7D42368DF0703D5E26A002A00F0C980FC
:10311000180304D5626BB2F5801F00F0E880D90275
:1031200004D5A26BB2F5800F00F0E1809A010AD5B8
:10313000E36860681B06A168174A43EA801343EA04
:103140000173C2F88430144B1A681E4642F0806244
:103150001A60FDF7EBFE074633681B01ABD4FDF7A1
:10316000E5FEC01B6428F7D9032003B0BDE8F08357
:10317000094A0A4B116C1F4641F080511164126CD0
:1031800002F080520192019A1A6842F480721A6029
:10319000FDF7CCFE804609E0003802400070004098
:1031A000FDF7C4FEA0EB08006428DDD83B68D80515
:1031B000F6D5664AA36A116F03F4407011F44071AA
:1031C00010D081420ED0116F176F21F4407147F477
:1031D00080371767176F27F4803717671167116FEC
:1031E000C9076FD4B0F5407F00F0988057498A68CE
:1031F00022F4F8128A60554AC3F30B03116F0B4394
:1032000013672368A4E601269FE60025012689E6C8
:103210004E4B1A681D4622F080521A60FDF786FE5A
:10322000064604E0FDF782FE801B64289CD82B68CC
:103230009F00F7D42368180340D4D90218D5A26B95
:10324000B2B942496269D1F888002569120600F4D2
:10325000403042EA85120243C1F88820D1F88C2020
:10326000206A22F4F852013842EA0022C1F88C2088
:103270009A0203D5636FB3F1006F58D0334B1A68CD
:103280001C4642F080521A60FDF750FE0546236846
:103290009B003FF513AFFDF749FE401B6428F6D9AC
:1032A00062E7A2686068D6F88410120701F07061C6
:1032B00042EA80120A43C6F8842029E7626B002A9A
:1032C000BFD0BAE7174641F28838FDF72FFE814696
:1032D00006E0FDF72BFEA0EB090040453FF644AFAA
:1032E0003B6F9B07F5D5A36A03F440707AE7174953
:1032F000E268D1F884006668120600F0E04042EA15
:1033000086120243C1F88420D1F88C00E26920F0D3
:103310001F00013A0243C1F88C2007E70B480C4913
:103320008268194022F4F8120A43826063E7074971
:10333000A369D1F8882020691B0402F0706243EA77
:1033400080131343C1F8883098E700BF003802406B
:10335000FFFCFF0F0268034640685168B0F5827FAA
:1033600021F0E001516013D0996AB1F5005F07D1F7
:10337000116821F400511160116841F4005111608D
:1033800001210022032083F85D1083F85C20704740
:103390009968B1F5004F02D0B1F5806FE4D11168A2
:1033A00021F040011160DFE7F8B5044690F85D00B8
:1033B0000125C0B284F85C50A8420DD06568B5F50F
:1033C000827F04D00220002384F85C30F8BDA56819
:1033D000002DF7D10428F5D1002B18BF002A4BD0BF
:1033E000002949D094F85D00042802D0052084F813
:1033F0005D0000262068E7682666E387B7F5E06F82
:10340000A4F846304568A16325F4C045A38722642B
:10341000A4F84430E6642665456032D8616D4268A0
:10342000896942F48052B1F5005F42606DD0A26DAF
:103430009369B3F5005F54D094F85D30042B4BD002
:103440004249434B1164D363B4F846300025414EE2
:1034500000F10C0115651046D6649BB2226CFEF794
:10346000DFF8054698B1236E012243F010031046A1
:10347000236684F85D20A6E70023012084F85C30F1
:10348000F8BD4368A26D23F480534360D4E72368FA
:10349000666D5F6803F10C02A16B304647F00107CF
:1034A0005F60E38F35649BB2F563F5643565FEF7C5
:1034B000B7F80028D7D123681A68520603D41A68CF
:1034C00042F040021A605A6842F020025A605A687C
:1034D00042F002025A6076E71F49204B1164D36321
:1034E000B2E7436823F480534360B4F8463013F0E6
:1034F000010F436815D123F400534360B4F84630FC
:10350000C3F34E03A4F8463096E713F0010F436867
:1035100012D123F480434360E38FC3F34E03E38768
:1035200085E743F400534360B4F84630C3F34E03D9
:103530000133A4F846307FE743F480434360E38FD0
:10354000C3F34E030133E38771E700BF094000086E
:103550009140000819400008F93F00083D4000086C
:1035600070B505460C4616462B6801E0621C04D176
:10357000986810F08000F9D170BDFDF7D7FC801B72
:103580008442F1D82846BDE87040FFF7E3BE00BF93
:10359000F8B506460C4615461F46316805E0B4F5F9
:1035A000C06F00D10A7B6B1C03D188682040F6D124
:1035B000F8BDFDF7BBFCC01B8542EED83046BDE828
:1035C000F840FFF7C7BE00BF1F4B642110B51B6852
:1035D00004461E4882B02268A0FB030310685B0A01
:1035E00020F0400001FB03F310600193536823F0C7
:1035F0004003536005E0019B013B019353685B0668
:1036000006D5019B002BF6D1236E43F040032366C1
:10361000FDF78CFC642102462046FFF7A1FF08B1AC
:1036200040232366FDF782FC642203464FF4C06109
:103630002046FFF7ADFF08B140232366072384F837
:103640005D3002B010BD00BFFC000020F11976050E
:10365000F8B5436804460E461746B3F5827F22D07C
:103660003A4631462046FFF77BFF054630B1236ED0
:10367000032543F0200323662846F8BD6368B3F5AD
:10368000827FF9D1A368B3F5004F02D0B3F5806F04
:10369000F2D13B4632464FF4C0612046FFF778FF37
:1036A0000028E4D1E8E78368B3F5004F02D0B3F512
:1036B000806FD5D12268136823F040031360CFE7F1
:1036C00070B50D46164613464FF4C0512A460446BF
:1036D000FFF75EFF28B1236E032043F0200323662B
:1036E00070BD324629462046FFF73AFF0028F2D146
:1036F00033462A464FF4C0612046FFF749FF0028B1
:10370000E9D1EDE7354B642110B51B680446344818
:1037100082B02268A0FB03035B0A01FB03F3019361
:10372000536823F08003536005E0019B013B019344
:103730005368180606D5019B002BF6D1236E43F083
:1037400040032366FDF7F2FB642102462046FFF7A3
:10375000B7FF08B1402323662268136823F04003B3
:103760001360FDF7E3FB642203464FF4C06120467B
:10377000FFF70EFF08B140232366226853685906FD
:1037800027D5536823F04003536005E0019B013BBC
:10379000019353685B0606D5019B002BF6D1236E7F
:1037A00043F040032366FDF7C1FB64210246204637
:1037B000FFF7D6FE08B140232366FDF7B7FB64226E
:1037C00003464FF4C0612046FFF7E2FE08B14023F4
:1037D0002366072384F85D3002B010BDFC00002092
:1037E000F11976052DE9F843044601200F4690466D
:1037F00084F85C009946089DFDF798FB94F85D20DD
:1038000006466168D2B2012A10D0B1F5827F08D095
:1038100002200122002384F85D2084F85C30BDE89A
:10382000F883A368002BF3D1042AF1D1B9F1000F7A
:1038300018BFB8F1000F23D017B394F85D30042BF4
:1038400002D0052384F85D300023B9F1010FC4F8DC
:1038500040802366E36423652368A4F84690A4F8B7
:103860004490A4F83E90A763A4F83C90E0685A689E
:1038700008D8B0F5E06F05D842F480525A6004E0F1
:103880000120C6E722F480525A601A68520603D417
:103890001A6842F040021A60B0F5E06F3FD8B9F103
:1038A000010F00F0B080002900F0AD800127E38F08
:1038B0009BB22BB9B4F846309BB2002B00F08E803F
:1038C00023689A68910704D5E28F92B20AB1002F5B
:1038D00061D19A68D20719D5B4F8462092B2AAB13C
:1038E000B4F8462092B2012A64D9DA68216C21F832
:1038F000022BB4F846202164023A92B2A4F8462082
:10390000B4F8462092B2012A62D90127FDF70EFBD6
:10391000801B8542CBD86B1CC9D0032079E70029D6
:1039200068D0B9F1010F65D00127E38F9BB223B9AD
:10393000B4F846309BB2002B50D023689A689107A8
:1039400003D5E28F92B202B1D7B99A68D2070FD5E8
:10395000B4F8462092B25AB1DB680127226C22F8F3
:10396000023BB4F846302264013B9BB2A4F84630D7
:10397000FDF7DCFA801BA842D7D3681CD5D0CCE772
:10398000A16B002731F8022BDA60E28FA163013AC4
:1039900092B2E287D9E7E28F92B2012A40D9A16BB5
:1039A000002731F8022BDA60E28FA163023A92B26B
:1039B000E2878EE71A7B0127236C1A70B4F8463031
:1039C000226C013B3A449BB22264A4F846309DE746
:1039D0005A68012742F480525A6097E732462946D6
:1039E0002046FFF76DFE00283FF413AF202301208F
:1039F00023660EE737F8022BDA60E38FA763013BFB
:103A00009BB2E38790E7E28F92B2012A15D937F88B
:103A1000022BDA60E38FA763023B9BB2E38745E7A3
:103A2000A26B002712781A73E28FA16B013A236808
:103A3000013192B2A163E2874BE73A781A73E38FC0
:103A4000A26B013B01329BB2A263E3872EE700BF6A
:103A500000285DD0002290F85D302DE9F0418262AF
:103A6000044603F0FF02002B4DD0E76802232268D2
:103A7000B7F5E06F84F85D3027F40061136894BFF8
:103A80004FF48055002523F04003B1F5E06F13603B
:103A900035D1A66A236B2BB9B7F5E06F8CBF022333
:103AA00001232363A1684FF00008636820690B437A
:103AB00061690343A0690B43E1694FEA104E00F4CA
:103AC000007C0B43616A0EF0040E40460F43216AEE
:103AD0000B43616B0F4343EA0C034FF0010C47EAC1
:103AE0000E0733433D4313605560D36923F40063ED
:103AF000D361C4F8608084F85DC0BDE8F081002324
:103B00001E46A362C6E780F85C2004F04FFDACE7D8
:103B10000120704798B10268022310B580F85D302B
:103B20000446136823F04003136004F0DDFD002316
:103B30002366184684F85D3084F85C3010BD01209F
:103B4000704700BF2DE9F04190F85C4082B0012C35
:103B500003D1022002B0BDE8F0811D4601230446D6
:103B6000904680F85C300F46FDF7E0F994F85D3040
:103B70000646012B09D002200122002384F85D2093
:103B800084F85C3002B0BDE8F081002F55D0B8FA5F
:103B900088F35B09002B50D1A26803212364B2F59E
:103BA000004F84F85D10A4F8443023662365E36475
:103BB000A4F83E80A763A4F84630A4F83C802368AC
:103BC00000F091801A68520603D41A6842F040024D
:103BD0001A60E268B2F5E06F626839D9002A79D0DC
:103BE000B8F1010F76D0E38F9BB283B1226893685E
:103BF0009F0724D5A36B33F8021BD160E18FA36329
:103C0000013989B2E187E38F9BB2002BEED13246B6
:103C100029462046FFF754FD08B120232366A368F8
:103C200033B922680193D368019393680193019B90
:103C3000206E003018BF01209EE701209CE7FDF7B1
:103C400075F9801BA842CED3681CCCD0032093E723
:103C5000002A32D0B8F1010F2FD0E18F89B20029AC
:103C6000D5D022689368990714D5E38F9BB2012BB6
:103C700018D9A16B31F8023BD360E38FA163023BFB
:103C80009BB2E387E18F89B20029C0D02268936894
:103C90009907EAD4FDF74AF9801B8542DDD86B1CF1
:103CA000DBD0D3E7A36B1B781373E38FA26B013BCD
:103CB00001329BB2A263E387CFE7E28F92B2012A7F
:103CC00016D937F8022BDA60E38FA763023B9BB269
:103CD000E387C2E737F8022BDA60E38FA763013B83
:103CE0009BB2E3877FE71A6842F480421A6069E773
:103CF0003A781A73D9E700BF30B490F85C40012CD1
:103D000002D1022030BC704730BCFFF76BBD00BF52
:103D100083682DE9F04104460D461BB94668B6F5A7
:103D2000827F10D094F85C10012913D0012094F800
:103D30005D10814284F85C000FD00220002384F8DB
:103D40005C30BDE8F08190F85C300426012B80F8EF
:103D50005D6047D10220BDE8F081002D40D0B2FA6D
:103D600082F1490900293BD10420B3F5004FE164F9
:103D700084F85D0021652166A187A4F846202564AA
:103D8000E187A4F84420216836D04B68E26823F428
:103D90000053A66DB2F5E06F4B604B6828D8B2694E
:103DA00043F48053B2F5005F4B603BD02D4B0027AE
:103DB0002D482A46F3630C31B4F846302B4D30645D
:103DC0009BB23046F5643765FDF72AFCC8B1236E17
:103DD000012243F010031046236684F85D20ADE70E
:103DE0000120ABE713460A46BDE8F041FFF7DCBA15
:103DF00023F480534B60D9E70B6823F480430B60B6
:103E0000C3E723681A68520603D41A6842F04002D6
:103E10001A605A6842F020025A605A6842F0010261
:103E20005A608BE74B6823F480534B60B4F84630FC
:103E300013F0010F4B6809D123F400534B60B4F821
:103E40004630C3F34E03A4F84630AFE743F40053C3
:103E50004B60B4F84630C3F34E030133A4F8463048
:103E6000A4E700BF3D400008F93F000819400008E2
:103E70005B4B642102681B6830B55A4D044685B01F
:103E8000A5FB03035B0A01FB03F30193019B009372
:103E9000536823F02003536053681D0612D5524B1C
:103EA000236506E0009B013B009394F85D30072BEF
:103EB00006D0009B002BF5D1236E43F04003236610
:103EC000019B00935368580612D5484BE36406E003
:103ED000009B013B009394F85D30072B06D0009BBC
:103EE000002BF5D1236E43F040032366019B009322
:103EF000536899072BD5636D4BB3002218461A659A
:103F0000FDF7D2FB08B1402323662268536823F0F3
:103F100002035360FDF70AF8642102462046FFF7CA
:103F2000CFFB08B1402323662268136823F04003C7
:103F30001360FCF7FBFF642203464FF4C061204688
:103F4000FFF726FB002847D04023226823665368EA
:103F5000DB0729D5A36D3BB3002218461A65FDF790
:103F6000A3FB08B1402323662268136823F04003B3
:103F70001360FCF7DBFF642102462046FFF7F0FAEE
:103F800008B140232366FCF7D1FF642203464FF4B7
:103F9000C0612046FFF7FCFA08B14023236622687F
:103FA000536823F0010353600020A4F84600E08723
:103FB000236E402B12D02066002301210293D56886
:103FC000029595680295029D039393680393039B62
:103FD00084F85D1005B030BD2268B8E70120EBE73A
:103FE000FC000020F119760505370008C9350008E6
:103FF000704700BF704700BF08B5806BFFF7FAFF3E
:1040000008BD00BF704700BF08B5806BFFF7FAFF1F
:1040100008BD00BF704700BF836B196818464A6827
:1040200022F0030210B54A6001241A6E42F0100219
:104030001A6683F85D40FFF7EDFF10BD38B5054601
:10404000846BFCF773FF2B681B68DB0518D42368AF
:104050000246642120465D6825F020055D605D68AC
:1040600025F003055D60FFF7F3FA08B1202323660E
:1040700001230022A4F8462084F85D30236E1BB98A
:10408000204604F0CFFB38BD2046FFF7C3FF38BD04
:1040900038B50546846BFCF749FF2B681B68DB05C8
:1040A0001CD425680246642120466B6823F0200357
:1040B0006B60FFF705FB18B1236E43F02003236606
:1040C0002168002201204B6823F003034B60E28744
:1040D000A4F8462084F85D00236E1BB92046FFF744
:1040E00087FF38BD2046FFF795FF38BD026851684D
:1040F000936830B503F0410585B00446012D5CD0CE
:104100009D0754D413F4B07F4FD08D064DD558067B
:104110000ED594F85D0003285DD0206E002540F098
:10412000040020660095D068009090680090009888
:104130009D060CD5206E002540F0010020660295FA
:1041400090680290106820F0400010600298D80536
:1041500008D5236E002043F008032366039093687C
:104160000393039B236E03B35368012023F0E00302
:1041700053608B0784F85D0024D05368A16D23F051
:104180000303536029B1184B08460B65FDF7D4FAB9
:10419000E0B9636D4BB1144A18461A65FDF7CCFAC5
:1041A00018B1236E43F04003236605B030BD080606
:1041B000A8D5236D20469847F7E74D06A0D5C36CD8
:1041C0009847F2E72046FFF725FFEEE7236E43F01E
:1041D00040032366DDE700230193D36801939368CE
:1041E0000193019BE1E700BFED41000808B5002203
:1041F000836BA3F846201846DA87FFF70BFF08BD4C
:1042000090F83C20012A32D0034602201A6870B48C
:1042100083F83D000125966808684D4C402883F8D6
:104220003C5004EA060494603DD054D9602872D012
:104230001FD970285ED0B0F5005F0FD188684D6837
:10424000CC6840EA0501906841EA042120F47F40EF
:1042500001439160916841F4804191600022012105
:10426000104683F83D1083F83C2070BC7047022054
:1042700070475028F2D1156A146A486825F00A057B
:1042800024F00104CE6828431462916921F0F00102
:1042900041EA061191611062916821F0700141F0CC
:1042A00057019160DAE7156A146A486825F00A0533
:1042B00024F00104CE6828431462916921F0F001D2
:1042C00041EA061191611062916821F0700141F09C
:1042D00047019160C2E7102804D035D9202801D0C9
:1042E0003028BBD1916840F0070021F070010843ED
:1042F0009060B3E788684D68CC6840EA0501906833
:1043000041EA042120F47F4001439160916841F02B
:1043100077019160A2E7146A4D6824F01004CE681A
:1043200014629069116A20F4704021F0A00140EA03
:10433000063041EA051190611162916821F0700127
:1043400041F06701916089E70028CBD086E700BF84
:104350008800FEFFF0B4384EB0F1804F0368A0EB48
:104360000606B6FA86F64FEA561629D046BB334AF9
:10437000904247D002F58062904243D002F58062BD
:104380002F4DA84218BF90420CBF0127002743D0F1
:104390002C4A90421DD002F58062904219D002F55D
:1043A0008062904215D0A2F59832904211D002F569
:1043B000806290420DD002F5806290420DD108E0FB
:1043C0001F4F23F070034D68C71B2B43B7FA87F7C5
:1043D0007F0923F44073CC6823434A6923F08003A8
:1043E0008C6813430A680360C462826226B91FB9ED
:1043F0000123F0BC436170470B6903630123F0BCE8
:10440000436170470E4F23F070034A68C71B134384
:10441000B7FA87F77F09DCE7471B23F070034C6886
:104420009042B7FA87F743EA04034FEA5717D0D010
:10443000002FCED1ACE700BF0000014000040040D7
:104440000004014000400140B8B190F83D3010B583
:1044500003F0FF0204465BB102232068211D84F8AB
:104460003D30FFF777FF0123002084F83D3010BD79
:1044700080F83C2004F060F9EEE70120704700BFAF
:1044800090F83C30012B4CD00368274AF0B5274EFA
:1044900002250124934218BFB34280F83D5080F8B2
:1044A0003C4008BF01265C6818BF00269D682DD0DF
:1044B0001F4A24F070040F68934218BFB3F1804F75
:1044C000DFF878E044EA07041A4F0CBF012200220B
:1044D0005C60734508BF42F00102174CBB4208BF45
:1044E00042F0010207F59A37BB4208BF42F00102D1
:1044F000A34208BF42F001026AB966B90022012353
:1045000080F83C2080F83D301046F0BD24F4700463
:104510004A681443CCE78A6825F0800515439D60FE
:10452000ECE70223184670470004014000000140F8
:1045300000040040000C004000180040000800404B
:10454000F8B50446B74EB848A368226961691A43B2
:104550002368E5690A431968E768834206EA0106A9
:1045600042EA0502A16942EA0602266A1A6041EAA5
:104570000602596821F4405141EA070159609968DF
:1045800021F4306142EA01029A6056D0A74A934270
:1045900000F0E480A64A934200F09E80A54A934230
:1045A00027D0A54A93420ED0A44A934266D0A44A8B
:1045B00093427CD0A34A934200F020810023012043
:1045C00023666366F8BDA04BD3F8903003F44073C4
:1045D000B3F5807F73D015D9B3F5007F00F08780E5
:1045E000B3F5407F00F0C780B5F5004FE6D010234B
:1045F0002DE0954BD3F8903003F0C003402B5ED0F4
:1046000000F2B480002BEFD1B5F5004F00F0E4804C
:10461000FEF72EFC626800EB5203B3FBF2F39BB291
:10462000A3F110014FF6EF729142C7D82268002023
:10463000D360002323666366F8BD834B834AD3F8B7
:10464000903003F00303D35CB5F5004F6ED0082B18
:10465000B4D801A252F823F0114600089D46000884
:10466000F5460008BD450008C7460008BD450008DE
:10467000BD450008BD45000805470008724BD3F84A
:10468000903003F44063B3F5806F18D000F29A8045
:10469000002B46D1B5F5004F00F08A80FEF7F8FBFD
:1046A000626800EB5203B3FBF2F39BB2B8E7664BD0
:1046B000D3F8903003F44053B3F5805F2AD1B5F5B9
:1046C000004F00F08C80FEF7F9FA626800EB5203AD
:1046D000B3FBF2F39BB2A3E75B4BD3F8903003F04C
:1046E0003003102BEBD040F28580202B71D1B5F533
:1046F000004F77D06268564B03EB5203B3FBF2F3E3
:104700009BB28DE76268530803F50043B3FBF2F3F5
:104710009BB285E76ED9B3F5005FE8D0B3F5405F93
:1047200029D0B5F5004F7FF449AF1023082B3FF691
:1047300045AF01A252F823F0D9470008B14700085D
:10474000E5470008BD450008DF470008BD450008F3
:10475000BD450008BD4500087D4700083A4B3D4A6D
:10476000D3F8903003F00C03D35C6DE7802BBED000
:10477000C02B7FF439AFB5F5004FC3D16268530841
:1047800003F58033B3FBF2F39BB2A3F110014FF6B4
:10479000EF7291423FF612AF23F00F02C3F34203D0
:1047A000216800201343CB60002323666366F8BDB5
:1047B000FEF76EFB6268530803EB4003B3FBF2F3B2
:1047C0009BB2E2E7B3F5006F91D0B3F5406FD2D062
:1047D000A7E7302BCFD0A4E7FEF74AFBEAE7FEF7C6
:1047E0006DFAE7E762681C4B03EB5203B3FBF2F38D
:1047F0009BB2CAE7002B3FF407AF92E7124BD3F806
:10480000903003F44043B3F5804F3FF458AF7FF648
:10481000F9AEB3F5004F3FF46AAFB3F5404FAAD0FD
:10482000E2E600BFF369FFEF0010014000440040E2
:1048300000480040004C004000500040001401407F
:1048400000780040007C004000380240109E0008C4
:104850000024F400149E00080048E801436ADA07C7
:1048600010B406D50168846A4A6822F400322243F3
:104870004A609C0706D50168C46A4A6822F48032FF
:1048800022434A60590706D50168046B4A6822F43E
:10489000802222434A601A0706D50168446B4A68A1
:1048A00022F4004222434A60DC0606D50168846B8C
:1048B0008A6822F4805222438A60990606D50168EC
:1048C000C46B8A6822F4005222438A605A060AD5D1
:1048D0000168046C4A68B4F5801F22F4801242EA31
:1048E00004024A600BD01B0606D50268816C53682F
:1048F00023F400230B4353605DF8044B70474A6870
:10490000446C22F4C00222434A60ECE72DE9F843EC
:10491000089D80460F4616469946046801E0681CCB
:104920000AD1E06937EA00030CBF01200020B04241
:10493000F5D00020BDE8F883FCF7F8FAA0EB0900F9
:10494000B5FA85F285424FEA52121FD3F2B9D8F870
:10495000004023685907E4D5E3691B05E1D54FF40E
:104960000061202303202162216821F4D07121609D
:10497000A16821F00101A160C8F8743088F87020A6
:10498000C8F87830C8F87C30BDE8F883D8F8003033
:104990002021002403201A6822F4D0721A609A6839
:1049A00022F001029A60C8F8741088F87040C8F8C4
:1049B0007810BDE8F88300BF2DE9F0411E46436F33
:1049C00084B0202B03D0022004B0BDE8F0810D4656
:1049D000002943D0B2FA82F77F09002F3ED190F828
:1049E00070300446012BEED021230121C76780F8E7
:1049F000701043670392FCF799FAA3688046039A04
:104A0000B3F5805FA4F85020A4F8522036D0B4F853
:104A1000523000229BB284F8702073B922E02368E0
:104A200015F8012B9A62B4F85230013B9BB2A4F8FE
:104A30005230B4F852309BB2A3B1009643460022E4
:104A400080212046FFF762FF50B9002DE7D137F8EB
:104A5000023B2268C3F308039362E4E70120B3E753
:104A60000320B1E700964346002240212046FFF78D
:104A70004DFF0028F4D120236367A5E72369002BAD
:104A8000C5D12F461D46C2E770B50025044682B049
:104A9000C567FCF74BFA22681268130708D4002395
:104AA00020221846626784F87030A26702B070BD99
:104AB0006FF07E4603462A464FF4001100962046CA
:104AC000FFF724FF0028EAD0032002B070BD00BF2A
:104AD00070B3436F10B50446FBB12268242320460F
:104AE0006367136823F001031360FFF729FD0128B2
:104AF00018D0636AC3B9236820465A6822F49042EA
:104B00005A609A6822F02A029A601A6842F00102FA
:104B1000BDE810401A60FFF7B7BF80F8703003F0AF
:104B200021FEDAE7012010BD2046FFF797FEE2E7FD
:104B3000012070470B4B01E0013B10D00269002AB5
:104B4000FADA0369074A43F00103036101E0013A1D
:104B500005D0036913F00103F9D11846704703200B
:104B6000704700BF400D030084B0F8B50C9E07AD40
:104B7000139F0446012E85E80E001AD0032E2FD075
:104B8000C36843F04003C360FFF7D4FFA36B43F453
:104B90008033A3630A9B012B07D1A36843F006036C
:104BA000A360A36843F02003A360BDE8F84004B00D
:104BB0007047826B012F264B22F480328263C268D9
:104BC00003EA0203C360C36843F01003C360C36811
:104BD00023F44013C36034D02046FFF7ABFFD9E77E
:104BE000816B1B4821F480311A4A1B4BA16311468B
:104BF000E5682840E060E06820F44010E060E0688C
:104C000020F01000E060A06B40F40000A063906909
:104C100040F00400906101E0013B17D08A699207DF
:104C2000FAD50A2240F6137302200A60CA681343B9
:104C3000CB600B6843F001030B60FCF77DF9012F9B
:104C4000CAD1E36843F48013E360C5E70120ACE711
:104C5000BFFFBDFF007C0140410D0300022A034657
:104C600010B40CD04FF41054D968002021F47051C6
:104C7000D960DA6822435DF8044BDA607047294A4C
:104C800029480A4482423AD9284A29480A44824299
:104C900032D9284A28480A44824233D9274A00F5A3
:104CA000C3300A44A030824232D9254A25480A44FA
:104CB00082422AD9244A00F592200A4400F57870ED
:104CC000824228D9214A00F5C3200A4400F5207009
:104CD0008242C7D91E4A00F5B7100A4400F5587041
:104CE00082421BD91B4A1C4C0A44A2428CBF4FF47F
:104CF000C0544FF4E054B7E74FF46054B4E74FF4B6
:104D00007054B1E74FF45054AEE74FF43054ABE772
:104D10004FF44054A8E74FF42054A5E74FF4005453
:104D2000A2E700BF405327FFFF340C00401E1BFFCB
:104D30003F420F0000DC0BFF7F4F1200808CF9FE1A
:104D400060B6E5FE5FE3160000D3CEFEC05BB3FEA7
:104D500000CA91FEE05459FEDF9C4100024600204B
:104D6000936843F001039360704700BF0246002040
:104D7000936823F001039360704700BF08B5C368D0
:104D8000012923F0C043C3600BD041B9C36843F08D
:104D90008043C3603220FCF7CFF8002008BD01201B
:104DA00008BDC36843F00053C3603220FCF7C4F869
:104DB000002008BD84B02DE9F047002409ADDDF8DE
:104DC00038E00E46274685E80E00DDF84CA00B9A29
:104DD00004F14003013400EB83030F2C5F60F7D133
:104DE000BAF1000F40F0938000F500677B6843F054
:104DF00002037B60836B23F400138363036843F037
:104E000040030360036843F0800303600023BEF1A6
:104E1000010FC0F8003E3B683B603B687ED0BEF1AE
:104E2000030F7BD043F003033B604FF48463444A99
:104E3000036101E0013A7AD0036913F02003F9D14C
:104E40009E4610213E4A016101E0013A6CD00169A1
:104E5000CB06FAD4002139617961F961C6B100F558
:104E600010624FF090484FF000690D464FF67F33C7
:104E700006E015600131156193602032B1422CD0FB
:104E80001468002CF5DA002957D0C2F80080F1E749
:104E90003A6900266FF080440C9922F480723A61DE
:104EA0008661446119B9826942F0100282618469A5
:104EB000244A0F992243826119B1826942F00802A3
:104EC0008261BAF1010F03D181691F4A0A438261ED
:104ED0007046BDE8F04704B07047002400F530622A
:104EE0004FF090484FF0006923464FF67F3C07E0B3
:104EF000136001341361C2F808C02032A142C7D048
:104F00001668002EF4DAACB1C2F80080F1E7836BCA
:104F100000F5006743F40013836377E7002A83D02A
:104F200043F001033B6080E74FF0010E92E74FF042
:104F3000010E86E7C2F80090DBE7C2F8009099E71F
:104F4000400D030000383C80040000408901074AFE
:104F500041F02001016101E0013A05D0036913F03D
:104F60002003F9D11846704703207047400D030015
:104F70001023064A036101E0013A05D0036913F0EA
:104F80001003F9D11846704703207047400D030005
:104F9000D0F8083813F0060004D013F0020F14BF45
:104FA00002200F20704700BFF0B44A780C78012A25
:104FB0001FD000F5006204F00F054FF4803300EBC2
:104FC0004410D469AB402343D361D0F8003B1B04A9
:104FD0000CD48A68174BC2F30A02CC78D0F8001BB5
:104FE000134343EA84430B43C0F8003B0020F0BC6A
:104FF000704704F00F05D0F81C7800F5006600EB50
:105000004413AA403A43F261D3F800291204EDD4C4
:105010008A680848C2F30A02CD78D3F80019104311
:1050200040EA854040EA84500843F0BCC3F80009D8
:10503000002070470080001010B44A780B78012AD5
:105040001FD000EB4311D1F8002B002A45DB03F001
:105050000F024FF48033274C9340D0F83C28DB43B9
:105060001A40C0F83C28D0F81C281340C0F81C385F
:105070000020D1F8003B1C40C1F8004B5DF8044B08
:10508000704700EB4314D4F80029002A18DB03F022
:105090000F010123184A8B40D0F83C18DB4319401C
:1050A000C0F83C18D0F81C180B40C0F81C38002081
:1050B000D4F800391A40C4F800295DF8044B704751
:1050C000D4F8002942F00062C4F80029D4F800297D
:1050D00042F08042C4F80029D9E7D1F8002B42F011
:1050E0000062C1F8002BD1F8002B42F08042C1F8D9
:1050F000002BACE70078F3EF007833EC2DE9F043B8
:105100004D780C78012D57D000EB4414834F4D6936
:1051100004F53063D3F810E0814E0EEA07071F61F3
:105120001F693E401E612DB38E68012A7D4F3544B4
:10513000D3F810E005F1FF35B5FBF6F51FFA85FC55
:1051400007EAC54506FB0CF645EA0E05C6F312064E
:105150001D611D6946EA05061E6118D0CB78012B3A
:105160001CD0D4F8003B43F00443C4F8003B0020BB
:10517000BDE8F0838D68012A1E69C5F3120545EA72
:1051800006051D611D6945F400251D61E6D1CA684B
:10519000002AE3D05A61CB78012BE2D1D0F808384D
:1051A00013F4807FD4F8003B0CBF43F0005343F06E
:1051B0008053C4F8003BD4E74E6900EB4414002E42
:1051C0003FD004F51063D1F808C0D3F81080C6F3BF
:1051D000120706EB0C0EDFF844910EF1FF3E08EAD1
:1051E0000909DFF83C81C3F81090D3F81090BEFB9A
:1051F000FCFC09EA0808DFF82CE1C3F810800EEA8D
:10520000CC4ED3F810C04EEA0C0EC3F810E0D3F821
:1052100010E047EA0E071F61CF78012F59D0012A0D
:1052200077D0D4F8003943F00443C4F800390B7840
:10523000D0F8342803F00F039D401543C0F83458CC
:1052400095E704F51063364FD3F810E0012A334D8B
:105250000EEA07071F611F6947F400271F611F69D6
:1052600005EA07051D61CF7829D0D4F80059012F30
:1052700045F00445C4F800597FF479AFD0F80848E8
:1052800014F4807F1C680CBF44F0005444F0805438
:105290001C60002A7FF46BAFB6B20336B6083FF449
:1052A00066AF0A78CB6800EB023003EB860100F5AD
:1052B000805053F8042B8B420260FAD157E70A69F9
:1052C00002B15A61012F18D01A6842F004421A60E4
:1052D0004DE71D69012A25F0C0451D611D6945F096
:1052E00000551D6106D0D4F8005945F00445C4F8B6
:1052F0000059C3E70A69002AE3D1D0F8082812F45C
:10530000807F1A680CBF42F0005242F080521A604F
:10531000DAE70A69002AD7D0D3E700BF0000F8FF18
:10532000FFFF07E00000F81FF0B54C780B78012C68
:1053300024D000EB43103A4D4E6900F530631F69ED
:10534000384C3D401D611D692C401C618C689EB924
:105350001D69C4F31204012A45F400251D611D696D
:1053600044EA05041C613ED0D0F8002B42F0044210
:10537000C0F8002B0020F0BD4C61E9E74C6900EB60
:105380004313002C34D003F51063254ED3F810E0FE
:105390008F680EEA0606234DBC421E611E6905EAAF
:1053A00006051D6101D93C464F611D69C4F3120415
:1053B00045F400251D611D692C431C61012A27D07D
:1053C0001A684C6942F004421A60002CD2D0097865
:1053D0000122D0F8343801F00F018A401A43C0F896
:1053E00034280020F0BDCA68002ABDD05A61BBE74E
:1053F00003F510630B4D1E69A4F5002435401D61B3
:105400001D6945F400251D611D692C401C61D5E70F
:105410000A6902B15A611A6842F004421A60A9E7A7
:105420000000F8FFFFFF07E010B49DF8044074B9D6
:1054300003339C080BD000EB02300B4601EB8401D8
:1054400000F5805053F8042B8B420260FAD1002003
:105450005DF8044B704700BF033292080DD001EB9A
:10546000820210B400F580540846236840F8043BDB
:105470009042FAD15DF8044B70470846704700BF70
:105480004A780B78012A00EB431012D0D0F8002B99
:10549000002A06DB2BB1D0F8003B23F08043C0F894
:1054A000003BD0F8003B43F40013C0F8003B002061
:1054B0007047D0F80029002A06DB2BB1D0F800395C
:1054C00023F08043C0F80039D0F8003943F40013CA
:1054D000C0F80039002070474A780B78012A00EBA9
:1054E000431013D0D0F8003B23F40013C0F8003B66
:1054F000CB78023B012B01D900207047D0F8003B4C
:1055000043F08053C0F8003B00207047D0F80039CA
:1055100023F40013C0F80039CB78023B012BEBD801
:10552000D0F8003943F08053C0F80039E4E700BFF9
:10553000034609010020D3F8002801F4FE6122F49B
:10554000FE62C3F80028D3F800281143C3F80018FE
:10555000704700BF00F50062032008B5536823F0D0
:1055600002035360FBF7E8FC002008BD00F5006271
:10557000032008B5536843F002035360FBF7DCFCDB
:10558000002008BD4269806910407047D0F8183883
:1055900000F50060C0691840000C7047D0F818385A
:1055A00000F50060C069184080B2704700EB4111FF
:1055B00000F50060D1F8082B40691040704700BF2B
:1055C00000F5006200EB411010B401F00F04116906
:1055D000536B00F51060E34080685DF8044BDB011D
:1055E000DBB20B4318407047406900F00100704780
:1055F0000346094A002003F5006110B4D3F80049BE
:1056000022405DF8044BC3F80029D3F8043843F472
:1056100080734B60704700BF00F8FFFF10B4134B5E
:10562000046C9C421AD800F5306000230129036104
:10563000036943F400230361036943F01803036122
:10564000036943F0C043036104D14261036843F03E
:105650008023036000205DF8044B7047D0F8003BC6
:1056600000F53060002BE0DAF4E700BF0A30544F59
:1056700001466422024808B503F01CFC08BD00BFC7
:105680007802002038B560240D46014604482246C1
:1056900003F010FC22462946024803F00BFC38BDFB
:1056A000DC020020180200200148FEF7E1BB00BF29
:1056B0007802002010B5032829D8DFE800F01C1676
:1056C0000F02134C2046FEF725FA02220123204642
:1056D00022616361BDE81040FEF7BAB90C4C204668
:1056E000FEF718FA02220023F1E7094C2046FEF7E4
:1056F00011FA0022EAE7064C2046FEF70BFA0023D7
:10570000204623616361BDE81040FEF7A1B910BDDA
:10571000780200200B4B186920B102280BD15B697D
:105720005BB9704758690028FBD0A0F10100B0FABE
:1057300080F04009704700207047012B14BF002003
:1057400003207047780200200D4991F85D2032B1A6
:10575000CB69082B05D0102B0DD0182B06D00020BC
:105760007047002814BF182001207047002814BF7C
:10577000062003207047002814BF0C200220704729
:10578000780200202DE9F043194887B0194DFEF743
:10579000C1F9002430234FF002094FF00308164FDF
:1057A000202601A92846019303940594CDF808907A
:1057B000CDF81080FCF7A4F801A93846CDF8089080
:1057C0000394CDF810800196FCF79AF822463146F2
:1057D0003846FCF74DFA224631462846FCF748FA8F
:1057E000224628461021FCF743FA07B0BDE8F083B3
:1057F00078020020000402400000024010B5032897
:105800002BD8DFE800F023180D02144C2046FEF7D9
:1058100081F918232046E361BDE81040FEF718B96E
:105820000E4C2046FEF776F910232046E361BDE8D2
:105830001040FEF70DB9094C2046FEF76BF908231E
:105840002046E361BDE81040FEF702B9FFF79AFF7A
:105850000020BDE8104000F003B810BD7802002021
:10586000024602210148FCF703BA00BF00000240D3
:1058700030B5044683B000200D46FFF765FF08B938
:1058800003B030BD04F07F040022022109488DF8E6
:1058900004408DF80550FCF7EBF90A2301A9022218
:1058A0000548FEF74FF9012202210248FCF7E0F912
:1058B00003B030BD000002407802002030B504463D
:1058C00085B000200D46FFF73FFF08B905B030BD99
:1058D00064F07F04002202210B488DF80840FCF799
:1058E000C7F90A20032303AA02A900900748FEF77C
:1058F00003FA012202210448FCF7BAF99DF80E30A0
:105900002B7005B030BD00BF0000024078020020BF
:1059100010F0020370B51E4D33D00121297010F034
:1059200004031C4C1C4E18BF012310F00800237008
:1059300025D001233370194803F08AFB21781848D9
:1059400003F086FB3178174803F082FB2A789AB17E
:10595000E6210E462378B824134D14482E80048087
:105960000BB18AB904231D46114CB8221148257089
:10597000BDE8704003F06CBBB8210E46EAE730701A
:10598000D9E719462B70CAE705231D46ECE700BF8F
:10599000030200200102002002020020A89E00084D
:1059A000B89E0008949E00080C000020080000200B
:1059B00000020020CC9E000808B5FFF775FE00210C
:1059C0007320BDE80840FFF753BF00BF30B5054660
:1059D00085B000200C46FFF7B7FE08B905B030BD12
:1059E0000021F32308468DF80830FFF741FF00221D
:1059F00002210948FCF73CF90A21022303AA00917D
:105A000002A90648FEF778F92946A2B20348FEF734
:105A10007FF905B030BD00BF0000024078020020D1
:105A200030B5054685B000200C46FFF78DFE08B95D
:105A300005B030BDFFF738FE0021F32308468DF88E
:105A40000830FFF715FF002202210948FCF710F982
:105A50000A21022303AA009102A90648FEF74CF985
:105A60002946A2B20348FEF753F905B030BD00BF86
:105A70000000024078020020F8B583B2DFF858C079
:105A80008FB2DFF858E0104C0A4603FB07F50F4EC3
:105A9000ACF8003001462B460D48AEF8007025806A
:105AA00003F0D6FA0B4D306803F0FCF90121208891
:105AB00003F0BEF93060286803F0F4F92088012172
:105AC00003F0B6F92860F8BD0A0000208403002026
:105AD000249E0008100400200C0000200800002074
